{
  "_format": "hh-sol-artifact-1",
  "contractName": "ERC1155_pausable",
  "sourceName": "contracts/__generated__/ERC1155_pausable.sol",
  "abi": [
    {
      "inputs": [
        {
          "internalType": "string",
          "name": "uri_",
          "type": "string"
        }
      ],
      "stateMutability": "nonpayable",
      "type": "constructor"
    },
    {
      "inputs": [],
      "name": "AccessControlBadConfirmation",
      "type": "error"
    },
    {
      "inputs": [
        {
          "internalType": "address",
          "name": "account",
          "type": "address"
        },
        {
          "internalType": "bytes32",
          "name": "neededRole",
          "type": "bytes32"
        }
      ],
      "name": "AccessControlUnauthorizedAccount",
      "type": "error"
    },
    {
      "inputs": [
        {
          "internalType": "address",
          "name": "sender",
          "type": "address"
        },
        {
          "internalType": "uint256",
          "name": "balance",
          "type": "uint256"
        },
        {
          "internalType": "uint256",
          "name": "needed",
          "type": "uint256"
        },
        {
          "internalType": "uint256",
          "name": "tokenId",
          "type": "uint256"
        }
      ],
      "name": "ERC1155InsufficientBalance",
      "type": "error"
    },
    {
      "inputs": [
        {
          "internalType": "address",
          "name": "approver",
          "type": "address"
        }
      ],
      "name": "ERC1155InvalidApprover",
      "type": "error"
    },
    {
      "inputs": [
        {
          "internalType": "uint256",
          "name": "idsLength",
          "type": "uint256"
        },
        {
          "internalType": "uint256",
          "name": "valuesLength",
          "type": "uint256"
        }
      ],
      "name": "ERC1155InvalidArrayLength",
      "type": "error"
    },
    {
      "inputs": [
        {
          "internalType": "address",
          "name": "operator",
          "type": "address"
        }
      ],
      "name": "ERC1155InvalidOperator",
      "type": "error"
    },
    {
      "inputs": [
        {
          "internalType": "address",
          "name": "receiver",
          "type": "address"
        }
      ],
      "name": "ERC1155InvalidReceiver",
      "type": "error"
    },
    {
      "inputs": [
        {
          "internalType": "address",
          "name": "sender",
          "type": "address"
        }
      ],
      "name": "ERC1155InvalidSender",
      "type": "error"
    },
    {
      "inputs": [
        {
          "internalType": "address",
          "name": "operator",
          "type": "address"
        },
        {
          "internalType": "address",
          "name": "owner",
          "type": "address"
        }
      ],
      "name": "ERC1155MissingApprovalForAll",
      "type": "error"
    },
    {
      "inputs": [],
      "name": "EnforcedPause",
      "type": "error"
    },
    {
      "inputs": [],
      "name": "ExpectedPause",
      "type": "error"
    },
    {
      "anonymous": false,
      "inputs": [
        {
          "indexed": true,
          "internalType": "address",
          "name": "account",
          "type": "address"
        },
        {
          "indexed": true,
          "internalType": "address",
          "name": "operator",
          "type": "address"
        },
        {
          "indexed": false,
          "internalType": "bool",
          "name": "approved",
          "type": "bool"
        }
      ],
      "name": "ApprovalForAll",
      "type": "event"
    },
    {
      "anonymous": false,
      "inputs": [
        {
          "indexed": false,
          "internalType": "address",
          "name": "account",
          "type": "address"
        }
      ],
      "name": "Paused",
      "type": "event"
    },
    {
      "anonymous": false,
      "inputs": [
        {
          "indexed": true,
          "internalType": "bytes32",
          "name": "role",
          "type": "bytes32"
        },
        {
          "indexed": true,
          "internalType": "bytes32",
          "name": "previousAdminRole",
          "type": "bytes32"
        },
        {
          "indexed": true,
          "internalType": "bytes32",
          "name": "newAdminRole",
          "type": "bytes32"
        }
      ],
      "name": "RoleAdminChanged",
      "type": "event"
    },
    {
      "anonymous": false,
      "inputs": [
        {
          "indexed": true,
          "internalType": "bytes32",
          "name": "role",
          "type": "bytes32"
        },
        {
          "indexed": true,
          "internalType": "address",
          "name": "account",
          "type": "address"
        },
        {
          "indexed": true,
          "internalType": "address",
          "name": "sender",
          "type": "address"
        }
      ],
      "name": "RoleGranted",
      "type": "event"
    },
    {
      "anonymous": false,
      "inputs": [
        {
          "indexed": true,
          "internalType": "bytes32",
          "name": "role",
          "type": "bytes32"
        },
        {
          "indexed": true,
          "internalType": "address",
          "name": "account",
          "type": "address"
        },
        {
          "indexed": true,
          "internalType": "address",
          "name": "sender",
          "type": "address"
        }
      ],
      "name": "RoleRevoked",
      "type": "event"
    },
    {
      "anonymous": false,
      "inputs": [
        {
          "indexed": true,
          "internalType": "address",
          "name": "operator",
          "type": "address"
        },
        {
          "indexed": true,
          "internalType": "address",
          "name": "from",
          "type": "address"
        },
        {
          "indexed": true,
          "internalType": "address",
          "name": "to",
          "type": "address"
        },
        {
          "indexed": false,
          "internalType": "uint256[]",
          "name": "ids",
          "type": "uint256[]"
        },
        {
          "indexed": false,
          "internalType": "uint256[]",
          "name": "values",
          "type": "uint256[]"
        }
      ],
      "name": "TransferBatch",
      "type": "event"
    },
    {
      "anonymous": false,
      "inputs": [
        {
          "indexed": true,
          "internalType": "address",
          "name": "operator",
          "type": "address"
        },
        {
          "indexed": true,
          "internalType": "address",
          "name": "from",
          "type": "address"
        },
        {
          "indexed": true,
          "internalType": "address",
          "name": "to",
          "type": "address"
        },
        {
          "indexed": false,
          "internalType": "uint256",
          "name": "id",
          "type": "uint256"
        },
        {
          "indexed": false,
          "internalType": "uint256",
          "name": "value",
          "type": "uint256"
        }
      ],
      "name": "TransferSingle",
      "type": "event"
    },
    {
      "anonymous": false,
      "inputs": [
        {
          "indexed": false,
          "internalType": "string",
          "name": "value",
          "type": "string"
        },
        {
          "indexed": true,
          "internalType": "uint256",
          "name": "id",
          "type": "uint256"
        }
      ],
      "name": "URI",
      "type": "event"
    },
    {
      "anonymous": false,
      "inputs": [
        {
          "indexed": false,
          "internalType": "address",
          "name": "account",
          "type": "address"
        }
      ],
      "name": "Unpaused",
      "type": "event"
    },
    {
      "inputs": [],
      "name": "DEFAULT_ADMIN_ROLE",
      "outputs": [
        {
          "internalType": "bytes32",
          "name": "",
          "type": "bytes32"
        }
      ],
      "stateMutability": "view",
      "type": "function"
    },
    {
      "inputs": [],
      "name": "PAUSER_ROLE",
      "outputs": [
        {
          "internalType": "bytes32",
          "name": "",
          "type": "bytes32"
        }
      ],
      "stateMutability": "view",
      "type": "function"
    },
    {
      "inputs": [
        {
          "internalType": "address",
          "name": "account",
          "type": "address"
        },
        {
          "internalType": "uint256",
          "name": "id",
          "type": "uint256"
        }
      ],
      "name": "balanceOf",
      "outputs": [
        {
          "internalType": "uint256",
          "name": "",
          "type": "uint256"
        }
      ],
      "stateMutability": "view",
      "type": "function"
    },
    {
      "inputs": [
        {
          "internalType": "address[]",
          "name": "accounts",
          "type": "address[]"
        },
        {
          "internalType": "uint256[]",
          "name": "ids",
          "type": "uint256[]"
        }
      ],
      "name": "balanceOfBatch",
      "outputs": [
        {
          "internalType": "uint256[]",
          "name": "",
          "type": "uint256[]"
        }
      ],
      "stateMutability": "view",
      "type": "function"
    },
    {
      "inputs": [
        {
          "internalType": "bytes32",
          "name": "role",
          "type": "bytes32"
        }
      ],
      "name": "getRoleAdmin",
      "outputs": [
        {
          "internalType": "bytes32",
          "name": "",
          "type": "bytes32"
        }
      ],
      "stateMutability": "view",
      "type": "function"
    },
    {
      "inputs": [
        {
          "internalType": "bytes32",
          "name": "role",
          "type": "bytes32"
        },
        {
          "internalType": "address",
          "name": "account",
          "type": "address"
        }
      ],
      "name": "grantRole",
      "outputs": [],
      "stateMutability": "nonpayable",
      "type": "function"
    },
    {
      "inputs": [
        {
          "internalType": "bytes32",
          "name": "role",
          "type": "bytes32"
        },
        {
          "internalType": "address",
          "name": "account",
          "type": "address"
        }
      ],
      "name": "hasRole",
      "outputs": [
        {
          "internalType": "bool",
          "name": "",
          "type": "bool"
        }
      ],
      "stateMutability": "view",
      "type": "function"
    },
    {
      "inputs": [
        {
          "internalType": "address",
          "name": "account",
          "type": "address"
        },
        {
          "internalType": "address",
          "name": "operator",
          "type": "address"
        }
      ],
      "name": "isApprovedForAll",
      "outputs": [
        {
          "internalType": "bool",
          "name": "",
          "type": "bool"
        }
      ],
      "stateMutability": "view",
      "type": "function"
    },
    {
      "inputs": [],
      "name": "pause",
      "outputs": [],
      "stateMutability": "nonpayable",
      "type": "function"
    },
    {
      "inputs": [],
      "name": "paused",
      "outputs": [
        {
          "internalType": "bool",
          "name": "",
          "type": "bool"
        }
      ],
      "stateMutability": "view",
      "type": "function"
    },
    {
      "inputs": [
        {
          "internalType": "bytes32",
          "name": "role",
          "type": "bytes32"
        },
        {
          "internalType": "address",
          "name": "callerConfirmation",
          "type": "address"
        }
      ],
      "name": "renounceRole",
      "outputs": [],
      "stateMutability": "nonpayable",
      "type": "function"
    },
    {
      "inputs": [
        {
          "internalType": "bytes32",
          "name": "role",
          "type": "bytes32"
        },
        {
          "internalType": "address",
          "name": "account",
          "type": "address"
        }
      ],
      "name": "revokeRole",
      "outputs": [],
      "stateMutability": "nonpayable",
      "type": "function"
    },
    {
      "inputs": [
        {
          "internalType": "address",
          "name": "from",
          "type": "address"
        },
        {
          "internalType": "address",
          "name": "to",
          "type": "address"
        },
        {
          "internalType": "uint256[]",
          "name": "ids",
          "type": "uint256[]"
        },
        {
          "internalType": "uint256[]",
          "name": "values",
          "type": "uint256[]"
        },
        {
          "internalType": "bytes",
          "name": "data",
          "type": "bytes"
        }
      ],
      "name": "safeBatchTransferFrom",
      "outputs": [],
      "stateMutability": "nonpayable",
      "type": "function"
    },
    {
      "inputs": [
        {
          "internalType": "address",
          "name": "from",
          "type": "address"
        },
        {
          "internalType": "address",
          "name": "to",
          "type": "address"
        },
        {
          "internalType": "uint256",
          "name": "id",
          "type": "uint256"
        },
        {
          "internalType": "uint256",
          "name": "value",
          "type": "uint256"
        },
        {
          "internalType": "bytes",
          "name": "data",
          "type": "bytes"
        }
      ],
      "name": "safeTransferFrom",
      "outputs": [],
      "stateMutability": "nonpayable",
      "type": "function"
    },
    {
      "inputs": [
        {
          "internalType": "address",
          "name": "operator",
          "type": "address"
        },
        {
          "internalType": "bool",
          "name": "approved",
          "type": "bool"
        }
      ],
      "name": "setApprovalForAll",
      "outputs": [],
      "stateMutability": "nonpayable",
      "type": "function"
    },
    {
      "inputs": [
        {
          "internalType": "bytes4",
          "name": "interfaceId",
          "type": "bytes4"
        }
      ],
      "name": "supportsInterface",
      "outputs": [
        {
          "internalType": "bool",
          "name": "",
          "type": "bool"
        }
      ],
      "stateMutability": "view",
      "type": "function"
    },
    {
      "inputs": [],
      "name": "unpause",
      "outputs": [],
      "stateMutability": "nonpayable",
      "type": "function"
    },
    {
      "inputs": [
        {
          "internalType": "uint256",
          "name": "",
          "type": "uint256"
        }
      ],
      "name": "uri",
      "outputs": [
        {
          "internalType": "string",
          "name": "",
          "type": "string"
        }
      ],
      "stateMutability": "view",
      "type": "function"
    }
  ],
  "bytecode": "0x60806040523480156200001157600080fd5b50604051620019fe380380620019fe833981016040819052620000349162000161565b8080620000418162000086565b506200004f60003362000098565b506200007e90507f65d7a28e3265b37a6474929f336521b332c1681b933f6cb9f3376673440d862a3362000098565b505062000391565b6002620000948282620002c5565b5050565b60008281526004602090815260408083206001600160a01b038516845290915281205460ff16620001415760008381526004602090815260408083206001600160a01b03861684529091529020805460ff19166001179055620000f83390565b6001600160a01b0316826001600160a01b0316847f2f8788117e7eff1d82e926ec794901d17c78024a50270940304540a733656f0d60405160405180910390a450600162000145565b5060005b92915050565b634e487b7160e01b600052604160045260246000fd5b600060208083850312156200017557600080fd5b82516001600160401b03808211156200018d57600080fd5b818501915085601f830112620001a257600080fd5b815181811115620001b757620001b76200014b565b604051601f8201601f19908116603f01168101908382118183101715620001e257620001e26200014b565b816040528281528886848701011115620001fb57600080fd5b600093505b828410156200021f578484018601518185018701529285019262000200565b600086848301015280965050505050505092915050565b600181811c908216806200024b57607f821691505b6020821081036200026c57634e487b7160e01b600052602260045260246000fd5b50919050565b601f821115620002c057600081815260208120601f850160051c810160208610156200029b5750805b601f850160051c820191505b81811015620002bc57828155600101620002a7565b5050505b505050565b81516001600160401b03811115620002e157620002e16200014b565b620002f981620002f2845462000236565b8462000272565b602080601f831160018114620003315760008415620003185750858301515b600019600386901b1c1916600185901b178555620002bc565b600085815260208120601f198616915b82811015620003625788860151825594840194600190910190840162000341565b5085821015620003815787850151600019600388901b60f8161c191681555b5050505050600190811b01905550565b61165d80620003a16000396000f3fe608060405234801561001057600080fd5b50600436106101155760003560e01c80635c975abb116100a2578063a22cb46511610071578063a22cb46514610237578063d547741f1461024a578063e63ab1e91461025d578063e985e9c514610284578063f242432a1461029757600080fd5b80635c975abb146102095780638456cb591461021457806391d148541461021c578063a217fddf1461022f57600080fd5b80632eb2c2d6116100e95780632eb2c2d6146101a65780632f2ff15d146101bb57806336568abe146101ce5780633f4ba83a146101e15780634e1273f4146101e957600080fd5b8062fdd58e1461011a57806301ffc9a7146101405780630e89341c14610163578063248a9ca314610183575b600080fd5b61012d610128366004610fe3565b6102aa565b6040519081526020015b60405180910390f35b61015361014e366004611023565b6102d2565b6040519015158152602001610137565b610176610171366004611040565b6102dd565b604051610137919061109f565b61012d610191366004611040565b60009081526004602052604090206001015490565b6101b96101b43660046111f8565b610371565b005b6101b96101c93660046112a2565b6103dd565b6101b96101dc3660046112a2565b610408565b6101b9610440565b6101fc6101f73660046112ce565b6104c0565b60405161013791906113c9565b60035460ff16610153565b6101b9610595565b61015361022a3660046112a2565b610613565b61012d600081565b6101b96102453660046113dc565b61063e565b6101b96102583660046112a2565b61064d565b61012d7f65d7a28e3265b37a6474929f336521b332c1681b933f6cb9f3376673440d862a81565b610153610292366004611418565b610672565b6101b96102a5366004611442565b6106a0565b6000818152602081815260408083206001600160a01b03861684529091529020545b92915050565b60006102cc826106ff565b6060600280546102ec906114a7565b80601f0160208091040260200160405190810160405280929190818152602001828054610318906114a7565b80156103655780601f1061033a57610100808354040283529160200191610365565b820191906000526020600020905b81548152906001019060200180831161034857829003601f168201915b50505050509050919050565b336001600160a01b038616811480159061039257506103908682610672565b155b156103c85760405163711bec9160e11b81526001600160a01b038083166004830152871660248201526044015b60405180910390fd5b6103d58686868686610724565b505050505050565b6000828152600460205260409020600101546103f88161078b565b6104028383610798565b50505050565b6001600160a01b03811633146104315760405163334bd91960e11b815260040160405180910390fd5b61043b828261082c565b505050565b61046a7f65d7a28e3265b37a6474929f336521b332c1681b933f6cb9f3376673440d862a33610899565b6104b65760405162461bcd60e51b815260206004820152601c60248201527f455243313135353a206d697373696e67205041555345525f524f4c450000000060448201526064016103bf565b6104be6108ac565b565b606081518351146104f15781518351604051635b05999160e01b8152600481019290925260248201526044016103bf565b6000835167ffffffffffffffff81111561050d5761050d6110b2565b604051908082528060200260200182016040528015610536578160200160208202803683370190505b50905060005b845181101561058d57602080820286010151610560906020808402870101516102aa565b828281518110610572576105726114e1565b60209081029190910101526105868161150d565b905061053c565b509392505050565b6105bf7f65d7a28e3265b37a6474929f336521b332c1681b933f6cb9f3376673440d862a33610899565b61060b5760405162461bcd60e51b815260206004820152601c60248201527f455243313135353a206d697373696e67205041555345525f524f4c450000000060448201526064016103bf565b6104be6108fe565b60009182526004602090815260408084206001600160a01b0393909316845291905290205460ff1690565b61064933838361093b565b5050565b6000828152600460205260409020600101546106688161078b565b610402838361082c565b6001600160a01b03918216600090815260016020908152604080832093909416825291909152205460ff1690565b336001600160a01b03861681148015906106c157506106bf8682610672565b155b156106f25760405163711bec9160e11b81526001600160a01b038083166004830152871660248201526044016103bf565b6103d586868686866109d1565b60006001600160e01b03198216637965db0b60e01b14806102cc57506102cc82610a5f565b6001600160a01b03841661074e57604051632bfa23e760e11b8152600060048201526024016103bf565b6001600160a01b03851661077757604051626a0d4560e21b8152600060048201526024016103bf565b6107848585858585610aaf565b5050505050565b6107958133610b02565b50565b60006107a48383610613565b6108245760008381526004602090815260408083206001600160a01b03861684529091529020805460ff191660011790556107dc3390565b6001600160a01b0316826001600160a01b0316847f2f8788117e7eff1d82e926ec794901d17c78024a50270940304540a733656f0d60405160405180910390a45060016102cc565b5060006102cc565b60006108388383610613565b156108245760008381526004602090815260408083206001600160a01b0386168085529252808320805460ff1916905551339286917ff6391f5c32d9c69d2a47ea670b442974b53935d1edc7fd64eb21e047a839171b9190a45060016102cc565b60006108a58383610613565b9392505050565b6108b4610b3b565b6003805460ff191690557f5db9ee0a495bf2e6ff9c91a7834c1ba4fdd244a5e8aa4e537bd38aeae4b073aa335b6040516001600160a01b03909116815260200160405180910390a1565b610906610b5e565b6003805460ff191660011790557f62e78cea01bee320cd4e420270b5ea74000d11b0c9f74754ebdbfc544b05a2586108e13390565b6001600160a01b0382166109645760405162ced3e160e81b8152600060048201526024016103bf565b6001600160a01b03838116600081815260016020908152604080832094871680845294825291829020805460ff191686151590811790915591519182527f17307eab39ab6107e8899845ad3d59bd9653f200f220920489ca2b5937696c31910160405180910390a3505050565b6001600160a01b0384166109fb57604051632bfa23e760e11b8152600060048201526024016103bf565b6001600160a01b038516610a2457604051626a0d4560e21b8152600060048201526024016103bf565b60408051600180825260208201869052818301908152606082018590526080820190925290610a568787848487610aaf565b50505050505050565b60006001600160e01b03198216636cdb3d1360e11b1480610a9057506001600160e01b031982166303a24d0760e21b145b806102cc57506301ffc9a760e01b6001600160e01b03198316146102cc565b610abb85858585610b82565b6001600160a01b038416156107845782513390600103610af45760208481015190840151610aed838989858589610b8e565b50506103d5565b6103d5818787878787610cb2565b610b0c8282610613565b6106495760405163e2517d3f60e01b81526001600160a01b0382166004820152602481018390526044016103bf565b60035460ff166104be57604051638dfc202b60e01b815260040160405180910390fd5b60035460ff16156104be5760405163d93c066560e01b815260040160405180910390fd5b61040284848484610d9b565b6001600160a01b0384163b156103d55760405163f23a6e6160e01b81526001600160a01b0385169063f23a6e6190610bd29089908990889088908890600401611526565b6020604051808303816000875af1925050508015610c0d575060408051601f3d908101601f19168201909252610c0a9181019061156b565b60015b610c76573d808015610c3b576040519150601f19603f3d011682016040523d82523d6000602084013e610c40565b606091505b508051600003610c6e57604051632bfa23e760e11b81526001600160a01b03861660048201526024016103bf565b805160208201fd5b6001600160e01b0319811663f23a6e6160e01b14610a5657604051632bfa23e760e11b81526001600160a01b03861660048201526024016103bf565b6001600160a01b0384163b156103d55760405163bc197c8160e01b81526001600160a01b0385169063bc197c8190610cf69089908990889088908890600401611588565b6020604051808303816000875af1925050508015610d31575060408051601f3d908101601f19168201909252610d2e9181019061156b565b60015b610d5f573d808015610c3b576040519150601f19603f3d011682016040523d82523d6000602084013e610c40565b6001600160e01b0319811663bc197c8160e01b14610a5657604051632bfa23e760e11b81526001600160a01b03861660048201526024016103bf565b610da3610b5e565b610402848484848051825114610dd95781518151604051635b05999160e01b8152600481019290925260248201526044016103bf565b3360005b8351811015610ee8576020818102858101820151908501909101516001600160a01b03881615610e90576000828152602081815260408083206001600160a01b038c16845290915290205481811015610e69576040516303dee4c560e01b81526001600160a01b038a1660048201526024810182905260448101839052606481018490526084016103bf565b6000838152602081815260408083206001600160a01b038d16845290915290209082900390555b6001600160a01b03871615610ed5576000828152602081815260408083206001600160a01b038b16845290915281208054839290610ecf9084906115e6565b90915550505b505080610ee19061150d565b9050610ddd565b508251600103610f695760208301516000906020840151909150856001600160a01b0316876001600160a01b0316846001600160a01b03167fc3d58168c5ae7397731d063d5bbf3d657854427343f4c083240f7aacaa2d0f628585604051610f5a929190918252602082015260400190565b60405180910390a45050610784565b836001600160a01b0316856001600160a01b0316826001600160a01b03167f4a39dc06d4c0dbc64b70af90fd698a233a518aa5d07e595d983b8c0526c8f7fb8686604051610fb89291906115f9565b60405180910390a45050505050565b80356001600160a01b0381168114610fde57600080fd5b919050565b60008060408385031215610ff657600080fd5b610fff83610fc7565b946020939093013593505050565b6001600160e01b03198116811461079557600080fd5b60006020828403121561103557600080fd5b81356108a58161100d565b60006020828403121561105257600080fd5b5035919050565b6000815180845260005b8181101561107f57602081850181015186830182015201611063565b506000602082860101526020601f19601f83011685010191505092915050565b6020815260006108a56020830184611059565b634e487b7160e01b600052604160045260246000fd5b604051601f8201601f1916810167ffffffffffffffff811182821017156110f1576110f16110b2565b604052919050565b600067ffffffffffffffff821115611113576111136110b2565b5060051b60200190565b600082601f83011261112e57600080fd5b8135602061114361113e836110f9565b6110c8565b82815260059290921b8401810191818101908684111561116257600080fd5b8286015b8481101561117d5780358352918301918301611166565b509695505050505050565b600082601f83011261119957600080fd5b813567ffffffffffffffff8111156111b3576111b36110b2565b6111c6601f8201601f19166020016110c8565b8181528460208386010111156111db57600080fd5b816020850160208301376000918101602001919091529392505050565b600080600080600060a0868803121561121057600080fd5b61121986610fc7565b945061122760208701610fc7565b9350604086013567ffffffffffffffff8082111561124457600080fd5b61125089838a0161111d565b9450606088013591508082111561126657600080fd5b61127289838a0161111d565b9350608088013591508082111561128857600080fd5b5061129588828901611188565b9150509295509295909350565b600080604083850312156112b557600080fd5b823591506112c560208401610fc7565b90509250929050565b600080604083850312156112e157600080fd5b823567ffffffffffffffff808211156112f957600080fd5b818501915085601f83011261130d57600080fd5b8135602061131d61113e836110f9565b82815260059290921b8401810191818101908984111561133c57600080fd5b948201945b838610156113615761135286610fc7565b82529482019490820190611341565b9650508601359250508082111561137757600080fd5b506113848582860161111d565b9150509250929050565b600081518084526020808501945080840160005b838110156113be578151875295820195908201906001016113a2565b509495945050505050565b6020815260006108a5602083018461138e565b600080604083850312156113ef57600080fd5b6113f883610fc7565b91506020830135801515811461140d57600080fd5b809150509250929050565b6000806040838503121561142b57600080fd5b61143483610fc7565b91506112c560208401610fc7565b600080600080600060a0868803121561145a57600080fd5b61146386610fc7565b945061147160208701610fc7565b93506040860135925060608601359150608086013567ffffffffffffffff81111561149b57600080fd5b61129588828901611188565b600181811c908216806114bb57607f821691505b6020821081036114db57634e487b7160e01b600052602260045260246000fd5b50919050565b634e487b7160e01b600052603260045260246000fd5b634e487b7160e01b600052601160045260246000fd5b60006001820161151f5761151f6114f7565b5060010190565b6001600160a01b03868116825285166020820152604081018490526060810183905260a06080820181905260009061156090830184611059565b979650505050505050565b60006020828403121561157d57600080fd5b81516108a58161100d565b6001600160a01b0386811682528516602082015260a0604082018190526000906115b49083018661138e565b82810360608401526115c6818661138e565b905082810360808401526115da8185611059565b98975050505050505050565b808201808211156102cc576102cc6114f7565b60408152600061160c604083018561138e565b828103602084015261161e818561138e565b9594505050505056fea2646970667358221220397514644167c82dcca7339f07c145b9b3267e84aca66cc4219f8927d276d3ef64736f6c63430008140033",
  "linkReferences": {},
  "deployedLinkReferences": {}
}