{
  "_format": "hh-sol-artifact-1",
  "contractName": "ERC1155_burnable",
  "sourceName": "contracts/__generated__/ERC1155_burnable.sol",
  "abi": [
    {
      "inputs": [
        {
          "internalType": "string",
          "name": "uri_",
          "type": "string"
        }
      ],
      "stateMutability": "nonpayable",
      "type": "constructor"
    },
    {
      "inputs": [],
      "name": "AccessControlBadConfirmation",
      "type": "error"
    },
    {
      "inputs": [
        {
          "internalType": "address",
          "name": "account",
          "type": "address"
        },
        {
          "internalType": "bytes32",
          "name": "neededRole",
          "type": "bytes32"
        }
      ],
      "name": "AccessControlUnauthorizedAccount",
      "type": "error"
    },
    {
      "inputs": [
        {
          "internalType": "address",
          "name": "sender",
          "type": "address"
        },
        {
          "internalType": "uint256",
          "name": "balance",
          "type": "uint256"
        },
        {
          "internalType": "uint256",
          "name": "needed",
          "type": "uint256"
        },
        {
          "internalType": "uint256",
          "name": "tokenId",
          "type": "uint256"
        }
      ],
      "name": "ERC1155InsufficientBalance",
      "type": "error"
    },
    {
      "inputs": [
        {
          "internalType": "address",
          "name": "approver",
          "type": "address"
        }
      ],
      "name": "ERC1155InvalidApprover",
      "type": "error"
    },
    {
      "inputs": [
        {
          "internalType": "uint256",
          "name": "idsLength",
          "type": "uint256"
        },
        {
          "internalType": "uint256",
          "name": "valuesLength",
          "type": "uint256"
        }
      ],
      "name": "ERC1155InvalidArrayLength",
      "type": "error"
    },
    {
      "inputs": [
        {
          "internalType": "address",
          "name": "operator",
          "type": "address"
        }
      ],
      "name": "ERC1155InvalidOperator",
      "type": "error"
    },
    {
      "inputs": [
        {
          "internalType": "address",
          "name": "receiver",
          "type": "address"
        }
      ],
      "name": "ERC1155InvalidReceiver",
      "type": "error"
    },
    {
      "inputs": [
        {
          "internalType": "address",
          "name": "sender",
          "type": "address"
        }
      ],
      "name": "ERC1155InvalidSender",
      "type": "error"
    },
    {
      "inputs": [
        {
          "internalType": "address",
          "name": "operator",
          "type": "address"
        },
        {
          "internalType": "address",
          "name": "owner",
          "type": "address"
        }
      ],
      "name": "ERC1155MissingApprovalForAll",
      "type": "error"
    },
    {
      "inputs": [],
      "name": "EnforcedPause",
      "type": "error"
    },
    {
      "inputs": [],
      "name": "ExpectedPause",
      "type": "error"
    },
    {
      "anonymous": false,
      "inputs": [
        {
          "indexed": true,
          "internalType": "address",
          "name": "account",
          "type": "address"
        },
        {
          "indexed": true,
          "internalType": "address",
          "name": "operator",
          "type": "address"
        },
        {
          "indexed": false,
          "internalType": "bool",
          "name": "approved",
          "type": "bool"
        }
      ],
      "name": "ApprovalForAll",
      "type": "event"
    },
    {
      "anonymous": false,
      "inputs": [
        {
          "indexed": false,
          "internalType": "address",
          "name": "account",
          "type": "address"
        }
      ],
      "name": "Paused",
      "type": "event"
    },
    {
      "anonymous": false,
      "inputs": [
        {
          "indexed": true,
          "internalType": "bytes32",
          "name": "role",
          "type": "bytes32"
        },
        {
          "indexed": true,
          "internalType": "bytes32",
          "name": "previousAdminRole",
          "type": "bytes32"
        },
        {
          "indexed": true,
          "internalType": "bytes32",
          "name": "newAdminRole",
          "type": "bytes32"
        }
      ],
      "name": "RoleAdminChanged",
      "type": "event"
    },
    {
      "anonymous": false,
      "inputs": [
        {
          "indexed": true,
          "internalType": "bytes32",
          "name": "role",
          "type": "bytes32"
        },
        {
          "indexed": true,
          "internalType": "address",
          "name": "account",
          "type": "address"
        },
        {
          "indexed": true,
          "internalType": "address",
          "name": "sender",
          "type": "address"
        }
      ],
      "name": "RoleGranted",
      "type": "event"
    },
    {
      "anonymous": false,
      "inputs": [
        {
          "indexed": true,
          "internalType": "bytes32",
          "name": "role",
          "type": "bytes32"
        },
        {
          "indexed": true,
          "internalType": "address",
          "name": "account",
          "type": "address"
        },
        {
          "indexed": true,
          "internalType": "address",
          "name": "sender",
          "type": "address"
        }
      ],
      "name": "RoleRevoked",
      "type": "event"
    },
    {
      "anonymous": false,
      "inputs": [
        {
          "indexed": true,
          "internalType": "address",
          "name": "operator",
          "type": "address"
        },
        {
          "indexed": true,
          "internalType": "address",
          "name": "from",
          "type": "address"
        },
        {
          "indexed": true,
          "internalType": "address",
          "name": "to",
          "type": "address"
        },
        {
          "indexed": false,
          "internalType": "uint256[]",
          "name": "ids",
          "type": "uint256[]"
        },
        {
          "indexed": false,
          "internalType": "uint256[]",
          "name": "values",
          "type": "uint256[]"
        }
      ],
      "name": "TransferBatch",
      "type": "event"
    },
    {
      "anonymous": false,
      "inputs": [
        {
          "indexed": true,
          "internalType": "address",
          "name": "operator",
          "type": "address"
        },
        {
          "indexed": true,
          "internalType": "address",
          "name": "from",
          "type": "address"
        },
        {
          "indexed": true,
          "internalType": "address",
          "name": "to",
          "type": "address"
        },
        {
          "indexed": false,
          "internalType": "uint256",
          "name": "id",
          "type": "uint256"
        },
        {
          "indexed": false,
          "internalType": "uint256",
          "name": "value",
          "type": "uint256"
        }
      ],
      "name": "TransferSingle",
      "type": "event"
    },
    {
      "anonymous": false,
      "inputs": [
        {
          "indexed": false,
          "internalType": "string",
          "name": "value",
          "type": "string"
        },
        {
          "indexed": true,
          "internalType": "uint256",
          "name": "id",
          "type": "uint256"
        }
      ],
      "name": "URI",
      "type": "event"
    },
    {
      "anonymous": false,
      "inputs": [
        {
          "indexed": false,
          "internalType": "address",
          "name": "account",
          "type": "address"
        }
      ],
      "name": "Unpaused",
      "type": "event"
    },
    {
      "inputs": [],
      "name": "DEFAULT_ADMIN_ROLE",
      "outputs": [
        {
          "internalType": "bytes32",
          "name": "",
          "type": "bytes32"
        }
      ],
      "stateMutability": "view",
      "type": "function"
    },
    {
      "inputs": [
        {
          "internalType": "address",
          "name": "account",
          "type": "address"
        },
        {
          "internalType": "uint256",
          "name": "id",
          "type": "uint256"
        }
      ],
      "name": "balanceOf",
      "outputs": [
        {
          "internalType": "uint256",
          "name": "",
          "type": "uint256"
        }
      ],
      "stateMutability": "view",
      "type": "function"
    },
    {
      "inputs": [
        {
          "internalType": "address[]",
          "name": "accounts",
          "type": "address[]"
        },
        {
          "internalType": "uint256[]",
          "name": "ids",
          "type": "uint256[]"
        }
      ],
      "name": "balanceOfBatch",
      "outputs": [
        {
          "internalType": "uint256[]",
          "name": "",
          "type": "uint256[]"
        }
      ],
      "stateMutability": "view",
      "type": "function"
    },
    {
      "inputs": [
        {
          "internalType": "address",
          "name": "from",
          "type": "address"
        },
        {
          "internalType": "uint256",
          "name": "id",
          "type": "uint256"
        },
        {
          "internalType": "uint256",
          "name": "amount",
          "type": "uint256"
        }
      ],
      "name": "burn",
      "outputs": [],
      "stateMutability": "nonpayable",
      "type": "function"
    },
    {
      "inputs": [
        {
          "internalType": "address",
          "name": "from",
          "type": "address"
        },
        {
          "internalType": "uint256[]",
          "name": "ids",
          "type": "uint256[]"
        },
        {
          "internalType": "uint256[]",
          "name": "amounts",
          "type": "uint256[]"
        }
      ],
      "name": "burnBatch",
      "outputs": [],
      "stateMutability": "nonpayable",
      "type": "function"
    },
    {
      "inputs": [
        {
          "internalType": "bytes32",
          "name": "role",
          "type": "bytes32"
        }
      ],
      "name": "getRoleAdmin",
      "outputs": [
        {
          "internalType": "bytes32",
          "name": "",
          "type": "bytes32"
        }
      ],
      "stateMutability": "view",
      "type": "function"
    },
    {
      "inputs": [
        {
          "internalType": "bytes32",
          "name": "role",
          "type": "bytes32"
        },
        {
          "internalType": "address",
          "name": "account",
          "type": "address"
        }
      ],
      "name": "grantRole",
      "outputs": [],
      "stateMutability": "nonpayable",
      "type": "function"
    },
    {
      "inputs": [
        {
          "internalType": "bytes32",
          "name": "role",
          "type": "bytes32"
        },
        {
          "internalType": "address",
          "name": "account",
          "type": "address"
        }
      ],
      "name": "hasRole",
      "outputs": [
        {
          "internalType": "bool",
          "name": "",
          "type": "bool"
        }
      ],
      "stateMutability": "view",
      "type": "function"
    },
    {
      "inputs": [
        {
          "internalType": "address",
          "name": "account",
          "type": "address"
        },
        {
          "internalType": "address",
          "name": "operator",
          "type": "address"
        }
      ],
      "name": "isApprovedForAll",
      "outputs": [
        {
          "internalType": "bool",
          "name": "",
          "type": "bool"
        }
      ],
      "stateMutability": "view",
      "type": "function"
    },
    {
      "inputs": [],
      "name": "paused",
      "outputs": [
        {
          "internalType": "bool",
          "name": "",
          "type": "bool"
        }
      ],
      "stateMutability": "view",
      "type": "function"
    },
    {
      "inputs": [
        {
          "internalType": "bytes32",
          "name": "role",
          "type": "bytes32"
        },
        {
          "internalType": "address",
          "name": "callerConfirmation",
          "type": "address"
        }
      ],
      "name": "renounceRole",
      "outputs": [],
      "stateMutability": "nonpayable",
      "type": "function"
    },
    {
      "inputs": [
        {
          "internalType": "bytes32",
          "name": "role",
          "type": "bytes32"
        },
        {
          "internalType": "address",
          "name": "account",
          "type": "address"
        }
      ],
      "name": "revokeRole",
      "outputs": [],
      "stateMutability": "nonpayable",
      "type": "function"
    },
    {
      "inputs": [
        {
          "internalType": "address",
          "name": "from",
          "type": "address"
        },
        {
          "internalType": "address",
          "name": "to",
          "type": "address"
        },
        {
          "internalType": "uint256[]",
          "name": "ids",
          "type": "uint256[]"
        },
        {
          "internalType": "uint256[]",
          "name": "values",
          "type": "uint256[]"
        },
        {
          "internalType": "bytes",
          "name": "data",
          "type": "bytes"
        }
      ],
      "name": "safeBatchTransferFrom",
      "outputs": [],
      "stateMutability": "nonpayable",
      "type": "function"
    },
    {
      "inputs": [
        {
          "internalType": "address",
          "name": "from",
          "type": "address"
        },
        {
          "internalType": "address",
          "name": "to",
          "type": "address"
        },
        {
          "internalType": "uint256",
          "name": "id",
          "type": "uint256"
        },
        {
          "internalType": "uint256",
          "name": "value",
          "type": "uint256"
        },
        {
          "internalType": "bytes",
          "name": "data",
          "type": "bytes"
        }
      ],
      "name": "safeTransferFrom",
      "outputs": [],
      "stateMutability": "nonpayable",
      "type": "function"
    },
    {
      "inputs": [
        {
          "internalType": "address",
          "name": "operator",
          "type": "address"
        },
        {
          "internalType": "bool",
          "name": "approved",
          "type": "bool"
        }
      ],
      "name": "setApprovalForAll",
      "outputs": [],
      "stateMutability": "nonpayable",
      "type": "function"
    },
    {
      "inputs": [
        {
          "internalType": "bytes4",
          "name": "interfaceId",
          "type": "bytes4"
        }
      ],
      "name": "supportsInterface",
      "outputs": [
        {
          "internalType": "bool",
          "name": "",
          "type": "bool"
        }
      ],
      "stateMutability": "view",
      "type": "function"
    },
    {
      "inputs": [
        {
          "internalType": "uint256",
          "name": "",
          "type": "uint256"
        }
      ],
      "name": "uri",
      "outputs": [
        {
          "internalType": "string",
          "name": "",
          "type": "string"
        }
      ],
      "stateMutability": "view",
      "type": "function"
    }
  ],
  "bytecode": "0x60806040523480156200001157600080fd5b5060405162001adf38038062001adf833981016040819052620000349162000133565b8080620000418162000058565b506200004f6000336200006a565b50505062000363565b600262000066828262000297565b5050565b60008281526004602090815260408083206001600160a01b038516845290915281205460ff16620001135760008381526004602090815260408083206001600160a01b03861684529091529020805460ff19166001179055620000ca3390565b6001600160a01b0316826001600160a01b0316847f2f8788117e7eff1d82e926ec794901d17c78024a50270940304540a733656f0d60405160405180910390a450600162000117565b5060005b92915050565b634e487b7160e01b600052604160045260246000fd5b600060208083850312156200014757600080fd5b82516001600160401b03808211156200015f57600080fd5b818501915085601f8301126200017457600080fd5b8151818111156200018957620001896200011d565b604051601f8201601f19908116603f01168101908382118183101715620001b457620001b46200011d565b816040528281528886848701011115620001cd57600080fd5b600093505b82841015620001f15784840186015181850187015292850192620001d2565b600086848301015280965050505050505092915050565b600181811c908216806200021d57607f821691505b6020821081036200023e57634e487b7160e01b600052602260045260246000fd5b50919050565b601f8211156200029257600081815260208120601f850160051c810160208610156200026d5750805b601f850160051c820191505b818110156200028e5782815560010162000279565b5050505b505050565b81516001600160401b03811115620002b357620002b36200011d565b620002cb81620002c4845462000208565b8462000244565b602080601f831160018114620003035760008415620002ea5750858301515b600019600386901b1c1916600185901b1785556200028e565b600085815260208120601f198616915b82811015620003345788860151825594840194600190910190840162000313565b5085821015620003535787850151600019600388901b60f8161c191681555b5050505050600190811b01905550565b61176c80620003736000396000f3fe608060405234801561001057600080fd5b506004361061010a5760003560e01c80635c975abb116100a2578063a22cb46511610071578063a22cb4651461022f578063d547741f14610242578063e985e9c514610255578063f242432a14610268578063f5298aca1461027b57600080fd5b80635c975abb146101f65780636b20c4541461020157806391d1485414610214578063a217fddf1461022757600080fd5b80632eb2c2d6116100de5780632eb2c2d61461019b5780632f2ff15d146101b057806336568abe146101c35780634e1273f4146101d657600080fd5b8062fdd58e1461010f57806301ffc9a7146101355780630e89341c14610158578063248a9ca314610178575b600080fd5b61012261011d366004610fa2565b61028e565b6040519081526020015b60405180910390f35b610148610143366004610fe2565b6102b6565b604051901515815260200161012c565b61016b610166366004611006565b6102c1565b60405161012c9190611065565b610122610186366004611006565b60009081526004602052604090206001015490565b6101ae6101a93660046111be565b610355565b005b6101ae6101be366004611268565b6103c1565b6101ae6101d1366004611268565b6103ec565b6101e96101e4366004611294565b610424565b60405161012c919061138f565b60035460ff16610148565b6101ae61020f3660046113ee565b6104f9565b610148610222366004611268565b6105a6565b610122600081565b6101ae61023d36600461146f565b6105d1565b6101ae610250366004611268565b6105e0565b6101486102633660046114ab565b610605565b6101ae6102763660046114d5565b610633565b6101ae61028936600461153a565b610692565b6000818152602081815260408083206001600160a01b03861684529091529020545b92915050565b60006102b0826106d5565b6060600280546102d09061156d565b80601f01602080910402602001604051908101604052809291908181526020018280546102fc9061156d565b80156103495780601f1061031e57610100808354040283529160200191610349565b820191906000526020600020905b81548152906001019060200180831161032c57829003601f168201915b50505050509050919050565b336001600160a01b038616811480159061037657506103748682610605565b155b156103ac5760405163711bec9160e11b81526001600160a01b038083166004830152871660248201526044015b60405180910390fd5b6103b986868686866106fa565b505050505050565b6000828152600460205260409020600101546103dc8161075a565b6103e68383610767565b50505050565b6001600160a01b03811633146104155760405163334bd91960e11b815260040160405180910390fd5b61041f82826107fb565b505050565b606081518351146104555781518351604051635b05999160e01b8152600481019290925260248201526044016103a3565b6000835167ffffffffffffffff81111561047157610471611078565b60405190808252806020026020018201604052801561049a578160200160208202803683370190505b50905060005b84518110156104f1576020808202860101516104c49060208084028701015161028e565b8282815181106104d6576104d66115a7565b60209081029190910101526104ea816115d3565b90506104a0565b509392505050565b6001600160a01b03851633148061051557506105158533610605565b6105315760405162461bcd60e51b81526004016103a3906115ec565b61059f858585808060200260200160405190810160405280939291908181526020018383602002808284376000920191909152505060408051602080890282810182019093528882529093508892508791829185019084908082843760009201919091525061086892505050565b5050505050565b60009182526004602090815260408084206001600160a01b0393909316845291905290205460ff1690565b6105dc3383836108ae565b5050565b6000828152600460205260409020600101546105fb8161075a565b6103e683836107fb565b6001600160a01b03918216600090815260016020908152604080832093909416825291909152205460ff1690565b336001600160a01b038616811480159061065457506106528682610605565b155b156106855760405163711bec9160e11b81526001600160a01b038083166004830152871660248201526044016103a3565b6103b98686868686610944565b6001600160a01b0383163314806106ae57506106ae8333610605565b6106ca5760405162461bcd60e51b81526004016103a3906115ec565b61041f8383836109d2565b60006001600160e01b03198216637965db0b60e01b14806102b057506102b082610a3a565b6001600160a01b03841661072457604051632bfa23e760e11b8152600060048201526024016103a3565b6001600160a01b03851661074d57604051626a0d4560e21b8152600060048201526024016103a3565b61059f8585858585610a8a565b6107648133610add565b50565b600061077383836105a6565b6107f35760008381526004602090815260408083206001600160a01b03861684529091529020805460ff191660011790556107ab3390565b6001600160a01b0316826001600160a01b0316847f2f8788117e7eff1d82e926ec794901d17c78024a50270940304540a733656f0d60405160405180910390a45060016102b0565b5060006102b0565b600061080783836105a6565b156107f35760008381526004602090815260408083206001600160a01b0386168085529252808320805460ff1916905551339286917ff6391f5c32d9c69d2a47ea670b442974b53935d1edc7fd64eb21e047a839171b9190a45060016102b0565b6001600160a01b03831661089157604051626a0d4560e21b8152600060048201526024016103a3565b61041f836000848460405180602001604052806000815250610a8a565b6001600160a01b0382166108d75760405162ced3e160e81b8152600060048201526024016103a3565b6001600160a01b03838116600081815260016020908152604080832094871680845294825291829020805460ff191686151590811790915591519182527f17307eab39ab6107e8899845ad3d59bd9653f200f220920489ca2b5937696c31910160405180910390a3505050565b6001600160a01b03841661096e57604051632bfa23e760e11b8152600060048201526024016103a3565b6001600160a01b03851661099757604051626a0d4560e21b8152600060048201526024016103a3565b604080516001808252602082018690528183019081526060820185905260808201909252906109c98787848487610a8a565b50505050505050565b6001600160a01b0383166109fb57604051626a0d4560e21b8152600060048201526024016103a3565b604080516001808252602082018590528183019081526060820184905260a0820190925260006080820181815291929161059f91879185908590610a8a565b60006001600160e01b03198216636cdb3d1360e11b1480610a6b57506001600160e01b031982166303a24d0760e21b145b806102b057506301ffc9a760e01b6001600160e01b03198316146102b0565b610a9685858585610b16565b6001600160a01b0384161561059f5782513390600103610acf5760208481015190840151610ac8838989858589610b22565b50506103b9565b6103b9818787878787610c46565b610ae782826105a6565b6105dc5760405163e2517d3f60e01b81526001600160a01b0382166004820152602481018390526044016103a3565b6103e684848484610d2f565b6001600160a01b0384163b156103b95760405163f23a6e6160e01b81526001600160a01b0385169063f23a6e6190610b669089908990889088908890600401611635565b6020604051808303816000875af1925050508015610ba1575060408051601f3d908101601f19168201909252610b9e9181019061167a565b60015b610c0a573d808015610bcf576040519150601f19603f3d011682016040523d82523d6000602084013e610bd4565b606091505b508051600003610c0257604051632bfa23e760e11b81526001600160a01b03861660048201526024016103a3565b805160208201fd5b6001600160e01b0319811663f23a6e6160e01b146109c957604051632bfa23e760e11b81526001600160a01b03861660048201526024016103a3565b6001600160a01b0384163b156103b95760405163bc197c8160e01b81526001600160a01b0385169063bc197c8190610c8a9089908990889088908890600401611697565b6020604051808303816000875af1925050508015610cc5575060408051601f3d908101601f19168201909252610cc29181019061167a565b60015b610cf3573d808015610bcf576040519150601f19603f3d011682016040523d82523d6000602084013e610bd4565b6001600160e01b0319811663bc197c8160e01b146109c957604051632bfa23e760e11b81526001600160a01b03861660048201526024016103a3565b610d37610d43565b6103e684848484610d69565b60035460ff1615610d675760405163d93c066560e01b815260040160405180910390fd5b565b8051825114610d985781518151604051635b05999160e01b8152600481019290925260248201526044016103a3565b3360005b8351811015610ea7576020818102858101820151908501909101516001600160a01b03881615610e4f576000828152602081815260408083206001600160a01b038c16845290915290205481811015610e28576040516303dee4c560e01b81526001600160a01b038a1660048201526024810182905260448101839052606481018490526084016103a3565b6000838152602081815260408083206001600160a01b038d16845290915290209082900390555b6001600160a01b03871615610e94576000828152602081815260408083206001600160a01b038b16845290915281208054839290610e8e9084906116f5565b90915550505b505080610ea0906115d3565b9050610d9c565b508251600103610f285760208301516000906020840151909150856001600160a01b0316876001600160a01b0316846001600160a01b03167fc3d58168c5ae7397731d063d5bbf3d657854427343f4c083240f7aacaa2d0f628585604051610f19929190918252602082015260400190565b60405180910390a4505061059f565b836001600160a01b0316856001600160a01b0316826001600160a01b03167f4a39dc06d4c0dbc64b70af90fd698a233a518aa5d07e595d983b8c0526c8f7fb8686604051610f77929190611708565b60405180910390a45050505050565b80356001600160a01b0381168114610f9d57600080fd5b919050565b60008060408385031215610fb557600080fd5b610fbe83610f86565b946020939093013593505050565b6001600160e01b03198116811461076457600080fd5b600060208284031215610ff457600080fd5b8135610fff81610fcc565b9392505050565b60006020828403121561101857600080fd5b5035919050565b6000815180845260005b8181101561104557602081850181015186830182015201611029565b506000602082860101526020601f19601f83011685010191505092915050565b602081526000610fff602083018461101f565b634e487b7160e01b600052604160045260246000fd5b604051601f8201601f1916810167ffffffffffffffff811182821017156110b7576110b7611078565b604052919050565b600067ffffffffffffffff8211156110d9576110d9611078565b5060051b60200190565b600082601f8301126110f457600080fd5b81356020611109611104836110bf565b61108e565b82815260059290921b8401810191818101908684111561112857600080fd5b8286015b84811015611143578035835291830191830161112c565b509695505050505050565b600082601f83011261115f57600080fd5b813567ffffffffffffffff81111561117957611179611078565b61118c601f8201601f191660200161108e565b8181528460208386010111156111a157600080fd5b816020850160208301376000918101602001919091529392505050565b600080600080600060a086880312156111d657600080fd5b6111df86610f86565b94506111ed60208701610f86565b9350604086013567ffffffffffffffff8082111561120a57600080fd5b61121689838a016110e3565b9450606088013591508082111561122c57600080fd5b61123889838a016110e3565b9350608088013591508082111561124e57600080fd5b5061125b8882890161114e565b9150509295509295909350565b6000806040838503121561127b57600080fd5b8235915061128b60208401610f86565b90509250929050565b600080604083850312156112a757600080fd5b823567ffffffffffffffff808211156112bf57600080fd5b818501915085601f8301126112d357600080fd5b813560206112e3611104836110bf565b82815260059290921b8401810191818101908984111561130257600080fd5b948201945b838610156113275761131886610f86565b82529482019490820190611307565b9650508601359250508082111561133d57600080fd5b5061134a858286016110e3565b9150509250929050565b600081518084526020808501945080840160005b8381101561138457815187529582019590820190600101611368565b509495945050505050565b602081526000610fff6020830184611354565b60008083601f8401126113b457600080fd5b50813567ffffffffffffffff8111156113cc57600080fd5b6020830191508360208260051b85010111156113e757600080fd5b9250929050565b60008060008060006060868803121561140657600080fd5b61140f86610f86565b9450602086013567ffffffffffffffff8082111561142c57600080fd5b61143889838a016113a2565b9096509450604088013591508082111561145157600080fd5b5061145e888289016113a2565b969995985093965092949392505050565b6000806040838503121561148257600080fd5b61148b83610f86565b9150602083013580151581146114a057600080fd5b809150509250929050565b600080604083850312156114be57600080fd5b6114c783610f86565b915061128b60208401610f86565b600080600080600060a086880312156114ed57600080fd5b6114f686610f86565b945061150460208701610f86565b93506040860135925060608601359150608086013567ffffffffffffffff81111561152e57600080fd5b61125b8882890161114e565b60008060006060848603121561154f57600080fd5b61155884610f86565b95602085013595506040909401359392505050565b600181811c9082168061158157607f821691505b6020821081036115a157634e487b7160e01b600052602260045260246000fd5b50919050565b634e487b7160e01b600052603260045260246000fd5b634e487b7160e01b600052601160045260246000fd5b6000600182016115e5576115e56115bd565b5060010190565b60208082526029908201527f455243313135353a2063616c6c6572206973206e6f74206f776e6572206e6f7260408201526808185c1c1c9bdd995960ba1b606082015260800190565b6001600160a01b03868116825285166020820152604081018490526060810183905260a06080820181905260009061166f9083018461101f565b979650505050505050565b60006020828403121561168c57600080fd5b8151610fff81610fcc565b6001600160a01b0386811682528516602082015260a0604082018190526000906116c390830186611354565b82810360608401526116d58186611354565b905082810360808401526116e9818561101f565b98975050505050505050565b808201808211156102b0576102b06115bd565b60408152600061171b6040830185611354565b828103602084015261172d8185611354565b9594505050505056fea26469706673582212200130648a64b36bf55bfccc03cefc2c821406004a59da779ca294b6a0a703423064736f6c63430008140033",
  "linkReferences": {},
  "deployedLinkReferences": {}
}