{
  "_format": "hh-sol-artifact-1",
  "contractName": "ERC1155_burnable_mintable",
  "sourceName": "contracts/__generated__/ERC1155_burnable_mintable.sol",
  "abi": [
    {
      "inputs": [
        {
          "internalType": "string",
          "name": "uri_",
          "type": "string"
        }
      ],
      "stateMutability": "nonpayable",
      "type": "constructor"
    },
    {
      "inputs": [],
      "name": "AccessControlBadConfirmation",
      "type": "error"
    },
    {
      "inputs": [
        {
          "internalType": "address",
          "name": "account",
          "type": "address"
        },
        {
          "internalType": "bytes32",
          "name": "neededRole",
          "type": "bytes32"
        }
      ],
      "name": "AccessControlUnauthorizedAccount",
      "type": "error"
    },
    {
      "inputs": [
        {
          "internalType": "address",
          "name": "sender",
          "type": "address"
        },
        {
          "internalType": "uint256",
          "name": "balance",
          "type": "uint256"
        },
        {
          "internalType": "uint256",
          "name": "needed",
          "type": "uint256"
        },
        {
          "internalType": "uint256",
          "name": "tokenId",
          "type": "uint256"
        }
      ],
      "name": "ERC1155InsufficientBalance",
      "type": "error"
    },
    {
      "inputs": [
        {
          "internalType": "address",
          "name": "approver",
          "type": "address"
        }
      ],
      "name": "ERC1155InvalidApprover",
      "type": "error"
    },
    {
      "inputs": [
        {
          "internalType": "uint256",
          "name": "idsLength",
          "type": "uint256"
        },
        {
          "internalType": "uint256",
          "name": "valuesLength",
          "type": "uint256"
        }
      ],
      "name": "ERC1155InvalidArrayLength",
      "type": "error"
    },
    {
      "inputs": [
        {
          "internalType": "address",
          "name": "operator",
          "type": "address"
        }
      ],
      "name": "ERC1155InvalidOperator",
      "type": "error"
    },
    {
      "inputs": [
        {
          "internalType": "address",
          "name": "receiver",
          "type": "address"
        }
      ],
      "name": "ERC1155InvalidReceiver",
      "type": "error"
    },
    {
      "inputs": [
        {
          "internalType": "address",
          "name": "sender",
          "type": "address"
        }
      ],
      "name": "ERC1155InvalidSender",
      "type": "error"
    },
    {
      "inputs": [
        {
          "internalType": "address",
          "name": "operator",
          "type": "address"
        },
        {
          "internalType": "address",
          "name": "owner",
          "type": "address"
        }
      ],
      "name": "ERC1155MissingApprovalForAll",
      "type": "error"
    },
    {
      "inputs": [],
      "name": "EnforcedPause",
      "type": "error"
    },
    {
      "inputs": [],
      "name": "ExpectedPause",
      "type": "error"
    },
    {
      "anonymous": false,
      "inputs": [
        {
          "indexed": true,
          "internalType": "address",
          "name": "account",
          "type": "address"
        },
        {
          "indexed": true,
          "internalType": "address",
          "name": "operator",
          "type": "address"
        },
        {
          "indexed": false,
          "internalType": "bool",
          "name": "approved",
          "type": "bool"
        }
      ],
      "name": "ApprovalForAll",
      "type": "event"
    },
    {
      "anonymous": false,
      "inputs": [
        {
          "indexed": false,
          "internalType": "address",
          "name": "account",
          "type": "address"
        }
      ],
      "name": "Paused",
      "type": "event"
    },
    {
      "anonymous": false,
      "inputs": [
        {
          "indexed": true,
          "internalType": "bytes32",
          "name": "role",
          "type": "bytes32"
        },
        {
          "indexed": true,
          "internalType": "bytes32",
          "name": "previousAdminRole",
          "type": "bytes32"
        },
        {
          "indexed": true,
          "internalType": "bytes32",
          "name": "newAdminRole",
          "type": "bytes32"
        }
      ],
      "name": "RoleAdminChanged",
      "type": "event"
    },
    {
      "anonymous": false,
      "inputs": [
        {
          "indexed": true,
          "internalType": "bytes32",
          "name": "role",
          "type": "bytes32"
        },
        {
          "indexed": true,
          "internalType": "address",
          "name": "account",
          "type": "address"
        },
        {
          "indexed": true,
          "internalType": "address",
          "name": "sender",
          "type": "address"
        }
      ],
      "name": "RoleGranted",
      "type": "event"
    },
    {
      "anonymous": false,
      "inputs": [
        {
          "indexed": true,
          "internalType": "bytes32",
          "name": "role",
          "type": "bytes32"
        },
        {
          "indexed": true,
          "internalType": "address",
          "name": "account",
          "type": "address"
        },
        {
          "indexed": true,
          "internalType": "address",
          "name": "sender",
          "type": "address"
        }
      ],
      "name": "RoleRevoked",
      "type": "event"
    },
    {
      "anonymous": false,
      "inputs": [
        {
          "indexed": true,
          "internalType": "address",
          "name": "operator",
          "type": "address"
        },
        {
          "indexed": true,
          "internalType": "address",
          "name": "from",
          "type": "address"
        },
        {
          "indexed": true,
          "internalType": "address",
          "name": "to",
          "type": "address"
        },
        {
          "indexed": false,
          "internalType": "uint256[]",
          "name": "ids",
          "type": "uint256[]"
        },
        {
          "indexed": false,
          "internalType": "uint256[]",
          "name": "values",
          "type": "uint256[]"
        }
      ],
      "name": "TransferBatch",
      "type": "event"
    },
    {
      "anonymous": false,
      "inputs": [
        {
          "indexed": true,
          "internalType": "address",
          "name": "operator",
          "type": "address"
        },
        {
          "indexed": true,
          "internalType": "address",
          "name": "from",
          "type": "address"
        },
        {
          "indexed": true,
          "internalType": "address",
          "name": "to",
          "type": "address"
        },
        {
          "indexed": false,
          "internalType": "uint256",
          "name": "id",
          "type": "uint256"
        },
        {
          "indexed": false,
          "internalType": "uint256",
          "name": "value",
          "type": "uint256"
        }
      ],
      "name": "TransferSingle",
      "type": "event"
    },
    {
      "anonymous": false,
      "inputs": [
        {
          "indexed": false,
          "internalType": "string",
          "name": "value",
          "type": "string"
        },
        {
          "indexed": true,
          "internalType": "uint256",
          "name": "id",
          "type": "uint256"
        }
      ],
      "name": "URI",
      "type": "event"
    },
    {
      "anonymous": false,
      "inputs": [
        {
          "indexed": false,
          "internalType": "address",
          "name": "account",
          "type": "address"
        }
      ],
      "name": "Unpaused",
      "type": "event"
    },
    {
      "inputs": [],
      "name": "DEFAULT_ADMIN_ROLE",
      "outputs": [
        {
          "internalType": "bytes32",
          "name": "",
          "type": "bytes32"
        }
      ],
      "stateMutability": "view",
      "type": "function"
    },
    {
      "inputs": [],
      "name": "MINTER_ROLE",
      "outputs": [
        {
          "internalType": "bytes32",
          "name": "",
          "type": "bytes32"
        }
      ],
      "stateMutability": "view",
      "type": "function"
    },
    {
      "inputs": [
        {
          "internalType": "address",
          "name": "account",
          "type": "address"
        },
        {
          "internalType": "uint256",
          "name": "id",
          "type": "uint256"
        }
      ],
      "name": "balanceOf",
      "outputs": [
        {
          "internalType": "uint256",
          "name": "",
          "type": "uint256"
        }
      ],
      "stateMutability": "view",
      "type": "function"
    },
    {
      "inputs": [
        {
          "internalType": "address[]",
          "name": "accounts",
          "type": "address[]"
        },
        {
          "internalType": "uint256[]",
          "name": "ids",
          "type": "uint256[]"
        }
      ],
      "name": "balanceOfBatch",
      "outputs": [
        {
          "internalType": "uint256[]",
          "name": "",
          "type": "uint256[]"
        }
      ],
      "stateMutability": "view",
      "type": "function"
    },
    {
      "inputs": [
        {
          "internalType": "address",
          "name": "from",
          "type": "address"
        },
        {
          "internalType": "uint256",
          "name": "id",
          "type": "uint256"
        },
        {
          "internalType": "uint256",
          "name": "amount",
          "type": "uint256"
        }
      ],
      "name": "burn",
      "outputs": [],
      "stateMutability": "nonpayable",
      "type": "function"
    },
    {
      "inputs": [
        {
          "internalType": "address",
          "name": "from",
          "type": "address"
        },
        {
          "internalType": "uint256[]",
          "name": "ids",
          "type": "uint256[]"
        },
        {
          "internalType": "uint256[]",
          "name": "amounts",
          "type": "uint256[]"
        }
      ],
      "name": "burnBatch",
      "outputs": [],
      "stateMutability": "nonpayable",
      "type": "function"
    },
    {
      "inputs": [
        {
          "internalType": "bytes32",
          "name": "role",
          "type": "bytes32"
        }
      ],
      "name": "getRoleAdmin",
      "outputs": [
        {
          "internalType": "bytes32",
          "name": "",
          "type": "bytes32"
        }
      ],
      "stateMutability": "view",
      "type": "function"
    },
    {
      "inputs": [
        {
          "internalType": "bytes32",
          "name": "role",
          "type": "bytes32"
        },
        {
          "internalType": "address",
          "name": "account",
          "type": "address"
        }
      ],
      "name": "grantRole",
      "outputs": [],
      "stateMutability": "nonpayable",
      "type": "function"
    },
    {
      "inputs": [
        {
          "internalType": "bytes32",
          "name": "role",
          "type": "bytes32"
        },
        {
          "internalType": "address",
          "name": "account",
          "type": "address"
        }
      ],
      "name": "hasRole",
      "outputs": [
        {
          "internalType": "bool",
          "name": "",
          "type": "bool"
        }
      ],
      "stateMutability": "view",
      "type": "function"
    },
    {
      "inputs": [
        {
          "internalType": "address",
          "name": "account",
          "type": "address"
        },
        {
          "internalType": "address",
          "name": "operator",
          "type": "address"
        }
      ],
      "name": "isApprovedForAll",
      "outputs": [
        {
          "internalType": "bool",
          "name": "",
          "type": "bool"
        }
      ],
      "stateMutability": "view",
      "type": "function"
    },
    {
      "inputs": [
        {
          "internalType": "address",
          "name": "to",
          "type": "address"
        },
        {
          "internalType": "uint256",
          "name": "id",
          "type": "uint256"
        },
        {
          "internalType": "uint256",
          "name": "amount",
          "type": "uint256"
        },
        {
          "internalType": "bytes",
          "name": "data",
          "type": "bytes"
        }
      ],
      "name": "mint",
      "outputs": [],
      "stateMutability": "nonpayable",
      "type": "function"
    },
    {
      "inputs": [
        {
          "internalType": "address",
          "name": "to",
          "type": "address"
        },
        {
          "internalType": "uint256[]",
          "name": "ids",
          "type": "uint256[]"
        },
        {
          "internalType": "uint256[]",
          "name": "amounts",
          "type": "uint256[]"
        },
        {
          "internalType": "bytes",
          "name": "data",
          "type": "bytes"
        }
      ],
      "name": "mintBatch",
      "outputs": [],
      "stateMutability": "nonpayable",
      "type": "function"
    },
    {
      "inputs": [],
      "name": "paused",
      "outputs": [
        {
          "internalType": "bool",
          "name": "",
          "type": "bool"
        }
      ],
      "stateMutability": "view",
      "type": "function"
    },
    {
      "inputs": [
        {
          "internalType": "bytes32",
          "name": "role",
          "type": "bytes32"
        },
        {
          "internalType": "address",
          "name": "callerConfirmation",
          "type": "address"
        }
      ],
      "name": "renounceRole",
      "outputs": [],
      "stateMutability": "nonpayable",
      "type": "function"
    },
    {
      "inputs": [
        {
          "internalType": "bytes32",
          "name": "role",
          "type": "bytes32"
        },
        {
          "internalType": "address",
          "name": "account",
          "type": "address"
        }
      ],
      "name": "revokeRole",
      "outputs": [],
      "stateMutability": "nonpayable",
      "type": "function"
    },
    {
      "inputs": [
        {
          "internalType": "address",
          "name": "from",
          "type": "address"
        },
        {
          "internalType": "address",
          "name": "to",
          "type": "address"
        },
        {
          "internalType": "uint256[]",
          "name": "ids",
          "type": "uint256[]"
        },
        {
          "internalType": "uint256[]",
          "name": "values",
          "type": "uint256[]"
        },
        {
          "internalType": "bytes",
          "name": "data",
          "type": "bytes"
        }
      ],
      "name": "safeBatchTransferFrom",
      "outputs": [],
      "stateMutability": "nonpayable",
      "type": "function"
    },
    {
      "inputs": [
        {
          "internalType": "address",
          "name": "from",
          "type": "address"
        },
        {
          "internalType": "address",
          "name": "to",
          "type": "address"
        },
        {
          "internalType": "uint256",
          "name": "id",
          "type": "uint256"
        },
        {
          "internalType": "uint256",
          "name": "value",
          "type": "uint256"
        },
        {
          "internalType": "bytes",
          "name": "data",
          "type": "bytes"
        }
      ],
      "name": "safeTransferFrom",
      "outputs": [],
      "stateMutability": "nonpayable",
      "type": "function"
    },
    {
      "inputs": [
        {
          "internalType": "address",
          "name": "operator",
          "type": "address"
        },
        {
          "internalType": "bool",
          "name": "approved",
          "type": "bool"
        }
      ],
      "name": "setApprovalForAll",
      "outputs": [],
      "stateMutability": "nonpayable",
      "type": "function"
    },
    {
      "inputs": [
        {
          "internalType": "bytes4",
          "name": "interfaceId",
          "type": "bytes4"
        }
      ],
      "name": "supportsInterface",
      "outputs": [
        {
          "internalType": "bool",
          "name": "",
          "type": "bool"
        }
      ],
      "stateMutability": "view",
      "type": "function"
    },
    {
      "inputs": [
        {
          "internalType": "uint256",
          "name": "",
          "type": "uint256"
        }
      ],
      "name": "uri",
      "outputs": [
        {
          "internalType": "string",
          "name": "",
          "type": "string"
        }
      ],
      "stateMutability": "view",
      "type": "function"
    }
  ],
  "bytecode": "0x60806040523480156200001157600080fd5b5060405162001f3038038062001f30833981016040819052620000349162000161565b8080620000418162000086565b506200004f60003362000098565b506200007e90507f9f2df0fed2c77648de5860a4cc508cd0818c85b8b8a1ab4ceeef8d981c8956a63362000098565b505062000391565b6002620000948282620002c5565b5050565b60008281526004602090815260408083206001600160a01b038516845290915281205460ff16620001415760008381526004602090815260408083206001600160a01b03861684529091529020805460ff19166001179055620000f83390565b6001600160a01b0316826001600160a01b0316847f2f8788117e7eff1d82e926ec794901d17c78024a50270940304540a733656f0d60405160405180910390a450600162000145565b5060005b92915050565b634e487b7160e01b600052604160045260246000fd5b600060208083850312156200017557600080fd5b82516001600160401b03808211156200018d57600080fd5b818501915085601f830112620001a257600080fd5b815181811115620001b757620001b76200014b565b604051601f8201601f19908116603f01168101908382118183101715620001e257620001e26200014b565b816040528281528886848701011115620001fb57600080fd5b600093505b828410156200021f578484018601518185018701529285019262000200565b600086848301015280965050505050505092915050565b600181811c908216806200024b57607f821691505b6020821081036200026c57634e487b7160e01b600052602260045260246000fd5b50919050565b601f821115620002c057600081815260208120601f850160051c810160208610156200029b5750805b601f850160051c820191505b81811015620002bc57828155600101620002a7565b5050505b505050565b81516001600160401b03811115620002e157620002e16200014b565b620002f981620002f2845462000236565b8462000272565b602080601f831160018114620003315760008415620003185750858301515b600019600386901b1c1916600185901b178555620002bc565b600085815260208120601f198616915b82811015620003625788860151825594840194600190910190840162000341565b5085821015620003815787850151600019600388901b60f8161c191681555b5050505050600190811b01905550565b611b8f80620003a16000396000f3fe608060405234801561001057600080fd5b506004361061012b5760003560e01c80636b20c454116100ad578063d539139311610071578063d539139314610289578063d547741f146102b0578063e985e9c5146102c3578063f242432a146102d6578063f5298aca146102e957600080fd5b80636b20c45414610235578063731133e91461024857806391d148541461025b578063a217fddf1461026e578063a22cb4651461027657600080fd5b80632eb2c2d6116100f45780632eb2c2d6146101d15780632f2ff15d146101e457806336568abe146101f75780634e1273f41461020a5780635c975abb1461022a57600080fd5b8062fdd58e1461013057806301ffc9a7146101565780630e89341c146101795780631f7fdffa14610199578063248a9ca3146101ae575b600080fd5b61014361013e366004611288565b6102fc565b6040519081526020015b60405180910390f35b6101696101643660046112c8565b610324565b604051901515815260200161014d565b61018c6101873660046112e5565b61032f565b60405161014d9190611344565b6101ac6101a73660046113e5565b6103c3565b005b6101436101bc3660046112e5565b60009081526004602052604090206001015490565b6101ac6101df3660046115d6565b6104e9565b6101ac6101f2366004611680565b610550565b6101ac610205366004611680565b61057b565b61021d6102183660046116ac565b6105b3565b60405161014d91906117a7565b60035460ff16610169565b6101ac6102433660046117ba565b610688565b6101ac61025636600461183b565b610735565b610169610269366004611680565b6107ed565b610143600081565b6101ac610284366004611892565b610818565b6101437f9f2df0fed2c77648de5860a4cc508cd0818c85b8b8a1ab4ceeef8d981c8956a681565b6101ac6102be366004611680565b610827565b6101696102d13660046118ce565b61084c565b6101ac6102e43660046118f8565b61087a565b6101ac6102f736600461195d565b6108d9565b6000818152602081815260408083206001600160a01b03861684529091529020545b92915050565b600061031e8261091c565b60606002805461033e90611990565b80601f016020809104026020016040519081016040528092919081815260200182805461036a90611990565b80156103b75780601f1061038c576101008083540402835291602001916103b7565b820191906000526020600020905b81548152906001019060200180831161039a57829003601f168201915b50505050509050919050565b6103ed7f9f2df0fed2c77648de5860a4cc508cd0818c85b8b8a1ab4ceeef8d981c8956a633610941565b61043e5760405162461bcd60e51b815260206004820152601c60248201527f455243313135353a206d697373696e67204d494e5445525f524f4c450000000060448201526064015b60405180910390fd5b6104e08787878080602002602001604051908101604052809392919081815260200183836020028082843760009201919091525050604080516020808b0282810182019093528a82529093508a92508991829185019084908082843760009201919091525050604080516020601f8a01819004810282018101909252888152925088915087908190840183828082843760009201919091525061095492505050565b50505050505050565b336001600160a01b038616811480159061050a5750610508868261084c565b155b1561053b5760405163711bec9160e11b81526001600160a01b03808316600483015287166024820152604401610435565b610548868686868661098c565b505050505050565b60008281526004602052604090206001015461056b816109ec565b61057583836109f9565b50505050565b6001600160a01b03811633146105a45760405163334bd91960e11b815260040160405180910390fd5b6105ae8282610a8d565b505050565b606081518351146105e45781518351604051635b05999160e01b815260048101929092526024820152604401610435565b6000835167ffffffffffffffff81111561060057610600611490565b604051908082528060200260200182016040528015610629578160200160208202803683370190505b50905060005b845181101561068057602080820286010151610653906020808402870101516102fc565b828281518110610665576106656119ca565b6020908102919091010152610679816119f6565b905061062f565b509392505050565b6001600160a01b0385163314806106a457506106a4853361084c565b6106c05760405162461bcd60e51b815260040161043590611a0f565b61072e8585858080602002602001604051908101604052809392919081815260200183836020028082843760009201919091525050604080516020808902828101820190935288825290935088925087918291850190849080828437600092019190915250610afa92505050565b5050505050565b61075f7f9f2df0fed2c77648de5860a4cc508cd0818c85b8b8a1ab4ceeef8d981c8956a633610941565b6107ab5760405162461bcd60e51b815260206004820152601c60248201527f455243313135353a206d697373696e67204d494e5445525f524f4c45000000006044820152606401610435565b61072e85858585858080601f016020809104026020016040519081016040528093929190818152602001838380828437600092019190915250610b4092505050565b60009182526004602090815260408084206001600160a01b0393909316845291905290205460ff1690565b610823338383610b9d565b5050565b600082815260046020526040902060010154610842816109ec565b6105758383610a8d565b6001600160a01b03918216600090815260016020908152604080832093909416825291909152205460ff1690565b336001600160a01b038616811480159061089b5750610899868261084c565b155b156108cc5760405163711bec9160e11b81526001600160a01b03808316600483015287166024820152604401610435565b6105488686868686610c33565b6001600160a01b0383163314806108f557506108f5833361084c565b6109115760405162461bcd60e51b815260040161043590611a0f565b6105ae838383610cb8565b60006001600160e01b03198216637965db0b60e01b148061031e575061031e82610d20565b600061094d83836107ed565b9392505050565b6001600160a01b03841661097e57604051632bfa23e760e11b815260006004820152602401610435565b610575600085858585610d70565b6001600160a01b0384166109b657604051632bfa23e760e11b815260006004820152602401610435565b6001600160a01b0385166109df57604051626a0d4560e21b815260006004820152602401610435565b61072e8585858585610d70565b6109f68133610dc3565b50565b6000610a0583836107ed565b610a855760008381526004602090815260408083206001600160a01b03861684529091529020805460ff19166001179055610a3d3390565b6001600160a01b0316826001600160a01b0316847f2f8788117e7eff1d82e926ec794901d17c78024a50270940304540a733656f0d60405160405180910390a450600161031e565b50600061031e565b6000610a9983836107ed565b15610a855760008381526004602090815260408083206001600160a01b0386168085529252808320805460ff1916905551339286917ff6391f5c32d9c69d2a47ea670b442974b53935d1edc7fd64eb21e047a839171b9190a450600161031e565b6001600160a01b038316610b2357604051626a0d4560e21b815260006004820152602401610435565b6105ae836000848460405180602001604052806000815250610d70565b6001600160a01b038416610b6a57604051632bfa23e760e11b815260006004820152602401610435565b60408051600180825260208201869052818301908152606082018590526080820190925290610548600087848487610d70565b6001600160a01b038216610bc65760405162ced3e160e81b815260006004820152602401610435565b6001600160a01b03838116600081815260016020908152604080832094871680845294825291829020805460ff191686151590811790915591519182527f17307eab39ab6107e8899845ad3d59bd9653f200f220920489ca2b5937696c31910160405180910390a3505050565b6001600160a01b038416610c5d57604051632bfa23e760e11b815260006004820152602401610435565b6001600160a01b038516610c8657604051626a0d4560e21b815260006004820152602401610435565b604080516001808252602082018690528183019081526060820185905260808201909252906104e08787848487610d70565b6001600160a01b038316610ce157604051626a0d4560e21b815260006004820152602401610435565b604080516001808252602082018590528183019081526060820184905260a0820190925260006080820181815291929161072e91879185908590610d70565b60006001600160e01b03198216636cdb3d1360e11b1480610d5157506001600160e01b031982166303a24d0760e21b145b8061031e57506301ffc9a760e01b6001600160e01b031983161461031e565b610d7c85858585610dfc565b6001600160a01b0384161561072e5782513390600103610db55760208481015190840151610dae838989858589610e08565b5050610548565b610548818787878787610f2c565b610dcd82826107ed565b6108235760405163e2517d3f60e01b81526001600160a01b038216600482015260248101839052604401610435565b61057584848484611015565b6001600160a01b0384163b156105485760405163f23a6e6160e01b81526001600160a01b0385169063f23a6e6190610e4c9089908990889088908890600401611a58565b6020604051808303816000875af1925050508015610e87575060408051601f3d908101601f19168201909252610e8491810190611a9d565b60015b610ef0573d808015610eb5576040519150601f19603f3d011682016040523d82523d6000602084013e610eba565b606091505b508051600003610ee857604051632bfa23e760e11b81526001600160a01b0386166004820152602401610435565b805160208201fd5b6001600160e01b0319811663f23a6e6160e01b146104e057604051632bfa23e760e11b81526001600160a01b0386166004820152602401610435565b6001600160a01b0384163b156105485760405163bc197c8160e01b81526001600160a01b0385169063bc197c8190610f709089908990889088908890600401611aba565b6020604051808303816000875af1925050508015610fab575060408051601f3d908101601f19168201909252610fa891810190611a9d565b60015b610fd9573d808015610eb5576040519150601f19603f3d011682016040523d82523d6000602084013e610eba565b6001600160e01b0319811663bc197c8160e01b146104e057604051632bfa23e760e11b81526001600160a01b0386166004820152602401610435565b61101d611029565b6105758484848461104f565b60035460ff161561104d5760405163d93c066560e01b815260040160405180910390fd5b565b805182511461107e5781518151604051635b05999160e01b815260048101929092526024820152604401610435565b3360005b835181101561118d576020818102858101820151908501909101516001600160a01b03881615611135576000828152602081815260408083206001600160a01b038c1684529091529020548181101561110e576040516303dee4c560e01b81526001600160a01b038a166004820152602481018290526044810183905260648101849052608401610435565b6000838152602081815260408083206001600160a01b038d16845290915290209082900390555b6001600160a01b0387161561117a576000828152602081815260408083206001600160a01b038b16845290915281208054839290611174908490611b18565b90915550505b505080611186906119f6565b9050611082565b50825160010361120e5760208301516000906020840151909150856001600160a01b0316876001600160a01b0316846001600160a01b03167fc3d58168c5ae7397731d063d5bbf3d657854427343f4c083240f7aacaa2d0f6285856040516111ff929190918252602082015260400190565b60405180910390a4505061072e565b836001600160a01b0316856001600160a01b0316826001600160a01b03167f4a39dc06d4c0dbc64b70af90fd698a233a518aa5d07e595d983b8c0526c8f7fb868660405161125d929190611b2b565b60405180910390a45050505050565b80356001600160a01b038116811461128357600080fd5b919050565b6000806040838503121561129b57600080fd5b6112a48361126c565b946020939093013593505050565b6001600160e01b0319811681146109f657600080fd5b6000602082840312156112da57600080fd5b813561094d816112b2565b6000602082840312156112f757600080fd5b5035919050565b6000815180845260005b8181101561132457602081850181015186830182015201611308565b506000602082860101526020601f19601f83011685010191505092915050565b60208152600061094d60208301846112fe565b60008083601f84011261136957600080fd5b50813567ffffffffffffffff81111561138157600080fd5b6020830191508360208260051b850101111561139c57600080fd5b9250929050565b60008083601f8401126113b557600080fd5b50813567ffffffffffffffff8111156113cd57600080fd5b60208301915083602082850101111561139c57600080fd5b60008060008060008060006080888a03121561140057600080fd5b6114098861126c565b9650602088013567ffffffffffffffff8082111561142657600080fd5b6114328b838c01611357565b909850965060408a013591508082111561144b57600080fd5b6114578b838c01611357565b909650945060608a013591508082111561147057600080fd5b5061147d8a828b016113a3565b989b979a50959850939692959293505050565b634e487b7160e01b600052604160045260246000fd5b604051601f8201601f1916810167ffffffffffffffff811182821017156114cf576114cf611490565b604052919050565b600067ffffffffffffffff8211156114f1576114f1611490565b5060051b60200190565b600082601f83011261150c57600080fd5b8135602061152161151c836114d7565b6114a6565b82815260059290921b8401810191818101908684111561154057600080fd5b8286015b8481101561155b5780358352918301918301611544565b509695505050505050565b600082601f83011261157757600080fd5b813567ffffffffffffffff81111561159157611591611490565b6115a4601f8201601f19166020016114a6565b8181528460208386010111156115b957600080fd5b816020850160208301376000918101602001919091529392505050565b600080600080600060a086880312156115ee57600080fd5b6115f78661126c565b94506116056020870161126c565b9350604086013567ffffffffffffffff8082111561162257600080fd5b61162e89838a016114fb565b9450606088013591508082111561164457600080fd5b61165089838a016114fb565b9350608088013591508082111561166657600080fd5b5061167388828901611566565b9150509295509295909350565b6000806040838503121561169357600080fd5b823591506116a36020840161126c565b90509250929050565b600080604083850312156116bf57600080fd5b823567ffffffffffffffff808211156116d757600080fd5b818501915085601f8301126116eb57600080fd5b813560206116fb61151c836114d7565b82815260059290921b8401810191818101908984111561171a57600080fd5b948201945b8386101561173f576117308661126c565b8252948201949082019061171f565b9650508601359250508082111561175557600080fd5b50611762858286016114fb565b9150509250929050565b600081518084526020808501945080840160005b8381101561179c57815187529582019590820190600101611780565b509495945050505050565b60208152600061094d602083018461176c565b6000806000806000606086880312156117d257600080fd5b6117db8661126c565b9450602086013567ffffffffffffffff808211156117f857600080fd5b61180489838a01611357565b9096509450604088013591508082111561181d57600080fd5b5061182a88828901611357565b969995985093965092949392505050565b60008060008060006080868803121561185357600080fd5b61185c8661126c565b94506020860135935060408601359250606086013567ffffffffffffffff81111561188657600080fd5b61182a888289016113a3565b600080604083850312156118a557600080fd5b6118ae8361126c565b9150602083013580151581146118c357600080fd5b809150509250929050565b600080604083850312156118e157600080fd5b6118ea8361126c565b91506116a36020840161126c565b600080600080600060a0868803121561191057600080fd5b6119198661126c565b94506119276020870161126c565b93506040860135925060608601359150608086013567ffffffffffffffff81111561195157600080fd5b61167388828901611566565b60008060006060848603121561197257600080fd5b61197b8461126c565b95602085013595506040909401359392505050565b600181811c908216806119a457607f821691505b6020821081036119c457634e487b7160e01b600052602260045260246000fd5b50919050565b634e487b7160e01b600052603260045260246000fd5b634e487b7160e01b600052601160045260246000fd5b600060018201611a0857611a086119e0565b5060010190565b60208082526029908201527f455243313135353a2063616c6c6572206973206e6f74206f776e6572206e6f7260408201526808185c1c1c9bdd995960ba1b606082015260800190565b6001600160a01b03868116825285166020820152604081018490526060810183905260a060808201819052600090611a92908301846112fe565b979650505050505050565b600060208284031215611aaf57600080fd5b815161094d816112b2565b6001600160a01b0386811682528516602082015260a060408201819052600090611ae69083018661176c565b8281036060840152611af8818661176c565b90508281036080840152611b0c81856112fe565b98975050505050505050565b8082018082111561031e5761031e6119e0565b604081526000611b3e604083018561176c565b8281036020840152611b50818561176c565b9594505050505056fea2646970667358221220657a3fc936dd364d0ca34f11e0d74f42c7fcf084c91393797f76c652db4fe38a64736f6c63430008140033",
  "linkReferences": {},
  "deployedLinkReferences": {}
}