{
  "_format": "hh-sol-artifact-1",
  "contractName": "ERC1155_mintable",
  "sourceName": "contracts/__generated__/ERC1155_mintable.sol",
  "abi": [
    {
      "inputs": [
        {
          "internalType": "string",
          "name": "uri_",
          "type": "string"
        }
      ],
      "stateMutability": "nonpayable",
      "type": "constructor"
    },
    {
      "inputs": [],
      "name": "AccessControlBadConfirmation",
      "type": "error"
    },
    {
      "inputs": [
        {
          "internalType": "address",
          "name": "account",
          "type": "address"
        },
        {
          "internalType": "bytes32",
          "name": "neededRole",
          "type": "bytes32"
        }
      ],
      "name": "AccessControlUnauthorizedAccount",
      "type": "error"
    },
    {
      "inputs": [
        {
          "internalType": "address",
          "name": "sender",
          "type": "address"
        },
        {
          "internalType": "uint256",
          "name": "balance",
          "type": "uint256"
        },
        {
          "internalType": "uint256",
          "name": "needed",
          "type": "uint256"
        },
        {
          "internalType": "uint256",
          "name": "tokenId",
          "type": "uint256"
        }
      ],
      "name": "ERC1155InsufficientBalance",
      "type": "error"
    },
    {
      "inputs": [
        {
          "internalType": "address",
          "name": "approver",
          "type": "address"
        }
      ],
      "name": "ERC1155InvalidApprover",
      "type": "error"
    },
    {
      "inputs": [
        {
          "internalType": "uint256",
          "name": "idsLength",
          "type": "uint256"
        },
        {
          "internalType": "uint256",
          "name": "valuesLength",
          "type": "uint256"
        }
      ],
      "name": "ERC1155InvalidArrayLength",
      "type": "error"
    },
    {
      "inputs": [
        {
          "internalType": "address",
          "name": "operator",
          "type": "address"
        }
      ],
      "name": "ERC1155InvalidOperator",
      "type": "error"
    },
    {
      "inputs": [
        {
          "internalType": "address",
          "name": "receiver",
          "type": "address"
        }
      ],
      "name": "ERC1155InvalidReceiver",
      "type": "error"
    },
    {
      "inputs": [
        {
          "internalType": "address",
          "name": "sender",
          "type": "address"
        }
      ],
      "name": "ERC1155InvalidSender",
      "type": "error"
    },
    {
      "inputs": [
        {
          "internalType": "address",
          "name": "operator",
          "type": "address"
        },
        {
          "internalType": "address",
          "name": "owner",
          "type": "address"
        }
      ],
      "name": "ERC1155MissingApprovalForAll",
      "type": "error"
    },
    {
      "inputs": [],
      "name": "EnforcedPause",
      "type": "error"
    },
    {
      "inputs": [],
      "name": "ExpectedPause",
      "type": "error"
    },
    {
      "anonymous": false,
      "inputs": [
        {
          "indexed": true,
          "internalType": "address",
          "name": "account",
          "type": "address"
        },
        {
          "indexed": true,
          "internalType": "address",
          "name": "operator",
          "type": "address"
        },
        {
          "indexed": false,
          "internalType": "bool",
          "name": "approved",
          "type": "bool"
        }
      ],
      "name": "ApprovalForAll",
      "type": "event"
    },
    {
      "anonymous": false,
      "inputs": [
        {
          "indexed": false,
          "internalType": "address",
          "name": "account",
          "type": "address"
        }
      ],
      "name": "Paused",
      "type": "event"
    },
    {
      "anonymous": false,
      "inputs": [
        {
          "indexed": true,
          "internalType": "bytes32",
          "name": "role",
          "type": "bytes32"
        },
        {
          "indexed": true,
          "internalType": "bytes32",
          "name": "previousAdminRole",
          "type": "bytes32"
        },
        {
          "indexed": true,
          "internalType": "bytes32",
          "name": "newAdminRole",
          "type": "bytes32"
        }
      ],
      "name": "RoleAdminChanged",
      "type": "event"
    },
    {
      "anonymous": false,
      "inputs": [
        {
          "indexed": true,
          "internalType": "bytes32",
          "name": "role",
          "type": "bytes32"
        },
        {
          "indexed": true,
          "internalType": "address",
          "name": "account",
          "type": "address"
        },
        {
          "indexed": true,
          "internalType": "address",
          "name": "sender",
          "type": "address"
        }
      ],
      "name": "RoleGranted",
      "type": "event"
    },
    {
      "anonymous": false,
      "inputs": [
        {
          "indexed": true,
          "internalType": "bytes32",
          "name": "role",
          "type": "bytes32"
        },
        {
          "indexed": true,
          "internalType": "address",
          "name": "account",
          "type": "address"
        },
        {
          "indexed": true,
          "internalType": "address",
          "name": "sender",
          "type": "address"
        }
      ],
      "name": "RoleRevoked",
      "type": "event"
    },
    {
      "anonymous": false,
      "inputs": [
        {
          "indexed": true,
          "internalType": "address",
          "name": "operator",
          "type": "address"
        },
        {
          "indexed": true,
          "internalType": "address",
          "name": "from",
          "type": "address"
        },
        {
          "indexed": true,
          "internalType": "address",
          "name": "to",
          "type": "address"
        },
        {
          "indexed": false,
          "internalType": "uint256[]",
          "name": "ids",
          "type": "uint256[]"
        },
        {
          "indexed": false,
          "internalType": "uint256[]",
          "name": "values",
          "type": "uint256[]"
        }
      ],
      "name": "TransferBatch",
      "type": "event"
    },
    {
      "anonymous": false,
      "inputs": [
        {
          "indexed": true,
          "internalType": "address",
          "name": "operator",
          "type": "address"
        },
        {
          "indexed": true,
          "internalType": "address",
          "name": "from",
          "type": "address"
        },
        {
          "indexed": true,
          "internalType": "address",
          "name": "to",
          "type": "address"
        },
        {
          "indexed": false,
          "internalType": "uint256",
          "name": "id",
          "type": "uint256"
        },
        {
          "indexed": false,
          "internalType": "uint256",
          "name": "value",
          "type": "uint256"
        }
      ],
      "name": "TransferSingle",
      "type": "event"
    },
    {
      "anonymous": false,
      "inputs": [
        {
          "indexed": false,
          "internalType": "string",
          "name": "value",
          "type": "string"
        },
        {
          "indexed": true,
          "internalType": "uint256",
          "name": "id",
          "type": "uint256"
        }
      ],
      "name": "URI",
      "type": "event"
    },
    {
      "anonymous": false,
      "inputs": [
        {
          "indexed": false,
          "internalType": "address",
          "name": "account",
          "type": "address"
        }
      ],
      "name": "Unpaused",
      "type": "event"
    },
    {
      "inputs": [],
      "name": "DEFAULT_ADMIN_ROLE",
      "outputs": [
        {
          "internalType": "bytes32",
          "name": "",
          "type": "bytes32"
        }
      ],
      "stateMutability": "view",
      "type": "function"
    },
    {
      "inputs": [],
      "name": "MINTER_ROLE",
      "outputs": [
        {
          "internalType": "bytes32",
          "name": "",
          "type": "bytes32"
        }
      ],
      "stateMutability": "view",
      "type": "function"
    },
    {
      "inputs": [
        {
          "internalType": "address",
          "name": "account",
          "type": "address"
        },
        {
          "internalType": "uint256",
          "name": "id",
          "type": "uint256"
        }
      ],
      "name": "balanceOf",
      "outputs": [
        {
          "internalType": "uint256",
          "name": "",
          "type": "uint256"
        }
      ],
      "stateMutability": "view",
      "type": "function"
    },
    {
      "inputs": [
        {
          "internalType": "address[]",
          "name": "accounts",
          "type": "address[]"
        },
        {
          "internalType": "uint256[]",
          "name": "ids",
          "type": "uint256[]"
        }
      ],
      "name": "balanceOfBatch",
      "outputs": [
        {
          "internalType": "uint256[]",
          "name": "",
          "type": "uint256[]"
        }
      ],
      "stateMutability": "view",
      "type": "function"
    },
    {
      "inputs": [
        {
          "internalType": "bytes32",
          "name": "role",
          "type": "bytes32"
        }
      ],
      "name": "getRoleAdmin",
      "outputs": [
        {
          "internalType": "bytes32",
          "name": "",
          "type": "bytes32"
        }
      ],
      "stateMutability": "view",
      "type": "function"
    },
    {
      "inputs": [
        {
          "internalType": "bytes32",
          "name": "role",
          "type": "bytes32"
        },
        {
          "internalType": "address",
          "name": "account",
          "type": "address"
        }
      ],
      "name": "grantRole",
      "outputs": [],
      "stateMutability": "nonpayable",
      "type": "function"
    },
    {
      "inputs": [
        {
          "internalType": "bytes32",
          "name": "role",
          "type": "bytes32"
        },
        {
          "internalType": "address",
          "name": "account",
          "type": "address"
        }
      ],
      "name": "hasRole",
      "outputs": [
        {
          "internalType": "bool",
          "name": "",
          "type": "bool"
        }
      ],
      "stateMutability": "view",
      "type": "function"
    },
    {
      "inputs": [
        {
          "internalType": "address",
          "name": "account",
          "type": "address"
        },
        {
          "internalType": "address",
          "name": "operator",
          "type": "address"
        }
      ],
      "name": "isApprovedForAll",
      "outputs": [
        {
          "internalType": "bool",
          "name": "",
          "type": "bool"
        }
      ],
      "stateMutability": "view",
      "type": "function"
    },
    {
      "inputs": [
        {
          "internalType": "address",
          "name": "to",
          "type": "address"
        },
        {
          "internalType": "uint256",
          "name": "id",
          "type": "uint256"
        },
        {
          "internalType": "uint256",
          "name": "amount",
          "type": "uint256"
        },
        {
          "internalType": "bytes",
          "name": "data",
          "type": "bytes"
        }
      ],
      "name": "mint",
      "outputs": [],
      "stateMutability": "nonpayable",
      "type": "function"
    },
    {
      "inputs": [
        {
          "internalType": "address",
          "name": "to",
          "type": "address"
        },
        {
          "internalType": "uint256[]",
          "name": "ids",
          "type": "uint256[]"
        },
        {
          "internalType": "uint256[]",
          "name": "amounts",
          "type": "uint256[]"
        },
        {
          "internalType": "bytes",
          "name": "data",
          "type": "bytes"
        }
      ],
      "name": "mintBatch",
      "outputs": [],
      "stateMutability": "nonpayable",
      "type": "function"
    },
    {
      "inputs": [],
      "name": "paused",
      "outputs": [
        {
          "internalType": "bool",
          "name": "",
          "type": "bool"
        }
      ],
      "stateMutability": "view",
      "type": "function"
    },
    {
      "inputs": [
        {
          "internalType": "bytes32",
          "name": "role",
          "type": "bytes32"
        },
        {
          "internalType": "address",
          "name": "callerConfirmation",
          "type": "address"
        }
      ],
      "name": "renounceRole",
      "outputs": [],
      "stateMutability": "nonpayable",
      "type": "function"
    },
    {
      "inputs": [
        {
          "internalType": "bytes32",
          "name": "role",
          "type": "bytes32"
        },
        {
          "internalType": "address",
          "name": "account",
          "type": "address"
        }
      ],
      "name": "revokeRole",
      "outputs": [],
      "stateMutability": "nonpayable",
      "type": "function"
    },
    {
      "inputs": [
        {
          "internalType": "address",
          "name": "from",
          "type": "address"
        },
        {
          "internalType": "address",
          "name": "to",
          "type": "address"
        },
        {
          "internalType": "uint256[]",
          "name": "ids",
          "type": "uint256[]"
        },
        {
          "internalType": "uint256[]",
          "name": "values",
          "type": "uint256[]"
        },
        {
          "internalType": "bytes",
          "name": "data",
          "type": "bytes"
        }
      ],
      "name": "safeBatchTransferFrom",
      "outputs": [],
      "stateMutability": "nonpayable",
      "type": "function"
    },
    {
      "inputs": [
        {
          "internalType": "address",
          "name": "from",
          "type": "address"
        },
        {
          "internalType": "address",
          "name": "to",
          "type": "address"
        },
        {
          "internalType": "uint256",
          "name": "id",
          "type": "uint256"
        },
        {
          "internalType": "uint256",
          "name": "value",
          "type": "uint256"
        },
        {
          "internalType": "bytes",
          "name": "data",
          "type": "bytes"
        }
      ],
      "name": "safeTransferFrom",
      "outputs": [],
      "stateMutability": "nonpayable",
      "type": "function"
    },
    {
      "inputs": [
        {
          "internalType": "address",
          "name": "operator",
          "type": "address"
        },
        {
          "internalType": "bool",
          "name": "approved",
          "type": "bool"
        }
      ],
      "name": "setApprovalForAll",
      "outputs": [],
      "stateMutability": "nonpayable",
      "type": "function"
    },
    {
      "inputs": [
        {
          "internalType": "bytes4",
          "name": "interfaceId",
          "type": "bytes4"
        }
      ],
      "name": "supportsInterface",
      "outputs": [
        {
          "internalType": "bool",
          "name": "",
          "type": "bool"
        }
      ],
      "stateMutability": "view",
      "type": "function"
    },
    {
      "inputs": [
        {
          "internalType": "uint256",
          "name": "",
          "type": "uint256"
        }
      ],
      "name": "uri",
      "outputs": [
        {
          "internalType": "string",
          "name": "",
          "type": "string"
        }
      ],
      "stateMutability": "view",
      "type": "function"
    }
  ],
  "bytecode": "0x60806040523480156200001157600080fd5b5060405162001c7138038062001c71833981016040819052620000349162000161565b8080620000418162000086565b506200004f60003362000098565b506200007e90507f9f2df0fed2c77648de5860a4cc508cd0818c85b8b8a1ab4ceeef8d981c8956a63362000098565b505062000391565b6002620000948282620002c5565b5050565b60008281526004602090815260408083206001600160a01b038516845290915281205460ff16620001415760008381526004602090815260408083206001600160a01b03861684529091529020805460ff19166001179055620000f83390565b6001600160a01b0316826001600160a01b0316847f2f8788117e7eff1d82e926ec794901d17c78024a50270940304540a733656f0d60405160405180910390a450600162000145565b5060005b92915050565b634e487b7160e01b600052604160045260246000fd5b600060208083850312156200017557600080fd5b82516001600160401b03808211156200018d57600080fd5b818501915085601f830112620001a257600080fd5b815181811115620001b757620001b76200014b565b604051601f8201601f19908116603f01168101908382118183101715620001e257620001e26200014b565b816040528281528886848701011115620001fb57600080fd5b600093505b828410156200021f578484018601518185018701529285019262000200565b600086848301015280965050505050505092915050565b600181811c908216806200024b57607f821691505b6020821081036200026c57634e487b7160e01b600052602260045260246000fd5b50919050565b601f821115620002c057600081815260208120601f850160051c810160208610156200029b5750805b601f850160051c820191505b81811015620002bc57828155600101620002a7565b5050505b505050565b81516001600160401b03811115620002e157620002e16200014b565b620002f981620002f2845462000236565b8462000272565b602080601f831160018114620003315760008415620003185750858301515b600019600386901b1c1916600185901b178555620002bc565b600085815260208120601f198616915b82811015620003625788860151825594840194600190910190840162000341565b5085821015620003815787850151600019600388901b60f8161c191681555b5050505050600190811b01905550565b6118d080620003a16000396000f3fe608060405234801561001057600080fd5b50600436106101155760003560e01c80635c975abb116100a2578063a22cb46511610071578063a22cb4651461024d578063d539139314610260578063d547741f14610287578063e985e9c51461029a578063f242432a146102ad57600080fd5b80635c975abb14610214578063731133e91461021f57806391d1485414610232578063a217fddf1461024557600080fd5b8063248a9ca3116100e9578063248a9ca3146101985780632eb2c2d6146101bb5780632f2ff15d146101ce57806336568abe146101e15780634e1273f4146101f457600080fd5b8062fdd58e1461011a57806301ffc9a7146101405780630e89341c146101635780631f7fdffa14610183575b600080fd5b61012d6101283660046110b5565b6102c0565b6040519081526020015b60405180910390f35b61015361014e3660046110f5565b6102e8565b6040519015158152602001610137565b610176610171366004611112565b6102f3565b6040516101379190611171565b610196610191366004611212565b610387565b005b61012d6101a6366004611112565b60009081526004602052604090206001015490565b6101966101c9366004611403565b6104ad565b6101966101dc3660046114ad565b610514565b6101966101ef3660046114ad565b61053f565b6102076102023660046114d9565b610577565b60405161013791906115d4565b60035460ff16610153565b61019661022d3660046115e7565b61064c565b6101536102403660046114ad565b61070b565b61012d600081565b61019661025b36600461164f565b610736565b61012d7f9f2df0fed2c77648de5860a4cc508cd0818c85b8b8a1ab4ceeef8d981c8956a681565b6101966102953660046114ad565b610745565b6101536102a836600461168b565b61076a565b6101966102bb3660046116b5565b610798565b6000818152602081815260408083206001600160a01b03861684529091529020545b92915050565b60006102e2826107f7565b6060600280546103029061171a565b80601f016020809104026020016040519081016040528092919081815260200182805461032e9061171a565b801561037b5780601f106103505761010080835404028352916020019161037b565b820191906000526020600020905b81548152906001019060200180831161035e57829003601f168201915b50505050509050919050565b6103b17f9f2df0fed2c77648de5860a4cc508cd0818c85b8b8a1ab4ceeef8d981c8956a63361081c565b6104025760405162461bcd60e51b815260206004820152601c60248201527f455243313135353a206d697373696e67204d494e5445525f524f4c450000000060448201526064015b60405180910390fd5b6104a48787878080602002602001604051908101604052809392919081815260200183836020028082843760009201919091525050604080516020808b0282810182019093528a82529093508a92508991829185019084908082843760009201919091525050604080516020601f8a01819004810282018101909252888152925088915087908190840183828082843760009201919091525061082f92505050565b50505050505050565b336001600160a01b03861681148015906104ce57506104cc868261076a565b155b156104ff5760405163711bec9160e11b81526001600160a01b038083166004830152871660248201526044016103f9565b61050c8686868686610867565b505050505050565b60008281526004602052604090206001015461052f816108c7565b61053983836108d4565b50505050565b6001600160a01b03811633146105685760405163334bd91960e11b815260040160405180910390fd5b6105728282610968565b505050565b606081518351146105a85781518351604051635b05999160e01b8152600481019290925260248201526044016103f9565b6000835167ffffffffffffffff8111156105c4576105c46112bd565b6040519080825280602002602001820160405280156105ed578160200160208202803683370190505b50905060005b845181101561064457602080820286010151610617906020808402870101516102c0565b82828151811061062957610629611754565b602090810291909101015261063d81611780565b90506105f3565b509392505050565b6106767f9f2df0fed2c77648de5860a4cc508cd0818c85b8b8a1ab4ceeef8d981c8956a63361081c565b6106c25760405162461bcd60e51b815260206004820152601c60248201527f455243313135353a206d697373696e67204d494e5445525f524f4c450000000060448201526064016103f9565b61070485858585858080601f0160208091040260200160405190810160405280939291908181526020018383808284376000920191909152506109d592505050565b5050505050565b60009182526004602090815260408084206001600160a01b0393909316845291905290205460ff1690565b610741338383610a32565b5050565b600082815260046020526040902060010154610760816108c7565b6105398383610968565b6001600160a01b03918216600090815260016020908152604080832093909416825291909152205460ff1690565b336001600160a01b03861681148015906107b957506107b7868261076a565b155b156107ea5760405163711bec9160e11b81526001600160a01b038083166004830152871660248201526044016103f9565b61050c8686868686610ac8565b60006001600160e01b03198216637965db0b60e01b14806102e257506102e282610b4d565b6000610828838361070b565b9392505050565b6001600160a01b03841661085957604051632bfa23e760e11b8152600060048201526024016103f9565b610539600085858585610b9d565b6001600160a01b03841661089157604051632bfa23e760e11b8152600060048201526024016103f9565b6001600160a01b0385166108ba57604051626a0d4560e21b8152600060048201526024016103f9565b6107048585858585610b9d565b6108d18133610bf0565b50565b60006108e0838361070b565b6109605760008381526004602090815260408083206001600160a01b03861684529091529020805460ff191660011790556109183390565b6001600160a01b0316826001600160a01b0316847f2f8788117e7eff1d82e926ec794901d17c78024a50270940304540a733656f0d60405160405180910390a45060016102e2565b5060006102e2565b6000610974838361070b565b156109605760008381526004602090815260408083206001600160a01b0386168085529252808320805460ff1916905551339286917ff6391f5c32d9c69d2a47ea670b442974b53935d1edc7fd64eb21e047a839171b9190a45060016102e2565b6001600160a01b0384166109ff57604051632bfa23e760e11b8152600060048201526024016103f9565b6040805160018082526020820186905281830190815260608201859052608082019092529061050c600087848487610b9d565b6001600160a01b038216610a5b5760405162ced3e160e81b8152600060048201526024016103f9565b6001600160a01b03838116600081815260016020908152604080832094871680845294825291829020805460ff191686151590811790915591519182527f17307eab39ab6107e8899845ad3d59bd9653f200f220920489ca2b5937696c31910160405180910390a3505050565b6001600160a01b038416610af257604051632bfa23e760e11b8152600060048201526024016103f9565b6001600160a01b038516610b1b57604051626a0d4560e21b8152600060048201526024016103f9565b604080516001808252602082018690528183019081526060820185905260808201909252906104a48787848487610b9d565b60006001600160e01b03198216636cdb3d1360e11b1480610b7e57506001600160e01b031982166303a24d0760e21b145b806102e257506301ffc9a760e01b6001600160e01b03198316146102e2565b610ba985858585610c29565b6001600160a01b038416156107045782513390600103610be25760208481015190840151610bdb838989858589610c35565b505061050c565b61050c818787878787610d59565b610bfa828261070b565b6107415760405163e2517d3f60e01b81526001600160a01b0382166004820152602481018390526044016103f9565b61053984848484610e42565b6001600160a01b0384163b1561050c5760405163f23a6e6160e01b81526001600160a01b0385169063f23a6e6190610c799089908990889088908890600401611799565b6020604051808303816000875af1925050508015610cb4575060408051601f3d908101601f19168201909252610cb1918101906117de565b60015b610d1d573d808015610ce2576040519150601f19603f3d011682016040523d82523d6000602084013e610ce7565b606091505b508051600003610d1557604051632bfa23e760e11b81526001600160a01b03861660048201526024016103f9565b805160208201fd5b6001600160e01b0319811663f23a6e6160e01b146104a457604051632bfa23e760e11b81526001600160a01b03861660048201526024016103f9565b6001600160a01b0384163b1561050c5760405163bc197c8160e01b81526001600160a01b0385169063bc197c8190610d9d90899089908890889088906004016117fb565b6020604051808303816000875af1925050508015610dd8575060408051601f3d908101601f19168201909252610dd5918101906117de565b60015b610e06573d808015610ce2576040519150601f19603f3d011682016040523d82523d6000602084013e610ce7565b6001600160e01b0319811663bc197c8160e01b146104a457604051632bfa23e760e11b81526001600160a01b03861660048201526024016103f9565b610e4a610e56565b61053984848484610e7c565b60035460ff1615610e7a5760405163d93c066560e01b815260040160405180910390fd5b565b8051825114610eab5781518151604051635b05999160e01b8152600481019290925260248201526044016103f9565b3360005b8351811015610fba576020818102858101820151908501909101516001600160a01b03881615610f62576000828152602081815260408083206001600160a01b038c16845290915290205481811015610f3b576040516303dee4c560e01b81526001600160a01b038a1660048201526024810182905260448101839052606481018490526084016103f9565b6000838152602081815260408083206001600160a01b038d16845290915290209082900390555b6001600160a01b03871615610fa7576000828152602081815260408083206001600160a01b038b16845290915281208054839290610fa1908490611859565b90915550505b505080610fb390611780565b9050610eaf565b50825160010361103b5760208301516000906020840151909150856001600160a01b0316876001600160a01b0316846001600160a01b03167fc3d58168c5ae7397731d063d5bbf3d657854427343f4c083240f7aacaa2d0f62858560405161102c929190918252602082015260400190565b60405180910390a45050610704565b836001600160a01b0316856001600160a01b0316826001600160a01b03167f4a39dc06d4c0dbc64b70af90fd698a233a518aa5d07e595d983b8c0526c8f7fb868660405161108a92919061186c565b60405180910390a45050505050565b80356001600160a01b03811681146110b057600080fd5b919050565b600080604083850312156110c857600080fd5b6110d183611099565b946020939093013593505050565b6001600160e01b0319811681146108d157600080fd5b60006020828403121561110757600080fd5b8135610828816110df565b60006020828403121561112457600080fd5b5035919050565b6000815180845260005b8181101561115157602081850181015186830182015201611135565b506000602082860101526020601f19601f83011685010191505092915050565b602081526000610828602083018461112b565b60008083601f84011261119657600080fd5b50813567ffffffffffffffff8111156111ae57600080fd5b6020830191508360208260051b85010111156111c957600080fd5b9250929050565b60008083601f8401126111e257600080fd5b50813567ffffffffffffffff8111156111fa57600080fd5b6020830191508360208285010111156111c957600080fd5b60008060008060008060006080888a03121561122d57600080fd5b61123688611099565b9650602088013567ffffffffffffffff8082111561125357600080fd5b61125f8b838c01611184565b909850965060408a013591508082111561127857600080fd5b6112848b838c01611184565b909650945060608a013591508082111561129d57600080fd5b506112aa8a828b016111d0565b989b979a50959850939692959293505050565b634e487b7160e01b600052604160045260246000fd5b604051601f8201601f1916810167ffffffffffffffff811182821017156112fc576112fc6112bd565b604052919050565b600067ffffffffffffffff82111561131e5761131e6112bd565b5060051b60200190565b600082601f83011261133957600080fd5b8135602061134e61134983611304565b6112d3565b82815260059290921b8401810191818101908684111561136d57600080fd5b8286015b848110156113885780358352918301918301611371565b509695505050505050565b600082601f8301126113a457600080fd5b813567ffffffffffffffff8111156113be576113be6112bd565b6113d1601f8201601f19166020016112d3565b8181528460208386010111156113e657600080fd5b816020850160208301376000918101602001919091529392505050565b600080600080600060a0868803121561141b57600080fd5b61142486611099565b945061143260208701611099565b9350604086013567ffffffffffffffff8082111561144f57600080fd5b61145b89838a01611328565b9450606088013591508082111561147157600080fd5b61147d89838a01611328565b9350608088013591508082111561149357600080fd5b506114a088828901611393565b9150509295509295909350565b600080604083850312156114c057600080fd5b823591506114d060208401611099565b90509250929050565b600080604083850312156114ec57600080fd5b823567ffffffffffffffff8082111561150457600080fd5b818501915085601f83011261151857600080fd5b8135602061152861134983611304565b82815260059290921b8401810191818101908984111561154757600080fd5b948201945b8386101561156c5761155d86611099565b8252948201949082019061154c565b9650508601359250508082111561158257600080fd5b5061158f85828601611328565b9150509250929050565b600081518084526020808501945080840160005b838110156115c9578151875295820195908201906001016115ad565b509495945050505050565b6020815260006108286020830184611599565b6000806000806000608086880312156115ff57600080fd5b61160886611099565b94506020860135935060408601359250606086013567ffffffffffffffff81111561163257600080fd5b61163e888289016111d0565b969995985093965092949392505050565b6000806040838503121561166257600080fd5b61166b83611099565b91506020830135801515811461168057600080fd5b809150509250929050565b6000806040838503121561169e57600080fd5b6116a783611099565b91506114d060208401611099565b600080600080600060a086880312156116cd57600080fd5b6116d686611099565b94506116e460208701611099565b93506040860135925060608601359150608086013567ffffffffffffffff81111561170e57600080fd5b6114a088828901611393565b600181811c9082168061172e57607f821691505b60208210810361174e57634e487b7160e01b600052602260045260246000fd5b50919050565b634e487b7160e01b600052603260045260246000fd5b634e487b7160e01b600052601160045260246000fd5b6000600182016117925761179261176a565b5060010190565b6001600160a01b03868116825285166020820152604081018490526060810183905260a0608082018190526000906117d39083018461112b565b979650505050505050565b6000602082840312156117f057600080fd5b8151610828816110df565b6001600160a01b0386811682528516602082015260a06040820181905260009061182790830186611599565b82810360608401526118398186611599565b9050828103608084015261184d818561112b565b98975050505050505050565b808201808211156102e2576102e261176a565b60408152600061187f6040830185611599565b82810360208401526118918185611599565b9594505050505056fea26469706673582212204f8ea50623b6fa144aad0f514a03ef2005aa83b9bd812341e999af670fb8dbf964736f6c63430008140033",
  "linkReferences": {},
  "deployedLinkReferences": {}
}