{
  "_format": "hh-sol-artifact-1",
  "contractName": "ERC1155_burnable_mintable_pausable",
  "sourceName": "contracts/__generated__/ERC1155_burnable_mintable_pausable.sol",
  "abi": [
    {
      "inputs": [
        {
          "internalType": "string",
          "name": "uri_",
          "type": "string"
        }
      ],
      "stateMutability": "nonpayable",
      "type": "constructor"
    },
    {
      "inputs": [],
      "name": "AccessControlBadConfirmation",
      "type": "error"
    },
    {
      "inputs": [
        {
          "internalType": "address",
          "name": "account",
          "type": "address"
        },
        {
          "internalType": "bytes32",
          "name": "neededRole",
          "type": "bytes32"
        }
      ],
      "name": "AccessControlUnauthorizedAccount",
      "type": "error"
    },
    {
      "inputs": [
        {
          "internalType": "address",
          "name": "sender",
          "type": "address"
        },
        {
          "internalType": "uint256",
          "name": "balance",
          "type": "uint256"
        },
        {
          "internalType": "uint256",
          "name": "needed",
          "type": "uint256"
        },
        {
          "internalType": "uint256",
          "name": "tokenId",
          "type": "uint256"
        }
      ],
      "name": "ERC1155InsufficientBalance",
      "type": "error"
    },
    {
      "inputs": [
        {
          "internalType": "address",
          "name": "approver",
          "type": "address"
        }
      ],
      "name": "ERC1155InvalidApprover",
      "type": "error"
    },
    {
      "inputs": [
        {
          "internalType": "uint256",
          "name": "idsLength",
          "type": "uint256"
        },
        {
          "internalType": "uint256",
          "name": "valuesLength",
          "type": "uint256"
        }
      ],
      "name": "ERC1155InvalidArrayLength",
      "type": "error"
    },
    {
      "inputs": [
        {
          "internalType": "address",
          "name": "operator",
          "type": "address"
        }
      ],
      "name": "ERC1155InvalidOperator",
      "type": "error"
    },
    {
      "inputs": [
        {
          "internalType": "address",
          "name": "receiver",
          "type": "address"
        }
      ],
      "name": "ERC1155InvalidReceiver",
      "type": "error"
    },
    {
      "inputs": [
        {
          "internalType": "address",
          "name": "sender",
          "type": "address"
        }
      ],
      "name": "ERC1155InvalidSender",
      "type": "error"
    },
    {
      "inputs": [
        {
          "internalType": "address",
          "name": "operator",
          "type": "address"
        },
        {
          "internalType": "address",
          "name": "owner",
          "type": "address"
        }
      ],
      "name": "ERC1155MissingApprovalForAll",
      "type": "error"
    },
    {
      "inputs": [],
      "name": "EnforcedPause",
      "type": "error"
    },
    {
      "inputs": [],
      "name": "ExpectedPause",
      "type": "error"
    },
    {
      "anonymous": false,
      "inputs": [
        {
          "indexed": true,
          "internalType": "address",
          "name": "account",
          "type": "address"
        },
        {
          "indexed": true,
          "internalType": "address",
          "name": "operator",
          "type": "address"
        },
        {
          "indexed": false,
          "internalType": "bool",
          "name": "approved",
          "type": "bool"
        }
      ],
      "name": "ApprovalForAll",
      "type": "event"
    },
    {
      "anonymous": false,
      "inputs": [
        {
          "indexed": false,
          "internalType": "address",
          "name": "account",
          "type": "address"
        }
      ],
      "name": "Paused",
      "type": "event"
    },
    {
      "anonymous": false,
      "inputs": [
        {
          "indexed": true,
          "internalType": "bytes32",
          "name": "role",
          "type": "bytes32"
        },
        {
          "indexed": true,
          "internalType": "bytes32",
          "name": "previousAdminRole",
          "type": "bytes32"
        },
        {
          "indexed": true,
          "internalType": "bytes32",
          "name": "newAdminRole",
          "type": "bytes32"
        }
      ],
      "name": "RoleAdminChanged",
      "type": "event"
    },
    {
      "anonymous": false,
      "inputs": [
        {
          "indexed": true,
          "internalType": "bytes32",
          "name": "role",
          "type": "bytes32"
        },
        {
          "indexed": true,
          "internalType": "address",
          "name": "account",
          "type": "address"
        },
        {
          "indexed": true,
          "internalType": "address",
          "name": "sender",
          "type": "address"
        }
      ],
      "name": "RoleGranted",
      "type": "event"
    },
    {
      "anonymous": false,
      "inputs": [
        {
          "indexed": true,
          "internalType": "bytes32",
          "name": "role",
          "type": "bytes32"
        },
        {
          "indexed": true,
          "internalType": "address",
          "name": "account",
          "type": "address"
        },
        {
          "indexed": true,
          "internalType": "address",
          "name": "sender",
          "type": "address"
        }
      ],
      "name": "RoleRevoked",
      "type": "event"
    },
    {
      "anonymous": false,
      "inputs": [
        {
          "indexed": true,
          "internalType": "address",
          "name": "operator",
          "type": "address"
        },
        {
          "indexed": true,
          "internalType": "address",
          "name": "from",
          "type": "address"
        },
        {
          "indexed": true,
          "internalType": "address",
          "name": "to",
          "type": "address"
        },
        {
          "indexed": false,
          "internalType": "uint256[]",
          "name": "ids",
          "type": "uint256[]"
        },
        {
          "indexed": false,
          "internalType": "uint256[]",
          "name": "values",
          "type": "uint256[]"
        }
      ],
      "name": "TransferBatch",
      "type": "event"
    },
    {
      "anonymous": false,
      "inputs": [
        {
          "indexed": true,
          "internalType": "address",
          "name": "operator",
          "type": "address"
        },
        {
          "indexed": true,
          "internalType": "address",
          "name": "from",
          "type": "address"
        },
        {
          "indexed": true,
          "internalType": "address",
          "name": "to",
          "type": "address"
        },
        {
          "indexed": false,
          "internalType": "uint256",
          "name": "id",
          "type": "uint256"
        },
        {
          "indexed": false,
          "internalType": "uint256",
          "name": "value",
          "type": "uint256"
        }
      ],
      "name": "TransferSingle",
      "type": "event"
    },
    {
      "anonymous": false,
      "inputs": [
        {
          "indexed": false,
          "internalType": "string",
          "name": "value",
          "type": "string"
        },
        {
          "indexed": true,
          "internalType": "uint256",
          "name": "id",
          "type": "uint256"
        }
      ],
      "name": "URI",
      "type": "event"
    },
    {
      "anonymous": false,
      "inputs": [
        {
          "indexed": false,
          "internalType": "address",
          "name": "account",
          "type": "address"
        }
      ],
      "name": "Unpaused",
      "type": "event"
    },
    {
      "inputs": [],
      "name": "DEFAULT_ADMIN_ROLE",
      "outputs": [
        {
          "internalType": "bytes32",
          "name": "",
          "type": "bytes32"
        }
      ],
      "stateMutability": "view",
      "type": "function"
    },
    {
      "inputs": [],
      "name": "MINTER_ROLE",
      "outputs": [
        {
          "internalType": "bytes32",
          "name": "",
          "type": "bytes32"
        }
      ],
      "stateMutability": "view",
      "type": "function"
    },
    {
      "inputs": [],
      "name": "PAUSER_ROLE",
      "outputs": [
        {
          "internalType": "bytes32",
          "name": "",
          "type": "bytes32"
        }
      ],
      "stateMutability": "view",
      "type": "function"
    },
    {
      "inputs": [
        {
          "internalType": "address",
          "name": "account",
          "type": "address"
        },
        {
          "internalType": "uint256",
          "name": "id",
          "type": "uint256"
        }
      ],
      "name": "balanceOf",
      "outputs": [
        {
          "internalType": "uint256",
          "name": "",
          "type": "uint256"
        }
      ],
      "stateMutability": "view",
      "type": "function"
    },
    {
      "inputs": [
        {
          "internalType": "address[]",
          "name": "accounts",
          "type": "address[]"
        },
        {
          "internalType": "uint256[]",
          "name": "ids",
          "type": "uint256[]"
        }
      ],
      "name": "balanceOfBatch",
      "outputs": [
        {
          "internalType": "uint256[]",
          "name": "",
          "type": "uint256[]"
        }
      ],
      "stateMutability": "view",
      "type": "function"
    },
    {
      "inputs": [
        {
          "internalType": "address",
          "name": "from",
          "type": "address"
        },
        {
          "internalType": "uint256",
          "name": "id",
          "type": "uint256"
        },
        {
          "internalType": "uint256",
          "name": "amount",
          "type": "uint256"
        }
      ],
      "name": "burn",
      "outputs": [],
      "stateMutability": "nonpayable",
      "type": "function"
    },
    {
      "inputs": [
        {
          "internalType": "address",
          "name": "from",
          "type": "address"
        },
        {
          "internalType": "uint256[]",
          "name": "ids",
          "type": "uint256[]"
        },
        {
          "internalType": "uint256[]",
          "name": "amounts",
          "type": "uint256[]"
        }
      ],
      "name": "burnBatch",
      "outputs": [],
      "stateMutability": "nonpayable",
      "type": "function"
    },
    {
      "inputs": [
        {
          "internalType": "bytes32",
          "name": "role",
          "type": "bytes32"
        }
      ],
      "name": "getRoleAdmin",
      "outputs": [
        {
          "internalType": "bytes32",
          "name": "",
          "type": "bytes32"
        }
      ],
      "stateMutability": "view",
      "type": "function"
    },
    {
      "inputs": [
        {
          "internalType": "bytes32",
          "name": "role",
          "type": "bytes32"
        },
        {
          "internalType": "address",
          "name": "account",
          "type": "address"
        }
      ],
      "name": "grantRole",
      "outputs": [],
      "stateMutability": "nonpayable",
      "type": "function"
    },
    {
      "inputs": [
        {
          "internalType": "bytes32",
          "name": "role",
          "type": "bytes32"
        },
        {
          "internalType": "address",
          "name": "account",
          "type": "address"
        }
      ],
      "name": "hasRole",
      "outputs": [
        {
          "internalType": "bool",
          "name": "",
          "type": "bool"
        }
      ],
      "stateMutability": "view",
      "type": "function"
    },
    {
      "inputs": [
        {
          "internalType": "address",
          "name": "account",
          "type": "address"
        },
        {
          "internalType": "address",
          "name": "operator",
          "type": "address"
        }
      ],
      "name": "isApprovedForAll",
      "outputs": [
        {
          "internalType": "bool",
          "name": "",
          "type": "bool"
        }
      ],
      "stateMutability": "view",
      "type": "function"
    },
    {
      "inputs": [
        {
          "internalType": "address",
          "name": "to",
          "type": "address"
        },
        {
          "internalType": "uint256",
          "name": "id",
          "type": "uint256"
        },
        {
          "internalType": "uint256",
          "name": "amount",
          "type": "uint256"
        },
        {
          "internalType": "bytes",
          "name": "data",
          "type": "bytes"
        }
      ],
      "name": "mint",
      "outputs": [],
      "stateMutability": "nonpayable",
      "type": "function"
    },
    {
      "inputs": [
        {
          "internalType": "address",
          "name": "to",
          "type": "address"
        },
        {
          "internalType": "uint256[]",
          "name": "ids",
          "type": "uint256[]"
        },
        {
          "internalType": "uint256[]",
          "name": "amounts",
          "type": "uint256[]"
        },
        {
          "internalType": "bytes",
          "name": "data",
          "type": "bytes"
        }
      ],
      "name": "mintBatch",
      "outputs": [],
      "stateMutability": "nonpayable",
      "type": "function"
    },
    {
      "inputs": [],
      "name": "pause",
      "outputs": [],
      "stateMutability": "nonpayable",
      "type": "function"
    },
    {
      "inputs": [],
      "name": "paused",
      "outputs": [
        {
          "internalType": "bool",
          "name": "",
          "type": "bool"
        }
      ],
      "stateMutability": "view",
      "type": "function"
    },
    {
      "inputs": [
        {
          "internalType": "bytes32",
          "name": "role",
          "type": "bytes32"
        },
        {
          "internalType": "address",
          "name": "callerConfirmation",
          "type": "address"
        }
      ],
      "name": "renounceRole",
      "outputs": [],
      "stateMutability": "nonpayable",
      "type": "function"
    },
    {
      "inputs": [
        {
          "internalType": "bytes32",
          "name": "role",
          "type": "bytes32"
        },
        {
          "internalType": "address",
          "name": "account",
          "type": "address"
        }
      ],
      "name": "revokeRole",
      "outputs": [],
      "stateMutability": "nonpayable",
      "type": "function"
    },
    {
      "inputs": [
        {
          "internalType": "address",
          "name": "from",
          "type": "address"
        },
        {
          "internalType": "address",
          "name": "to",
          "type": "address"
        },
        {
          "internalType": "uint256[]",
          "name": "ids",
          "type": "uint256[]"
        },
        {
          "internalType": "uint256[]",
          "name": "values",
          "type": "uint256[]"
        },
        {
          "internalType": "bytes",
          "name": "data",
          "type": "bytes"
        }
      ],
      "name": "safeBatchTransferFrom",
      "outputs": [],
      "stateMutability": "nonpayable",
      "type": "function"
    },
    {
      "inputs": [
        {
          "internalType": "address",
          "name": "from",
          "type": "address"
        },
        {
          "internalType": "address",
          "name": "to",
          "type": "address"
        },
        {
          "internalType": "uint256",
          "name": "id",
          "type": "uint256"
        },
        {
          "internalType": "uint256",
          "name": "value",
          "type": "uint256"
        },
        {
          "internalType": "bytes",
          "name": "data",
          "type": "bytes"
        }
      ],
      "name": "safeTransferFrom",
      "outputs": [],
      "stateMutability": "nonpayable",
      "type": "function"
    },
    {
      "inputs": [
        {
          "internalType": "address",
          "name": "operator",
          "type": "address"
        },
        {
          "internalType": "bool",
          "name": "approved",
          "type": "bool"
        }
      ],
      "name": "setApprovalForAll",
      "outputs": [],
      "stateMutability": "nonpayable",
      "type": "function"
    },
    {
      "inputs": [
        {
          "internalType": "bytes4",
          "name": "interfaceId",
          "type": "bytes4"
        }
      ],
      "name": "supportsInterface",
      "outputs": [
        {
          "internalType": "bool",
          "name": "",
          "type": "bool"
        }
      ],
      "stateMutability": "view",
      "type": "function"
    },
    {
      "inputs": [],
      "name": "unpause",
      "outputs": [],
      "stateMutability": "nonpayable",
      "type": "function"
    },
    {
      "inputs": [
        {
          "internalType": "uint256",
          "name": "",
          "type": "uint256"
        }
      ],
      "name": "uri",
      "outputs": [
        {
          "internalType": "string",
          "name": "",
          "type": "string"
        }
      ],
      "stateMutability": "view",
      "type": "function"
    }
  ],
  "bytecode": "0x60806040523480156200001157600080fd5b506040516200215e3803806200215e83398101604081905262000034916200018e565b80806200004181620000b3565b506200004f600033620000c5565b506200007e90507f9f2df0fed2c77648de5860a4cc508cd0818c85b8b8a1ab4ceeef8d981c8956a633620000c5565b50620000ab7f65d7a28e3265b37a6474929f336521b332c1681b933f6cb9f3376673440d862a33620000c5565b5050620003be565b6002620000c18282620002f2565b5050565b60008281526004602090815260408083206001600160a01b038516845290915281205460ff166200016e5760008381526004602090815260408083206001600160a01b03861684529091529020805460ff19166001179055620001253390565b6001600160a01b0316826001600160a01b0316847f2f8788117e7eff1d82e926ec794901d17c78024a50270940304540a733656f0d60405160405180910390a450600162000172565b5060005b92915050565b634e487b7160e01b600052604160045260246000fd5b60006020808385031215620001a257600080fd5b82516001600160401b0380821115620001ba57600080fd5b818501915085601f830112620001cf57600080fd5b815181811115620001e457620001e462000178565b604051601f8201601f19908116603f011681019083821181831017156200020f576200020f62000178565b8160405282815288868487010111156200022857600080fd5b600093505b828410156200024c57848401860151818501870152928501926200022d565b600086848301015280965050505050505092915050565b600181811c908216806200027857607f821691505b6020821081036200029957634e487b7160e01b600052602260045260246000fd5b50919050565b601f821115620002ed57600081815260208120601f850160051c81016020861015620002c85750805b601f850160051c820191505b81811015620002e957828155600101620002d4565b5050505b505050565b81516001600160401b038111156200030e576200030e62000178565b62000326816200031f845462000263565b846200029f565b602080601f8311600181146200035e5760008415620003455750858301515b600019600386901b1c1916600185901b178555620002e9565b600085815260208120601f198616915b828110156200038f578886015182559484019460019091019084016200036e565b5085821015620003ae5787850151600019600388901b60f8161c191681555b5050505050600190811b01905550565b611d9080620003ce6000396000f3fe608060405234801561001057600080fd5b506004361061014c5760003560e01c80636b20c454116100c3578063d53913931161007c578063d5391393146102ba578063d547741f146102e1578063e63ab1e9146102f4578063e985e9c51461031b578063f242432a1461032e578063f5298aca1461034157600080fd5b80636b20c4541461025e578063731133e9146102715780638456cb591461028457806391d148541461028c578063a217fddf1461029f578063a22cb465146102a757600080fd5b80632eb2c2d6116101155780632eb2c2d6146101f25780632f2ff15d1461020557806336568abe146102185780633f4ba83a1461022b5780634e1273f4146102335780635c975abb1461025357600080fd5b8062fdd58e1461015157806301ffc9a7146101775780630e89341c1461019a5780631f7fdffa146101ba578063248a9ca3146101cf575b600080fd5b61016461015f366004611489565b610354565b6040519081526020015b60405180910390f35b61018a6101853660046114c9565b61037c565b604051901515815260200161016e565b6101ad6101a83660046114e6565b610387565b60405161016e9190611545565b6101cd6101c83660046115e6565b61041b565b005b6101646101dd3660046114e6565b60009081526004602052604090206001015490565b6101cd6102003660046117d7565b610541565b6101cd610213366004611881565b6105a8565b6101cd610226366004611881565b6105d3565b6101cd61060b565b6102466102413660046118ad565b61068b565b60405161016e91906119a8565b60035460ff1661018a565b6101cd61026c3660046119bb565b610760565b6101cd61027f366004611a3c565b61080d565b6101cd6108c5565b61018a61029a366004611881565b610943565b610164600081565b6101cd6102b5366004611a93565b61096e565b6101647f9f2df0fed2c77648de5860a4cc508cd0818c85b8b8a1ab4ceeef8d981c8956a681565b6101cd6102ef366004611881565b61097d565b6101647f65d7a28e3265b37a6474929f336521b332c1681b933f6cb9f3376673440d862a81565b61018a610329366004611acf565b6109a2565b6101cd61033c366004611af9565b6109d0565b6101cd61034f366004611b5e565b610a2f565b6000818152602081815260408083206001600160a01b03861684529091529020545b92915050565b600061037682610a72565b60606002805461039690611b91565b80601f01602080910402602001604051908101604052809291908181526020018280546103c290611b91565b801561040f5780601f106103e45761010080835404028352916020019161040f565b820191906000526020600020905b8154815290600101906020018083116103f257829003601f168201915b50505050509050919050565b6104457f9f2df0fed2c77648de5860a4cc508cd0818c85b8b8a1ab4ceeef8d981c8956a633610a97565b6104965760405162461bcd60e51b815260206004820152601c60248201527f455243313135353a206d697373696e67204d494e5445525f524f4c450000000060448201526064015b60405180910390fd5b6105388787878080602002602001604051908101604052809392919081815260200183836020028082843760009201919091525050604080516020808b0282810182019093528a82529093508a92508991829185019084908082843760009201919091525050604080516020601f8a018190048102820181019092528881529250889150879081908401838280828437600092019190915250610aaa92505050565b50505050505050565b336001600160a01b0386168114801590610562575061056086826109a2565b155b156105935760405163711bec9160e11b81526001600160a01b0380831660048301528716602482015260440161048d565b6105a08686868686610ae2565b505050505050565b6000828152600460205260409020600101546105c381610b42565b6105cd8383610b4f565b50505050565b6001600160a01b03811633146105fc5760405163334bd91960e11b815260040160405180910390fd5b6106068282610be3565b505050565b6106357f65d7a28e3265b37a6474929f336521b332c1681b933f6cb9f3376673440d862a33610a97565b6106815760405162461bcd60e51b815260206004820152601c60248201527f455243313135353a206d697373696e67205041555345525f524f4c4500000000604482015260640161048d565b610689610c50565b565b606081518351146106bc5781518351604051635b05999160e01b81526004810192909252602482015260440161048d565b6000835167ffffffffffffffff8111156106d8576106d8611691565b604051908082528060200260200182016040528015610701578160200160208202803683370190505b50905060005b84518110156107585760208082028601015161072b90602080840287010151610354565b82828151811061073d5761073d611bcb565b602090810291909101015261075181611bf7565b9050610707565b509392505050565b6001600160a01b03851633148061077c575061077c85336109a2565b6107985760405162461bcd60e51b815260040161048d90611c10565b6108068585858080602002602001604051908101604052809392919081815260200183836020028082843760009201919091525050604080516020808902828101820190935288825290935088925087918291850190849080828437600092019190915250610ca292505050565b5050505050565b6108377f9f2df0fed2c77648de5860a4cc508cd0818c85b8b8a1ab4ceeef8d981c8956a633610a97565b6108835760405162461bcd60e51b815260206004820152601c60248201527f455243313135353a206d697373696e67204d494e5445525f524f4c4500000000604482015260640161048d565b61080685858585858080601f016020809104026020016040519081016040528093929190818152602001838380828437600092019190915250610ce892505050565b6108ef7f65d7a28e3265b37a6474929f336521b332c1681b933f6cb9f3376673440d862a33610a97565b61093b5760405162461bcd60e51b815260206004820152601c60248201527f455243313135353a206d697373696e67205041555345525f524f4c4500000000604482015260640161048d565b610689610d45565b60009182526004602090815260408084206001600160a01b0393909316845291905290205460ff1690565b610979338383610d82565b5050565b60008281526004602052604090206001015461099881610b42565b6105cd8383610be3565b6001600160a01b03918216600090815260016020908152604080832093909416825291909152205460ff1690565b336001600160a01b03861681148015906109f157506109ef86826109a2565b155b15610a225760405163711bec9160e11b81526001600160a01b0380831660048301528716602482015260440161048d565b6105a08686868686610e18565b6001600160a01b038316331480610a4b5750610a4b83336109a2565b610a675760405162461bcd60e51b815260040161048d90611c10565b610606838383610e9d565b60006001600160e01b03198216637965db0b60e01b1480610376575061037682610f05565b6000610aa38383610943565b9392505050565b6001600160a01b038416610ad457604051632bfa23e760e11b81526000600482015260240161048d565b6105cd600085858585610f55565b6001600160a01b038416610b0c57604051632bfa23e760e11b81526000600482015260240161048d565b6001600160a01b038516610b3557604051626a0d4560e21b81526000600482015260240161048d565b6108068585858585610f55565b610b4c8133610fa8565b50565b6000610b5b8383610943565b610bdb5760008381526004602090815260408083206001600160a01b03861684529091529020805460ff19166001179055610b933390565b6001600160a01b0316826001600160a01b0316847f2f8788117e7eff1d82e926ec794901d17c78024a50270940304540a733656f0d60405160405180910390a4506001610376565b506000610376565b6000610bef8383610943565b15610bdb5760008381526004602090815260408083206001600160a01b0386168085529252808320805460ff1916905551339286917ff6391f5c32d9c69d2a47ea670b442974b53935d1edc7fd64eb21e047a839171b9190a4506001610376565b610c58610fe1565b6003805460ff191690557f5db9ee0a495bf2e6ff9c91a7834c1ba4fdd244a5e8aa4e537bd38aeae4b073aa335b6040516001600160a01b03909116815260200160405180910390a1565b6001600160a01b038316610ccb57604051626a0d4560e21b81526000600482015260240161048d565b610606836000848460405180602001604052806000815250610f55565b6001600160a01b038416610d1257604051632bfa23e760e11b81526000600482015260240161048d565b604080516001808252602082018690528183019081526060820185905260808201909252906105a0600087848487610f55565b610d4d611004565b6003805460ff191660011790557f62e78cea01bee320cd4e420270b5ea74000d11b0c9f74754ebdbfc544b05a258610c853390565b6001600160a01b038216610dab5760405162ced3e160e81b81526000600482015260240161048d565b6001600160a01b03838116600081815260016020908152604080832094871680845294825291829020805460ff191686151590811790915591519182527f17307eab39ab6107e8899845ad3d59bd9653f200f220920489ca2b5937696c31910160405180910390a3505050565b6001600160a01b038416610e4257604051632bfa23e760e11b81526000600482015260240161048d565b6001600160a01b038516610e6b57604051626a0d4560e21b81526000600482015260240161048d565b604080516001808252602082018690528183019081526060820185905260808201909252906105388787848487610f55565b6001600160a01b038316610ec657604051626a0d4560e21b81526000600482015260240161048d565b604080516001808252602082018590528183019081526060820184905260a0820190925260006080820181815291929161080691879185908590610f55565b60006001600160e01b03198216636cdb3d1360e11b1480610f3657506001600160e01b031982166303a24d0760e21b145b8061037657506301ffc9a760e01b6001600160e01b0319831614610376565b610f6185858585611028565b6001600160a01b038416156108065782513390600103610f9a5760208481015190840151610f93838989858589611034565b50506105a0565b6105a0818787878787611158565b610fb28282610943565b6109795760405163e2517d3f60e01b81526001600160a01b03821660048201526024810183905260440161048d565b60035460ff1661068957604051638dfc202b60e01b815260040160405180910390fd5b60035460ff16156106895760405163d93c066560e01b815260040160405180910390fd5b6105cd84848484611241565b6001600160a01b0384163b156105a05760405163f23a6e6160e01b81526001600160a01b0385169063f23a6e61906110789089908990889088908890600401611c59565b6020604051808303816000875af19250505080156110b3575060408051601f3d908101601f191682019092526110b091810190611c9e565b60015b61111c573d8080156110e1576040519150601f19603f3d011682016040523d82523d6000602084013e6110e6565b606091505b50805160000361111457604051632bfa23e760e11b81526001600160a01b038616600482015260240161048d565b805160208201fd5b6001600160e01b0319811663f23a6e6160e01b1461053857604051632bfa23e760e11b81526001600160a01b038616600482015260240161048d565b6001600160a01b0384163b156105a05760405163bc197c8160e01b81526001600160a01b0385169063bc197c819061119c9089908990889088908890600401611cbb565b6020604051808303816000875af19250505080156111d7575060408051601f3d908101601f191682019092526111d491810190611c9e565b60015b611205573d8080156110e1576040519150601f19603f3d011682016040523d82523d6000602084013e6110e6565b6001600160e01b0319811663bc197c8160e01b1461053857604051632bfa23e760e11b81526001600160a01b038616600482015260240161048d565b611249611004565b6105cd84848484805182511461127f5781518151604051635b05999160e01b81526004810192909252602482015260440161048d565b3360005b835181101561138e576020818102858101820151908501909101516001600160a01b03881615611336576000828152602081815260408083206001600160a01b038c1684529091529020548181101561130f576040516303dee4c560e01b81526001600160a01b038a16600482015260248101829052604481018390526064810184905260840161048d565b6000838152602081815260408083206001600160a01b038d16845290915290209082900390555b6001600160a01b0387161561137b576000828152602081815260408083206001600160a01b038b16845290915281208054839290611375908490611d19565b90915550505b50508061138790611bf7565b9050611283565b50825160010361140f5760208301516000906020840151909150856001600160a01b0316876001600160a01b0316846001600160a01b03167fc3d58168c5ae7397731d063d5bbf3d657854427343f4c083240f7aacaa2d0f628585604051611400929190918252602082015260400190565b60405180910390a45050610806565b836001600160a01b0316856001600160a01b0316826001600160a01b03167f4a39dc06d4c0dbc64b70af90fd698a233a518aa5d07e595d983b8c0526c8f7fb868660405161145e929190611d2c565b60405180910390a45050505050565b80356001600160a01b038116811461148457600080fd5b919050565b6000806040838503121561149c57600080fd5b6114a58361146d565b946020939093013593505050565b6001600160e01b031981168114610b4c57600080fd5b6000602082840312156114db57600080fd5b8135610aa3816114b3565b6000602082840312156114f857600080fd5b5035919050565b6000815180845260005b8181101561152557602081850181015186830182015201611509565b506000602082860101526020601f19601f83011685010191505092915050565b602081526000610aa360208301846114ff565b60008083601f84011261156a57600080fd5b50813567ffffffffffffffff81111561158257600080fd5b6020830191508360208260051b850101111561159d57600080fd5b9250929050565b60008083601f8401126115b657600080fd5b50813567ffffffffffffffff8111156115ce57600080fd5b60208301915083602082850101111561159d57600080fd5b60008060008060008060006080888a03121561160157600080fd5b61160a8861146d565b9650602088013567ffffffffffffffff8082111561162757600080fd5b6116338b838c01611558565b909850965060408a013591508082111561164c57600080fd5b6116588b838c01611558565b909650945060608a013591508082111561167157600080fd5b5061167e8a828b016115a4565b989b979a50959850939692959293505050565b634e487b7160e01b600052604160045260246000fd5b604051601f8201601f1916810167ffffffffffffffff811182821017156116d0576116d0611691565b604052919050565b600067ffffffffffffffff8211156116f2576116f2611691565b5060051b60200190565b600082601f83011261170d57600080fd5b8135602061172261171d836116d8565b6116a7565b82815260059290921b8401810191818101908684111561174157600080fd5b8286015b8481101561175c5780358352918301918301611745565b509695505050505050565b600082601f83011261177857600080fd5b813567ffffffffffffffff81111561179257611792611691565b6117a5601f8201601f19166020016116a7565b8181528460208386010111156117ba57600080fd5b816020850160208301376000918101602001919091529392505050565b600080600080600060a086880312156117ef57600080fd5b6117f88661146d565b94506118066020870161146d565b9350604086013567ffffffffffffffff8082111561182357600080fd5b61182f89838a016116fc565b9450606088013591508082111561184557600080fd5b61185189838a016116fc565b9350608088013591508082111561186757600080fd5b5061187488828901611767565b9150509295509295909350565b6000806040838503121561189457600080fd5b823591506118a46020840161146d565b90509250929050565b600080604083850312156118c057600080fd5b823567ffffffffffffffff808211156118d857600080fd5b818501915085601f8301126118ec57600080fd5b813560206118fc61171d836116d8565b82815260059290921b8401810191818101908984111561191b57600080fd5b948201945b83861015611940576119318661146d565b82529482019490820190611920565b9650508601359250508082111561195657600080fd5b50611963858286016116fc565b9150509250929050565b600081518084526020808501945080840160005b8381101561199d57815187529582019590820190600101611981565b509495945050505050565b602081526000610aa3602083018461196d565b6000806000806000606086880312156119d357600080fd5b6119dc8661146d565b9450602086013567ffffffffffffffff808211156119f957600080fd5b611a0589838a01611558565b90965094506040880135915080821115611a1e57600080fd5b50611a2b88828901611558565b969995985093965092949392505050565b600080600080600060808688031215611a5457600080fd5b611a5d8661146d565b94506020860135935060408601359250606086013567ffffffffffffffff811115611a8757600080fd5b611a2b888289016115a4565b60008060408385031215611aa657600080fd5b611aaf8361146d565b915060208301358015158114611ac457600080fd5b809150509250929050565b60008060408385031215611ae257600080fd5b611aeb8361146d565b91506118a46020840161146d565b600080600080600060a08688031215611b1157600080fd5b611b1a8661146d565b9450611b286020870161146d565b93506040860135925060608601359150608086013567ffffffffffffffff811115611b5257600080fd5b61187488828901611767565b600080600060608486031215611b7357600080fd5b611b7c8461146d565b95602085013595506040909401359392505050565b600181811c90821680611ba557607f821691505b602082108103611bc557634e487b7160e01b600052602260045260246000fd5b50919050565b634e487b7160e01b600052603260045260246000fd5b634e487b7160e01b600052601160045260246000fd5b600060018201611c0957611c09611be1565b5060010190565b60208082526029908201527f455243313135353a2063616c6c6572206973206e6f74206f776e6572206e6f7260408201526808185c1c1c9bdd995960ba1b606082015260800190565b6001600160a01b03868116825285166020820152604081018490526060810183905260a060808201819052600090611c93908301846114ff565b979650505050505050565b600060208284031215611cb057600080fd5b8151610aa3816114b3565b6001600160a01b0386811682528516602082015260a060408201819052600090611ce79083018661196d565b8281036060840152611cf9818661196d565b90508281036080840152611d0d81856114ff565b98975050505050505050565b8082018082111561037657610376611be1565b604081526000611d3f604083018561196d565b8281036020840152611d51818561196d565b9594505050505056fea26469706673582212200dd345c34bf4570466794508c67f971f856e208eb472225f4a2ebdc76b684e9c64736f6c63430008140033",
  "linkReferences": {},
  "deployedLinkReferences": {}
}