{
  "_format": "hh-sol-artifact-1",
  "contractName": "ERC1155_base",
  "sourceName": "contracts/__generated__/ERC1155_base.sol",
  "abi": [
    {
      "inputs": [
        {
          "internalType": "string",
          "name": "uri_",
          "type": "string"
        }
      ],
      "stateMutability": "nonpayable",
      "type": "constructor"
    },
    {
      "inputs": [],
      "name": "AccessControlBadConfirmation",
      "type": "error"
    },
    {
      "inputs": [
        {
          "internalType": "address",
          "name": "account",
          "type": "address"
        },
        {
          "internalType": "bytes32",
          "name": "neededRole",
          "type": "bytes32"
        }
      ],
      "name": "AccessControlUnauthorizedAccount",
      "type": "error"
    },
    {
      "inputs": [
        {
          "internalType": "address",
          "name": "sender",
          "type": "address"
        },
        {
          "internalType": "uint256",
          "name": "balance",
          "type": "uint256"
        },
        {
          "internalType": "uint256",
          "name": "needed",
          "type": "uint256"
        },
        {
          "internalType": "uint256",
          "name": "tokenId",
          "type": "uint256"
        }
      ],
      "name": "ERC1155InsufficientBalance",
      "type": "error"
    },
    {
      "inputs": [
        {
          "internalType": "address",
          "name": "approver",
          "type": "address"
        }
      ],
      "name": "ERC1155InvalidApprover",
      "type": "error"
    },
    {
      "inputs": [
        {
          "internalType": "uint256",
          "name": "idsLength",
          "type": "uint256"
        },
        {
          "internalType": "uint256",
          "name": "valuesLength",
          "type": "uint256"
        }
      ],
      "name": "ERC1155InvalidArrayLength",
      "type": "error"
    },
    {
      "inputs": [
        {
          "internalType": "address",
          "name": "operator",
          "type": "address"
        }
      ],
      "name": "ERC1155InvalidOperator",
      "type": "error"
    },
    {
      "inputs": [
        {
          "internalType": "address",
          "name": "receiver",
          "type": "address"
        }
      ],
      "name": "ERC1155InvalidReceiver",
      "type": "error"
    },
    {
      "inputs": [
        {
          "internalType": "address",
          "name": "sender",
          "type": "address"
        }
      ],
      "name": "ERC1155InvalidSender",
      "type": "error"
    },
    {
      "inputs": [
        {
          "internalType": "address",
          "name": "operator",
          "type": "address"
        },
        {
          "internalType": "address",
          "name": "owner",
          "type": "address"
        }
      ],
      "name": "ERC1155MissingApprovalForAll",
      "type": "error"
    },
    {
      "inputs": [],
      "name": "EnforcedPause",
      "type": "error"
    },
    {
      "inputs": [],
      "name": "ExpectedPause",
      "type": "error"
    },
    {
      "anonymous": false,
      "inputs": [
        {
          "indexed": true,
          "internalType": "address",
          "name": "account",
          "type": "address"
        },
        {
          "indexed": true,
          "internalType": "address",
          "name": "operator",
          "type": "address"
        },
        {
          "indexed": false,
          "internalType": "bool",
          "name": "approved",
          "type": "bool"
        }
      ],
      "name": "ApprovalForAll",
      "type": "event"
    },
    {
      "anonymous": false,
      "inputs": [
        {
          "indexed": false,
          "internalType": "address",
          "name": "account",
          "type": "address"
        }
      ],
      "name": "Paused",
      "type": "event"
    },
    {
      "anonymous": false,
      "inputs": [
        {
          "indexed": true,
          "internalType": "bytes32",
          "name": "role",
          "type": "bytes32"
        },
        {
          "indexed": true,
          "internalType": "bytes32",
          "name": "previousAdminRole",
          "type": "bytes32"
        },
        {
          "indexed": true,
          "internalType": "bytes32",
          "name": "newAdminRole",
          "type": "bytes32"
        }
      ],
      "name": "RoleAdminChanged",
      "type": "event"
    },
    {
      "anonymous": false,
      "inputs": [
        {
          "indexed": true,
          "internalType": "bytes32",
          "name": "role",
          "type": "bytes32"
        },
        {
          "indexed": true,
          "internalType": "address",
          "name": "account",
          "type": "address"
        },
        {
          "indexed": true,
          "internalType": "address",
          "name": "sender",
          "type": "address"
        }
      ],
      "name": "RoleGranted",
      "type": "event"
    },
    {
      "anonymous": false,
      "inputs": [
        {
          "indexed": true,
          "internalType": "bytes32",
          "name": "role",
          "type": "bytes32"
        },
        {
          "indexed": true,
          "internalType": "address",
          "name": "account",
          "type": "address"
        },
        {
          "indexed": true,
          "internalType": "address",
          "name": "sender",
          "type": "address"
        }
      ],
      "name": "RoleRevoked",
      "type": "event"
    },
    {
      "anonymous": false,
      "inputs": [
        {
          "indexed": true,
          "internalType": "address",
          "name": "operator",
          "type": "address"
        },
        {
          "indexed": true,
          "internalType": "address",
          "name": "from",
          "type": "address"
        },
        {
          "indexed": true,
          "internalType": "address",
          "name": "to",
          "type": "address"
        },
        {
          "indexed": false,
          "internalType": "uint256[]",
          "name": "ids",
          "type": "uint256[]"
        },
        {
          "indexed": false,
          "internalType": "uint256[]",
          "name": "values",
          "type": "uint256[]"
        }
      ],
      "name": "TransferBatch",
      "type": "event"
    },
    {
      "anonymous": false,
      "inputs": [
        {
          "indexed": true,
          "internalType": "address",
          "name": "operator",
          "type": "address"
        },
        {
          "indexed": true,
          "internalType": "address",
          "name": "from",
          "type": "address"
        },
        {
          "indexed": true,
          "internalType": "address",
          "name": "to",
          "type": "address"
        },
        {
          "indexed": false,
          "internalType": "uint256",
          "name": "id",
          "type": "uint256"
        },
        {
          "indexed": false,
          "internalType": "uint256",
          "name": "value",
          "type": "uint256"
        }
      ],
      "name": "TransferSingle",
      "type": "event"
    },
    {
      "anonymous": false,
      "inputs": [
        {
          "indexed": false,
          "internalType": "string",
          "name": "value",
          "type": "string"
        },
        {
          "indexed": true,
          "internalType": "uint256",
          "name": "id",
          "type": "uint256"
        }
      ],
      "name": "URI",
      "type": "event"
    },
    {
      "anonymous": false,
      "inputs": [
        {
          "indexed": false,
          "internalType": "address",
          "name": "account",
          "type": "address"
        }
      ],
      "name": "Unpaused",
      "type": "event"
    },
    {
      "inputs": [],
      "name": "DEFAULT_ADMIN_ROLE",
      "outputs": [
        {
          "internalType": "bytes32",
          "name": "",
          "type": "bytes32"
        }
      ],
      "stateMutability": "view",
      "type": "function"
    },
    {
      "inputs": [
        {
          "internalType": "address",
          "name": "account",
          "type": "address"
        },
        {
          "internalType": "uint256",
          "name": "id",
          "type": "uint256"
        }
      ],
      "name": "balanceOf",
      "outputs": [
        {
          "internalType": "uint256",
          "name": "",
          "type": "uint256"
        }
      ],
      "stateMutability": "view",
      "type": "function"
    },
    {
      "inputs": [
        {
          "internalType": "address[]",
          "name": "accounts",
          "type": "address[]"
        },
        {
          "internalType": "uint256[]",
          "name": "ids",
          "type": "uint256[]"
        }
      ],
      "name": "balanceOfBatch",
      "outputs": [
        {
          "internalType": "uint256[]",
          "name": "",
          "type": "uint256[]"
        }
      ],
      "stateMutability": "view",
      "type": "function"
    },
    {
      "inputs": [
        {
          "internalType": "bytes32",
          "name": "role",
          "type": "bytes32"
        }
      ],
      "name": "getRoleAdmin",
      "outputs": [
        {
          "internalType": "bytes32",
          "name": "",
          "type": "bytes32"
        }
      ],
      "stateMutability": "view",
      "type": "function"
    },
    {
      "inputs": [
        {
          "internalType": "bytes32",
          "name": "role",
          "type": "bytes32"
        },
        {
          "internalType": "address",
          "name": "account",
          "type": "address"
        }
      ],
      "name": "grantRole",
      "outputs": [],
      "stateMutability": "nonpayable",
      "type": "function"
    },
    {
      "inputs": [
        {
          "internalType": "bytes32",
          "name": "role",
          "type": "bytes32"
        },
        {
          "internalType": "address",
          "name": "account",
          "type": "address"
        }
      ],
      "name": "hasRole",
      "outputs": [
        {
          "internalType": "bool",
          "name": "",
          "type": "bool"
        }
      ],
      "stateMutability": "view",
      "type": "function"
    },
    {
      "inputs": [
        {
          "internalType": "address",
          "name": "account",
          "type": "address"
        },
        {
          "internalType": "address",
          "name": "operator",
          "type": "address"
        }
      ],
      "name": "isApprovedForAll",
      "outputs": [
        {
          "internalType": "bool",
          "name": "",
          "type": "bool"
        }
      ],
      "stateMutability": "view",
      "type": "function"
    },
    {
      "inputs": [],
      "name": "paused",
      "outputs": [
        {
          "internalType": "bool",
          "name": "",
          "type": "bool"
        }
      ],
      "stateMutability": "view",
      "type": "function"
    },
    {
      "inputs": [
        {
          "internalType": "bytes32",
          "name": "role",
          "type": "bytes32"
        },
        {
          "internalType": "address",
          "name": "callerConfirmation",
          "type": "address"
        }
      ],
      "name": "renounceRole",
      "outputs": [],
      "stateMutability": "nonpayable",
      "type": "function"
    },
    {
      "inputs": [
        {
          "internalType": "bytes32",
          "name": "role",
          "type": "bytes32"
        },
        {
          "internalType": "address",
          "name": "account",
          "type": "address"
        }
      ],
      "name": "revokeRole",
      "outputs": [],
      "stateMutability": "nonpayable",
      "type": "function"
    },
    {
      "inputs": [
        {
          "internalType": "address",
          "name": "from",
          "type": "address"
        },
        {
          "internalType": "address",
          "name": "to",
          "type": "address"
        },
        {
          "internalType": "uint256[]",
          "name": "ids",
          "type": "uint256[]"
        },
        {
          "internalType": "uint256[]",
          "name": "values",
          "type": "uint256[]"
        },
        {
          "internalType": "bytes",
          "name": "data",
          "type": "bytes"
        }
      ],
      "name": "safeBatchTransferFrom",
      "outputs": [],
      "stateMutability": "nonpayable",
      "type": "function"
    },
    {
      "inputs": [
        {
          "internalType": "address",
          "name": "from",
          "type": "address"
        },
        {
          "internalType": "address",
          "name": "to",
          "type": "address"
        },
        {
          "internalType": "uint256",
          "name": "id",
          "type": "uint256"
        },
        {
          "internalType": "uint256",
          "name": "value",
          "type": "uint256"
        },
        {
          "internalType": "bytes",
          "name": "data",
          "type": "bytes"
        }
      ],
      "name": "safeTransferFrom",
      "outputs": [],
      "stateMutability": "nonpayable",
      "type": "function"
    },
    {
      "inputs": [
        {
          "internalType": "address",
          "name": "operator",
          "type": "address"
        },
        {
          "internalType": "bool",
          "name": "approved",
          "type": "bool"
        }
      ],
      "name": "setApprovalForAll",
      "outputs": [],
      "stateMutability": "nonpayable",
      "type": "function"
    },
    {
      "inputs": [
        {
          "internalType": "bytes4",
          "name": "interfaceId",
          "type": "bytes4"
        }
      ],
      "name": "supportsInterface",
      "outputs": [
        {
          "internalType": "bool",
          "name": "",
          "type": "bool"
        }
      ],
      "stateMutability": "view",
      "type": "function"
    },
    {
      "inputs": [
        {
          "internalType": "uint256",
          "name": "",
          "type": "uint256"
        }
      ],
      "name": "uri",
      "outputs": [
        {
          "internalType": "string",
          "name": "",
          "type": "string"
        }
      ],
      "stateMutability": "view",
      "type": "function"
    }
  ],
  "bytecode": "0x60806040523480156200001157600080fd5b50604051620017c3380380620017c3833981016040819052620000349162000133565b8080620000418162000058565b506200004f6000336200006a565b50505062000363565b600262000066828262000297565b5050565b60008281526004602090815260408083206001600160a01b038516845290915281205460ff16620001135760008381526004602090815260408083206001600160a01b03861684529091529020805460ff19166001179055620000ca3390565b6001600160a01b0316826001600160a01b0316847f2f8788117e7eff1d82e926ec794901d17c78024a50270940304540a733656f0d60405160405180910390a450600162000117565b5060005b92915050565b634e487b7160e01b600052604160045260246000fd5b600060208083850312156200014757600080fd5b82516001600160401b03808211156200015f57600080fd5b818501915085601f8301126200017457600080fd5b8151818111156200018957620001896200011d565b604051601f8201601f19908116603f01168101908382118183101715620001b457620001b46200011d565b816040528281528886848701011115620001cd57600080fd5b600093505b82841015620001f15784840186015181850187015292850192620001d2565b600086848301015280965050505050505092915050565b600181811c908216806200021d57607f821691505b6020821081036200023e57634e487b7160e01b600052602260045260246000fd5b50919050565b601f8211156200029257600081815260208120601f850160051c810160208610156200026d5750805b601f850160051c820191505b818110156200028e5782815560010162000279565b5050505b505050565b81516001600160401b03811115620002b357620002b36200011d565b620002cb81620002c4845462000208565b8462000244565b602080601f831160018114620003035760008415620002ea5750858301515b600019600386901b1c1916600185901b1785556200028e565b600085815260208120601f198616915b82811015620003345788860151825594840194600190910190840162000313565b5085821015620003535787850151600019600388901b60f8161c191681555b5050505050600190811b01905550565b61145080620003736000396000f3fe608060405234801561001057600080fd5b50600436106100f45760003560e01c80634e1273f411610097578063a22cb46511610066578063a22cb46514610206578063d547741f14610219578063e985e9c51461022c578063f242432a1461023f57600080fd5b80634e1273f4146101c05780635c975abb146101e057806391d14854146101eb578063a217fddf146101fe57600080fd5b8063248a9ca3116100d3578063248a9ca3146101625780632eb2c2d6146101855780632f2ff15d1461019a57806336568abe146101ad57600080fd5b8062fdd58e146100f957806301ffc9a71461011f5780630e89341c14610142575b600080fd5b61010c610107366004610dcf565b610252565b6040519081526020015b60405180910390f35b61013261012d366004610e0f565b61027a565b6040519015158152602001610116565b610155610150366004610e33565b610285565b6040516101169190610e92565b61010c610170366004610e33565b60009081526004602052604090206001015490565b610198610193366004610feb565b610319565b005b6101986101a8366004611095565b610385565b6101986101bb366004611095565b6103b0565b6101d36101ce3660046110c1565b6103e8565b60405161011691906111bc565b60035460ff16610132565b6101326101f9366004611095565b6104bd565b61010c600081565b6101986102143660046111cf565b6104e8565b610198610227366004611095565b6104f7565b61013261023a36600461120b565b61051c565b61019861024d366004611235565b61054a565b6000818152602081815260408083206001600160a01b03861684529091529020545b92915050565b6000610274826105a9565b6060600280546102949061129a565b80601f01602080910402602001604051908101604052809291908181526020018280546102c09061129a565b801561030d5780601f106102e25761010080835404028352916020019161030d565b820191906000526020600020905b8154815290600101906020018083116102f057829003601f168201915b50505050509050919050565b336001600160a01b038616811480159061033a5750610338868261051c565b155b156103705760405163711bec9160e11b81526001600160a01b038083166004830152871660248201526044015b60405180910390fd5b61037d86868686866105ce565b505050505050565b6000828152600460205260409020600101546103a081610635565b6103aa8383610642565b50505050565b6001600160a01b03811633146103d95760405163334bd91960e11b815260040160405180910390fd5b6103e382826106d6565b505050565b606081518351146104195781518351604051635b05999160e01b815260048101929092526024820152604401610367565b6000835167ffffffffffffffff81111561043557610435610ea5565b60405190808252806020026020018201604052801561045e578160200160208202803683370190505b50905060005b84518110156104b55760208082028601015161048890602080840287010151610252565b82828151811061049a5761049a6112d4565b60209081029190910101526104ae81611300565b9050610464565b509392505050565b60009182526004602090815260408084206001600160a01b0393909316845291905290205460ff1690565b6104f3338383610743565b5050565b60008281526004602052604090206001015461051281610635565b6103aa83836106d6565b6001600160a01b03918216600090815260016020908152604080832093909416825291909152205460ff1690565b336001600160a01b038616811480159061056b5750610569868261051c565b155b1561059c5760405163711bec9160e11b81526001600160a01b03808316600483015287166024820152604401610367565b61037d86868686866107d9565b60006001600160e01b03198216637965db0b60e01b1480610274575061027482610867565b6001600160a01b0384166105f857604051632bfa23e760e11b815260006004820152602401610367565b6001600160a01b03851661062157604051626a0d4560e21b815260006004820152602401610367565b61062e85858585856108b7565b5050505050565b61063f813361090a565b50565b600061064e83836104bd565b6106ce5760008381526004602090815260408083206001600160a01b03861684529091529020805460ff191660011790556106863390565b6001600160a01b0316826001600160a01b0316847f2f8788117e7eff1d82e926ec794901d17c78024a50270940304540a733656f0d60405160405180910390a4506001610274565b506000610274565b60006106e283836104bd565b156106ce5760008381526004602090815260408083206001600160a01b0386168085529252808320805460ff1916905551339286917ff6391f5c32d9c69d2a47ea670b442974b53935d1edc7fd64eb21e047a839171b9190a4506001610274565b6001600160a01b03821661076c5760405162ced3e160e81b815260006004820152602401610367565b6001600160a01b03838116600081815260016020908152604080832094871680845294825291829020805460ff191686151590811790915591519182527f17307eab39ab6107e8899845ad3d59bd9653f200f220920489ca2b5937696c31910160405180910390a3505050565b6001600160a01b03841661080357604051632bfa23e760e11b815260006004820152602401610367565b6001600160a01b03851661082c57604051626a0d4560e21b815260006004820152602401610367565b6040805160018082526020820186905281830190815260608201859052608082019092529061085e87878484876108b7565b50505050505050565b60006001600160e01b03198216636cdb3d1360e11b148061089857506001600160e01b031982166303a24d0760e21b145b8061027457506301ffc9a760e01b6001600160e01b0319831614610274565b6108c385858585610943565b6001600160a01b0384161561062e57825133906001036108fc57602084810151908401516108f583898985858961094f565b505061037d565b61037d818787878787610a73565b61091482826104bd565b6104f35760405163e2517d3f60e01b81526001600160a01b038216600482015260248101839052604401610367565b6103aa84848484610b5c565b6001600160a01b0384163b1561037d5760405163f23a6e6160e01b81526001600160a01b0385169063f23a6e61906109939089908990889088908890600401611319565b6020604051808303816000875af19250505080156109ce575060408051601f3d908101601f191682019092526109cb9181019061135e565b60015b610a37573d8080156109fc576040519150601f19603f3d011682016040523d82523d6000602084013e610a01565b606091505b508051600003610a2f57604051632bfa23e760e11b81526001600160a01b0386166004820152602401610367565b805160208201fd5b6001600160e01b0319811663f23a6e6160e01b1461085e57604051632bfa23e760e11b81526001600160a01b0386166004820152602401610367565b6001600160a01b0384163b1561037d5760405163bc197c8160e01b81526001600160a01b0385169063bc197c8190610ab7908990899088908890889060040161137b565b6020604051808303816000875af1925050508015610af2575060408051601f3d908101601f19168201909252610aef9181019061135e565b60015b610b20573d8080156109fc576040519150601f19603f3d011682016040523d82523d6000602084013e610a01565b6001600160e01b0319811663bc197c8160e01b1461085e57604051632bfa23e760e11b81526001600160a01b0386166004820152602401610367565b610b64610b70565b6103aa84848484610b96565b60035460ff1615610b945760405163d93c066560e01b815260040160405180910390fd5b565b8051825114610bc55781518151604051635b05999160e01b815260048101929092526024820152604401610367565b3360005b8351811015610cd4576020818102858101820151908501909101516001600160a01b03881615610c7c576000828152602081815260408083206001600160a01b038c16845290915290205481811015610c55576040516303dee4c560e01b81526001600160a01b038a166004820152602481018290526044810183905260648101849052608401610367565b6000838152602081815260408083206001600160a01b038d16845290915290209082900390555b6001600160a01b03871615610cc1576000828152602081815260408083206001600160a01b038b16845290915281208054839290610cbb9084906113d9565b90915550505b505080610ccd90611300565b9050610bc9565b508251600103610d555760208301516000906020840151909150856001600160a01b0316876001600160a01b0316846001600160a01b03167fc3d58168c5ae7397731d063d5bbf3d657854427343f4c083240f7aacaa2d0f628585604051610d46929190918252602082015260400190565b60405180910390a4505061062e565b836001600160a01b0316856001600160a01b0316826001600160a01b03167f4a39dc06d4c0dbc64b70af90fd698a233a518aa5d07e595d983b8c0526c8f7fb8686604051610da49291906113ec565b60405180910390a45050505050565b80356001600160a01b0381168114610dca57600080fd5b919050565b60008060408385031215610de257600080fd5b610deb83610db3565b946020939093013593505050565b6001600160e01b03198116811461063f57600080fd5b600060208284031215610e2157600080fd5b8135610e2c81610df9565b9392505050565b600060208284031215610e4557600080fd5b5035919050565b6000815180845260005b81811015610e7257602081850181015186830182015201610e56565b506000602082860101526020601f19601f83011685010191505092915050565b602081526000610e2c6020830184610e4c565b634e487b7160e01b600052604160045260246000fd5b604051601f8201601f1916810167ffffffffffffffff81118282101715610ee457610ee4610ea5565b604052919050565b600067ffffffffffffffff821115610f0657610f06610ea5565b5060051b60200190565b600082601f830112610f2157600080fd5b81356020610f36610f3183610eec565b610ebb565b82815260059290921b84018101918181019086841115610f5557600080fd5b8286015b84811015610f705780358352918301918301610f59565b509695505050505050565b600082601f830112610f8c57600080fd5b813567ffffffffffffffff811115610fa657610fa6610ea5565b610fb9601f8201601f1916602001610ebb565b818152846020838601011115610fce57600080fd5b816020850160208301376000918101602001919091529392505050565b600080600080600060a0868803121561100357600080fd5b61100c86610db3565b945061101a60208701610db3565b9350604086013567ffffffffffffffff8082111561103757600080fd5b61104389838a01610f10565b9450606088013591508082111561105957600080fd5b61106589838a01610f10565b9350608088013591508082111561107b57600080fd5b5061108888828901610f7b565b9150509295509295909350565b600080604083850312156110a857600080fd5b823591506110b860208401610db3565b90509250929050565b600080604083850312156110d457600080fd5b823567ffffffffffffffff808211156110ec57600080fd5b818501915085601f83011261110057600080fd5b81356020611110610f3183610eec565b82815260059290921b8401810191818101908984111561112f57600080fd5b948201945b838610156111545761114586610db3565b82529482019490820190611134565b9650508601359250508082111561116a57600080fd5b5061117785828601610f10565b9150509250929050565b600081518084526020808501945080840160005b838110156111b157815187529582019590820190600101611195565b509495945050505050565b602081526000610e2c6020830184611181565b600080604083850312156111e257600080fd5b6111eb83610db3565b91506020830135801515811461120057600080fd5b809150509250929050565b6000806040838503121561121e57600080fd5b61122783610db3565b91506110b860208401610db3565b600080600080600060a0868803121561124d57600080fd5b61125686610db3565b945061126460208701610db3565b93506040860135925060608601359150608086013567ffffffffffffffff81111561128e57600080fd5b61108888828901610f7b565b600181811c908216806112ae57607f821691505b6020821081036112ce57634e487b7160e01b600052602260045260246000fd5b50919050565b634e487b7160e01b600052603260045260246000fd5b634e487b7160e01b600052601160045260246000fd5b600060018201611312576113126112ea565b5060010190565b6001600160a01b03868116825285166020820152604081018490526060810183905260a06080820181905260009061135390830184610e4c565b979650505050505050565b60006020828403121561137057600080fd5b8151610e2c81610df9565b6001600160a01b0386811682528516602082015260a0604082018190526000906113a790830186611181565b82810360608401526113b98186611181565b905082810360808401526113cd8185610e4c565b98975050505050505050565b80820180821115610274576102746112ea565b6040815260006113ff6040830185611181565b82810360208401526114118185611181565b9594505050505056fea2646970667358221220b5e1ae6fba1ec5fa8154007681a2600f4d3dd08c32a9f78e9cba1579cb2d565f64736f6c63430008140033",
  "linkReferences": {},
  "deployedLinkReferences": {}
}