{
  "_format": "hh-sol-artifact-1",
  "contractName": "ERC1155_burnable_pausable",
  "sourceName": "contracts/__generated__/ERC1155_burnable_pausable.sol",
  "abi": [
    {
      "inputs": [
        {
          "internalType": "string",
          "name": "uri_",
          "type": "string"
        }
      ],
      "stateMutability": "nonpayable",
      "type": "constructor"
    },
    {
      "inputs": [],
      "name": "AccessControlBadConfirmation",
      "type": "error"
    },
    {
      "inputs": [
        {
          "internalType": "address",
          "name": "account",
          "type": "address"
        },
        {
          "internalType": "bytes32",
          "name": "neededRole",
          "type": "bytes32"
        }
      ],
      "name": "AccessControlUnauthorizedAccount",
      "type": "error"
    },
    {
      "inputs": [
        {
          "internalType": "address",
          "name": "sender",
          "type": "address"
        },
        {
          "internalType": "uint256",
          "name": "balance",
          "type": "uint256"
        },
        {
          "internalType": "uint256",
          "name": "needed",
          "type": "uint256"
        },
        {
          "internalType": "uint256",
          "name": "tokenId",
          "type": "uint256"
        }
      ],
      "name": "ERC1155InsufficientBalance",
      "type": "error"
    },
    {
      "inputs": [
        {
          "internalType": "address",
          "name": "approver",
          "type": "address"
        }
      ],
      "name": "ERC1155InvalidApprover",
      "type": "error"
    },
    {
      "inputs": [
        {
          "internalType": "uint256",
          "name": "idsLength",
          "type": "uint256"
        },
        {
          "internalType": "uint256",
          "name": "valuesLength",
          "type": "uint256"
        }
      ],
      "name": "ERC1155InvalidArrayLength",
      "type": "error"
    },
    {
      "inputs": [
        {
          "internalType": "address",
          "name": "operator",
          "type": "address"
        }
      ],
      "name": "ERC1155InvalidOperator",
      "type": "error"
    },
    {
      "inputs": [
        {
          "internalType": "address",
          "name": "receiver",
          "type": "address"
        }
      ],
      "name": "ERC1155InvalidReceiver",
      "type": "error"
    },
    {
      "inputs": [
        {
          "internalType": "address",
          "name": "sender",
          "type": "address"
        }
      ],
      "name": "ERC1155InvalidSender",
      "type": "error"
    },
    {
      "inputs": [
        {
          "internalType": "address",
          "name": "operator",
          "type": "address"
        },
        {
          "internalType": "address",
          "name": "owner",
          "type": "address"
        }
      ],
      "name": "ERC1155MissingApprovalForAll",
      "type": "error"
    },
    {
      "inputs": [],
      "name": "EnforcedPause",
      "type": "error"
    },
    {
      "inputs": [],
      "name": "ExpectedPause",
      "type": "error"
    },
    {
      "anonymous": false,
      "inputs": [
        {
          "indexed": true,
          "internalType": "address",
          "name": "account",
          "type": "address"
        },
        {
          "indexed": true,
          "internalType": "address",
          "name": "operator",
          "type": "address"
        },
        {
          "indexed": false,
          "internalType": "bool",
          "name": "approved",
          "type": "bool"
        }
      ],
      "name": "ApprovalForAll",
      "type": "event"
    },
    {
      "anonymous": false,
      "inputs": [
        {
          "indexed": false,
          "internalType": "address",
          "name": "account",
          "type": "address"
        }
      ],
      "name": "Paused",
      "type": "event"
    },
    {
      "anonymous": false,
      "inputs": [
        {
          "indexed": true,
          "internalType": "bytes32",
          "name": "role",
          "type": "bytes32"
        },
        {
          "indexed": true,
          "internalType": "bytes32",
          "name": "previousAdminRole",
          "type": "bytes32"
        },
        {
          "indexed": true,
          "internalType": "bytes32",
          "name": "newAdminRole",
          "type": "bytes32"
        }
      ],
      "name": "RoleAdminChanged",
      "type": "event"
    },
    {
      "anonymous": false,
      "inputs": [
        {
          "indexed": true,
          "internalType": "bytes32",
          "name": "role",
          "type": "bytes32"
        },
        {
          "indexed": true,
          "internalType": "address",
          "name": "account",
          "type": "address"
        },
        {
          "indexed": true,
          "internalType": "address",
          "name": "sender",
          "type": "address"
        }
      ],
      "name": "RoleGranted",
      "type": "event"
    },
    {
      "anonymous": false,
      "inputs": [
        {
          "indexed": true,
          "internalType": "bytes32",
          "name": "role",
          "type": "bytes32"
        },
        {
          "indexed": true,
          "internalType": "address",
          "name": "account",
          "type": "address"
        },
        {
          "indexed": true,
          "internalType": "address",
          "name": "sender",
          "type": "address"
        }
      ],
      "name": "RoleRevoked",
      "type": "event"
    },
    {
      "anonymous": false,
      "inputs": [
        {
          "indexed": true,
          "internalType": "address",
          "name": "operator",
          "type": "address"
        },
        {
          "indexed": true,
          "internalType": "address",
          "name": "from",
          "type": "address"
        },
        {
          "indexed": true,
          "internalType": "address",
          "name": "to",
          "type": "address"
        },
        {
          "indexed": false,
          "internalType": "uint256[]",
          "name": "ids",
          "type": "uint256[]"
        },
        {
          "indexed": false,
          "internalType": "uint256[]",
          "name": "values",
          "type": "uint256[]"
        }
      ],
      "name": "TransferBatch",
      "type": "event"
    },
    {
      "anonymous": false,
      "inputs": [
        {
          "indexed": true,
          "internalType": "address",
          "name": "operator",
          "type": "address"
        },
        {
          "indexed": true,
          "internalType": "address",
          "name": "from",
          "type": "address"
        },
        {
          "indexed": true,
          "internalType": "address",
          "name": "to",
          "type": "address"
        },
        {
          "indexed": false,
          "internalType": "uint256",
          "name": "id",
          "type": "uint256"
        },
        {
          "indexed": false,
          "internalType": "uint256",
          "name": "value",
          "type": "uint256"
        }
      ],
      "name": "TransferSingle",
      "type": "event"
    },
    {
      "anonymous": false,
      "inputs": [
        {
          "indexed": false,
          "internalType": "string",
          "name": "value",
          "type": "string"
        },
        {
          "indexed": true,
          "internalType": "uint256",
          "name": "id",
          "type": "uint256"
        }
      ],
      "name": "URI",
      "type": "event"
    },
    {
      "anonymous": false,
      "inputs": [
        {
          "indexed": false,
          "internalType": "address",
          "name": "account",
          "type": "address"
        }
      ],
      "name": "Unpaused",
      "type": "event"
    },
    {
      "inputs": [],
      "name": "DEFAULT_ADMIN_ROLE",
      "outputs": [
        {
          "internalType": "bytes32",
          "name": "",
          "type": "bytes32"
        }
      ],
      "stateMutability": "view",
      "type": "function"
    },
    {
      "inputs": [],
      "name": "PAUSER_ROLE",
      "outputs": [
        {
          "internalType": "bytes32",
          "name": "",
          "type": "bytes32"
        }
      ],
      "stateMutability": "view",
      "type": "function"
    },
    {
      "inputs": [
        {
          "internalType": "address",
          "name": "account",
          "type": "address"
        },
        {
          "internalType": "uint256",
          "name": "id",
          "type": "uint256"
        }
      ],
      "name": "balanceOf",
      "outputs": [
        {
          "internalType": "uint256",
          "name": "",
          "type": "uint256"
        }
      ],
      "stateMutability": "view",
      "type": "function"
    },
    {
      "inputs": [
        {
          "internalType": "address[]",
          "name": "accounts",
          "type": "address[]"
        },
        {
          "internalType": "uint256[]",
          "name": "ids",
          "type": "uint256[]"
        }
      ],
      "name": "balanceOfBatch",
      "outputs": [
        {
          "internalType": "uint256[]",
          "name": "",
          "type": "uint256[]"
        }
      ],
      "stateMutability": "view",
      "type": "function"
    },
    {
      "inputs": [
        {
          "internalType": "address",
          "name": "from",
          "type": "address"
        },
        {
          "internalType": "uint256",
          "name": "id",
          "type": "uint256"
        },
        {
          "internalType": "uint256",
          "name": "amount",
          "type": "uint256"
        }
      ],
      "name": "burn",
      "outputs": [],
      "stateMutability": "nonpayable",
      "type": "function"
    },
    {
      "inputs": [
        {
          "internalType": "address",
          "name": "from",
          "type": "address"
        },
        {
          "internalType": "uint256[]",
          "name": "ids",
          "type": "uint256[]"
        },
        {
          "internalType": "uint256[]",
          "name": "amounts",
          "type": "uint256[]"
        }
      ],
      "name": "burnBatch",
      "outputs": [],
      "stateMutability": "nonpayable",
      "type": "function"
    },
    {
      "inputs": [
        {
          "internalType": "bytes32",
          "name": "role",
          "type": "bytes32"
        }
      ],
      "name": "getRoleAdmin",
      "outputs": [
        {
          "internalType": "bytes32",
          "name": "",
          "type": "bytes32"
        }
      ],
      "stateMutability": "view",
      "type": "function"
    },
    {
      "inputs": [
        {
          "internalType": "bytes32",
          "name": "role",
          "type": "bytes32"
        },
        {
          "internalType": "address",
          "name": "account",
          "type": "address"
        }
      ],
      "name": "grantRole",
      "outputs": [],
      "stateMutability": "nonpayable",
      "type": "function"
    },
    {
      "inputs": [
        {
          "internalType": "bytes32",
          "name": "role",
          "type": "bytes32"
        },
        {
          "internalType": "address",
          "name": "account",
          "type": "address"
        }
      ],
      "name": "hasRole",
      "outputs": [
        {
          "internalType": "bool",
          "name": "",
          "type": "bool"
        }
      ],
      "stateMutability": "view",
      "type": "function"
    },
    {
      "inputs": [
        {
          "internalType": "address",
          "name": "account",
          "type": "address"
        },
        {
          "internalType": "address",
          "name": "operator",
          "type": "address"
        }
      ],
      "name": "isApprovedForAll",
      "outputs": [
        {
          "internalType": "bool",
          "name": "",
          "type": "bool"
        }
      ],
      "stateMutability": "view",
      "type": "function"
    },
    {
      "inputs": [],
      "name": "pause",
      "outputs": [],
      "stateMutability": "nonpayable",
      "type": "function"
    },
    {
      "inputs": [],
      "name": "paused",
      "outputs": [
        {
          "internalType": "bool",
          "name": "",
          "type": "bool"
        }
      ],
      "stateMutability": "view",
      "type": "function"
    },
    {
      "inputs": [
        {
          "internalType": "bytes32",
          "name": "role",
          "type": "bytes32"
        },
        {
          "internalType": "address",
          "name": "callerConfirmation",
          "type": "address"
        }
      ],
      "name": "renounceRole",
      "outputs": [],
      "stateMutability": "nonpayable",
      "type": "function"
    },
    {
      "inputs": [
        {
          "internalType": "bytes32",
          "name": "role",
          "type": "bytes32"
        },
        {
          "internalType": "address",
          "name": "account",
          "type": "address"
        }
      ],
      "name": "revokeRole",
      "outputs": [],
      "stateMutability": "nonpayable",
      "type": "function"
    },
    {
      "inputs": [
        {
          "internalType": "address",
          "name": "from",
          "type": "address"
        },
        {
          "internalType": "address",
          "name": "to",
          "type": "address"
        },
        {
          "internalType": "uint256[]",
          "name": "ids",
          "type": "uint256[]"
        },
        {
          "internalType": "uint256[]",
          "name": "values",
          "type": "uint256[]"
        },
        {
          "internalType": "bytes",
          "name": "data",
          "type": "bytes"
        }
      ],
      "name": "safeBatchTransferFrom",
      "outputs": [],
      "stateMutability": "nonpayable",
      "type": "function"
    },
    {
      "inputs": [
        {
          "internalType": "address",
          "name": "from",
          "type": "address"
        },
        {
          "internalType": "address",
          "name": "to",
          "type": "address"
        },
        {
          "internalType": "uint256",
          "name": "id",
          "type": "uint256"
        },
        {
          "internalType": "uint256",
          "name": "value",
          "type": "uint256"
        },
        {
          "internalType": "bytes",
          "name": "data",
          "type": "bytes"
        }
      ],
      "name": "safeTransferFrom",
      "outputs": [],
      "stateMutability": "nonpayable",
      "type": "function"
    },
    {
      "inputs": [
        {
          "internalType": "address",
          "name": "operator",
          "type": "address"
        },
        {
          "internalType": "bool",
          "name": "approved",
          "type": "bool"
        }
      ],
      "name": "setApprovalForAll",
      "outputs": [],
      "stateMutability": "nonpayable",
      "type": "function"
    },
    {
      "inputs": [
        {
          "internalType": "bytes4",
          "name": "interfaceId",
          "type": "bytes4"
        }
      ],
      "name": "supportsInterface",
      "outputs": [
        {
          "internalType": "bool",
          "name": "",
          "type": "bool"
        }
      ],
      "stateMutability": "view",
      "type": "function"
    },
    {
      "inputs": [],
      "name": "unpause",
      "outputs": [],
      "stateMutability": "nonpayable",
      "type": "function"
    },
    {
      "inputs": [
        {
          "internalType": "uint256",
          "name": "",
          "type": "uint256"
        }
      ],
      "name": "uri",
      "outputs": [
        {
          "internalType": "string",
          "name": "",
          "type": "string"
        }
      ],
      "stateMutability": "view",
      "type": "function"
    }
  ],
  "bytecode": "0x60806040523480156200001157600080fd5b5060405162001d1a38038062001d1a833981016040819052620000349162000161565b8080620000418162000086565b506200004f60003362000098565b506200007e90507f65d7a28e3265b37a6474929f336521b332c1681b933f6cb9f3376673440d862a3362000098565b505062000391565b6002620000948282620002c5565b5050565b60008281526004602090815260408083206001600160a01b038516845290915281205460ff16620001415760008381526004602090815260408083206001600160a01b03861684529091529020805460ff19166001179055620000f83390565b6001600160a01b0316826001600160a01b0316847f2f8788117e7eff1d82e926ec794901d17c78024a50270940304540a733656f0d60405160405180910390a450600162000145565b5060005b92915050565b634e487b7160e01b600052604160045260246000fd5b600060208083850312156200017557600080fd5b82516001600160401b03808211156200018d57600080fd5b818501915085601f830112620001a257600080fd5b815181811115620001b757620001b76200014b565b604051601f8201601f19908116603f01168101908382118183101715620001e257620001e26200014b565b816040528281528886848701011115620001fb57600080fd5b600093505b828410156200021f578484018601518185018701529285019262000200565b600086848301015280965050505050505092915050565b600181811c908216806200024b57607f821691505b6020821081036200026c57634e487b7160e01b600052602260045260246000fd5b50919050565b601f821115620002c057600081815260208120601f850160051c810160208610156200029b5750805b601f850160051c820191505b81811015620002bc57828155600101620002a7565b5050505b505050565b81516001600160401b03811115620002e157620002e16200014b565b620002f981620002f2845462000236565b8462000272565b602080601f831160018114620003315760008415620003185750858301515b600019600386901b1c1916600185901b178555620002bc565b600085815260208120601f198616915b82811015620003625788860151825594840194600190910190840162000341565b5085821015620003815787850151600019600388901b60f8161c191681555b5050505050600190811b01905550565b61197980620003a16000396000f3fe608060405234801561001057600080fd5b506004361061012b5760003560e01c80636b20c454116100ad578063d547741f11610071578063d547741f14610273578063e63ab1e914610286578063e985e9c5146102ad578063f242432a146102c0578063f5298aca146102d357600080fd5b80636b20c4541461022a5780638456cb591461023d57806391d1485414610245578063a217fddf14610258578063a22cb4651461026057600080fd5b80632f2ff15d116100f45780632f2ff15d146101d157806336568abe146101e45780633f4ba83a146101f75780634e1273f4146101ff5780635c975abb1461021f57600080fd5b8062fdd58e1461013057806301ffc9a7146101565780630e89341c14610179578063248a9ca3146101995780632eb2c2d6146101bc575b600080fd5b61014361013e3660046111b6565b6102e6565b6040519081526020015b60405180910390f35b6101696101643660046111f6565b61030e565b604051901515815260200161014d565b61018c610187366004611213565b610319565b60405161014d9190611272565b6101436101a7366004611213565b60009081526004602052604090206001015490565b6101cf6101ca3660046113cb565b6103ad565b005b6101cf6101df366004611475565b610419565b6101cf6101f2366004611475565b610444565b6101cf61047c565b61021261020d3660046114a1565b6104fc565b60405161014d919061159c565b60035460ff16610169565b6101cf6102383660046115fb565b6105d1565b6101cf61067e565b610169610253366004611475565b6106fc565b610143600081565b6101cf61026e36600461167c565b610727565b6101cf610281366004611475565b610736565b6101437f65d7a28e3265b37a6474929f336521b332c1681b933f6cb9f3376673440d862a81565b6101696102bb3660046116b8565b61075b565b6101cf6102ce3660046116e2565b610789565b6101cf6102e1366004611747565b6107e8565b6000818152602081815260408083206001600160a01b03861684529091529020545b92915050565b60006103088261082b565b6060600280546103289061177a565b80601f01602080910402602001604051908101604052809291908181526020018280546103549061177a565b80156103a15780601f10610376576101008083540402835291602001916103a1565b820191906000526020600020905b81548152906001019060200180831161038457829003601f168201915b50505050509050919050565b336001600160a01b03861681148015906103ce57506103cc868261075b565b155b156104045760405163711bec9160e11b81526001600160a01b038083166004830152871660248201526044015b60405180910390fd5b6104118686868686610850565b505050505050565b600082815260046020526040902060010154610434816108b0565b61043e83836108bd565b50505050565b6001600160a01b038116331461046d5760405163334bd91960e11b815260040160405180910390fd5b6104778282610951565b505050565b6104a67f65d7a28e3265b37a6474929f336521b332c1681b933f6cb9f3376673440d862a336109be565b6104f25760405162461bcd60e51b815260206004820152601c60248201527f455243313135353a206d697373696e67205041555345525f524f4c450000000060448201526064016103fb565b6104fa6109d1565b565b6060815183511461052d5781518351604051635b05999160e01b8152600481019290925260248201526044016103fb565b6000835167ffffffffffffffff81111561054957610549611285565b604051908082528060200260200182016040528015610572578160200160208202803683370190505b50905060005b84518110156105c95760208082028601015161059c906020808402870101516102e6565b8282815181106105ae576105ae6117b4565b60209081029190910101526105c2816117e0565b9050610578565b509392505050565b6001600160a01b0385163314806105ed57506105ed853361075b565b6106095760405162461bcd60e51b81526004016103fb906117f9565b6106778585858080602002602001604051908101604052809392919081815260200183836020028082843760009201919091525050604080516020808902828101820190935288825290935088925087918291850190849080828437600092019190915250610a2392505050565b5050505050565b6106a87f65d7a28e3265b37a6474929f336521b332c1681b933f6cb9f3376673440d862a336109be565b6106f45760405162461bcd60e51b815260206004820152601c60248201527f455243313135353a206d697373696e67205041555345525f524f4c450000000060448201526064016103fb565b6104fa610a69565b60009182526004602090815260408084206001600160a01b0393909316845291905290205460ff1690565b610732338383610aa6565b5050565b600082815260046020526040902060010154610751816108b0565b61043e8383610951565b6001600160a01b03918216600090815260016020908152604080832093909416825291909152205460ff1690565b336001600160a01b03861681148015906107aa57506107a8868261075b565b155b156107db5760405163711bec9160e11b81526001600160a01b038083166004830152871660248201526044016103fb565b6104118686868686610b3c565b6001600160a01b0383163314806108045750610804833361075b565b6108205760405162461bcd60e51b81526004016103fb906117f9565b610477838383610bca565b60006001600160e01b03198216637965db0b60e01b1480610308575061030882610c32565b6001600160a01b03841661087a57604051632bfa23e760e11b8152600060048201526024016103fb565b6001600160a01b0385166108a357604051626a0d4560e21b8152600060048201526024016103fb565b6106778585858585610c82565b6108ba8133610cd5565b50565b60006108c983836106fc565b6109495760008381526004602090815260408083206001600160a01b03861684529091529020805460ff191660011790556109013390565b6001600160a01b0316826001600160a01b0316847f2f8788117e7eff1d82e926ec794901d17c78024a50270940304540a733656f0d60405160405180910390a4506001610308565b506000610308565b600061095d83836106fc565b156109495760008381526004602090815260408083206001600160a01b0386168085529252808320805460ff1916905551339286917ff6391f5c32d9c69d2a47ea670b442974b53935d1edc7fd64eb21e047a839171b9190a4506001610308565b60006109ca83836106fc565b9392505050565b6109d9610d0e565b6003805460ff191690557f5db9ee0a495bf2e6ff9c91a7834c1ba4fdd244a5e8aa4e537bd38aeae4b073aa335b6040516001600160a01b03909116815260200160405180910390a1565b6001600160a01b038316610a4c57604051626a0d4560e21b8152600060048201526024016103fb565b610477836000848460405180602001604052806000815250610c82565b610a71610d31565b6003805460ff191660011790557f62e78cea01bee320cd4e420270b5ea74000d11b0c9f74754ebdbfc544b05a258610a063390565b6001600160a01b038216610acf5760405162ced3e160e81b8152600060048201526024016103fb565b6001600160a01b03838116600081815260016020908152604080832094871680845294825291829020805460ff191686151590811790915591519182527f17307eab39ab6107e8899845ad3d59bd9653f200f220920489ca2b5937696c31910160405180910390a3505050565b6001600160a01b038416610b6657604051632bfa23e760e11b8152600060048201526024016103fb565b6001600160a01b038516610b8f57604051626a0d4560e21b8152600060048201526024016103fb565b60408051600180825260208201869052818301908152606082018590526080820190925290610bc18787848487610c82565b50505050505050565b6001600160a01b038316610bf357604051626a0d4560e21b8152600060048201526024016103fb565b604080516001808252602082018590528183019081526060820184905260a0820190925260006080820181815291929161067791879185908590610c82565b60006001600160e01b03198216636cdb3d1360e11b1480610c6357506001600160e01b031982166303a24d0760e21b145b8061030857506301ffc9a760e01b6001600160e01b0319831614610308565b610c8e85858585610d55565b6001600160a01b038416156106775782513390600103610cc75760208481015190840151610cc0838989858589610d61565b5050610411565b610411818787878787610e85565b610cdf82826106fc565b6107325760405163e2517d3f60e01b81526001600160a01b0382166004820152602481018390526044016103fb565b60035460ff166104fa57604051638dfc202b60e01b815260040160405180910390fd5b60035460ff16156104fa5760405163d93c066560e01b815260040160405180910390fd5b61043e84848484610f6e565b6001600160a01b0384163b156104115760405163f23a6e6160e01b81526001600160a01b0385169063f23a6e6190610da59089908990889088908890600401611842565b6020604051808303816000875af1925050508015610de0575060408051601f3d908101601f19168201909252610ddd91810190611887565b60015b610e49573d808015610e0e576040519150601f19603f3d011682016040523d82523d6000602084013e610e13565b606091505b508051600003610e4157604051632bfa23e760e11b81526001600160a01b03861660048201526024016103fb565b805160208201fd5b6001600160e01b0319811663f23a6e6160e01b14610bc157604051632bfa23e760e11b81526001600160a01b03861660048201526024016103fb565b6001600160a01b0384163b156104115760405163bc197c8160e01b81526001600160a01b0385169063bc197c8190610ec990899089908890889088906004016118a4565b6020604051808303816000875af1925050508015610f04575060408051601f3d908101601f19168201909252610f0191810190611887565b60015b610f32573d808015610e0e576040519150601f19603f3d011682016040523d82523d6000602084013e610e13565b6001600160e01b0319811663bc197c8160e01b14610bc157604051632bfa23e760e11b81526001600160a01b03861660048201526024016103fb565b610f76610d31565b61043e848484848051825114610fac5781518151604051635b05999160e01b8152600481019290925260248201526044016103fb565b3360005b83518110156110bb576020818102858101820151908501909101516001600160a01b03881615611063576000828152602081815260408083206001600160a01b038c1684529091529020548181101561103c576040516303dee4c560e01b81526001600160a01b038a1660048201526024810182905260448101839052606481018490526084016103fb565b6000838152602081815260408083206001600160a01b038d16845290915290209082900390555b6001600160a01b038716156110a8576000828152602081815260408083206001600160a01b038b168452909152812080548392906110a2908490611902565b90915550505b5050806110b4906117e0565b9050610fb0565b50825160010361113c5760208301516000906020840151909150856001600160a01b0316876001600160a01b0316846001600160a01b03167fc3d58168c5ae7397731d063d5bbf3d657854427343f4c083240f7aacaa2d0f62858560405161112d929190918252602082015260400190565b60405180910390a45050610677565b836001600160a01b0316856001600160a01b0316826001600160a01b03167f4a39dc06d4c0dbc64b70af90fd698a233a518aa5d07e595d983b8c0526c8f7fb868660405161118b929190611915565b60405180910390a45050505050565b80356001600160a01b03811681146111b157600080fd5b919050565b600080604083850312156111c957600080fd5b6111d28361119a565b946020939093013593505050565b6001600160e01b0319811681146108ba57600080fd5b60006020828403121561120857600080fd5b81356109ca816111e0565b60006020828403121561122557600080fd5b5035919050565b6000815180845260005b8181101561125257602081850181015186830182015201611236565b506000602082860101526020601f19601f83011685010191505092915050565b6020815260006109ca602083018461122c565b634e487b7160e01b600052604160045260246000fd5b604051601f8201601f1916810167ffffffffffffffff811182821017156112c4576112c4611285565b604052919050565b600067ffffffffffffffff8211156112e6576112e6611285565b5060051b60200190565b600082601f83011261130157600080fd5b81356020611316611311836112cc565b61129b565b82815260059290921b8401810191818101908684111561133557600080fd5b8286015b848110156113505780358352918301918301611339565b509695505050505050565b600082601f83011261136c57600080fd5b813567ffffffffffffffff81111561138657611386611285565b611399601f8201601f191660200161129b565b8181528460208386010111156113ae57600080fd5b816020850160208301376000918101602001919091529392505050565b600080600080600060a086880312156113e357600080fd5b6113ec8661119a565b94506113fa6020870161119a565b9350604086013567ffffffffffffffff8082111561141757600080fd5b61142389838a016112f0565b9450606088013591508082111561143957600080fd5b61144589838a016112f0565b9350608088013591508082111561145b57600080fd5b506114688882890161135b565b9150509295509295909350565b6000806040838503121561148857600080fd5b823591506114986020840161119a565b90509250929050565b600080604083850312156114b457600080fd5b823567ffffffffffffffff808211156114cc57600080fd5b818501915085601f8301126114e057600080fd5b813560206114f0611311836112cc565b82815260059290921b8401810191818101908984111561150f57600080fd5b948201945b83861015611534576115258661119a565b82529482019490820190611514565b9650508601359250508082111561154a57600080fd5b50611557858286016112f0565b9150509250929050565b600081518084526020808501945080840160005b8381101561159157815187529582019590820190600101611575565b509495945050505050565b6020815260006109ca6020830184611561565b60008083601f8401126115c157600080fd5b50813567ffffffffffffffff8111156115d957600080fd5b6020830191508360208260051b85010111156115f457600080fd5b9250929050565b60008060008060006060868803121561161357600080fd5b61161c8661119a565b9450602086013567ffffffffffffffff8082111561163957600080fd5b61164589838a016115af565b9096509450604088013591508082111561165e57600080fd5b5061166b888289016115af565b969995985093965092949392505050565b6000806040838503121561168f57600080fd5b6116988361119a565b9150602083013580151581146116ad57600080fd5b809150509250929050565b600080604083850312156116cb57600080fd5b6116d48361119a565b91506114986020840161119a565b600080600080600060a086880312156116fa57600080fd5b6117038661119a565b94506117116020870161119a565b93506040860135925060608601359150608086013567ffffffffffffffff81111561173b57600080fd5b6114688882890161135b565b60008060006060848603121561175c57600080fd5b6117658461119a565b95602085013595506040909401359392505050565b600181811c9082168061178e57607f821691505b6020821081036117ae57634e487b7160e01b600052602260045260246000fd5b50919050565b634e487b7160e01b600052603260045260246000fd5b634e487b7160e01b600052601160045260246000fd5b6000600182016117f2576117f26117ca565b5060010190565b60208082526029908201527f455243313135353a2063616c6c6572206973206e6f74206f776e6572206e6f7260408201526808185c1c1c9bdd995960ba1b606082015260800190565b6001600160a01b03868116825285166020820152604081018490526060810183905260a06080820181905260009061187c9083018461122c565b979650505050505050565b60006020828403121561189957600080fd5b81516109ca816111e0565b6001600160a01b0386811682528516602082015260a0604082018190526000906118d090830186611561565b82810360608401526118e28186611561565b905082810360808401526118f6818561122c565b98975050505050505050565b80820180821115610308576103086117ca565b6040815260006119286040830185611561565b828103602084015261193a8185611561565b9594505050505056fea2646970667358221220a5bae985f1a2a145de5c14d8b9951e291a620238eeee91577c0464eea7ce34ff64736f6c63430008140033",
  "linkReferences": {},
  "deployedLinkReferences": {}
}