{
  "_format": "hh-sol-artifact-1",
  "contractName": "ERC1155_mintable_pausable",
  "sourceName": "contracts/__generated__/ERC1155_mintable_pausable.sol",
  "abi": [
    {
      "inputs": [
        {
          "internalType": "string",
          "name": "uri_",
          "type": "string"
        }
      ],
      "stateMutability": "nonpayable",
      "type": "constructor"
    },
    {
      "inputs": [],
      "name": "AccessControlBadConfirmation",
      "type": "error"
    },
    {
      "inputs": [
        {
          "internalType": "address",
          "name": "account",
          "type": "address"
        },
        {
          "internalType": "bytes32",
          "name": "neededRole",
          "type": "bytes32"
        }
      ],
      "name": "AccessControlUnauthorizedAccount",
      "type": "error"
    },
    {
      "inputs": [
        {
          "internalType": "address",
          "name": "sender",
          "type": "address"
        },
        {
          "internalType": "uint256",
          "name": "balance",
          "type": "uint256"
        },
        {
          "internalType": "uint256",
          "name": "needed",
          "type": "uint256"
        },
        {
          "internalType": "uint256",
          "name": "tokenId",
          "type": "uint256"
        }
      ],
      "name": "ERC1155InsufficientBalance",
      "type": "error"
    },
    {
      "inputs": [
        {
          "internalType": "address",
          "name": "approver",
          "type": "address"
        }
      ],
      "name": "ERC1155InvalidApprover",
      "type": "error"
    },
    {
      "inputs": [
        {
          "internalType": "uint256",
          "name": "idsLength",
          "type": "uint256"
        },
        {
          "internalType": "uint256",
          "name": "valuesLength",
          "type": "uint256"
        }
      ],
      "name": "ERC1155InvalidArrayLength",
      "type": "error"
    },
    {
      "inputs": [
        {
          "internalType": "address",
          "name": "operator",
          "type": "address"
        }
      ],
      "name": "ERC1155InvalidOperator",
      "type": "error"
    },
    {
      "inputs": [
        {
          "internalType": "address",
          "name": "receiver",
          "type": "address"
        }
      ],
      "name": "ERC1155InvalidReceiver",
      "type": "error"
    },
    {
      "inputs": [
        {
          "internalType": "address",
          "name": "sender",
          "type": "address"
        }
      ],
      "name": "ERC1155InvalidSender",
      "type": "error"
    },
    {
      "inputs": [
        {
          "internalType": "address",
          "name": "operator",
          "type": "address"
        },
        {
          "internalType": "address",
          "name": "owner",
          "type": "address"
        }
      ],
      "name": "ERC1155MissingApprovalForAll",
      "type": "error"
    },
    {
      "inputs": [],
      "name": "EnforcedPause",
      "type": "error"
    },
    {
      "inputs": [],
      "name": "ExpectedPause",
      "type": "error"
    },
    {
      "anonymous": false,
      "inputs": [
        {
          "indexed": true,
          "internalType": "address",
          "name": "account",
          "type": "address"
        },
        {
          "indexed": true,
          "internalType": "address",
          "name": "operator",
          "type": "address"
        },
        {
          "indexed": false,
          "internalType": "bool",
          "name": "approved",
          "type": "bool"
        }
      ],
      "name": "ApprovalForAll",
      "type": "event"
    },
    {
      "anonymous": false,
      "inputs": [
        {
          "indexed": false,
          "internalType": "address",
          "name": "account",
          "type": "address"
        }
      ],
      "name": "Paused",
      "type": "event"
    },
    {
      "anonymous": false,
      "inputs": [
        {
          "indexed": true,
          "internalType": "bytes32",
          "name": "role",
          "type": "bytes32"
        },
        {
          "indexed": true,
          "internalType": "bytes32",
          "name": "previousAdminRole",
          "type": "bytes32"
        },
        {
          "indexed": true,
          "internalType": "bytes32",
          "name": "newAdminRole",
          "type": "bytes32"
        }
      ],
      "name": "RoleAdminChanged",
      "type": "event"
    },
    {
      "anonymous": false,
      "inputs": [
        {
          "indexed": true,
          "internalType": "bytes32",
          "name": "role",
          "type": "bytes32"
        },
        {
          "indexed": true,
          "internalType": "address",
          "name": "account",
          "type": "address"
        },
        {
          "indexed": true,
          "internalType": "address",
          "name": "sender",
          "type": "address"
        }
      ],
      "name": "RoleGranted",
      "type": "event"
    },
    {
      "anonymous": false,
      "inputs": [
        {
          "indexed": true,
          "internalType": "bytes32",
          "name": "role",
          "type": "bytes32"
        },
        {
          "indexed": true,
          "internalType": "address",
          "name": "account",
          "type": "address"
        },
        {
          "indexed": true,
          "internalType": "address",
          "name": "sender",
          "type": "address"
        }
      ],
      "name": "RoleRevoked",
      "type": "event"
    },
    {
      "anonymous": false,
      "inputs": [
        {
          "indexed": true,
          "internalType": "address",
          "name": "operator",
          "type": "address"
        },
        {
          "indexed": true,
          "internalType": "address",
          "name": "from",
          "type": "address"
        },
        {
          "indexed": true,
          "internalType": "address",
          "name": "to",
          "type": "address"
        },
        {
          "indexed": false,
          "internalType": "uint256[]",
          "name": "ids",
          "type": "uint256[]"
        },
        {
          "indexed": false,
          "internalType": "uint256[]",
          "name": "values",
          "type": "uint256[]"
        }
      ],
      "name": "TransferBatch",
      "type": "event"
    },
    {
      "anonymous": false,
      "inputs": [
        {
          "indexed": true,
          "internalType": "address",
          "name": "operator",
          "type": "address"
        },
        {
          "indexed": true,
          "internalType": "address",
          "name": "from",
          "type": "address"
        },
        {
          "indexed": true,
          "internalType": "address",
          "name": "to",
          "type": "address"
        },
        {
          "indexed": false,
          "internalType": "uint256",
          "name": "id",
          "type": "uint256"
        },
        {
          "indexed": false,
          "internalType": "uint256",
          "name": "value",
          "type": "uint256"
        }
      ],
      "name": "TransferSingle",
      "type": "event"
    },
    {
      "anonymous": false,
      "inputs": [
        {
          "indexed": false,
          "internalType": "string",
          "name": "value",
          "type": "string"
        },
        {
          "indexed": true,
          "internalType": "uint256",
          "name": "id",
          "type": "uint256"
        }
      ],
      "name": "URI",
      "type": "event"
    },
    {
      "anonymous": false,
      "inputs": [
        {
          "indexed": false,
          "internalType": "address",
          "name": "account",
          "type": "address"
        }
      ],
      "name": "Unpaused",
      "type": "event"
    },
    {
      "inputs": [],
      "name": "DEFAULT_ADMIN_ROLE",
      "outputs": [
        {
          "internalType": "bytes32",
          "name": "",
          "type": "bytes32"
        }
      ],
      "stateMutability": "view",
      "type": "function"
    },
    {
      "inputs": [],
      "name": "MINTER_ROLE",
      "outputs": [
        {
          "internalType": "bytes32",
          "name": "",
          "type": "bytes32"
        }
      ],
      "stateMutability": "view",
      "type": "function"
    },
    {
      "inputs": [],
      "name": "PAUSER_ROLE",
      "outputs": [
        {
          "internalType": "bytes32",
          "name": "",
          "type": "bytes32"
        }
      ],
      "stateMutability": "view",
      "type": "function"
    },
    {
      "inputs": [
        {
          "internalType": "address",
          "name": "account",
          "type": "address"
        },
        {
          "internalType": "uint256",
          "name": "id",
          "type": "uint256"
        }
      ],
      "name": "balanceOf",
      "outputs": [
        {
          "internalType": "uint256",
          "name": "",
          "type": "uint256"
        }
      ],
      "stateMutability": "view",
      "type": "function"
    },
    {
      "inputs": [
        {
          "internalType": "address[]",
          "name": "accounts",
          "type": "address[]"
        },
        {
          "internalType": "uint256[]",
          "name": "ids",
          "type": "uint256[]"
        }
      ],
      "name": "balanceOfBatch",
      "outputs": [
        {
          "internalType": "uint256[]",
          "name": "",
          "type": "uint256[]"
        }
      ],
      "stateMutability": "view",
      "type": "function"
    },
    {
      "inputs": [
        {
          "internalType": "bytes32",
          "name": "role",
          "type": "bytes32"
        }
      ],
      "name": "getRoleAdmin",
      "outputs": [
        {
          "internalType": "bytes32",
          "name": "",
          "type": "bytes32"
        }
      ],
      "stateMutability": "view",
      "type": "function"
    },
    {
      "inputs": [
        {
          "internalType": "bytes32",
          "name": "role",
          "type": "bytes32"
        },
        {
          "internalType": "address",
          "name": "account",
          "type": "address"
        }
      ],
      "name": "grantRole",
      "outputs": [],
      "stateMutability": "nonpayable",
      "type": "function"
    },
    {
      "inputs": [
        {
          "internalType": "bytes32",
          "name": "role",
          "type": "bytes32"
        },
        {
          "internalType": "address",
          "name": "account",
          "type": "address"
        }
      ],
      "name": "hasRole",
      "outputs": [
        {
          "internalType": "bool",
          "name": "",
          "type": "bool"
        }
      ],
      "stateMutability": "view",
      "type": "function"
    },
    {
      "inputs": [
        {
          "internalType": "address",
          "name": "account",
          "type": "address"
        },
        {
          "internalType": "address",
          "name": "operator",
          "type": "address"
        }
      ],
      "name": "isApprovedForAll",
      "outputs": [
        {
          "internalType": "bool",
          "name": "",
          "type": "bool"
        }
      ],
      "stateMutability": "view",
      "type": "function"
    },
    {
      "inputs": [
        {
          "internalType": "address",
          "name": "to",
          "type": "address"
        },
        {
          "internalType": "uint256",
          "name": "id",
          "type": "uint256"
        },
        {
          "internalType": "uint256",
          "name": "amount",
          "type": "uint256"
        },
        {
          "internalType": "bytes",
          "name": "data",
          "type": "bytes"
        }
      ],
      "name": "mint",
      "outputs": [],
      "stateMutability": "nonpayable",
      "type": "function"
    },
    {
      "inputs": [
        {
          "internalType": "address",
          "name": "to",
          "type": "address"
        },
        {
          "internalType": "uint256[]",
          "name": "ids",
          "type": "uint256[]"
        },
        {
          "internalType": "uint256[]",
          "name": "amounts",
          "type": "uint256[]"
        },
        {
          "internalType": "bytes",
          "name": "data",
          "type": "bytes"
        }
      ],
      "name": "mintBatch",
      "outputs": [],
      "stateMutability": "nonpayable",
      "type": "function"
    },
    {
      "inputs": [],
      "name": "pause",
      "outputs": [],
      "stateMutability": "nonpayable",
      "type": "function"
    },
    {
      "inputs": [],
      "name": "paused",
      "outputs": [
        {
          "internalType": "bool",
          "name": "",
          "type": "bool"
        }
      ],
      "stateMutability": "view",
      "type": "function"
    },
    {
      "inputs": [
        {
          "internalType": "bytes32",
          "name": "role",
          "type": "bytes32"
        },
        {
          "internalType": "address",
          "name": "callerConfirmation",
          "type": "address"
        }
      ],
      "name": "renounceRole",
      "outputs": [],
      "stateMutability": "nonpayable",
      "type": "function"
    },
    {
      "inputs": [
        {
          "internalType": "bytes32",
          "name": "role",
          "type": "bytes32"
        },
        {
          "internalType": "address",
          "name": "account",
          "type": "address"
        }
      ],
      "name": "revokeRole",
      "outputs": [],
      "stateMutability": "nonpayable",
      "type": "function"
    },
    {
      "inputs": [
        {
          "internalType": "address",
          "name": "from",
          "type": "address"
        },
        {
          "internalType": "address",
          "name": "to",
          "type": "address"
        },
        {
          "internalType": "uint256[]",
          "name": "ids",
          "type": "uint256[]"
        },
        {
          "internalType": "uint256[]",
          "name": "values",
          "type": "uint256[]"
        },
        {
          "internalType": "bytes",
          "name": "data",
          "type": "bytes"
        }
      ],
      "name": "safeBatchTransferFrom",
      "outputs": [],
      "stateMutability": "nonpayable",
      "type": "function"
    },
    {
      "inputs": [
        {
          "internalType": "address",
          "name": "from",
          "type": "address"
        },
        {
          "internalType": "address",
          "name": "to",
          "type": "address"
        },
        {
          "internalType": "uint256",
          "name": "id",
          "type": "uint256"
        },
        {
          "internalType": "uint256",
          "name": "value",
          "type": "uint256"
        },
        {
          "internalType": "bytes",
          "name": "data",
          "type": "bytes"
        }
      ],
      "name": "safeTransferFrom",
      "outputs": [],
      "stateMutability": "nonpayable",
      "type": "function"
    },
    {
      "inputs": [
        {
          "internalType": "address",
          "name": "operator",
          "type": "address"
        },
        {
          "internalType": "bool",
          "name": "approved",
          "type": "bool"
        }
      ],
      "name": "setApprovalForAll",
      "outputs": [],
      "stateMutability": "nonpayable",
      "type": "function"
    },
    {
      "inputs": [
        {
          "internalType": "bytes4",
          "name": "interfaceId",
          "type": "bytes4"
        }
      ],
      "name": "supportsInterface",
      "outputs": [
        {
          "internalType": "bool",
          "name": "",
          "type": "bool"
        }
      ],
      "stateMutability": "view",
      "type": "function"
    },
    {
      "inputs": [],
      "name": "unpause",
      "outputs": [],
      "stateMutability": "nonpayable",
      "type": "function"
    },
    {
      "inputs": [
        {
          "internalType": "uint256",
          "name": "",
          "type": "uint256"
        }
      ],
      "name": "uri",
      "outputs": [
        {
          "internalType": "string",
          "name": "",
          "type": "string"
        }
      ],
      "stateMutability": "view",
      "type": "function"
    }
  ],
  "bytecode": "0x60806040523480156200001157600080fd5b5060405162001e9f38038062001e9f83398101604081905262000034916200018e565b80806200004181620000b3565b506200004f600033620000c5565b506200007e90507f9f2df0fed2c77648de5860a4cc508cd0818c85b8b8a1ab4ceeef8d981c8956a633620000c5565b50620000ab7f65d7a28e3265b37a6474929f336521b332c1681b933f6cb9f3376673440d862a33620000c5565b5050620003be565b6002620000c18282620002f2565b5050565b60008281526004602090815260408083206001600160a01b038516845290915281205460ff166200016e5760008381526004602090815260408083206001600160a01b03861684529091529020805460ff19166001179055620001253390565b6001600160a01b0316826001600160a01b0316847f2f8788117e7eff1d82e926ec794901d17c78024a50270940304540a733656f0d60405160405180910390a450600162000172565b5060005b92915050565b634e487b7160e01b600052604160045260246000fd5b60006020808385031215620001a257600080fd5b82516001600160401b0380821115620001ba57600080fd5b818501915085601f830112620001cf57600080fd5b815181811115620001e457620001e462000178565b604051601f8201601f19908116603f011681019083821181831017156200020f576200020f62000178565b8160405282815288868487010111156200022857600080fd5b600093505b828410156200024c57848401860151818501870152928501926200022d565b600086848301015280965050505050505092915050565b600181811c908216806200027857607f821691505b6020821081036200029957634e487b7160e01b600052602260045260246000fd5b50919050565b601f821115620002ed57600081815260208120601f850160051c81016020861015620002c85750805b601f850160051c820191505b81811015620002e957828155600101620002d4565b5050505b505050565b81516001600160401b038111156200030e576200030e62000178565b62000326816200031f845462000263565b846200029f565b602080601f8311600181146200035e5760008415620003455750858301515b600019600386901b1c1916600185901b178555620002e9565b600085815260208120601f198616915b828110156200038f578886015182559484019460019091019084016200036e565b5085821015620003ae5787850151600019600388901b60f8161c191681555b5050505050600190811b01905550565b611ad180620003ce6000396000f3fe608060405234801561001057600080fd5b50600436106101365760003560e01c80635c975abb116100b8578063a22cb4651161007c578063a22cb4651461027e578063d539139314610291578063d547741f146102b8578063e63ab1e9146102cb578063e985e9c5146102f2578063f242432a1461030557600080fd5b80635c975abb1461023d578063731133e9146102485780638456cb591461025b57806391d1485414610263578063a217fddf1461027657600080fd5b80632eb2c2d6116100ff5780632eb2c2d6146101dc5780632f2ff15d146101ef57806336568abe146102025780633f4ba83a146102155780634e1273f41461021d57600080fd5b8062fdd58e1461013b57806301ffc9a7146101615780630e89341c146101845780631f7fdffa146101a4578063248a9ca3146101b9575b600080fd5b61014e6101493660046112b6565b610318565b6040519081526020015b60405180910390f35b61017461016f3660046112f6565b610340565b6040519015158152602001610158565b610197610192366004611313565b61034b565b6040516101589190611372565b6101b76101b2366004611413565b6103df565b005b61014e6101c7366004611313565b60009081526004602052604090206001015490565b6101b76101ea366004611604565b610505565b6101b76101fd3660046116ae565b61056c565b6101b76102103660046116ae565b610597565b6101b76105cf565b61023061022b3660046116da565b61064f565b60405161015891906117d5565b60035460ff16610174565b6101b76102563660046117e8565b610724565b6101b76107e3565b6101746102713660046116ae565b610861565b61014e600081565b6101b761028c366004611850565b61088c565b61014e7f9f2df0fed2c77648de5860a4cc508cd0818c85b8b8a1ab4ceeef8d981c8956a681565b6101b76102c63660046116ae565b61089b565b61014e7f65d7a28e3265b37a6474929f336521b332c1681b933f6cb9f3376673440d862a81565b61017461030036600461188c565b6108c0565b6101b76103133660046118b6565b6108ee565b6000818152602081815260408083206001600160a01b03861684529091529020545b92915050565b600061033a8261094d565b60606002805461035a9061191b565b80601f01602080910402602001604051908101604052809291908181526020018280546103869061191b565b80156103d35780601f106103a8576101008083540402835291602001916103d3565b820191906000526020600020905b8154815290600101906020018083116103b657829003601f168201915b50505050509050919050565b6104097f9f2df0fed2c77648de5860a4cc508cd0818c85b8b8a1ab4ceeef8d981c8956a633610972565b61045a5760405162461bcd60e51b815260206004820152601c60248201527f455243313135353a206d697373696e67204d494e5445525f524f4c450000000060448201526064015b60405180910390fd5b6104fc8787878080602002602001604051908101604052809392919081815260200183836020028082843760009201919091525050604080516020808b0282810182019093528a82529093508a92508991829185019084908082843760009201919091525050604080516020601f8a01819004810282018101909252888152925088915087908190840183828082843760009201919091525061098592505050565b50505050505050565b336001600160a01b0386168114801590610526575061052486826108c0565b155b156105575760405163711bec9160e11b81526001600160a01b03808316600483015287166024820152604401610451565b61056486868686866109bd565b505050505050565b60008281526004602052604090206001015461058781610a1d565b6105918383610a2a565b50505050565b6001600160a01b03811633146105c05760405163334bd91960e11b815260040160405180910390fd5b6105ca8282610abe565b505050565b6105f97f65d7a28e3265b37a6474929f336521b332c1681b933f6cb9f3376673440d862a33610972565b6106455760405162461bcd60e51b815260206004820152601c60248201527f455243313135353a206d697373696e67205041555345525f524f4c45000000006044820152606401610451565b61064d610b2b565b565b606081518351146106805781518351604051635b05999160e01b815260048101929092526024820152604401610451565b6000835167ffffffffffffffff81111561069c5761069c6114be565b6040519080825280602002602001820160405280156106c5578160200160208202803683370190505b50905060005b845181101561071c576020808202860101516106ef90602080840287010151610318565b82828151811061070157610701611955565b602090810291909101015261071581611981565b90506106cb565b509392505050565b61074e7f9f2df0fed2c77648de5860a4cc508cd0818c85b8b8a1ab4ceeef8d981c8956a633610972565b61079a5760405162461bcd60e51b815260206004820152601c60248201527f455243313135353a206d697373696e67204d494e5445525f524f4c45000000006044820152606401610451565b6107dc85858585858080601f016020809104026020016040519081016040528093929190818152602001838380828437600092019190915250610b7d92505050565b5050505050565b61080d7f65d7a28e3265b37a6474929f336521b332c1681b933f6cb9f3376673440d862a33610972565b6108595760405162461bcd60e51b815260206004820152601c60248201527f455243313135353a206d697373696e67205041555345525f524f4c45000000006044820152606401610451565b61064d610bda565b60009182526004602090815260408084206001600160a01b0393909316845291905290205460ff1690565b610897338383610c17565b5050565b6000828152600460205260409020600101546108b681610a1d565b6105918383610abe565b6001600160a01b03918216600090815260016020908152604080832093909416825291909152205460ff1690565b336001600160a01b038616811480159061090f575061090d86826108c0565b155b156109405760405163711bec9160e11b81526001600160a01b03808316600483015287166024820152604401610451565b6105648686868686610cad565b60006001600160e01b03198216637965db0b60e01b148061033a575061033a82610d32565b600061097e8383610861565b9392505050565b6001600160a01b0384166109af57604051632bfa23e760e11b815260006004820152602401610451565b610591600085858585610d82565b6001600160a01b0384166109e757604051632bfa23e760e11b815260006004820152602401610451565b6001600160a01b038516610a1057604051626a0d4560e21b815260006004820152602401610451565b6107dc8585858585610d82565b610a278133610dd5565b50565b6000610a368383610861565b610ab65760008381526004602090815260408083206001600160a01b03861684529091529020805460ff19166001179055610a6e3390565b6001600160a01b0316826001600160a01b0316847f2f8788117e7eff1d82e926ec794901d17c78024a50270940304540a733656f0d60405160405180910390a450600161033a565b50600061033a565b6000610aca8383610861565b15610ab65760008381526004602090815260408083206001600160a01b0386168085529252808320805460ff1916905551339286917ff6391f5c32d9c69d2a47ea670b442974b53935d1edc7fd64eb21e047a839171b9190a450600161033a565b610b33610e0e565b6003805460ff191690557f5db9ee0a495bf2e6ff9c91a7834c1ba4fdd244a5e8aa4e537bd38aeae4b073aa335b6040516001600160a01b03909116815260200160405180910390a1565b6001600160a01b038416610ba757604051632bfa23e760e11b815260006004820152602401610451565b60408051600180825260208201869052818301908152606082018590526080820190925290610564600087848487610d82565b610be2610e31565b6003805460ff191660011790557f62e78cea01bee320cd4e420270b5ea74000d11b0c9f74754ebdbfc544b05a258610b603390565b6001600160a01b038216610c405760405162ced3e160e81b815260006004820152602401610451565b6001600160a01b03838116600081815260016020908152604080832094871680845294825291829020805460ff191686151590811790915591519182527f17307eab39ab6107e8899845ad3d59bd9653f200f220920489ca2b5937696c31910160405180910390a3505050565b6001600160a01b038416610cd757604051632bfa23e760e11b815260006004820152602401610451565b6001600160a01b038516610d0057604051626a0d4560e21b815260006004820152602401610451565b604080516001808252602082018690528183019081526060820185905260808201909252906104fc8787848487610d82565b60006001600160e01b03198216636cdb3d1360e11b1480610d6357506001600160e01b031982166303a24d0760e21b145b8061033a57506301ffc9a760e01b6001600160e01b031983161461033a565b610d8e85858585610e55565b6001600160a01b038416156107dc5782513390600103610dc75760208481015190840151610dc0838989858589610e61565b5050610564565b610564818787878787610f85565b610ddf8282610861565b6108975760405163e2517d3f60e01b81526001600160a01b038216600482015260248101839052604401610451565b60035460ff1661064d57604051638dfc202b60e01b815260040160405180910390fd5b60035460ff161561064d5760405163d93c066560e01b815260040160405180910390fd5b6105918484848461106e565b6001600160a01b0384163b156105645760405163f23a6e6160e01b81526001600160a01b0385169063f23a6e6190610ea5908990899088908890889060040161199a565b6020604051808303816000875af1925050508015610ee0575060408051601f3d908101601f19168201909252610edd918101906119df565b60015b610f49573d808015610f0e576040519150601f19603f3d011682016040523d82523d6000602084013e610f13565b606091505b508051600003610f4157604051632bfa23e760e11b81526001600160a01b0386166004820152602401610451565b805160208201fd5b6001600160e01b0319811663f23a6e6160e01b146104fc57604051632bfa23e760e11b81526001600160a01b0386166004820152602401610451565b6001600160a01b0384163b156105645760405163bc197c8160e01b81526001600160a01b0385169063bc197c8190610fc990899089908890889088906004016119fc565b6020604051808303816000875af1925050508015611004575060408051601f3d908101601f19168201909252611001918101906119df565b60015b611032573d808015610f0e576040519150601f19603f3d011682016040523d82523d6000602084013e610f13565b6001600160e01b0319811663bc197c8160e01b146104fc57604051632bfa23e760e11b81526001600160a01b0386166004820152602401610451565b611076610e31565b6105918484848480518251146110ac5781518151604051635b05999160e01b815260048101929092526024820152604401610451565b3360005b83518110156111bb576020818102858101820151908501909101516001600160a01b03881615611163576000828152602081815260408083206001600160a01b038c1684529091529020548181101561113c576040516303dee4c560e01b81526001600160a01b038a166004820152602481018290526044810183905260648101849052608401610451565b6000838152602081815260408083206001600160a01b038d16845290915290209082900390555b6001600160a01b038716156111a8576000828152602081815260408083206001600160a01b038b168452909152812080548392906111a2908490611a5a565b90915550505b5050806111b490611981565b90506110b0565b50825160010361123c5760208301516000906020840151909150856001600160a01b0316876001600160a01b0316846001600160a01b03167fc3d58168c5ae7397731d063d5bbf3d657854427343f4c083240f7aacaa2d0f62858560405161122d929190918252602082015260400190565b60405180910390a450506107dc565b836001600160a01b0316856001600160a01b0316826001600160a01b03167f4a39dc06d4c0dbc64b70af90fd698a233a518aa5d07e595d983b8c0526c8f7fb868660405161128b929190611a6d565b60405180910390a45050505050565b80356001600160a01b03811681146112b157600080fd5b919050565b600080604083850312156112c957600080fd5b6112d28361129a565b946020939093013593505050565b6001600160e01b031981168114610a2757600080fd5b60006020828403121561130857600080fd5b813561097e816112e0565b60006020828403121561132557600080fd5b5035919050565b6000815180845260005b8181101561135257602081850181015186830182015201611336565b506000602082860101526020601f19601f83011685010191505092915050565b60208152600061097e602083018461132c565b60008083601f84011261139757600080fd5b50813567ffffffffffffffff8111156113af57600080fd5b6020830191508360208260051b85010111156113ca57600080fd5b9250929050565b60008083601f8401126113e357600080fd5b50813567ffffffffffffffff8111156113fb57600080fd5b6020830191508360208285010111156113ca57600080fd5b60008060008060008060006080888a03121561142e57600080fd5b6114378861129a565b9650602088013567ffffffffffffffff8082111561145457600080fd5b6114608b838c01611385565b909850965060408a013591508082111561147957600080fd5b6114858b838c01611385565b909650945060608a013591508082111561149e57600080fd5b506114ab8a828b016113d1565b989b979a50959850939692959293505050565b634e487b7160e01b600052604160045260246000fd5b604051601f8201601f1916810167ffffffffffffffff811182821017156114fd576114fd6114be565b604052919050565b600067ffffffffffffffff82111561151f5761151f6114be565b5060051b60200190565b600082601f83011261153a57600080fd5b8135602061154f61154a83611505565b6114d4565b82815260059290921b8401810191818101908684111561156e57600080fd5b8286015b848110156115895780358352918301918301611572565b509695505050505050565b600082601f8301126115a557600080fd5b813567ffffffffffffffff8111156115bf576115bf6114be565b6115d2601f8201601f19166020016114d4565b8181528460208386010111156115e757600080fd5b816020850160208301376000918101602001919091529392505050565b600080600080600060a0868803121561161c57600080fd5b6116258661129a565b94506116336020870161129a565b9350604086013567ffffffffffffffff8082111561165057600080fd5b61165c89838a01611529565b9450606088013591508082111561167257600080fd5b61167e89838a01611529565b9350608088013591508082111561169457600080fd5b506116a188828901611594565b9150509295509295909350565b600080604083850312156116c157600080fd5b823591506116d16020840161129a565b90509250929050565b600080604083850312156116ed57600080fd5b823567ffffffffffffffff8082111561170557600080fd5b818501915085601f83011261171957600080fd5b8135602061172961154a83611505565b82815260059290921b8401810191818101908984111561174857600080fd5b948201945b8386101561176d5761175e8661129a565b8252948201949082019061174d565b9650508601359250508082111561178357600080fd5b5061179085828601611529565b9150509250929050565b600081518084526020808501945080840160005b838110156117ca578151875295820195908201906001016117ae565b509495945050505050565b60208152600061097e602083018461179a565b60008060008060006080868803121561180057600080fd5b6118098661129a565b94506020860135935060408601359250606086013567ffffffffffffffff81111561183357600080fd5b61183f888289016113d1565b969995985093965092949392505050565b6000806040838503121561186357600080fd5b61186c8361129a565b91506020830135801515811461188157600080fd5b809150509250929050565b6000806040838503121561189f57600080fd5b6118a88361129a565b91506116d16020840161129a565b600080600080600060a086880312156118ce57600080fd5b6118d78661129a565b94506118e56020870161129a565b93506040860135925060608601359150608086013567ffffffffffffffff81111561190f57600080fd5b6116a188828901611594565b600181811c9082168061192f57607f821691505b60208210810361194f57634e487b7160e01b600052602260045260246000fd5b50919050565b634e487b7160e01b600052603260045260246000fd5b634e487b7160e01b600052601160045260246000fd5b6000600182016119935761199361196b565b5060010190565b6001600160a01b03868116825285166020820152604081018490526060810183905260a0608082018190526000906119d49083018461132c565b979650505050505050565b6000602082840312156119f157600080fd5b815161097e816112e0565b6001600160a01b0386811682528516602082015260a060408201819052600090611a289083018661179a565b8281036060840152611a3a818661179a565b90508281036080840152611a4e818561132c565b98975050505050505050565b8082018082111561033a5761033a61196b565b604081526000611a80604083018561179a565b8281036020840152611a92818561179a565b9594505050505056fea264697066735822122038868d50a39e2d15e4f8aecb3c1364217696f9f4245218e83cafbe3f4489497d64736f6c63430008140033",
  "linkReferences": {},
  "deployedLinkReferences": {}
}