{
  "_format": "hh-sol-artifact-1",
  "contractName": "ERC20_mintable_pausable",
  "sourceName": "contracts/__generated__/ERC20_mintable_pausable.sol",
  "abi": [
    {
      "inputs": [
        {
          "internalType": "string",
          "name": "name_",
          "type": "string"
        },
        {
          "internalType": "string",
          "name": "symbol_",
          "type": "string"
        }
      ],
      "stateMutability": "nonpayable",
      "type": "constructor"
    },
    {
      "inputs": [],
      "name": "AccessControlBadConfirmation",
      "type": "error"
    },
    {
      "inputs": [
        {
          "internalType": "address",
          "name": "account",
          "type": "address"
        },
        {
          "internalType": "bytes32",
          "name": "neededRole",
          "type": "bytes32"
        }
      ],
      "name": "AccessControlUnauthorizedAccount",
      "type": "error"
    },
    {
      "inputs": [
        {
          "internalType": "address",
          "name": "spender",
          "type": "address"
        },
        {
          "internalType": "uint256",
          "name": "allowance",
          "type": "uint256"
        },
        {
          "internalType": "uint256",
          "name": "needed",
          "type": "uint256"
        }
      ],
      "name": "ERC20InsufficientAllowance",
      "type": "error"
    },
    {
      "inputs": [
        {
          "internalType": "address",
          "name": "sender",
          "type": "address"
        },
        {
          "internalType": "uint256",
          "name": "balance",
          "type": "uint256"
        },
        {
          "internalType": "uint256",
          "name": "needed",
          "type": "uint256"
        }
      ],
      "name": "ERC20InsufficientBalance",
      "type": "error"
    },
    {
      "inputs": [
        {
          "internalType": "address",
          "name": "approver",
          "type": "address"
        }
      ],
      "name": "ERC20InvalidApprover",
      "type": "error"
    },
    {
      "inputs": [
        {
          "internalType": "address",
          "name": "receiver",
          "type": "address"
        }
      ],
      "name": "ERC20InvalidReceiver",
      "type": "error"
    },
    {
      "inputs": [
        {
          "internalType": "address",
          "name": "sender",
          "type": "address"
        }
      ],
      "name": "ERC20InvalidSender",
      "type": "error"
    },
    {
      "inputs": [
        {
          "internalType": "address",
          "name": "spender",
          "type": "address"
        }
      ],
      "name": "ERC20InvalidSpender",
      "type": "error"
    },
    {
      "inputs": [],
      "name": "EnforcedPause",
      "type": "error"
    },
    {
      "inputs": [],
      "name": "ExpectedPause",
      "type": "error"
    },
    {
      "anonymous": false,
      "inputs": [
        {
          "indexed": true,
          "internalType": "address",
          "name": "owner",
          "type": "address"
        },
        {
          "indexed": true,
          "internalType": "address",
          "name": "spender",
          "type": "address"
        },
        {
          "indexed": false,
          "internalType": "uint256",
          "name": "value",
          "type": "uint256"
        }
      ],
      "name": "Approval",
      "type": "event"
    },
    {
      "anonymous": false,
      "inputs": [
        {
          "indexed": false,
          "internalType": "address",
          "name": "account",
          "type": "address"
        }
      ],
      "name": "Paused",
      "type": "event"
    },
    {
      "anonymous": false,
      "inputs": [
        {
          "indexed": true,
          "internalType": "bytes32",
          "name": "role",
          "type": "bytes32"
        },
        {
          "indexed": true,
          "internalType": "bytes32",
          "name": "previousAdminRole",
          "type": "bytes32"
        },
        {
          "indexed": true,
          "internalType": "bytes32",
          "name": "newAdminRole",
          "type": "bytes32"
        }
      ],
      "name": "RoleAdminChanged",
      "type": "event"
    },
    {
      "anonymous": false,
      "inputs": [
        {
          "indexed": true,
          "internalType": "bytes32",
          "name": "role",
          "type": "bytes32"
        },
        {
          "indexed": true,
          "internalType": "address",
          "name": "account",
          "type": "address"
        },
        {
          "indexed": true,
          "internalType": "address",
          "name": "sender",
          "type": "address"
        }
      ],
      "name": "RoleGranted",
      "type": "event"
    },
    {
      "anonymous": false,
      "inputs": [
        {
          "indexed": true,
          "internalType": "bytes32",
          "name": "role",
          "type": "bytes32"
        },
        {
          "indexed": true,
          "internalType": "address",
          "name": "account",
          "type": "address"
        },
        {
          "indexed": true,
          "internalType": "address",
          "name": "sender",
          "type": "address"
        }
      ],
      "name": "RoleRevoked",
      "type": "event"
    },
    {
      "anonymous": false,
      "inputs": [
        {
          "indexed": true,
          "internalType": "address",
          "name": "from",
          "type": "address"
        },
        {
          "indexed": true,
          "internalType": "address",
          "name": "to",
          "type": "address"
        },
        {
          "indexed": false,
          "internalType": "uint256",
          "name": "value",
          "type": "uint256"
        }
      ],
      "name": "Transfer",
      "type": "event"
    },
    {
      "anonymous": false,
      "inputs": [
        {
          "indexed": false,
          "internalType": "address",
          "name": "account",
          "type": "address"
        }
      ],
      "name": "Unpaused",
      "type": "event"
    },
    {
      "inputs": [],
      "name": "DEFAULT_ADMIN_ROLE",
      "outputs": [
        {
          "internalType": "bytes32",
          "name": "",
          "type": "bytes32"
        }
      ],
      "stateMutability": "view",
      "type": "function"
    },
    {
      "inputs": [],
      "name": "MINTER_ROLE",
      "outputs": [
        {
          "internalType": "bytes32",
          "name": "",
          "type": "bytes32"
        }
      ],
      "stateMutability": "view",
      "type": "function"
    },
    {
      "inputs": [],
      "name": "PAUSER_ROLE",
      "outputs": [
        {
          "internalType": "bytes32",
          "name": "",
          "type": "bytes32"
        }
      ],
      "stateMutability": "view",
      "type": "function"
    },
    {
      "inputs": [
        {
          "internalType": "address",
          "name": "owner",
          "type": "address"
        },
        {
          "internalType": "address",
          "name": "spender",
          "type": "address"
        }
      ],
      "name": "allowance",
      "outputs": [
        {
          "internalType": "uint256",
          "name": "",
          "type": "uint256"
        }
      ],
      "stateMutability": "view",
      "type": "function"
    },
    {
      "inputs": [
        {
          "internalType": "address",
          "name": "spender",
          "type": "address"
        },
        {
          "internalType": "uint256",
          "name": "value",
          "type": "uint256"
        }
      ],
      "name": "approve",
      "outputs": [
        {
          "internalType": "bool",
          "name": "",
          "type": "bool"
        }
      ],
      "stateMutability": "nonpayable",
      "type": "function"
    },
    {
      "inputs": [
        {
          "internalType": "address",
          "name": "account",
          "type": "address"
        }
      ],
      "name": "balanceOf",
      "outputs": [
        {
          "internalType": "uint256",
          "name": "",
          "type": "uint256"
        }
      ],
      "stateMutability": "view",
      "type": "function"
    },
    {
      "inputs": [],
      "name": "decimals",
      "outputs": [
        {
          "internalType": "uint8",
          "name": "",
          "type": "uint8"
        }
      ],
      "stateMutability": "view",
      "type": "function"
    },
    {
      "inputs": [
        {
          "internalType": "bytes32",
          "name": "role",
          "type": "bytes32"
        }
      ],
      "name": "getRoleAdmin",
      "outputs": [
        {
          "internalType": "bytes32",
          "name": "",
          "type": "bytes32"
        }
      ],
      "stateMutability": "view",
      "type": "function"
    },
    {
      "inputs": [
        {
          "internalType": "bytes32",
          "name": "role",
          "type": "bytes32"
        },
        {
          "internalType": "address",
          "name": "account",
          "type": "address"
        }
      ],
      "name": "grantRole",
      "outputs": [],
      "stateMutability": "nonpayable",
      "type": "function"
    },
    {
      "inputs": [
        {
          "internalType": "bytes32",
          "name": "role",
          "type": "bytes32"
        },
        {
          "internalType": "address",
          "name": "account",
          "type": "address"
        }
      ],
      "name": "hasRole",
      "outputs": [
        {
          "internalType": "bool",
          "name": "",
          "type": "bool"
        }
      ],
      "stateMutability": "view",
      "type": "function"
    },
    {
      "inputs": [
        {
          "internalType": "address",
          "name": "to",
          "type": "address"
        },
        {
          "internalType": "uint256",
          "name": "amount",
          "type": "uint256"
        }
      ],
      "name": "mint",
      "outputs": [],
      "stateMutability": "nonpayable",
      "type": "function"
    },
    {
      "inputs": [],
      "name": "name",
      "outputs": [
        {
          "internalType": "string",
          "name": "",
          "type": "string"
        }
      ],
      "stateMutability": "view",
      "type": "function"
    },
    {
      "inputs": [],
      "name": "pause",
      "outputs": [],
      "stateMutability": "nonpayable",
      "type": "function"
    },
    {
      "inputs": [],
      "name": "paused",
      "outputs": [
        {
          "internalType": "bool",
          "name": "",
          "type": "bool"
        }
      ],
      "stateMutability": "view",
      "type": "function"
    },
    {
      "inputs": [
        {
          "internalType": "bytes32",
          "name": "role",
          "type": "bytes32"
        },
        {
          "internalType": "address",
          "name": "callerConfirmation",
          "type": "address"
        }
      ],
      "name": "renounceRole",
      "outputs": [],
      "stateMutability": "nonpayable",
      "type": "function"
    },
    {
      "inputs": [
        {
          "internalType": "bytes32",
          "name": "role",
          "type": "bytes32"
        },
        {
          "internalType": "address",
          "name": "account",
          "type": "address"
        }
      ],
      "name": "revokeRole",
      "outputs": [],
      "stateMutability": "nonpayable",
      "type": "function"
    },
    {
      "inputs": [
        {
          "internalType": "bytes4",
          "name": "interfaceId",
          "type": "bytes4"
        }
      ],
      "name": "supportsInterface",
      "outputs": [
        {
          "internalType": "bool",
          "name": "",
          "type": "bool"
        }
      ],
      "stateMutability": "view",
      "type": "function"
    },
    {
      "inputs": [],
      "name": "symbol",
      "outputs": [
        {
          "internalType": "string",
          "name": "",
          "type": "string"
        }
      ],
      "stateMutability": "view",
      "type": "function"
    },
    {
      "inputs": [],
      "name": "totalSupply",
      "outputs": [
        {
          "internalType": "uint256",
          "name": "",
          "type": "uint256"
        }
      ],
      "stateMutability": "view",
      "type": "function"
    },
    {
      "inputs": [
        {
          "internalType": "address",
          "name": "to",
          "type": "address"
        },
        {
          "internalType": "uint256",
          "name": "value",
          "type": "uint256"
        }
      ],
      "name": "transfer",
      "outputs": [
        {
          "internalType": "bool",
          "name": "",
          "type": "bool"
        }
      ],
      "stateMutability": "nonpayable",
      "type": "function"
    },
    {
      "inputs": [
        {
          "internalType": "address",
          "name": "from",
          "type": "address"
        },
        {
          "internalType": "address",
          "name": "to",
          "type": "address"
        },
        {
          "internalType": "uint256",
          "name": "value",
          "type": "uint256"
        }
      ],
      "name": "transferFrom",
      "outputs": [
        {
          "internalType": "bool",
          "name": "",
          "type": "bool"
        }
      ],
      "stateMutability": "nonpayable",
      "type": "function"
    },
    {
      "inputs": [],
      "name": "unpause",
      "outputs": [],
      "stateMutability": "nonpayable",
      "type": "function"
    }
  ],
  "bytecode": "0x60806040523480156200001157600080fd5b50604051620011403803806200114083398101604081905262000034916200024a565b81818181600362000046838262000343565b50600462000055828262000343565b506200006791506000905033620000d2565b5050506200009c7f9f2df0fed2c77648de5860a4cc508cd0818c85b8b8a1ab4ceeef8d981c8956a633620000d260201b60201c565b50620000c97f65d7a28e3265b37a6474929f336521b332c1681b933f6cb9f3376673440d862a33620000d2565b5050506200040f565b60008281526006602090815260408083206001600160a01b038516845290915281205460ff166200017b5760008381526006602090815260408083206001600160a01b03861684529091529020805460ff19166001179055620001323390565b6001600160a01b0316826001600160a01b0316847f2f8788117e7eff1d82e926ec794901d17c78024a50270940304540a733656f0d60405160405180910390a45060016200017f565b5060005b92915050565b634e487b7160e01b600052604160045260246000fd5b600082601f830112620001ad57600080fd5b81516001600160401b0380821115620001ca57620001ca62000185565b604051601f8301601f19908116603f01168101908282118183101715620001f557620001f562000185565b816040528381526020925086838588010111156200021257600080fd5b600091505b8382101562000236578582018301518183018401529082019062000217565b600093810190920192909252949350505050565b600080604083850312156200025e57600080fd5b82516001600160401b03808211156200027657600080fd5b62000284868387016200019b565b935060208501519150808211156200029b57600080fd5b50620002aa858286016200019b565b9150509250929050565b600181811c90821680620002c957607f821691505b602082108103620002ea57634e487b7160e01b600052602260045260246000fd5b50919050565b601f8211156200033e57600081815260208120601f850160051c81016020861015620003195750805b601f850160051c820191505b818110156200033a5782815560010162000325565b5050505b505050565b81516001600160401b038111156200035f576200035f62000185565b6200037781620003708454620002b4565b84620002f0565b602080601f831160018114620003af5760008415620003965750858301515b600019600386901b1c1916600185901b1785556200033a565b600085815260208120601f198616915b82811015620003e057888601518255948401946001909101908401620003bf565b5085821015620003ff5787850151600019600388901b60f8161c191681555b5050505050600190811b01905550565b610d21806200041f6000396000f3fe608060405234801561001057600080fd5b50600436106101425760003560e01c80635c975abb116100b8578063a217fddf1161007c578063a217fddf14610288578063a9059cbb14610290578063d5391393146102a3578063d547741f146102ca578063dd62ed3e146102dd578063e63ab1e91461031657600080fd5b80635c975abb1461023157806370a082311461023c5780638456cb591461026557806391d148541461026d57806395d89b411461028057600080fd5b8063248a9ca31161010a578063248a9ca3146101bc5780632f2ff15d146101df578063313ce567146101f457806336568abe146102035780633f4ba83a1461021657806340c10f191461021e57600080fd5b806301ffc9a71461014757806306fdde031461016f578063095ea7b31461018457806318160ddd1461019757806323b872dd146101a9575b600080fd5b61015a610155366004610b05565b61033d565b60405190151581526020015b60405180910390f35b610177610374565b6040516101669190610b36565b61015a610192366004610ba0565b610406565b6002545b604051908152602001610166565b61015a6101b7366004610bca565b61041e565b61019b6101ca366004610c06565b60009081526006602052604090206001015490565b6101f26101ed366004610c1f565b610442565b005b60405160128152602001610166565b6101f2610211366004610c1f565b61046d565b6101f26104a5565b6101f261022c366004610ba0565b6104da565b60055460ff1661015a565b61019b61024a366004610c4b565b6001600160a01b031660009081526020819052604090205490565b6101f261050e565b61015a61027b366004610c1f565b610540565b61017761056b565b61019b600081565b61015a61029e366004610ba0565b61057a565b61019b7f9f2df0fed2c77648de5860a4cc508cd0818c85b8b8a1ab4ceeef8d981c8956a681565b6101f26102d8366004610c1f565b610588565b61019b6102eb366004610c66565b6001600160a01b03918216600090815260016020908152604080832093909416825291909152205490565b61019b7f65d7a28e3265b37a6474929f336521b332c1681b933f6cb9f3376673440d862a81565b60006001600160e01b03198216637965db0b60e01b148061036e57506301ffc9a760e01b6001600160e01b03198316145b92915050565b60606003805461038390610c90565b80601f01602080910402602001604051908101604052809291908181526020018280546103af90610c90565b80156103fc5780601f106103d1576101008083540402835291602001916103fc565b820191906000526020600020905b8154815290600101906020018083116103df57829003601f168201915b5050505050905090565b6000336104148185856105ad565b5060019392505050565b60003361042c8582856105ba565b610437858585610638565b506001949350505050565b60008281526006602052604090206001015461045d81610697565b61046783836106a1565b50505050565b6001600160a01b03811633146104965760405163334bd91960e11b815260040160405180910390fd5b6104a08282610735565b505050565b7f65d7a28e3265b37a6474929f336521b332c1681b933f6cb9f3376673440d862a6104cf81610697565b6104d76107a2565b50565b7f9f2df0fed2c77648de5860a4cc508cd0818c85b8b8a1ab4ceeef8d981c8956a661050481610697565b6104a083836107f4565b7f65d7a28e3265b37a6474929f336521b332c1681b933f6cb9f3376673440d862a61053881610697565b6104d761082e565b60009182526006602090815260408084206001600160a01b0393909316845291905290205460ff1690565b60606004805461038390610c90565b600033610414818585610638565b6000828152600660205260409020600101546105a381610697565b6104678383610735565b6104a0838383600161086b565b6001600160a01b03838116600090815260016020908152604080832093861683529290522054600019811015610467578181101561062957604051637dc7a0d960e11b81526001600160a01b038416600482015260248101829052604481018390526064015b60405180910390fd5b6104678484848403600061086b565b6001600160a01b03831661066257604051634b637e8f60e11b815260006004820152602401610620565b6001600160a01b03821661068c5760405163ec442f0560e01b815260006004820152602401610620565b6104a0838383610940565b6104d7813361094b565b60006106ad8383610540565b61072d5760008381526006602090815260408083206001600160a01b03861684529091529020805460ff191660011790556106e53390565b6001600160a01b0316826001600160a01b0316847f2f8788117e7eff1d82e926ec794901d17c78024a50270940304540a733656f0d60405160405180910390a450600161036e565b50600061036e565b60006107418383610540565b1561072d5760008381526006602090815260408083206001600160a01b0386168085529252808320805460ff1916905551339286917ff6391f5c32d9c69d2a47ea670b442974b53935d1edc7fd64eb21e047a839171b9190a450600161036e565b6107aa610984565b6005805460ff191690557f5db9ee0a495bf2e6ff9c91a7834c1ba4fdd244a5e8aa4e537bd38aeae4b073aa335b6040516001600160a01b03909116815260200160405180910390a1565b6001600160a01b03821661081e5760405163ec442f0560e01b815260006004820152602401610620565b61082a60008383610940565b5050565b6108366109a9565b6005805460ff191660011790557f62e78cea01bee320cd4e420270b5ea74000d11b0c9f74754ebdbfc544b05a2586107d73390565b6001600160a01b0384166108955760405163e602df0560e01b815260006004820152602401610620565b6001600160a01b0383166108bf57604051634a1406b160e11b815260006004820152602401610620565b6001600160a01b038085166000908152600160209081526040808320938716835292905220829055801561046757826001600160a01b0316846001600160a01b03167f8c5be1e5ebec7d5bd14f71427d1e84f3dd0314c0f7b2291e5b200ac8c7c3b9258460405161093291815260200190565b60405180910390a350505050565b6104a08383836109cd565b6109558282610540565b61082a5760405163e2517d3f60e01b81526001600160a01b038216600482015260248101839052604401610620565b60055460ff166109a757604051638dfc202b60e01b815260040160405180910390fd5b565b60055460ff16156109a75760405163d93c066560e01b815260040160405180910390fd5b6109d56109a9565b6104a08383836001600160a01b038316610a065780600260008282546109fb9190610cca565b90915550610a789050565b6001600160a01b03831660009081526020819052604090205481811015610a595760405163391434e360e21b81526001600160a01b03851660048201526024810182905260448101839052606401610620565b6001600160a01b03841660009081526020819052604090209082900390555b6001600160a01b038216610a9457600280548290039055610ab3565b6001600160a01b03821660009081526020819052604090208054820190555b816001600160a01b0316836001600160a01b03167fddf252ad1be2c89b69c2b068fc378daa952ba7f163c4a11628f55a4df523b3ef83604051610af891815260200190565b60405180910390a3505050565b600060208284031215610b1757600080fd5b81356001600160e01b031981168114610b2f57600080fd5b9392505050565b600060208083528351808285015260005b81811015610b6357858101830151858201604001528201610b47565b506000604082860101526040601f19601f8301168501019250505092915050565b80356001600160a01b0381168114610b9b57600080fd5b919050565b60008060408385031215610bb357600080fd5b610bbc83610b84565b946020939093013593505050565b600080600060608486031215610bdf57600080fd5b610be884610b84565b9250610bf660208501610b84565b9150604084013590509250925092565b600060208284031215610c1857600080fd5b5035919050565b60008060408385031215610c3257600080fd5b82359150610c4260208401610b84565b90509250929050565b600060208284031215610c5d57600080fd5b610b2f82610b84565b60008060408385031215610c7957600080fd5b610c8283610b84565b9150610c4260208401610b84565b600181811c90821680610ca457607f821691505b602082108103610cc457634e487b7160e01b600052602260045260246000fd5b50919050565b8082018082111561036e57634e487b7160e01b600052601160045260246000fdfea264697066735822122012aea2394cc18adfe1a69ea6950b71c501515540540e508085d9aee59fbb363764736f6c63430008140033",
  "linkReferences": {},
  "deployedLinkReferences": {}
}