{
  "_format": "hh-sol-artifact-1",
  "contractName": "ERC20_burnable",
  "sourceName": "contracts/__generated__/ERC20_burnable.sol",
  "abi": [
    {
      "inputs": [
        {
          "internalType": "string",
          "name": "name_",
          "type": "string"
        },
        {
          "internalType": "string",
          "name": "symbol_",
          "type": "string"
        }
      ],
      "stateMutability": "nonpayable",
      "type": "constructor"
    },
    {
      "inputs": [],
      "name": "AccessControlBadConfirmation",
      "type": "error"
    },
    {
      "inputs": [
        {
          "internalType": "address",
          "name": "account",
          "type": "address"
        },
        {
          "internalType": "bytes32",
          "name": "neededRole",
          "type": "bytes32"
        }
      ],
      "name": "AccessControlUnauthorizedAccount",
      "type": "error"
    },
    {
      "inputs": [
        {
          "internalType": "address",
          "name": "spender",
          "type": "address"
        },
        {
          "internalType": "uint256",
          "name": "allowance",
          "type": "uint256"
        },
        {
          "internalType": "uint256",
          "name": "needed",
          "type": "uint256"
        }
      ],
      "name": "ERC20InsufficientAllowance",
      "type": "error"
    },
    {
      "inputs": [
        {
          "internalType": "address",
          "name": "sender",
          "type": "address"
        },
        {
          "internalType": "uint256",
          "name": "balance",
          "type": "uint256"
        },
        {
          "internalType": "uint256",
          "name": "needed",
          "type": "uint256"
        }
      ],
      "name": "ERC20InsufficientBalance",
      "type": "error"
    },
    {
      "inputs": [
        {
          "internalType": "address",
          "name": "approver",
          "type": "address"
        }
      ],
      "name": "ERC20InvalidApprover",
      "type": "error"
    },
    {
      "inputs": [
        {
          "internalType": "address",
          "name": "receiver",
          "type": "address"
        }
      ],
      "name": "ERC20InvalidReceiver",
      "type": "error"
    },
    {
      "inputs": [
        {
          "internalType": "address",
          "name": "sender",
          "type": "address"
        }
      ],
      "name": "ERC20InvalidSender",
      "type": "error"
    },
    {
      "inputs": [
        {
          "internalType": "address",
          "name": "spender",
          "type": "address"
        }
      ],
      "name": "ERC20InvalidSpender",
      "type": "error"
    },
    {
      "anonymous": false,
      "inputs": [
        {
          "indexed": true,
          "internalType": "address",
          "name": "owner",
          "type": "address"
        },
        {
          "indexed": true,
          "internalType": "address",
          "name": "spender",
          "type": "address"
        },
        {
          "indexed": false,
          "internalType": "uint256",
          "name": "value",
          "type": "uint256"
        }
      ],
      "name": "Approval",
      "type": "event"
    },
    {
      "anonymous": false,
      "inputs": [
        {
          "indexed": true,
          "internalType": "bytes32",
          "name": "role",
          "type": "bytes32"
        },
        {
          "indexed": true,
          "internalType": "bytes32",
          "name": "previousAdminRole",
          "type": "bytes32"
        },
        {
          "indexed": true,
          "internalType": "bytes32",
          "name": "newAdminRole",
          "type": "bytes32"
        }
      ],
      "name": "RoleAdminChanged",
      "type": "event"
    },
    {
      "anonymous": false,
      "inputs": [
        {
          "indexed": true,
          "internalType": "bytes32",
          "name": "role",
          "type": "bytes32"
        },
        {
          "indexed": true,
          "internalType": "address",
          "name": "account",
          "type": "address"
        },
        {
          "indexed": true,
          "internalType": "address",
          "name": "sender",
          "type": "address"
        }
      ],
      "name": "RoleGranted",
      "type": "event"
    },
    {
      "anonymous": false,
      "inputs": [
        {
          "indexed": true,
          "internalType": "bytes32",
          "name": "role",
          "type": "bytes32"
        },
        {
          "indexed": true,
          "internalType": "address",
          "name": "account",
          "type": "address"
        },
        {
          "indexed": true,
          "internalType": "address",
          "name": "sender",
          "type": "address"
        }
      ],
      "name": "RoleRevoked",
      "type": "event"
    },
    {
      "anonymous": false,
      "inputs": [
        {
          "indexed": true,
          "internalType": "address",
          "name": "from",
          "type": "address"
        },
        {
          "indexed": true,
          "internalType": "address",
          "name": "to",
          "type": "address"
        },
        {
          "indexed": false,
          "internalType": "uint256",
          "name": "value",
          "type": "uint256"
        }
      ],
      "name": "Transfer",
      "type": "event"
    },
    {
      "inputs": [],
      "name": "DEFAULT_ADMIN_ROLE",
      "outputs": [
        {
          "internalType": "bytes32",
          "name": "",
          "type": "bytes32"
        }
      ],
      "stateMutability": "view",
      "type": "function"
    },
    {
      "inputs": [
        {
          "internalType": "address",
          "name": "owner",
          "type": "address"
        },
        {
          "internalType": "address",
          "name": "spender",
          "type": "address"
        }
      ],
      "name": "allowance",
      "outputs": [
        {
          "internalType": "uint256",
          "name": "",
          "type": "uint256"
        }
      ],
      "stateMutability": "view",
      "type": "function"
    },
    {
      "inputs": [
        {
          "internalType": "address",
          "name": "spender",
          "type": "address"
        },
        {
          "internalType": "uint256",
          "name": "value",
          "type": "uint256"
        }
      ],
      "name": "approve",
      "outputs": [
        {
          "internalType": "bool",
          "name": "",
          "type": "bool"
        }
      ],
      "stateMutability": "nonpayable",
      "type": "function"
    },
    {
      "inputs": [
        {
          "internalType": "address",
          "name": "account",
          "type": "address"
        }
      ],
      "name": "balanceOf",
      "outputs": [
        {
          "internalType": "uint256",
          "name": "",
          "type": "uint256"
        }
      ],
      "stateMutability": "view",
      "type": "function"
    },
    {
      "inputs": [
        {
          "internalType": "uint256",
          "name": "value",
          "type": "uint256"
        }
      ],
      "name": "burn",
      "outputs": [],
      "stateMutability": "nonpayable",
      "type": "function"
    },
    {
      "inputs": [
        {
          "internalType": "address",
          "name": "account",
          "type": "address"
        },
        {
          "internalType": "uint256",
          "name": "value",
          "type": "uint256"
        }
      ],
      "name": "burnFrom",
      "outputs": [],
      "stateMutability": "nonpayable",
      "type": "function"
    },
    {
      "inputs": [],
      "name": "decimals",
      "outputs": [
        {
          "internalType": "uint8",
          "name": "",
          "type": "uint8"
        }
      ],
      "stateMutability": "view",
      "type": "function"
    },
    {
      "inputs": [
        {
          "internalType": "bytes32",
          "name": "role",
          "type": "bytes32"
        }
      ],
      "name": "getRoleAdmin",
      "outputs": [
        {
          "internalType": "bytes32",
          "name": "",
          "type": "bytes32"
        }
      ],
      "stateMutability": "view",
      "type": "function"
    },
    {
      "inputs": [
        {
          "internalType": "bytes32",
          "name": "role",
          "type": "bytes32"
        },
        {
          "internalType": "address",
          "name": "account",
          "type": "address"
        }
      ],
      "name": "grantRole",
      "outputs": [],
      "stateMutability": "nonpayable",
      "type": "function"
    },
    {
      "inputs": [
        {
          "internalType": "bytes32",
          "name": "role",
          "type": "bytes32"
        },
        {
          "internalType": "address",
          "name": "account",
          "type": "address"
        }
      ],
      "name": "hasRole",
      "outputs": [
        {
          "internalType": "bool",
          "name": "",
          "type": "bool"
        }
      ],
      "stateMutability": "view",
      "type": "function"
    },
    {
      "inputs": [],
      "name": "name",
      "outputs": [
        {
          "internalType": "string",
          "name": "",
          "type": "string"
        }
      ],
      "stateMutability": "view",
      "type": "function"
    },
    {
      "inputs": [
        {
          "internalType": "bytes32",
          "name": "role",
          "type": "bytes32"
        },
        {
          "internalType": "address",
          "name": "callerConfirmation",
          "type": "address"
        }
      ],
      "name": "renounceRole",
      "outputs": [],
      "stateMutability": "nonpayable",
      "type": "function"
    },
    {
      "inputs": [
        {
          "internalType": "bytes32",
          "name": "role",
          "type": "bytes32"
        },
        {
          "internalType": "address",
          "name": "account",
          "type": "address"
        }
      ],
      "name": "revokeRole",
      "outputs": [],
      "stateMutability": "nonpayable",
      "type": "function"
    },
    {
      "inputs": [
        {
          "internalType": "bytes4",
          "name": "interfaceId",
          "type": "bytes4"
        }
      ],
      "name": "supportsInterface",
      "outputs": [
        {
          "internalType": "bool",
          "name": "",
          "type": "bool"
        }
      ],
      "stateMutability": "view",
      "type": "function"
    },
    {
      "inputs": [],
      "name": "symbol",
      "outputs": [
        {
          "internalType": "string",
          "name": "",
          "type": "string"
        }
      ],
      "stateMutability": "view",
      "type": "function"
    },
    {
      "inputs": [],
      "name": "totalSupply",
      "outputs": [
        {
          "internalType": "uint256",
          "name": "",
          "type": "uint256"
        }
      ],
      "stateMutability": "view",
      "type": "function"
    },
    {
      "inputs": [
        {
          "internalType": "address",
          "name": "to",
          "type": "address"
        },
        {
          "internalType": "uint256",
          "name": "value",
          "type": "uint256"
        }
      ],
      "name": "transfer",
      "outputs": [
        {
          "internalType": "bool",
          "name": "",
          "type": "bool"
        }
      ],
      "stateMutability": "nonpayable",
      "type": "function"
    },
    {
      "inputs": [
        {
          "internalType": "address",
          "name": "from",
          "type": "address"
        },
        {
          "internalType": "address",
          "name": "to",
          "type": "address"
        },
        {
          "internalType": "uint256",
          "name": "value",
          "type": "uint256"
        }
      ],
      "name": "transferFrom",
      "outputs": [
        {
          "internalType": "bool",
          "name": "",
          "type": "bool"
        }
      ],
      "stateMutability": "nonpayable",
      "type": "function"
    }
  ],
  "bytecode": "0x60806040523480156200001157600080fd5b5060405162000ef438038062000ef48339810160408190526200003491620001ea565b818181816003620000468382620002e3565b506004620000558282620002e3565b50620000679150600090503362000072565b5050505050620003af565b60008281526005602090815260408083206001600160a01b038516845290915281205460ff166200011b5760008381526005602090815260408083206001600160a01b03861684529091529020805460ff19166001179055620000d23390565b6001600160a01b0316826001600160a01b0316847f2f8788117e7eff1d82e926ec794901d17c78024a50270940304540a733656f0d60405160405180910390a45060016200011f565b5060005b92915050565b634e487b7160e01b600052604160045260246000fd5b600082601f8301126200014d57600080fd5b81516001600160401b03808211156200016a576200016a62000125565b604051601f8301601f19908116603f0116810190828211818310171562000195576200019562000125565b81604052838152602092508683858801011115620001b257600080fd5b600091505b83821015620001d65785820183015181830184015290820190620001b7565b600093810190920192909252949350505050565b60008060408385031215620001fe57600080fd5b82516001600160401b03808211156200021657600080fd5b62000224868387016200013b565b935060208501519150808211156200023b57600080fd5b506200024a858286016200013b565b9150509250929050565b600181811c908216806200026957607f821691505b6020821081036200028a57634e487b7160e01b600052602260045260246000fd5b50919050565b601f821115620002de57600081815260208120601f850160051c81016020861015620002b95750805b601f850160051c820191505b81811015620002da57828155600101620002c5565b5050505b505050565b81516001600160401b03811115620002ff57620002ff62000125565b620003178162000310845462000254565b8462000290565b602080601f8311600181146200034f5760008415620003365750858301515b600019600386901b1c1916600185901b178555620002da565b600085815260208120601f198616915b8281101562000380578886015182559484019460019091019084016200035f565b50858210156200039f5787850151600019600388901b60f8161c191681555b5050505050600190811b01905550565b610b3580620003bf6000396000f3fe608060405234801561001057600080fd5b50600436106101165760003560e01c806342966c68116100a257806395d89b411161007157806395d89b411461024c578063a217fddf14610254578063a9059cbb1461025c578063d547741f1461026f578063dd62ed3e1461028257600080fd5b806342966c68146101ea57806370a08231146101fd57806379cc67901461022657806391d148541461023957600080fd5b806323b872dd116100e957806323b872dd1461017d578063248a9ca3146101905780632f2ff15d146101b3578063313ce567146101c857806336568abe146101d757600080fd5b806301ffc9a71461011b57806306fdde0314610143578063095ea7b31461015857806318160ddd1461016b575b600080fd5b61012e610129366004610919565b6102bb565b60405190151581526020015b60405180910390f35b61014b6102f2565b60405161013a919061094a565b61012e6101663660046109b4565b610384565b6002545b60405190815260200161013a565b61012e61018b3660046109de565b61039c565b61016f61019e366004610a1a565b60009081526005602052604090206001015490565b6101c66101c1366004610a33565b6103c0565b005b6040516012815260200161013a565b6101c66101e5366004610a33565b6103eb565b6101c66101f8366004610a1a565b610423565b61016f61020b366004610a5f565b6001600160a01b031660009081526020819052604090205490565b6101c66102343660046109b4565b610430565b61012e610247366004610a33565b610449565b61014b610474565b61016f600081565b61012e61026a3660046109b4565b610483565b6101c661027d366004610a33565b610491565b61016f610290366004610a7a565b6001600160a01b03918216600090815260016020908152604080832093909416825291909152205490565b60006001600160e01b03198216637965db0b60e01b14806102ec57506301ffc9a760e01b6001600160e01b03198316145b92915050565b60606003805461030190610aa4565b80601f016020809104026020016040519081016040528092919081815260200182805461032d90610aa4565b801561037a5780601f1061034f5761010080835404028352916020019161037a565b820191906000526020600020905b81548152906001019060200180831161035d57829003601f168201915b5050505050905090565b6000336103928185856104b6565b5060019392505050565b6000336103aa8582856104c3565b6103b5858585610541565b506001949350505050565b6000828152600560205260409020600101546103db816105a0565b6103e583836105aa565b50505050565b6001600160a01b03811633146104145760405163334bd91960e11b815260040160405180910390fd5b61041e828261063e565b505050565b61042d33826106ab565b50565b61043b8233836104c3565b61044582826106ab565b5050565b60009182526005602090815260408084206001600160a01b0393909316845291905290205460ff1690565b60606004805461030190610aa4565b600033610392818585610541565b6000828152600560205260409020600101546104ac816105a0565b6103e5838361063e565b61041e83838360016106e1565b6001600160a01b038381166000908152600160209081526040808320938616835292905220546000198110156103e5578181101561053257604051637dc7a0d960e11b81526001600160a01b038416600482015260248101829052604481018390526064015b60405180910390fd5b6103e5848484840360006106e1565b6001600160a01b03831661056b57604051634b637e8f60e11b815260006004820152602401610529565b6001600160a01b0382166105955760405163ec442f0560e01b815260006004820152602401610529565b61041e8383836107b6565b61042d81336108e0565b60006105b68383610449565b6106365760008381526005602090815260408083206001600160a01b03861684529091529020805460ff191660011790556105ee3390565b6001600160a01b0316826001600160a01b0316847f2f8788117e7eff1d82e926ec794901d17c78024a50270940304540a733656f0d60405160405180910390a45060016102ec565b5060006102ec565b600061064a8383610449565b156106365760008381526005602090815260408083206001600160a01b0386168085529252808320805460ff1916905551339286917ff6391f5c32d9c69d2a47ea670b442974b53935d1edc7fd64eb21e047a839171b9190a45060016102ec565b6001600160a01b0382166106d557604051634b637e8f60e11b815260006004820152602401610529565b610445826000836107b6565b6001600160a01b03841661070b5760405163e602df0560e01b815260006004820152602401610529565b6001600160a01b03831661073557604051634a1406b160e11b815260006004820152602401610529565b6001600160a01b03808516600090815260016020908152604080832093871683529290522082905580156103e557826001600160a01b0316846001600160a01b03167f8c5be1e5ebec7d5bd14f71427d1e84f3dd0314c0f7b2291e5b200ac8c7c3b925846040516107a891815260200190565b60405180910390a350505050565b6001600160a01b0383166107e15780600260008282546107d69190610ade565b909155506108539050565b6001600160a01b038316600090815260208190526040902054818110156108345760405163391434e360e21b81526001600160a01b03851660048201526024810182905260448101839052606401610529565b6001600160a01b03841660009081526020819052604090209082900390555b6001600160a01b03821661086f5760028054829003905561088e565b6001600160a01b03821660009081526020819052604090208054820190555b816001600160a01b0316836001600160a01b03167fddf252ad1be2c89b69c2b068fc378daa952ba7f163c4a11628f55a4df523b3ef836040516108d391815260200190565b60405180910390a3505050565b6108ea8282610449565b6104455760405163e2517d3f60e01b81526001600160a01b038216600482015260248101839052604401610529565b60006020828403121561092b57600080fd5b81356001600160e01b03198116811461094357600080fd5b9392505050565b600060208083528351808285015260005b818110156109775785810183015185820160400152820161095b565b506000604082860101526040601f19601f8301168501019250505092915050565b80356001600160a01b03811681146109af57600080fd5b919050565b600080604083850312156109c757600080fd5b6109d083610998565b946020939093013593505050565b6000806000606084860312156109f357600080fd5b6109fc84610998565b9250610a0a60208501610998565b9150604084013590509250925092565b600060208284031215610a2c57600080fd5b5035919050565b60008060408385031215610a4657600080fd5b82359150610a5660208401610998565b90509250929050565b600060208284031215610a7157600080fd5b61094382610998565b60008060408385031215610a8d57600080fd5b610a9683610998565b9150610a5660208401610998565b600181811c90821680610ab857607f821691505b602082108103610ad857634e487b7160e01b600052602260045260246000fd5b50919050565b808201808211156102ec57634e487b7160e01b600052601160045260246000fdfea26469706673582212201ec732e4bb7ce82bf4f59ad446adc8cf19f0e7ce17f64f88f19c3e7cf5321da464736f6c63430008140033",
  "linkReferences": {},
  "deployedLinkReferences": {}
}