{
  "_format": "hh-sol-artifact-1",
  "contractName": "ERC20_pausable",
  "sourceName": "contracts/__generated__/ERC20_pausable.sol",
  "abi": [
    {
      "inputs": [
        {
          "internalType": "string",
          "name": "name_",
          "type": "string"
        },
        {
          "internalType": "string",
          "name": "symbol_",
          "type": "string"
        }
      ],
      "stateMutability": "nonpayable",
      "type": "constructor"
    },
    {
      "inputs": [],
      "name": "AccessControlBadConfirmation",
      "type": "error"
    },
    {
      "inputs": [
        {
          "internalType": "address",
          "name": "account",
          "type": "address"
        },
        {
          "internalType": "bytes32",
          "name": "neededRole",
          "type": "bytes32"
        }
      ],
      "name": "AccessControlUnauthorizedAccount",
      "type": "error"
    },
    {
      "inputs": [
        {
          "internalType": "address",
          "name": "spender",
          "type": "address"
        },
        {
          "internalType": "uint256",
          "name": "allowance",
          "type": "uint256"
        },
        {
          "internalType": "uint256",
          "name": "needed",
          "type": "uint256"
        }
      ],
      "name": "ERC20InsufficientAllowance",
      "type": "error"
    },
    {
      "inputs": [
        {
          "internalType": "address",
          "name": "sender",
          "type": "address"
        },
        {
          "internalType": "uint256",
          "name": "balance",
          "type": "uint256"
        },
        {
          "internalType": "uint256",
          "name": "needed",
          "type": "uint256"
        }
      ],
      "name": "ERC20InsufficientBalance",
      "type": "error"
    },
    {
      "inputs": [
        {
          "internalType": "address",
          "name": "approver",
          "type": "address"
        }
      ],
      "name": "ERC20InvalidApprover",
      "type": "error"
    },
    {
      "inputs": [
        {
          "internalType": "address",
          "name": "receiver",
          "type": "address"
        }
      ],
      "name": "ERC20InvalidReceiver",
      "type": "error"
    },
    {
      "inputs": [
        {
          "internalType": "address",
          "name": "sender",
          "type": "address"
        }
      ],
      "name": "ERC20InvalidSender",
      "type": "error"
    },
    {
      "inputs": [
        {
          "internalType": "address",
          "name": "spender",
          "type": "address"
        }
      ],
      "name": "ERC20InvalidSpender",
      "type": "error"
    },
    {
      "inputs": [],
      "name": "EnforcedPause",
      "type": "error"
    },
    {
      "inputs": [],
      "name": "ExpectedPause",
      "type": "error"
    },
    {
      "anonymous": false,
      "inputs": [
        {
          "indexed": true,
          "internalType": "address",
          "name": "owner",
          "type": "address"
        },
        {
          "indexed": true,
          "internalType": "address",
          "name": "spender",
          "type": "address"
        },
        {
          "indexed": false,
          "internalType": "uint256",
          "name": "value",
          "type": "uint256"
        }
      ],
      "name": "Approval",
      "type": "event"
    },
    {
      "anonymous": false,
      "inputs": [
        {
          "indexed": false,
          "internalType": "address",
          "name": "account",
          "type": "address"
        }
      ],
      "name": "Paused",
      "type": "event"
    },
    {
      "anonymous": false,
      "inputs": [
        {
          "indexed": true,
          "internalType": "bytes32",
          "name": "role",
          "type": "bytes32"
        },
        {
          "indexed": true,
          "internalType": "bytes32",
          "name": "previousAdminRole",
          "type": "bytes32"
        },
        {
          "indexed": true,
          "internalType": "bytes32",
          "name": "newAdminRole",
          "type": "bytes32"
        }
      ],
      "name": "RoleAdminChanged",
      "type": "event"
    },
    {
      "anonymous": false,
      "inputs": [
        {
          "indexed": true,
          "internalType": "bytes32",
          "name": "role",
          "type": "bytes32"
        },
        {
          "indexed": true,
          "internalType": "address",
          "name": "account",
          "type": "address"
        },
        {
          "indexed": true,
          "internalType": "address",
          "name": "sender",
          "type": "address"
        }
      ],
      "name": "RoleGranted",
      "type": "event"
    },
    {
      "anonymous": false,
      "inputs": [
        {
          "indexed": true,
          "internalType": "bytes32",
          "name": "role",
          "type": "bytes32"
        },
        {
          "indexed": true,
          "internalType": "address",
          "name": "account",
          "type": "address"
        },
        {
          "indexed": true,
          "internalType": "address",
          "name": "sender",
          "type": "address"
        }
      ],
      "name": "RoleRevoked",
      "type": "event"
    },
    {
      "anonymous": false,
      "inputs": [
        {
          "indexed": true,
          "internalType": "address",
          "name": "from",
          "type": "address"
        },
        {
          "indexed": true,
          "internalType": "address",
          "name": "to",
          "type": "address"
        },
        {
          "indexed": false,
          "internalType": "uint256",
          "name": "value",
          "type": "uint256"
        }
      ],
      "name": "Transfer",
      "type": "event"
    },
    {
      "anonymous": false,
      "inputs": [
        {
          "indexed": false,
          "internalType": "address",
          "name": "account",
          "type": "address"
        }
      ],
      "name": "Unpaused",
      "type": "event"
    },
    {
      "inputs": [],
      "name": "DEFAULT_ADMIN_ROLE",
      "outputs": [
        {
          "internalType": "bytes32",
          "name": "",
          "type": "bytes32"
        }
      ],
      "stateMutability": "view",
      "type": "function"
    },
    {
      "inputs": [],
      "name": "PAUSER_ROLE",
      "outputs": [
        {
          "internalType": "bytes32",
          "name": "",
          "type": "bytes32"
        }
      ],
      "stateMutability": "view",
      "type": "function"
    },
    {
      "inputs": [
        {
          "internalType": "address",
          "name": "owner",
          "type": "address"
        },
        {
          "internalType": "address",
          "name": "spender",
          "type": "address"
        }
      ],
      "name": "allowance",
      "outputs": [
        {
          "internalType": "uint256",
          "name": "",
          "type": "uint256"
        }
      ],
      "stateMutability": "view",
      "type": "function"
    },
    {
      "inputs": [
        {
          "internalType": "address",
          "name": "spender",
          "type": "address"
        },
        {
          "internalType": "uint256",
          "name": "value",
          "type": "uint256"
        }
      ],
      "name": "approve",
      "outputs": [
        {
          "internalType": "bool",
          "name": "",
          "type": "bool"
        }
      ],
      "stateMutability": "nonpayable",
      "type": "function"
    },
    {
      "inputs": [
        {
          "internalType": "address",
          "name": "account",
          "type": "address"
        }
      ],
      "name": "balanceOf",
      "outputs": [
        {
          "internalType": "uint256",
          "name": "",
          "type": "uint256"
        }
      ],
      "stateMutability": "view",
      "type": "function"
    },
    {
      "inputs": [],
      "name": "decimals",
      "outputs": [
        {
          "internalType": "uint8",
          "name": "",
          "type": "uint8"
        }
      ],
      "stateMutability": "view",
      "type": "function"
    },
    {
      "inputs": [
        {
          "internalType": "bytes32",
          "name": "role",
          "type": "bytes32"
        }
      ],
      "name": "getRoleAdmin",
      "outputs": [
        {
          "internalType": "bytes32",
          "name": "",
          "type": "bytes32"
        }
      ],
      "stateMutability": "view",
      "type": "function"
    },
    {
      "inputs": [
        {
          "internalType": "bytes32",
          "name": "role",
          "type": "bytes32"
        },
        {
          "internalType": "address",
          "name": "account",
          "type": "address"
        }
      ],
      "name": "grantRole",
      "outputs": [],
      "stateMutability": "nonpayable",
      "type": "function"
    },
    {
      "inputs": [
        {
          "internalType": "bytes32",
          "name": "role",
          "type": "bytes32"
        },
        {
          "internalType": "address",
          "name": "account",
          "type": "address"
        }
      ],
      "name": "hasRole",
      "outputs": [
        {
          "internalType": "bool",
          "name": "",
          "type": "bool"
        }
      ],
      "stateMutability": "view",
      "type": "function"
    },
    {
      "inputs": [],
      "name": "name",
      "outputs": [
        {
          "internalType": "string",
          "name": "",
          "type": "string"
        }
      ],
      "stateMutability": "view",
      "type": "function"
    },
    {
      "inputs": [],
      "name": "pause",
      "outputs": [],
      "stateMutability": "nonpayable",
      "type": "function"
    },
    {
      "inputs": [],
      "name": "paused",
      "outputs": [
        {
          "internalType": "bool",
          "name": "",
          "type": "bool"
        }
      ],
      "stateMutability": "view",
      "type": "function"
    },
    {
      "inputs": [
        {
          "internalType": "bytes32",
          "name": "role",
          "type": "bytes32"
        },
        {
          "internalType": "address",
          "name": "callerConfirmation",
          "type": "address"
        }
      ],
      "name": "renounceRole",
      "outputs": [],
      "stateMutability": "nonpayable",
      "type": "function"
    },
    {
      "inputs": [
        {
          "internalType": "bytes32",
          "name": "role",
          "type": "bytes32"
        },
        {
          "internalType": "address",
          "name": "account",
          "type": "address"
        }
      ],
      "name": "revokeRole",
      "outputs": [],
      "stateMutability": "nonpayable",
      "type": "function"
    },
    {
      "inputs": [
        {
          "internalType": "bytes4",
          "name": "interfaceId",
          "type": "bytes4"
        }
      ],
      "name": "supportsInterface",
      "outputs": [
        {
          "internalType": "bool",
          "name": "",
          "type": "bool"
        }
      ],
      "stateMutability": "view",
      "type": "function"
    },
    {
      "inputs": [],
      "name": "symbol",
      "outputs": [
        {
          "internalType": "string",
          "name": "",
          "type": "string"
        }
      ],
      "stateMutability": "view",
      "type": "function"
    },
    {
      "inputs": [],
      "name": "totalSupply",
      "outputs": [
        {
          "internalType": "uint256",
          "name": "",
          "type": "uint256"
        }
      ],
      "stateMutability": "view",
      "type": "function"
    },
    {
      "inputs": [
        {
          "internalType": "address",
          "name": "to",
          "type": "address"
        },
        {
          "internalType": "uint256",
          "name": "value",
          "type": "uint256"
        }
      ],
      "name": "transfer",
      "outputs": [
        {
          "internalType": "bool",
          "name": "",
          "type": "bool"
        }
      ],
      "stateMutability": "nonpayable",
      "type": "function"
    },
    {
      "inputs": [
        {
          "internalType": "address",
          "name": "from",
          "type": "address"
        },
        {
          "internalType": "address",
          "name": "to",
          "type": "address"
        },
        {
          "internalType": "uint256",
          "name": "value",
          "type": "uint256"
        }
      ],
      "name": "transferFrom",
      "outputs": [
        {
          "internalType": "bool",
          "name": "",
          "type": "bool"
        }
      ],
      "stateMutability": "nonpayable",
      "type": "function"
    },
    {
      "inputs": [],
      "name": "unpause",
      "outputs": [],
      "stateMutability": "nonpayable",
      "type": "function"
    }
  ],
  "bytecode": "0x60806040523480156200001157600080fd5b50604051620010593803806200105983398101604081905262000034916200021d565b81818181600362000046838262000316565b50600462000055828262000316565b506200006791506000905033620000a5565b5050506200009c7f65d7a28e3265b37a6474929f336521b332c1681b933f6cb9f3376673440d862a33620000a560201b60201c565b505050620003e2565b60008281526006602090815260408083206001600160a01b038516845290915281205460ff166200014e5760008381526006602090815260408083206001600160a01b03861684529091529020805460ff19166001179055620001053390565b6001600160a01b0316826001600160a01b0316847f2f8788117e7eff1d82e926ec794901d17c78024a50270940304540a733656f0d60405160405180910390a450600162000152565b5060005b92915050565b634e487b7160e01b600052604160045260246000fd5b600082601f8301126200018057600080fd5b81516001600160401b03808211156200019d576200019d62000158565b604051601f8301601f19908116603f01168101908282118183101715620001c857620001c862000158565b81604052838152602092508683858801011115620001e557600080fd5b600091505b83821015620002095785820183015181830184015290820190620001ea565b600093810190920192909252949350505050565b600080604083850312156200023157600080fd5b82516001600160401b03808211156200024957600080fd5b62000257868387016200016e565b935060208501519150808211156200026e57600080fd5b506200027d858286016200016e565b9150509250929050565b600181811c908216806200029c57607f821691505b602082108103620002bd57634e487b7160e01b600052602260045260246000fd5b50919050565b601f8211156200031157600081815260208120601f850160051c81016020861015620002ec5750805b601f850160051c820191505b818110156200030d57828155600101620002f8565b5050505b505050565b81516001600160401b0381111562000332576200033262000158565b6200034a8162000343845462000287565b84620002c3565b602080601f831160018114620003825760008415620003695750858301515b600019600386901b1c1916600185901b1785556200030d565b600085815260208120601f198616915b82811015620003b35788860151825594840194600190910190840162000392565b5085821015620003d25787850151600019600388901b60f8161c191681555b5050505050600190811b01905550565b610c6780620003f26000396000f3fe608060405234801561001057600080fd5b506004361061012c5760003560e01c80635c975abb116100ad578063a217fddf11610071578063a217fddf1461025f578063a9059cbb14610267578063d547741f1461027a578063dd62ed3e1461028d578063e63ab1e9146102c657600080fd5b80635c975abb1461020857806370a08231146102135780638456cb591461023c57806391d148541461024457806395d89b411461025757600080fd5b8063248a9ca3116100f4578063248a9ca3146101a65780632f2ff15d146101c9578063313ce567146101de57806336568abe146101ed5780633f4ba83a1461020057600080fd5b806301ffc9a71461013157806306fdde0314610159578063095ea7b31461016e57806318160ddd1461018157806323b872dd14610193575b600080fd5b61014461013f366004610a4b565b6102ed565b60405190151581526020015b60405180910390f35b610161610324565b6040516101509190610a7c565b61014461017c366004610ae6565b6103b6565b6002545b604051908152602001610150565b6101446101a1366004610b10565b6103ce565b6101856101b4366004610b4c565b60009081526006602052604090206001015490565b6101dc6101d7366004610b65565b6103f2565b005b60405160128152602001610150565b6101dc6101fb366004610b65565b61041d565b6101dc610455565b60055460ff16610144565b610185610221366004610b91565b6001600160a01b031660009081526020819052604090205490565b6101dc61048a565b610144610252366004610b65565b6104bc565b6101616104e7565b610185600081565b610144610275366004610ae6565b6104f6565b6101dc610288366004610b65565b610504565b61018561029b366004610bac565b6001600160a01b03918216600090815260016020908152604080832093909416825291909152205490565b6101857f65d7a28e3265b37a6474929f336521b332c1681b933f6cb9f3376673440d862a81565b60006001600160e01b03198216637965db0b60e01b148061031e57506301ffc9a760e01b6001600160e01b03198316145b92915050565b60606003805461033390610bd6565b80601f016020809104026020016040519081016040528092919081815260200182805461035f90610bd6565b80156103ac5780601f10610381576101008083540402835291602001916103ac565b820191906000526020600020905b81548152906001019060200180831161038f57829003601f168201915b5050505050905090565b6000336103c4818585610529565b5060019392505050565b6000336103dc858285610536565b6103e78585856105b4565b506001949350505050565b60008281526006602052604090206001015461040d81610613565b610417838361061d565b50505050565b6001600160a01b03811633146104465760405163334bd91960e11b815260040160405180910390fd5b61045082826106b1565b505050565b7f65d7a28e3265b37a6474929f336521b332c1681b933f6cb9f3376673440d862a61047f81610613565b61048761071e565b50565b7f65d7a28e3265b37a6474929f336521b332c1681b933f6cb9f3376673440d862a6104b481610613565b610487610770565b60009182526006602090815260408084206001600160a01b0393909316845291905290205460ff1690565b60606004805461033390610bd6565b6000336103c48185856105b4565b60008281526006602052604090206001015461051f81610613565b61041783836106b1565b61045083838360016107ad565b6001600160a01b0383811660009081526001602090815260408083209386168352929052205460001981101561041757818110156105a557604051637dc7a0d960e11b81526001600160a01b038416600482015260248101829052604481018390526064015b60405180910390fd5b610417848484840360006107ad565b6001600160a01b0383166105de57604051634b637e8f60e11b81526000600482015260240161059c565b6001600160a01b0382166106085760405163ec442f0560e01b81526000600482015260240161059c565b610450838383610882565b610487813361088d565b600061062983836104bc565b6106a95760008381526006602090815260408083206001600160a01b03861684529091529020805460ff191660011790556106613390565b6001600160a01b0316826001600160a01b0316847f2f8788117e7eff1d82e926ec794901d17c78024a50270940304540a733656f0d60405160405180910390a450600161031e565b50600061031e565b60006106bd83836104bc565b156106a95760008381526006602090815260408083206001600160a01b0386168085529252808320805460ff1916905551339286917ff6391f5c32d9c69d2a47ea670b442974b53935d1edc7fd64eb21e047a839171b9190a450600161031e565b6107266108ca565b6005805460ff191690557f5db9ee0a495bf2e6ff9c91a7834c1ba4fdd244a5e8aa4e537bd38aeae4b073aa335b6040516001600160a01b03909116815260200160405180910390a1565b6107786108ef565b6005805460ff191660011790557f62e78cea01bee320cd4e420270b5ea74000d11b0c9f74754ebdbfc544b05a2586107533390565b6001600160a01b0384166107d75760405163e602df0560e01b81526000600482015260240161059c565b6001600160a01b03831661080157604051634a1406b160e11b81526000600482015260240161059c565b6001600160a01b038085166000908152600160209081526040808320938716835292905220829055801561041757826001600160a01b0316846001600160a01b03167f8c5be1e5ebec7d5bd14f71427d1e84f3dd0314c0f7b2291e5b200ac8c7c3b9258460405161087491815260200190565b60405180910390a350505050565b610450838383610913565b61089782826104bc565b6108c65760405163e2517d3f60e01b81526001600160a01b03821660048201526024810183905260440161059c565b5050565b60055460ff166108ed57604051638dfc202b60e01b815260040160405180910390fd5b565b60055460ff16156108ed5760405163d93c066560e01b815260040160405180910390fd5b61091b6108ef565b6104508383836001600160a01b03831661094c5780600260008282546109419190610c10565b909155506109be9050565b6001600160a01b0383166000908152602081905260409020548181101561099f5760405163391434e360e21b81526001600160a01b0385166004820152602481018290526044810183905260640161059c565b6001600160a01b03841660009081526020819052604090209082900390555b6001600160a01b0382166109da576002805482900390556109f9565b6001600160a01b03821660009081526020819052604090208054820190555b816001600160a01b0316836001600160a01b03167fddf252ad1be2c89b69c2b068fc378daa952ba7f163c4a11628f55a4df523b3ef83604051610a3e91815260200190565b60405180910390a3505050565b600060208284031215610a5d57600080fd5b81356001600160e01b031981168114610a7557600080fd5b9392505050565b600060208083528351808285015260005b81811015610aa957858101830151858201604001528201610a8d565b506000604082860101526040601f19601f8301168501019250505092915050565b80356001600160a01b0381168114610ae157600080fd5b919050565b60008060408385031215610af957600080fd5b610b0283610aca565b946020939093013593505050565b600080600060608486031215610b2557600080fd5b610b2e84610aca565b9250610b3c60208501610aca565b9150604084013590509250925092565b600060208284031215610b5e57600080fd5b5035919050565b60008060408385031215610b7857600080fd5b82359150610b8860208401610aca565b90509250929050565b600060208284031215610ba357600080fd5b610a7582610aca565b60008060408385031215610bbf57600080fd5b610bc883610aca565b9150610b8860208401610aca565b600181811c90821680610bea57607f821691505b602082108103610c0a57634e487b7160e01b600052602260045260246000fd5b50919050565b8082018082111561031e57634e487b7160e01b600052601160045260246000fdfea2646970667358221220b5f7ad90dfe8d7c129a3ca53cd8d32faf9e4b122060dae2ae68ee427ed8f0d3664736f6c63430008140033",
  "linkReferences": {},
  "deployedLinkReferences": {}
}