{
  "_format": "hh-sol-artifact-1",
  "contractName": "ERC721_burnable_mintable_pausable",
  "sourceName": "contracts/__generated__/ERC721_burnable_mintable_pausable.sol",
  "abi": [
    {
      "inputs": [
        {
          "internalType": "string",
          "name": "name_",
          "type": "string"
        },
        {
          "internalType": "string",
          "name": "symbol_",
          "type": "string"
        }
      ],
      "stateMutability": "nonpayable",
      "type": "constructor"
    },
    {
      "inputs": [],
      "name": "AccessControlBadConfirmation",
      "type": "error"
    },
    {
      "inputs": [
        {
          "internalType": "address",
          "name": "account",
          "type": "address"
        },
        {
          "internalType": "bytes32",
          "name": "neededRole",
          "type": "bytes32"
        }
      ],
      "name": "AccessControlUnauthorizedAccount",
      "type": "error"
    },
    {
      "inputs": [
        {
          "internalType": "address",
          "name": "sender",
          "type": "address"
        },
        {
          "internalType": "uint256",
          "name": "tokenId",
          "type": "uint256"
        },
        {
          "internalType": "address",
          "name": "owner",
          "type": "address"
        }
      ],
      "name": "ERC721IncorrectOwner",
      "type": "error"
    },
    {
      "inputs": [
        {
          "internalType": "address",
          "name": "operator",
          "type": "address"
        },
        {
          "internalType": "uint256",
          "name": "tokenId",
          "type": "uint256"
        }
      ],
      "name": "ERC721InsufficientApproval",
      "type": "error"
    },
    {
      "inputs": [
        {
          "internalType": "address",
          "name": "approver",
          "type": "address"
        }
      ],
      "name": "ERC721InvalidApprover",
      "type": "error"
    },
    {
      "inputs": [
        {
          "internalType": "address",
          "name": "operator",
          "type": "address"
        }
      ],
      "name": "ERC721InvalidOperator",
      "type": "error"
    },
    {
      "inputs": [
        {
          "internalType": "address",
          "name": "owner",
          "type": "address"
        }
      ],
      "name": "ERC721InvalidOwner",
      "type": "error"
    },
    {
      "inputs": [
        {
          "internalType": "address",
          "name": "receiver",
          "type": "address"
        }
      ],
      "name": "ERC721InvalidReceiver",
      "type": "error"
    },
    {
      "inputs": [
        {
          "internalType": "address",
          "name": "sender",
          "type": "address"
        }
      ],
      "name": "ERC721InvalidSender",
      "type": "error"
    },
    {
      "inputs": [
        {
          "internalType": "uint256",
          "name": "tokenId",
          "type": "uint256"
        }
      ],
      "name": "ERC721NonexistentToken",
      "type": "error"
    },
    {
      "inputs": [],
      "name": "EnforcedPause",
      "type": "error"
    },
    {
      "inputs": [],
      "name": "ExpectedPause",
      "type": "error"
    },
    {
      "anonymous": false,
      "inputs": [
        {
          "indexed": true,
          "internalType": "address",
          "name": "owner",
          "type": "address"
        },
        {
          "indexed": true,
          "internalType": "address",
          "name": "approved",
          "type": "address"
        },
        {
          "indexed": true,
          "internalType": "uint256",
          "name": "tokenId",
          "type": "uint256"
        }
      ],
      "name": "Approval",
      "type": "event"
    },
    {
      "anonymous": false,
      "inputs": [
        {
          "indexed": true,
          "internalType": "address",
          "name": "owner",
          "type": "address"
        },
        {
          "indexed": true,
          "internalType": "address",
          "name": "operator",
          "type": "address"
        },
        {
          "indexed": false,
          "internalType": "bool",
          "name": "approved",
          "type": "bool"
        }
      ],
      "name": "ApprovalForAll",
      "type": "event"
    },
    {
      "anonymous": false,
      "inputs": [
        {
          "indexed": false,
          "internalType": "address",
          "name": "account",
          "type": "address"
        }
      ],
      "name": "Paused",
      "type": "event"
    },
    {
      "anonymous": false,
      "inputs": [
        {
          "indexed": true,
          "internalType": "bytes32",
          "name": "role",
          "type": "bytes32"
        },
        {
          "indexed": true,
          "internalType": "bytes32",
          "name": "previousAdminRole",
          "type": "bytes32"
        },
        {
          "indexed": true,
          "internalType": "bytes32",
          "name": "newAdminRole",
          "type": "bytes32"
        }
      ],
      "name": "RoleAdminChanged",
      "type": "event"
    },
    {
      "anonymous": false,
      "inputs": [
        {
          "indexed": true,
          "internalType": "bytes32",
          "name": "role",
          "type": "bytes32"
        },
        {
          "indexed": true,
          "internalType": "address",
          "name": "account",
          "type": "address"
        },
        {
          "indexed": true,
          "internalType": "address",
          "name": "sender",
          "type": "address"
        }
      ],
      "name": "RoleGranted",
      "type": "event"
    },
    {
      "anonymous": false,
      "inputs": [
        {
          "indexed": true,
          "internalType": "bytes32",
          "name": "role",
          "type": "bytes32"
        },
        {
          "indexed": true,
          "internalType": "address",
          "name": "account",
          "type": "address"
        },
        {
          "indexed": true,
          "internalType": "address",
          "name": "sender",
          "type": "address"
        }
      ],
      "name": "RoleRevoked",
      "type": "event"
    },
    {
      "anonymous": false,
      "inputs": [
        {
          "indexed": true,
          "internalType": "address",
          "name": "from",
          "type": "address"
        },
        {
          "indexed": true,
          "internalType": "address",
          "name": "to",
          "type": "address"
        },
        {
          "indexed": true,
          "internalType": "uint256",
          "name": "tokenId",
          "type": "uint256"
        }
      ],
      "name": "Transfer",
      "type": "event"
    },
    {
      "anonymous": false,
      "inputs": [
        {
          "indexed": false,
          "internalType": "address",
          "name": "account",
          "type": "address"
        }
      ],
      "name": "Unpaused",
      "type": "event"
    },
    {
      "inputs": [],
      "name": "BURNER_ROLE",
      "outputs": [
        {
          "internalType": "bytes32",
          "name": "",
          "type": "bytes32"
        }
      ],
      "stateMutability": "view",
      "type": "function"
    },
    {
      "inputs": [],
      "name": "DEFAULT_ADMIN_ROLE",
      "outputs": [
        {
          "internalType": "bytes32",
          "name": "",
          "type": "bytes32"
        }
      ],
      "stateMutability": "view",
      "type": "function"
    },
    {
      "inputs": [],
      "name": "MINTER_ROLE",
      "outputs": [
        {
          "internalType": "bytes32",
          "name": "",
          "type": "bytes32"
        }
      ],
      "stateMutability": "view",
      "type": "function"
    },
    {
      "inputs": [],
      "name": "PAUSER_ROLE",
      "outputs": [
        {
          "internalType": "bytes32",
          "name": "",
          "type": "bytes32"
        }
      ],
      "stateMutability": "view",
      "type": "function"
    },
    {
      "inputs": [
        {
          "internalType": "address",
          "name": "to",
          "type": "address"
        },
        {
          "internalType": "uint256",
          "name": "tokenId",
          "type": "uint256"
        }
      ],
      "name": "approve",
      "outputs": [],
      "stateMutability": "nonpayable",
      "type": "function"
    },
    {
      "inputs": [
        {
          "internalType": "address",
          "name": "owner",
          "type": "address"
        }
      ],
      "name": "balanceOf",
      "outputs": [
        {
          "internalType": "uint256",
          "name": "",
          "type": "uint256"
        }
      ],
      "stateMutability": "view",
      "type": "function"
    },
    {
      "inputs": [
        {
          "internalType": "uint256",
          "name": "tokenId",
          "type": "uint256"
        }
      ],
      "name": "burn",
      "outputs": [],
      "stateMutability": "nonpayable",
      "type": "function"
    },
    {
      "inputs": [
        {
          "internalType": "uint256",
          "name": "tokenId",
          "type": "uint256"
        }
      ],
      "name": "getApproved",
      "outputs": [
        {
          "internalType": "address",
          "name": "",
          "type": "address"
        }
      ],
      "stateMutability": "view",
      "type": "function"
    },
    {
      "inputs": [
        {
          "internalType": "bytes32",
          "name": "role",
          "type": "bytes32"
        }
      ],
      "name": "getRoleAdmin",
      "outputs": [
        {
          "internalType": "bytes32",
          "name": "",
          "type": "bytes32"
        }
      ],
      "stateMutability": "view",
      "type": "function"
    },
    {
      "inputs": [
        {
          "internalType": "bytes32",
          "name": "role",
          "type": "bytes32"
        },
        {
          "internalType": "address",
          "name": "account",
          "type": "address"
        }
      ],
      "name": "grantRole",
      "outputs": [],
      "stateMutability": "nonpayable",
      "type": "function"
    },
    {
      "inputs": [
        {
          "internalType": "bytes32",
          "name": "role",
          "type": "bytes32"
        },
        {
          "internalType": "address",
          "name": "account",
          "type": "address"
        }
      ],
      "name": "hasRole",
      "outputs": [
        {
          "internalType": "bool",
          "name": "",
          "type": "bool"
        }
      ],
      "stateMutability": "view",
      "type": "function"
    },
    {
      "inputs": [
        {
          "internalType": "address",
          "name": "owner",
          "type": "address"
        },
        {
          "internalType": "address",
          "name": "operator",
          "type": "address"
        }
      ],
      "name": "isApprovedForAll",
      "outputs": [
        {
          "internalType": "bool",
          "name": "",
          "type": "bool"
        }
      ],
      "stateMutability": "view",
      "type": "function"
    },
    {
      "inputs": [
        {
          "internalType": "address",
          "name": "to",
          "type": "address"
        },
        {
          "internalType": "uint256",
          "name": "tokenId",
          "type": "uint256"
        }
      ],
      "name": "mint",
      "outputs": [],
      "stateMutability": "nonpayable",
      "type": "function"
    },
    {
      "inputs": [],
      "name": "name",
      "outputs": [
        {
          "internalType": "string",
          "name": "",
          "type": "string"
        }
      ],
      "stateMutability": "view",
      "type": "function"
    },
    {
      "inputs": [
        {
          "internalType": "uint256",
          "name": "tokenId",
          "type": "uint256"
        }
      ],
      "name": "ownerOf",
      "outputs": [
        {
          "internalType": "address",
          "name": "",
          "type": "address"
        }
      ],
      "stateMutability": "view",
      "type": "function"
    },
    {
      "inputs": [],
      "name": "pause",
      "outputs": [],
      "stateMutability": "nonpayable",
      "type": "function"
    },
    {
      "inputs": [],
      "name": "paused",
      "outputs": [
        {
          "internalType": "bool",
          "name": "",
          "type": "bool"
        }
      ],
      "stateMutability": "view",
      "type": "function"
    },
    {
      "inputs": [
        {
          "internalType": "bytes32",
          "name": "role",
          "type": "bytes32"
        },
        {
          "internalType": "address",
          "name": "callerConfirmation",
          "type": "address"
        }
      ],
      "name": "renounceRole",
      "outputs": [],
      "stateMutability": "nonpayable",
      "type": "function"
    },
    {
      "inputs": [
        {
          "internalType": "bytes32",
          "name": "role",
          "type": "bytes32"
        },
        {
          "internalType": "address",
          "name": "account",
          "type": "address"
        }
      ],
      "name": "revokeRole",
      "outputs": [],
      "stateMutability": "nonpayable",
      "type": "function"
    },
    {
      "inputs": [
        {
          "internalType": "address",
          "name": "from",
          "type": "address"
        },
        {
          "internalType": "address",
          "name": "to",
          "type": "address"
        },
        {
          "internalType": "uint256",
          "name": "tokenId",
          "type": "uint256"
        }
      ],
      "name": "safeTransferFrom",
      "outputs": [],
      "stateMutability": "nonpayable",
      "type": "function"
    },
    {
      "inputs": [
        {
          "internalType": "address",
          "name": "from",
          "type": "address"
        },
        {
          "internalType": "address",
          "name": "to",
          "type": "address"
        },
        {
          "internalType": "uint256",
          "name": "tokenId",
          "type": "uint256"
        },
        {
          "internalType": "bytes",
          "name": "data",
          "type": "bytes"
        }
      ],
      "name": "safeTransferFrom",
      "outputs": [],
      "stateMutability": "nonpayable",
      "type": "function"
    },
    {
      "inputs": [
        {
          "internalType": "address",
          "name": "operator",
          "type": "address"
        },
        {
          "internalType": "bool",
          "name": "approved",
          "type": "bool"
        }
      ],
      "name": "setApprovalForAll",
      "outputs": [],
      "stateMutability": "nonpayable",
      "type": "function"
    },
    {
      "inputs": [
        {
          "internalType": "bytes4",
          "name": "interfaceId",
          "type": "bytes4"
        }
      ],
      "name": "supportsInterface",
      "outputs": [
        {
          "internalType": "bool",
          "name": "",
          "type": "bool"
        }
      ],
      "stateMutability": "view",
      "type": "function"
    },
    {
      "inputs": [],
      "name": "symbol",
      "outputs": [
        {
          "internalType": "string",
          "name": "",
          "type": "string"
        }
      ],
      "stateMutability": "view",
      "type": "function"
    },
    {
      "inputs": [
        {
          "internalType": "uint256",
          "name": "tokenId",
          "type": "uint256"
        }
      ],
      "name": "tokenURI",
      "outputs": [
        {
          "internalType": "string",
          "name": "",
          "type": "string"
        }
      ],
      "stateMutability": "view",
      "type": "function"
    },
    {
      "inputs": [
        {
          "internalType": "address",
          "name": "from",
          "type": "address"
        },
        {
          "internalType": "address",
          "name": "to",
          "type": "address"
        },
        {
          "internalType": "uint256",
          "name": "tokenId",
          "type": "uint256"
        }
      ],
      "name": "transferFrom",
      "outputs": [],
      "stateMutability": "nonpayable",
      "type": "function"
    },
    {
      "inputs": [],
      "name": "unpause",
      "outputs": [],
      "stateMutability": "nonpayable",
      "type": "function"
    }
  ],
  "bytecode": "0x60806040523480156200001157600080fd5b5060405162001a4938038062001a49833981016040819052620000349162000277565b81818181600062000046838262000370565b50600162000055828262000370565b506200006791506000905033620000ff565b5050506200009c7f9f2df0fed2c77648de5860a4cc508cd0818c85b8b8a1ab4ceeef8d981c8956a633620000ff60201b60201c565b50620000c97f3c11d16cbaffd01df69ce1c404f6340ee057498f5f00246190ea54220576a84833620000ff565b50620000f67f65d7a28e3265b37a6474929f336521b332c1681b933f6cb9f3376673440d862a33620000ff565b5050506200043c565b60008281526006602090815260408083206001600160a01b038516845290915281205460ff16620001a85760008381526006602090815260408083206001600160a01b03861684529091529020805460ff191660011790556200015f3390565b6001600160a01b0316826001600160a01b0316847f2f8788117e7eff1d82e926ec794901d17c78024a50270940304540a733656f0d60405160405180910390a4506001620001ac565b5060005b92915050565b634e487b7160e01b600052604160045260246000fd5b600082601f830112620001da57600080fd5b81516001600160401b0380821115620001f757620001f7620001b2565b604051601f8301601f19908116603f01168101908282118183101715620002225762000222620001b2565b816040528381526020925086838588010111156200023f57600080fd5b600091505b8382101562000263578582018301518183018401529082019062000244565b600093810190920192909252949350505050565b600080604083850312156200028b57600080fd5b82516001600160401b0380821115620002a357600080fd5b620002b186838701620001c8565b93506020850151915080821115620002c857600080fd5b50620002d785828601620001c8565b9150509250929050565b600181811c90821680620002f657607f821691505b6020821081036200031757634e487b7160e01b600052602260045260246000fd5b50919050565b601f8211156200036b57600081815260208120601f850160051c81016020861015620003465750805b601f850160051c820191505b81811015620003675782815560010162000352565b5050505b505050565b81516001600160401b038111156200038c576200038c620001b2565b620003a4816200039d8454620002e1565b846200031d565b602080601f831160018114620003dc5760008415620003c35750858301515b600019600386901b1c1916600185901b17855562000367565b600085815260208120601f198616915b828110156200040d57888601518255948401946001909101908401620003ec565b50858210156200042c5787850151600019600388901b60f8161c191681555b5050505050600190811b01905550565b6115fd806200044c6000396000f3fe608060405234801561001057600080fd5b50600436106101a95760003560e01c80635c975abb116100f9578063a22cb46511610097578063d539139311610071578063d539139314610392578063d547741f146103b9578063e63ab1e9146103cc578063e985e9c5146103f357600080fd5b8063a22cb46514610359578063b88d4fde1461036c578063c87b56dd1461037f57600080fd5b80638456cb59116100d35780638456cb591461032e57806391d148541461033657806395d89b4114610349578063a217fddf1461035157600080fd5b80635c975abb146102fd5780636352211e1461030857806370a082311461031b57600080fd5b8063282c51f3116101665780633f4ba83a116101405780633f4ba83a146102bc57806340c10f19146102c457806342842e0e146102d757806342966c68146102ea57600080fd5b8063282c51f31461026f5780632f2ff15d1461029657806336568abe146102a957600080fd5b806301ffc9a7146101ae57806306fdde03146101d6578063081812fc146101eb578063095ea7b31461021657806323b872dd1461022b578063248a9ca31461023e575b600080fd5b6101c16101bc36600461124a565b610406565b60405190151581526020015b60405180910390f35b6101de610417565b6040516101cd91906112b7565b6101fe6101f93660046112ca565b6104a9565b6040516001600160a01b0390911681526020016101cd565b6102296102243660046112ff565b6104d2565b005b610229610239366004611329565b6104e1565b61026161024c3660046112ca565b60009081526006602052604090206001015490565b6040519081526020016101cd565b6102617f3c11d16cbaffd01df69ce1c404f6340ee057498f5f00246190ea54220576a84881565b6102296102a4366004611365565b610571565b6102296102b7366004611365565b610596565b6102296105ce565b6102296102d23660046112ff565b610603565b6102296102e5366004611329565b610637565b6102296102f83660046112ca565b610652565b60075460ff166101c1565b6101fe6103163660046112ca565b610685565b610261610329366004611391565b610690565b6102296106d8565b6101c1610344366004611365565b61070a565b6101de610735565b610261600081565b6102296103673660046113ac565b610744565b61022961037a3660046113fe565b61074f565b6101de61038d3660046112ca565b610767565b6102617f9f2df0fed2c77648de5860a4cc508cd0818c85b8b8a1ab4ceeef8d981c8956a681565b6102296103c7366004611365565b6107dc565b6102617f65d7a28e3265b37a6474929f336521b332c1681b933f6cb9f3376673440d862a81565b6101c16104013660046114da565b610801565b60006104118261082f565b92915050565b60606000805461042690611504565b80601f016020809104026020016040519081016040528092919081815260200182805461045290611504565b801561049f5780601f106104745761010080835404028352916020019161049f565b820191906000526020600020905b81548152906001019060200180831161048257829003601f168201915b5050505050905090565b60006104b482610854565b506000828152600460205260409020546001600160a01b0316610411565b6104dd82823361088d565b5050565b6001600160a01b03821661051057604051633250574960e11b8152600060048201526024015b60405180910390fd5b600061051d83833361089a565b9050836001600160a01b0316816001600160a01b03161461056b576040516364283d7b60e01b81526001600160a01b0380861660048301526024820184905282166044820152606401610507565b50505050565b60008281526006602052604090206001015461058c816108fb565b61056b8383610905565b6001600160a01b03811633146105bf5760405163334bd91960e11b815260040160405180910390fd5b6105c98282610999565b505050565b7f65d7a28e3265b37a6474929f336521b332c1681b933f6cb9f3376673440d862a6105f8816108fb565b610600610a06565b50565b7f9f2df0fed2c77648de5860a4cc508cd0818c85b8b8a1ab4ceeef8d981c8956a661062d816108fb565b6105c98383610a58565b6105c98383836040518060200160405280600081525061074f565b7f3c11d16cbaffd01df69ce1c404f6340ee057498f5f00246190ea54220576a84861067c816108fb565b6104dd82610a72565b600061041182610854565b60006001600160a01b0382166106bc576040516322718ad960e21b815260006004820152602401610507565b506001600160a01b031660009081526003602052604090205490565b7f65d7a28e3265b37a6474929f336521b332c1681b933f6cb9f3376673440d862a610702816108fb565b610600610aad565b60009182526006602090815260408084206001600160a01b0393909316845291905290205460ff1690565b60606001805461042690611504565b6104dd338383610aea565b61075a8484846104e1565b61056b3385858585610b89565b606061077282610854565b50600061078a60408051602081019091526000815290565b905060008151116107aa57604051806020016040528060008152506107d5565b806107b484610cb4565b6040516020016107c592919061153e565b6040516020818303038152906040525b9392505050565b6000828152600660205260409020600101546107f7816108fb565b61056b8383610999565b6001600160a01b03918216600090815260056020908152604080832093909416825291909152205460ff1690565b60006001600160e01b03198216637965db0b60e01b1480610411575061041182610d47565b6000818152600260205260408120546001600160a01b03168061041157604051637e27328960e01b815260048101849052602401610507565b6105c98383836001610d97565b60006108a860075460ff1690565b156108e85760405162461bcd60e51b815260206004820152601060248201526f14185d5cd8589b194e881c185d5cd95960821b6044820152606401610507565b6108f3848484610e9d565b949350505050565b6106008133610f96565b6000610911838361070a565b6109915760008381526006602090815260408083206001600160a01b03861684529091529020805460ff191660011790556109493390565b6001600160a01b0316826001600160a01b0316847f2f8788117e7eff1d82e926ec794901d17c78024a50270940304540a733656f0d60405160405180910390a4506001610411565b506000610411565b60006109a5838361070a565b156109915760008381526006602090815260408083206001600160a01b0386168085529252808320805460ff1916905551339286917ff6391f5c32d9c69d2a47ea670b442974b53935d1edc7fd64eb21e047a839171b9190a4506001610411565b610a0e610fcf565b6007805460ff191690557f5db9ee0a495bf2e6ff9c91a7834c1ba4fdd244a5e8aa4e537bd38aeae4b073aa335b6040516001600160a01b03909116815260200160405180910390a1565b6104dd828260405180602001604052806000815250610ff4565b6000610a81600083600061089a565b90506001600160a01b0381166104dd57604051637e27328960e01b815260048101839052602401610507565b610ab561100c565b6007805460ff191660011790557f62e78cea01bee320cd4e420270b5ea74000d11b0c9f74754ebdbfc544b05a258610a3b3390565b6001600160a01b038216610b1c57604051630b61174360e31b81526001600160a01b0383166004820152602401610507565b6001600160a01b03838116600081815260056020908152604080832094871680845294825291829020805460ff191686151590811790915591519182527f17307eab39ab6107e8899845ad3d59bd9653f200f220920489ca2b5937696c31910160405180910390a3505050565b6001600160a01b0383163b15610cad57604051630a85bd0160e11b81526001600160a01b0384169063150b7a0290610bcb90889088908790879060040161156d565b6020604051808303816000875af1925050508015610c06575060408051601f3d908101601f19168201909252610c03918101906115aa565b60015b610c6f573d808015610c34576040519150601f19603f3d011682016040523d82523d6000602084013e610c39565b606091505b508051600003610c6757604051633250574960e11b81526001600160a01b0385166004820152602401610507565b805160208201fd5b6001600160e01b03198116630a85bd0160e11b14610cab57604051633250574960e11b81526001600160a01b0385166004820152602401610507565b505b5050505050565b60606000610cc183611030565b600101905060008167ffffffffffffffff811115610ce157610ce16113e8565b6040519080825280601f01601f191660200182016040528015610d0b576020820181803683370190505b5090508181016020015b600019016f181899199a1a9b1b9c1cb0b131b232b360811b600a86061a8153600a8504945084610d1557509392505050565b60006001600160e01b031982166380ac58cd60e01b1480610d7857506001600160e01b03198216635b5e139f60e01b145b8061041157506301ffc9a760e01b6001600160e01b0319831614610411565b8080610dab57506001600160a01b03821615155b15610e6d576000610dbb84610854565b90506001600160a01b03831615801590610de75750826001600160a01b0316816001600160a01b031614155b8015610dfa5750610df88184610801565b155b15610e235760405163a9fbf51f60e01b81526001600160a01b0384166004820152602401610507565b8115610e6b5783856001600160a01b0316826001600160a01b03167f8c5be1e5ebec7d5bd14f71427d1e84f3dd0314c0f7b2291e5b200ac8c7c3b92560405160405180910390a45b505b5050600090815260046020526040902080546001600160a01b0319166001600160a01b0392909216919091179055565b6000828152600260205260408120546001600160a01b0390811690831615610eca57610eca818486611108565b6001600160a01b03811615610f0857610ee7600085600080610d97565b6001600160a01b038116600090815260036020526040902080546000190190555b6001600160a01b03851615610f37576001600160a01b0385166000908152600360205260409020805460010190555b60008481526002602052604080822080546001600160a01b0319166001600160a01b0389811691821790925591518793918516917fddf252ad1be2c89b69c2b068fc378daa952ba7f163c4a11628f55a4df523b3ef91a4949350505050565b610fa0828261070a565b6104dd5760405163e2517d3f60e01b81526001600160a01b038216600482015260248101839052604401610507565b60075460ff16610ff257604051638dfc202b60e01b815260040160405180910390fd5b565b610ffe838361116c565b6105c9336000858585610b89565b60075460ff1615610ff25760405163d93c066560e01b815260040160405180910390fd5b60008072184f03e93ff9f4daa797ed6e38ed64bf6a1f0160401b831061106f5772184f03e93ff9f4daa797ed6e38ed64bf6a1f0160401b830492506040015b6d04ee2d6d415b85acef8100000000831061109b576d04ee2d6d415b85acef8100000000830492506020015b662386f26fc1000083106110b957662386f26fc10000830492506010015b6305f5e10083106110d1576305f5e100830492506008015b61271083106110e557612710830492506004015b606483106110f7576064830492506002015b600a83106104115760010192915050565b6111138383836111d1565b6105c9576001600160a01b03831661114157604051637e27328960e01b815260048101829052602401610507565b60405163177e802f60e01b81526001600160a01b038316600482015260248101829052604401610507565b6001600160a01b03821661119657604051633250574960e11b815260006004820152602401610507565b60006111a48383600061089a565b90506001600160a01b038116156105c9576040516339e3563760e11b815260006004820152602401610507565b60006001600160a01b038316158015906108f35750826001600160a01b0316846001600160a01b0316148061120b575061120b8484610801565b806108f35750506000908152600460205260409020546001600160a01b03908116911614919050565b6001600160e01b03198116811461060057600080fd5b60006020828403121561125c57600080fd5b81356107d581611234565b60005b8381101561128257818101518382015260200161126a565b50506000910152565b600081518084526112a3816020860160208601611267565b601f01601f19169290920160200192915050565b6020815260006107d5602083018461128b565b6000602082840312156112dc57600080fd5b5035919050565b80356001600160a01b03811681146112fa57600080fd5b919050565b6000806040838503121561131257600080fd5b61131b836112e3565b946020939093013593505050565b60008060006060848603121561133e57600080fd5b611347846112e3565b9250611355602085016112e3565b9150604084013590509250925092565b6000806040838503121561137857600080fd5b82359150611388602084016112e3565b90509250929050565b6000602082840312156113a357600080fd5b6107d5826112e3565b600080604083850312156113bf57600080fd5b6113c8836112e3565b9150602083013580151581146113dd57600080fd5b809150509250929050565b634e487b7160e01b600052604160045260246000fd5b6000806000806080858703121561141457600080fd5b61141d856112e3565b935061142b602086016112e3565b925060408501359150606085013567ffffffffffffffff8082111561144f57600080fd5b818701915087601f83011261146357600080fd5b813581811115611475576114756113e8565b604051601f8201601f19908116603f0116810190838211818310171561149d5761149d6113e8565b816040528281528a60208487010111156114b657600080fd5b82602086016020830137600060208483010152809550505050505092959194509250565b600080604083850312156114ed57600080fd5b6114f6836112e3565b9150611388602084016112e3565b600181811c9082168061151857607f821691505b60208210810361153857634e487b7160e01b600052602260045260246000fd5b50919050565b60008351611550818460208801611267565b835190830190611564818360208801611267565b01949350505050565b6001600160a01b03858116825284166020820152604081018390526080606082018190526000906115a09083018461128b565b9695505050505050565b6000602082840312156115bc57600080fd5b81516107d58161123456fea2646970667358221220b8d9542bb30225b20ba0b6ae5a8c22ba43d1e9c8a7691178a63ee625b696201a64736f6c63430008140033",
  "linkReferences": {},
  "deployedLinkReferences": {}
}