{
  "_format": "hh-sol-artifact-1",
  "contractName": "ERC721_mintable_pausable",
  "sourceName": "contracts/__generated__/ERC721_mintable_pausable.sol",
  "abi": [
    {
      "inputs": [
        {
          "internalType": "string",
          "name": "name_",
          "type": "string"
        },
        {
          "internalType": "string",
          "name": "symbol_",
          "type": "string"
        }
      ],
      "stateMutability": "nonpayable",
      "type": "constructor"
    },
    {
      "inputs": [],
      "name": "AccessControlBadConfirmation",
      "type": "error"
    },
    {
      "inputs": [
        {
          "internalType": "address",
          "name": "account",
          "type": "address"
        },
        {
          "internalType": "bytes32",
          "name": "neededRole",
          "type": "bytes32"
        }
      ],
      "name": "AccessControlUnauthorizedAccount",
      "type": "error"
    },
    {
      "inputs": [
        {
          "internalType": "address",
          "name": "sender",
          "type": "address"
        },
        {
          "internalType": "uint256",
          "name": "tokenId",
          "type": "uint256"
        },
        {
          "internalType": "address",
          "name": "owner",
          "type": "address"
        }
      ],
      "name": "ERC721IncorrectOwner",
      "type": "error"
    },
    {
      "inputs": [
        {
          "internalType": "address",
          "name": "operator",
          "type": "address"
        },
        {
          "internalType": "uint256",
          "name": "tokenId",
          "type": "uint256"
        }
      ],
      "name": "ERC721InsufficientApproval",
      "type": "error"
    },
    {
      "inputs": [
        {
          "internalType": "address",
          "name": "approver",
          "type": "address"
        }
      ],
      "name": "ERC721InvalidApprover",
      "type": "error"
    },
    {
      "inputs": [
        {
          "internalType": "address",
          "name": "operator",
          "type": "address"
        }
      ],
      "name": "ERC721InvalidOperator",
      "type": "error"
    },
    {
      "inputs": [
        {
          "internalType": "address",
          "name": "owner",
          "type": "address"
        }
      ],
      "name": "ERC721InvalidOwner",
      "type": "error"
    },
    {
      "inputs": [
        {
          "internalType": "address",
          "name": "receiver",
          "type": "address"
        }
      ],
      "name": "ERC721InvalidReceiver",
      "type": "error"
    },
    {
      "inputs": [
        {
          "internalType": "address",
          "name": "sender",
          "type": "address"
        }
      ],
      "name": "ERC721InvalidSender",
      "type": "error"
    },
    {
      "inputs": [
        {
          "internalType": "uint256",
          "name": "tokenId",
          "type": "uint256"
        }
      ],
      "name": "ERC721NonexistentToken",
      "type": "error"
    },
    {
      "inputs": [],
      "name": "EnforcedPause",
      "type": "error"
    },
    {
      "inputs": [],
      "name": "ExpectedPause",
      "type": "error"
    },
    {
      "anonymous": false,
      "inputs": [
        {
          "indexed": true,
          "internalType": "address",
          "name": "owner",
          "type": "address"
        },
        {
          "indexed": true,
          "internalType": "address",
          "name": "approved",
          "type": "address"
        },
        {
          "indexed": true,
          "internalType": "uint256",
          "name": "tokenId",
          "type": "uint256"
        }
      ],
      "name": "Approval",
      "type": "event"
    },
    {
      "anonymous": false,
      "inputs": [
        {
          "indexed": true,
          "internalType": "address",
          "name": "owner",
          "type": "address"
        },
        {
          "indexed": true,
          "internalType": "address",
          "name": "operator",
          "type": "address"
        },
        {
          "indexed": false,
          "internalType": "bool",
          "name": "approved",
          "type": "bool"
        }
      ],
      "name": "ApprovalForAll",
      "type": "event"
    },
    {
      "anonymous": false,
      "inputs": [
        {
          "indexed": false,
          "internalType": "address",
          "name": "account",
          "type": "address"
        }
      ],
      "name": "Paused",
      "type": "event"
    },
    {
      "anonymous": false,
      "inputs": [
        {
          "indexed": true,
          "internalType": "bytes32",
          "name": "role",
          "type": "bytes32"
        },
        {
          "indexed": true,
          "internalType": "bytes32",
          "name": "previousAdminRole",
          "type": "bytes32"
        },
        {
          "indexed": true,
          "internalType": "bytes32",
          "name": "newAdminRole",
          "type": "bytes32"
        }
      ],
      "name": "RoleAdminChanged",
      "type": "event"
    },
    {
      "anonymous": false,
      "inputs": [
        {
          "indexed": true,
          "internalType": "bytes32",
          "name": "role",
          "type": "bytes32"
        },
        {
          "indexed": true,
          "internalType": "address",
          "name": "account",
          "type": "address"
        },
        {
          "indexed": true,
          "internalType": "address",
          "name": "sender",
          "type": "address"
        }
      ],
      "name": "RoleGranted",
      "type": "event"
    },
    {
      "anonymous": false,
      "inputs": [
        {
          "indexed": true,
          "internalType": "bytes32",
          "name": "role",
          "type": "bytes32"
        },
        {
          "indexed": true,
          "internalType": "address",
          "name": "account",
          "type": "address"
        },
        {
          "indexed": true,
          "internalType": "address",
          "name": "sender",
          "type": "address"
        }
      ],
      "name": "RoleRevoked",
      "type": "event"
    },
    {
      "anonymous": false,
      "inputs": [
        {
          "indexed": true,
          "internalType": "address",
          "name": "from",
          "type": "address"
        },
        {
          "indexed": true,
          "internalType": "address",
          "name": "to",
          "type": "address"
        },
        {
          "indexed": true,
          "internalType": "uint256",
          "name": "tokenId",
          "type": "uint256"
        }
      ],
      "name": "Transfer",
      "type": "event"
    },
    {
      "anonymous": false,
      "inputs": [
        {
          "indexed": false,
          "internalType": "address",
          "name": "account",
          "type": "address"
        }
      ],
      "name": "Unpaused",
      "type": "event"
    },
    {
      "inputs": [],
      "name": "DEFAULT_ADMIN_ROLE",
      "outputs": [
        {
          "internalType": "bytes32",
          "name": "",
          "type": "bytes32"
        }
      ],
      "stateMutability": "view",
      "type": "function"
    },
    {
      "inputs": [],
      "name": "MINTER_ROLE",
      "outputs": [
        {
          "internalType": "bytes32",
          "name": "",
          "type": "bytes32"
        }
      ],
      "stateMutability": "view",
      "type": "function"
    },
    {
      "inputs": [],
      "name": "PAUSER_ROLE",
      "outputs": [
        {
          "internalType": "bytes32",
          "name": "",
          "type": "bytes32"
        }
      ],
      "stateMutability": "view",
      "type": "function"
    },
    {
      "inputs": [
        {
          "internalType": "address",
          "name": "to",
          "type": "address"
        },
        {
          "internalType": "uint256",
          "name": "tokenId",
          "type": "uint256"
        }
      ],
      "name": "approve",
      "outputs": [],
      "stateMutability": "nonpayable",
      "type": "function"
    },
    {
      "inputs": [
        {
          "internalType": "address",
          "name": "owner",
          "type": "address"
        }
      ],
      "name": "balanceOf",
      "outputs": [
        {
          "internalType": "uint256",
          "name": "",
          "type": "uint256"
        }
      ],
      "stateMutability": "view",
      "type": "function"
    },
    {
      "inputs": [
        {
          "internalType": "uint256",
          "name": "tokenId",
          "type": "uint256"
        }
      ],
      "name": "getApproved",
      "outputs": [
        {
          "internalType": "address",
          "name": "",
          "type": "address"
        }
      ],
      "stateMutability": "view",
      "type": "function"
    },
    {
      "inputs": [
        {
          "internalType": "bytes32",
          "name": "role",
          "type": "bytes32"
        }
      ],
      "name": "getRoleAdmin",
      "outputs": [
        {
          "internalType": "bytes32",
          "name": "",
          "type": "bytes32"
        }
      ],
      "stateMutability": "view",
      "type": "function"
    },
    {
      "inputs": [
        {
          "internalType": "bytes32",
          "name": "role",
          "type": "bytes32"
        },
        {
          "internalType": "address",
          "name": "account",
          "type": "address"
        }
      ],
      "name": "grantRole",
      "outputs": [],
      "stateMutability": "nonpayable",
      "type": "function"
    },
    {
      "inputs": [
        {
          "internalType": "bytes32",
          "name": "role",
          "type": "bytes32"
        },
        {
          "internalType": "address",
          "name": "account",
          "type": "address"
        }
      ],
      "name": "hasRole",
      "outputs": [
        {
          "internalType": "bool",
          "name": "",
          "type": "bool"
        }
      ],
      "stateMutability": "view",
      "type": "function"
    },
    {
      "inputs": [
        {
          "internalType": "address",
          "name": "owner",
          "type": "address"
        },
        {
          "internalType": "address",
          "name": "operator",
          "type": "address"
        }
      ],
      "name": "isApprovedForAll",
      "outputs": [
        {
          "internalType": "bool",
          "name": "",
          "type": "bool"
        }
      ],
      "stateMutability": "view",
      "type": "function"
    },
    {
      "inputs": [
        {
          "internalType": "address",
          "name": "to",
          "type": "address"
        },
        {
          "internalType": "uint256",
          "name": "tokenId",
          "type": "uint256"
        }
      ],
      "name": "mint",
      "outputs": [],
      "stateMutability": "nonpayable",
      "type": "function"
    },
    {
      "inputs": [],
      "name": "name",
      "outputs": [
        {
          "internalType": "string",
          "name": "",
          "type": "string"
        }
      ],
      "stateMutability": "view",
      "type": "function"
    },
    {
      "inputs": [
        {
          "internalType": "uint256",
          "name": "tokenId",
          "type": "uint256"
        }
      ],
      "name": "ownerOf",
      "outputs": [
        {
          "internalType": "address",
          "name": "",
          "type": "address"
        }
      ],
      "stateMutability": "view",
      "type": "function"
    },
    {
      "inputs": [],
      "name": "pause",
      "outputs": [],
      "stateMutability": "nonpayable",
      "type": "function"
    },
    {
      "inputs": [],
      "name": "paused",
      "outputs": [
        {
          "internalType": "bool",
          "name": "",
          "type": "bool"
        }
      ],
      "stateMutability": "view",
      "type": "function"
    },
    {
      "inputs": [
        {
          "internalType": "bytes32",
          "name": "role",
          "type": "bytes32"
        },
        {
          "internalType": "address",
          "name": "callerConfirmation",
          "type": "address"
        }
      ],
      "name": "renounceRole",
      "outputs": [],
      "stateMutability": "nonpayable",
      "type": "function"
    },
    {
      "inputs": [
        {
          "internalType": "bytes32",
          "name": "role",
          "type": "bytes32"
        },
        {
          "internalType": "address",
          "name": "account",
          "type": "address"
        }
      ],
      "name": "revokeRole",
      "outputs": [],
      "stateMutability": "nonpayable",
      "type": "function"
    },
    {
      "inputs": [
        {
          "internalType": "address",
          "name": "from",
          "type": "address"
        },
        {
          "internalType": "address",
          "name": "to",
          "type": "address"
        },
        {
          "internalType": "uint256",
          "name": "tokenId",
          "type": "uint256"
        }
      ],
      "name": "safeTransferFrom",
      "outputs": [],
      "stateMutability": "nonpayable",
      "type": "function"
    },
    {
      "inputs": [
        {
          "internalType": "address",
          "name": "from",
          "type": "address"
        },
        {
          "internalType": "address",
          "name": "to",
          "type": "address"
        },
        {
          "internalType": "uint256",
          "name": "tokenId",
          "type": "uint256"
        },
        {
          "internalType": "bytes",
          "name": "data",
          "type": "bytes"
        }
      ],
      "name": "safeTransferFrom",
      "outputs": [],
      "stateMutability": "nonpayable",
      "type": "function"
    },
    {
      "inputs": [
        {
          "internalType": "address",
          "name": "operator",
          "type": "address"
        },
        {
          "internalType": "bool",
          "name": "approved",
          "type": "bool"
        }
      ],
      "name": "setApprovalForAll",
      "outputs": [],
      "stateMutability": "nonpayable",
      "type": "function"
    },
    {
      "inputs": [
        {
          "internalType": "bytes4",
          "name": "interfaceId",
          "type": "bytes4"
        }
      ],
      "name": "supportsInterface",
      "outputs": [
        {
          "internalType": "bool",
          "name": "",
          "type": "bool"
        }
      ],
      "stateMutability": "view",
      "type": "function"
    },
    {
      "inputs": [],
      "name": "symbol",
      "outputs": [
        {
          "internalType": "string",
          "name": "",
          "type": "string"
        }
      ],
      "stateMutability": "view",
      "type": "function"
    },
    {
      "inputs": [
        {
          "internalType": "uint256",
          "name": "tokenId",
          "type": "uint256"
        }
      ],
      "name": "tokenURI",
      "outputs": [
        {
          "internalType": "string",
          "name": "",
          "type": "string"
        }
      ],
      "stateMutability": "view",
      "type": "function"
    },
    {
      "inputs": [
        {
          "internalType": "address",
          "name": "from",
          "type": "address"
        },
        {
          "internalType": "address",
          "name": "to",
          "type": "address"
        },
        {
          "internalType": "uint256",
          "name": "tokenId",
          "type": "uint256"
        }
      ],
      "name": "transferFrom",
      "outputs": [],
      "stateMutability": "nonpayable",
      "type": "function"
    },
    {
      "inputs": [],
      "name": "unpause",
      "outputs": [],
      "stateMutability": "nonpayable",
      "type": "function"
    }
  ],
  "bytecode": "0x60806040523480156200001157600080fd5b506040516200193e3803806200193e83398101604081905262000034916200024a565b81818181600062000046838262000343565b50600162000055828262000343565b506200006791506000905033620000d2565b5050506200009c7f9f2df0fed2c77648de5860a4cc508cd0818c85b8b8a1ab4ceeef8d981c8956a633620000d260201b60201c565b50620000c97f65d7a28e3265b37a6474929f336521b332c1681b933f6cb9f3376673440d862a33620000d2565b5050506200040f565b60008281526006602090815260408083206001600160a01b038516845290915281205460ff166200017b5760008381526006602090815260408083206001600160a01b03861684529091529020805460ff19166001179055620001323390565b6001600160a01b0316826001600160a01b0316847f2f8788117e7eff1d82e926ec794901d17c78024a50270940304540a733656f0d60405160405180910390a45060016200017f565b5060005b92915050565b634e487b7160e01b600052604160045260246000fd5b600082601f830112620001ad57600080fd5b81516001600160401b0380821115620001ca57620001ca62000185565b604051601f8301601f19908116603f01168101908282118183101715620001f557620001f562000185565b816040528381526020925086838588010111156200021257600080fd5b600091505b8382101562000236578582018301518183018401529082019062000217565b600093810190920192909252949350505050565b600080604083850312156200025e57600080fd5b82516001600160401b03808211156200027657600080fd5b62000284868387016200019b565b935060208501519150808211156200029b57600080fd5b50620002aa858286016200019b565b9150509250929050565b600181811c90821680620002c957607f821691505b602082108103620002ea57634e487b7160e01b600052602260045260246000fd5b50919050565b601f8211156200033e57600081815260208120601f850160051c81016020861015620003195750805b601f850160051c820191505b818110156200033a5782815560010162000325565b5050505b505050565b81516001600160401b038111156200035f576200035f62000185565b6200037781620003708454620002b4565b84620002f0565b602080601f831160018114620003af5760008415620003965750858301515b600019600386901b1c1916600185901b1785556200033a565b600085815260208120601f198616915b82811015620003e057888601518255948401946001909101908401620003bf565b5085821015620003ff5787850151600019600388901b60f8161c191681555b5050505050600190811b01905550565b61151f806200041f6000396000f3fe608060405234801561001057600080fd5b50600436106101735760003560e01c80636352211e116100de578063a22cb46511610097578063d539139311610071578063d539139314610322578063d547741f14610349578063e63ab1e91461035c578063e985e9c51461038357600080fd5b8063a22cb465146102e9578063b88d4fde146102fc578063c87b56dd1461030f57600080fd5b80636352211e1461029857806370a08231146102ab5780638456cb59146102be57806391d14854146102c657806395d89b41146102d9578063a217fddf146102e157600080fd5b80632f2ff15d116101305780632f2ff15d1461023957806336568abe1461024c5780633f4ba83a1461025f57806340c10f191461026757806342842e0e1461027a5780635c975abb1461028d57600080fd5b806301ffc9a71461017857806306fdde03146101a0578063081812fc146101b5578063095ea7b3146101e057806323b872dd146101f5578063248a9ca314610208575b600080fd5b61018b61018636600461116c565b610396565b60405190151581526020015b60405180910390f35b6101a86103a7565b60405161019791906111d9565b6101c86101c33660046111ec565b610439565b6040516001600160a01b039091168152602001610197565b6101f36101ee366004611221565b610462565b005b6101f361020336600461124b565b610471565b61022b6102163660046111ec565b60009081526006602052604090206001015490565b604051908152602001610197565b6101f3610247366004611287565b610501565b6101f361025a366004611287565b610526565b6101f361055e565b6101f3610275366004611221565b610593565b6101f361028836600461124b565b6105c7565b60075460ff1661018b565b6101c86102a63660046111ec565b6105e2565b61022b6102b93660046112b3565b6105ed565b6101f3610635565b61018b6102d4366004611287565b610667565b6101a8610692565b61022b600081565b6101f36102f73660046112ce565b6106a1565b6101f361030a366004611320565b6106ac565b6101a861031d3660046111ec565b6106c4565b61022b7f9f2df0fed2c77648de5860a4cc508cd0818c85b8b8a1ab4ceeef8d981c8956a681565b6101f3610357366004611287565b610739565b61022b7f65d7a28e3265b37a6474929f336521b332c1681b933f6cb9f3376673440d862a81565b61018b6103913660046113fc565b61075e565b60006103a18261078c565b92915050565b6060600080546103b690611426565b80601f01602080910402602001604051908101604052809291908181526020018280546103e290611426565b801561042f5780601f106104045761010080835404028352916020019161042f565b820191906000526020600020905b81548152906001019060200180831161041257829003601f168201915b5050505050905090565b6000610444826107b1565b506000828152600460205260409020546001600160a01b03166103a1565b61046d8282336107ea565b5050565b6001600160a01b0382166104a057604051633250574960e11b8152600060048201526024015b60405180910390fd5b60006104ad8383336107f7565b9050836001600160a01b0316816001600160a01b0316146104fb576040516364283d7b60e01b81526001600160a01b0380861660048301526024820184905282166044820152606401610497565b50505050565b60008281526006602052604090206001015461051c81610858565b6104fb8383610862565b6001600160a01b038116331461054f5760405163334bd91960e11b815260040160405180910390fd5b61055982826108f6565b505050565b7f65d7a28e3265b37a6474929f336521b332c1681b933f6cb9f3376673440d862a61058881610858565b610590610963565b50565b7f9f2df0fed2c77648de5860a4cc508cd0818c85b8b8a1ab4ceeef8d981c8956a66105bd81610858565b61055983836109b5565b610559838383604051806020016040528060008152506106ac565b60006103a1826107b1565b60006001600160a01b038216610619576040516322718ad960e21b815260006004820152602401610497565b506001600160a01b031660009081526003602052604090205490565b7f65d7a28e3265b37a6474929f336521b332c1681b933f6cb9f3376673440d862a61065f81610858565b6105906109cf565b60009182526006602090815260408084206001600160a01b0393909316845291905290205460ff1690565b6060600180546103b690611426565b61046d338383610a0c565b6106b7848484610471565b6104fb3385858585610aab565b60606106cf826107b1565b5060006106e760408051602081019091526000815290565b905060008151116107075760405180602001604052806000815250610732565b8061071184610bd6565b604051602001610722929190611460565b6040516020818303038152906040525b9392505050565b60008281526006602052604090206001015461075481610858565b6104fb83836108f6565b6001600160a01b03918216600090815260056020908152604080832093909416825291909152205460ff1690565b60006001600160e01b03198216637965db0b60e01b14806103a157506103a182610c69565b6000818152600260205260408120546001600160a01b0316806103a157604051637e27328960e01b815260048101849052602401610497565b6105598383836001610cb9565b600061080560075460ff1690565b156108455760405162461bcd60e51b815260206004820152601060248201526f14185d5cd8589b194e881c185d5cd95960821b6044820152606401610497565b610850848484610dbf565b949350505050565b6105908133610eb8565b600061086e8383610667565b6108ee5760008381526006602090815260408083206001600160a01b03861684529091529020805460ff191660011790556108a63390565b6001600160a01b0316826001600160a01b0316847f2f8788117e7eff1d82e926ec794901d17c78024a50270940304540a733656f0d60405160405180910390a45060016103a1565b5060006103a1565b60006109028383610667565b156108ee5760008381526006602090815260408083206001600160a01b0386168085529252808320805460ff1916905551339286917ff6391f5c32d9c69d2a47ea670b442974b53935d1edc7fd64eb21e047a839171b9190a45060016103a1565b61096b610ef1565b6007805460ff191690557f5db9ee0a495bf2e6ff9c91a7834c1ba4fdd244a5e8aa4e537bd38aeae4b073aa335b6040516001600160a01b03909116815260200160405180910390a1565b61046d828260405180602001604052806000815250610f16565b6109d7610f2e565b6007805460ff191660011790557f62e78cea01bee320cd4e420270b5ea74000d11b0c9f74754ebdbfc544b05a2586109983390565b6001600160a01b038216610a3e57604051630b61174360e31b81526001600160a01b0383166004820152602401610497565b6001600160a01b03838116600081815260056020908152604080832094871680845294825291829020805460ff191686151590811790915591519182527f17307eab39ab6107e8899845ad3d59bd9653f200f220920489ca2b5937696c31910160405180910390a3505050565b6001600160a01b0383163b15610bcf57604051630a85bd0160e11b81526001600160a01b0384169063150b7a0290610aed90889088908790879060040161148f565b6020604051808303816000875af1925050508015610b28575060408051601f3d908101601f19168201909252610b25918101906114cc565b60015b610b91573d808015610b56576040519150601f19603f3d011682016040523d82523d6000602084013e610b5b565b606091505b508051600003610b8957604051633250574960e11b81526001600160a01b0385166004820152602401610497565b805160208201fd5b6001600160e01b03198116630a85bd0160e11b14610bcd57604051633250574960e11b81526001600160a01b0385166004820152602401610497565b505b5050505050565b60606000610be383610f52565b600101905060008167ffffffffffffffff811115610c0357610c0361130a565b6040519080825280601f01601f191660200182016040528015610c2d576020820181803683370190505b5090508181016020015b600019016f181899199a1a9b1b9c1cb0b131b232b360811b600a86061a8153600a8504945084610c3757509392505050565b60006001600160e01b031982166380ac58cd60e01b1480610c9a57506001600160e01b03198216635b5e139f60e01b145b806103a157506301ffc9a760e01b6001600160e01b03198316146103a1565b8080610ccd57506001600160a01b03821615155b15610d8f576000610cdd846107b1565b90506001600160a01b03831615801590610d095750826001600160a01b0316816001600160a01b031614155b8015610d1c5750610d1a818461075e565b155b15610d455760405163a9fbf51f60e01b81526001600160a01b0384166004820152602401610497565b8115610d8d5783856001600160a01b0316826001600160a01b03167f8c5be1e5ebec7d5bd14f71427d1e84f3dd0314c0f7b2291e5b200ac8c7c3b92560405160405180910390a45b505b5050600090815260046020526040902080546001600160a01b0319166001600160a01b0392909216919091179055565b6000828152600260205260408120546001600160a01b0390811690831615610dec57610dec81848661102a565b6001600160a01b03811615610e2a57610e09600085600080610cb9565b6001600160a01b038116600090815260036020526040902080546000190190555b6001600160a01b03851615610e59576001600160a01b0385166000908152600360205260409020805460010190555b60008481526002602052604080822080546001600160a01b0319166001600160a01b0389811691821790925591518793918516917fddf252ad1be2c89b69c2b068fc378daa952ba7f163c4a11628f55a4df523b3ef91a4949350505050565b610ec28282610667565b61046d5760405163e2517d3f60e01b81526001600160a01b038216600482015260248101839052604401610497565b60075460ff16610f1457604051638dfc202b60e01b815260040160405180910390fd5b565b610f20838361108e565b610559336000858585610aab565b60075460ff1615610f145760405163d93c066560e01b815260040160405180910390fd5b60008072184f03e93ff9f4daa797ed6e38ed64bf6a1f0160401b8310610f915772184f03e93ff9f4daa797ed6e38ed64bf6a1f0160401b830492506040015b6d04ee2d6d415b85acef81000000008310610fbd576d04ee2d6d415b85acef8100000000830492506020015b662386f26fc100008310610fdb57662386f26fc10000830492506010015b6305f5e1008310610ff3576305f5e100830492506008015b612710831061100757612710830492506004015b60648310611019576064830492506002015b600a83106103a15760010192915050565b6110358383836110f3565b610559576001600160a01b03831661106357604051637e27328960e01b815260048101829052602401610497565b60405163177e802f60e01b81526001600160a01b038316600482015260248101829052604401610497565b6001600160a01b0382166110b857604051633250574960e11b815260006004820152602401610497565b60006110c6838360006107f7565b90506001600160a01b03811615610559576040516339e3563760e11b815260006004820152602401610497565b60006001600160a01b038316158015906108505750826001600160a01b0316846001600160a01b0316148061112d575061112d848461075e565b806108505750506000908152600460205260409020546001600160a01b03908116911614919050565b6001600160e01b03198116811461059057600080fd5b60006020828403121561117e57600080fd5b813561073281611156565b60005b838110156111a457818101518382015260200161118c565b50506000910152565b600081518084526111c5816020860160208601611189565b601f01601f19169290920160200192915050565b60208152600061073260208301846111ad565b6000602082840312156111fe57600080fd5b5035919050565b80356001600160a01b038116811461121c57600080fd5b919050565b6000806040838503121561123457600080fd5b61123d83611205565b946020939093013593505050565b60008060006060848603121561126057600080fd5b61126984611205565b925061127760208501611205565b9150604084013590509250925092565b6000806040838503121561129a57600080fd5b823591506112aa60208401611205565b90509250929050565b6000602082840312156112c557600080fd5b61073282611205565b600080604083850312156112e157600080fd5b6112ea83611205565b9150602083013580151581146112ff57600080fd5b809150509250929050565b634e487b7160e01b600052604160045260246000fd5b6000806000806080858703121561133657600080fd5b61133f85611205565b935061134d60208601611205565b925060408501359150606085013567ffffffffffffffff8082111561137157600080fd5b818701915087601f83011261138557600080fd5b8135818111156113975761139761130a565b604051601f8201601f19908116603f011681019083821181831017156113bf576113bf61130a565b816040528281528a60208487010111156113d857600080fd5b82602086016020830137600060208483010152809550505050505092959194509250565b6000806040838503121561140f57600080fd5b61141883611205565b91506112aa60208401611205565b600181811c9082168061143a57607f821691505b60208210810361145a57634e487b7160e01b600052602260045260246000fd5b50919050565b60008351611472818460208801611189565b835190830190611486818360208801611189565b01949350505050565b6001600160a01b03858116825284166020820152604081018390526080606082018190526000906114c2908301846111ad565b9695505050505050565b6000602082840312156114de57600080fd5b81516107328161115656fea2646970667358221220bf879e18bfb5a2b8a2b2cac9862800993fc42b81200b47247fe4781ddd89481b64736f6c63430008140033",
  "linkReferences": {},
  "deployedLinkReferences": {}
}