{
  "_format": "hh-sol-artifact-1",
  "contractName": "ERC721_burnable_pausable",
  "sourceName": "contracts/__generated__/ERC721_burnable_pausable.sol",
  "abi": [
    {
      "inputs": [
        {
          "internalType": "string",
          "name": "name_",
          "type": "string"
        },
        {
          "internalType": "string",
          "name": "symbol_",
          "type": "string"
        }
      ],
      "stateMutability": "nonpayable",
      "type": "constructor"
    },
    {
      "inputs": [],
      "name": "AccessControlBadConfirmation",
      "type": "error"
    },
    {
      "inputs": [
        {
          "internalType": "address",
          "name": "account",
          "type": "address"
        },
        {
          "internalType": "bytes32",
          "name": "neededRole",
          "type": "bytes32"
        }
      ],
      "name": "AccessControlUnauthorizedAccount",
      "type": "error"
    },
    {
      "inputs": [
        {
          "internalType": "address",
          "name": "sender",
          "type": "address"
        },
        {
          "internalType": "uint256",
          "name": "tokenId",
          "type": "uint256"
        },
        {
          "internalType": "address",
          "name": "owner",
          "type": "address"
        }
      ],
      "name": "ERC721IncorrectOwner",
      "type": "error"
    },
    {
      "inputs": [
        {
          "internalType": "address",
          "name": "operator",
          "type": "address"
        },
        {
          "internalType": "uint256",
          "name": "tokenId",
          "type": "uint256"
        }
      ],
      "name": "ERC721InsufficientApproval",
      "type": "error"
    },
    {
      "inputs": [
        {
          "internalType": "address",
          "name": "approver",
          "type": "address"
        }
      ],
      "name": "ERC721InvalidApprover",
      "type": "error"
    },
    {
      "inputs": [
        {
          "internalType": "address",
          "name": "operator",
          "type": "address"
        }
      ],
      "name": "ERC721InvalidOperator",
      "type": "error"
    },
    {
      "inputs": [
        {
          "internalType": "address",
          "name": "owner",
          "type": "address"
        }
      ],
      "name": "ERC721InvalidOwner",
      "type": "error"
    },
    {
      "inputs": [
        {
          "internalType": "address",
          "name": "receiver",
          "type": "address"
        }
      ],
      "name": "ERC721InvalidReceiver",
      "type": "error"
    },
    {
      "inputs": [
        {
          "internalType": "address",
          "name": "sender",
          "type": "address"
        }
      ],
      "name": "ERC721InvalidSender",
      "type": "error"
    },
    {
      "inputs": [
        {
          "internalType": "uint256",
          "name": "tokenId",
          "type": "uint256"
        }
      ],
      "name": "ERC721NonexistentToken",
      "type": "error"
    },
    {
      "inputs": [],
      "name": "EnforcedPause",
      "type": "error"
    },
    {
      "inputs": [],
      "name": "ExpectedPause",
      "type": "error"
    },
    {
      "anonymous": false,
      "inputs": [
        {
          "indexed": true,
          "internalType": "address",
          "name": "owner",
          "type": "address"
        },
        {
          "indexed": true,
          "internalType": "address",
          "name": "approved",
          "type": "address"
        },
        {
          "indexed": true,
          "internalType": "uint256",
          "name": "tokenId",
          "type": "uint256"
        }
      ],
      "name": "Approval",
      "type": "event"
    },
    {
      "anonymous": false,
      "inputs": [
        {
          "indexed": true,
          "internalType": "address",
          "name": "owner",
          "type": "address"
        },
        {
          "indexed": true,
          "internalType": "address",
          "name": "operator",
          "type": "address"
        },
        {
          "indexed": false,
          "internalType": "bool",
          "name": "approved",
          "type": "bool"
        }
      ],
      "name": "ApprovalForAll",
      "type": "event"
    },
    {
      "anonymous": false,
      "inputs": [
        {
          "indexed": false,
          "internalType": "address",
          "name": "account",
          "type": "address"
        }
      ],
      "name": "Paused",
      "type": "event"
    },
    {
      "anonymous": false,
      "inputs": [
        {
          "indexed": true,
          "internalType": "bytes32",
          "name": "role",
          "type": "bytes32"
        },
        {
          "indexed": true,
          "internalType": "bytes32",
          "name": "previousAdminRole",
          "type": "bytes32"
        },
        {
          "indexed": true,
          "internalType": "bytes32",
          "name": "newAdminRole",
          "type": "bytes32"
        }
      ],
      "name": "RoleAdminChanged",
      "type": "event"
    },
    {
      "anonymous": false,
      "inputs": [
        {
          "indexed": true,
          "internalType": "bytes32",
          "name": "role",
          "type": "bytes32"
        },
        {
          "indexed": true,
          "internalType": "address",
          "name": "account",
          "type": "address"
        },
        {
          "indexed": true,
          "internalType": "address",
          "name": "sender",
          "type": "address"
        }
      ],
      "name": "RoleGranted",
      "type": "event"
    },
    {
      "anonymous": false,
      "inputs": [
        {
          "indexed": true,
          "internalType": "bytes32",
          "name": "role",
          "type": "bytes32"
        },
        {
          "indexed": true,
          "internalType": "address",
          "name": "account",
          "type": "address"
        },
        {
          "indexed": true,
          "internalType": "address",
          "name": "sender",
          "type": "address"
        }
      ],
      "name": "RoleRevoked",
      "type": "event"
    },
    {
      "anonymous": false,
      "inputs": [
        {
          "indexed": true,
          "internalType": "address",
          "name": "from",
          "type": "address"
        },
        {
          "indexed": true,
          "internalType": "address",
          "name": "to",
          "type": "address"
        },
        {
          "indexed": true,
          "internalType": "uint256",
          "name": "tokenId",
          "type": "uint256"
        }
      ],
      "name": "Transfer",
      "type": "event"
    },
    {
      "anonymous": false,
      "inputs": [
        {
          "indexed": false,
          "internalType": "address",
          "name": "account",
          "type": "address"
        }
      ],
      "name": "Unpaused",
      "type": "event"
    },
    {
      "inputs": [],
      "name": "BURNER_ROLE",
      "outputs": [
        {
          "internalType": "bytes32",
          "name": "",
          "type": "bytes32"
        }
      ],
      "stateMutability": "view",
      "type": "function"
    },
    {
      "inputs": [],
      "name": "DEFAULT_ADMIN_ROLE",
      "outputs": [
        {
          "internalType": "bytes32",
          "name": "",
          "type": "bytes32"
        }
      ],
      "stateMutability": "view",
      "type": "function"
    },
    {
      "inputs": [],
      "name": "PAUSER_ROLE",
      "outputs": [
        {
          "internalType": "bytes32",
          "name": "",
          "type": "bytes32"
        }
      ],
      "stateMutability": "view",
      "type": "function"
    },
    {
      "inputs": [
        {
          "internalType": "address",
          "name": "to",
          "type": "address"
        },
        {
          "internalType": "uint256",
          "name": "tokenId",
          "type": "uint256"
        }
      ],
      "name": "approve",
      "outputs": [],
      "stateMutability": "nonpayable",
      "type": "function"
    },
    {
      "inputs": [
        {
          "internalType": "address",
          "name": "owner",
          "type": "address"
        }
      ],
      "name": "balanceOf",
      "outputs": [
        {
          "internalType": "uint256",
          "name": "",
          "type": "uint256"
        }
      ],
      "stateMutability": "view",
      "type": "function"
    },
    {
      "inputs": [
        {
          "internalType": "uint256",
          "name": "tokenId",
          "type": "uint256"
        }
      ],
      "name": "burn",
      "outputs": [],
      "stateMutability": "nonpayable",
      "type": "function"
    },
    {
      "inputs": [
        {
          "internalType": "uint256",
          "name": "tokenId",
          "type": "uint256"
        }
      ],
      "name": "getApproved",
      "outputs": [
        {
          "internalType": "address",
          "name": "",
          "type": "address"
        }
      ],
      "stateMutability": "view",
      "type": "function"
    },
    {
      "inputs": [
        {
          "internalType": "bytes32",
          "name": "role",
          "type": "bytes32"
        }
      ],
      "name": "getRoleAdmin",
      "outputs": [
        {
          "internalType": "bytes32",
          "name": "",
          "type": "bytes32"
        }
      ],
      "stateMutability": "view",
      "type": "function"
    },
    {
      "inputs": [
        {
          "internalType": "bytes32",
          "name": "role",
          "type": "bytes32"
        },
        {
          "internalType": "address",
          "name": "account",
          "type": "address"
        }
      ],
      "name": "grantRole",
      "outputs": [],
      "stateMutability": "nonpayable",
      "type": "function"
    },
    {
      "inputs": [
        {
          "internalType": "bytes32",
          "name": "role",
          "type": "bytes32"
        },
        {
          "internalType": "address",
          "name": "account",
          "type": "address"
        }
      ],
      "name": "hasRole",
      "outputs": [
        {
          "internalType": "bool",
          "name": "",
          "type": "bool"
        }
      ],
      "stateMutability": "view",
      "type": "function"
    },
    {
      "inputs": [
        {
          "internalType": "address",
          "name": "owner",
          "type": "address"
        },
        {
          "internalType": "address",
          "name": "operator",
          "type": "address"
        }
      ],
      "name": "isApprovedForAll",
      "outputs": [
        {
          "internalType": "bool",
          "name": "",
          "type": "bool"
        }
      ],
      "stateMutability": "view",
      "type": "function"
    },
    {
      "inputs": [],
      "name": "name",
      "outputs": [
        {
          "internalType": "string",
          "name": "",
          "type": "string"
        }
      ],
      "stateMutability": "view",
      "type": "function"
    },
    {
      "inputs": [
        {
          "internalType": "uint256",
          "name": "tokenId",
          "type": "uint256"
        }
      ],
      "name": "ownerOf",
      "outputs": [
        {
          "internalType": "address",
          "name": "",
          "type": "address"
        }
      ],
      "stateMutability": "view",
      "type": "function"
    },
    {
      "inputs": [],
      "name": "pause",
      "outputs": [],
      "stateMutability": "nonpayable",
      "type": "function"
    },
    {
      "inputs": [],
      "name": "paused",
      "outputs": [
        {
          "internalType": "bool",
          "name": "",
          "type": "bool"
        }
      ],
      "stateMutability": "view",
      "type": "function"
    },
    {
      "inputs": [
        {
          "internalType": "bytes32",
          "name": "role",
          "type": "bytes32"
        },
        {
          "internalType": "address",
          "name": "callerConfirmation",
          "type": "address"
        }
      ],
      "name": "renounceRole",
      "outputs": [],
      "stateMutability": "nonpayable",
      "type": "function"
    },
    {
      "inputs": [
        {
          "internalType": "bytes32",
          "name": "role",
          "type": "bytes32"
        },
        {
          "internalType": "address",
          "name": "account",
          "type": "address"
        }
      ],
      "name": "revokeRole",
      "outputs": [],
      "stateMutability": "nonpayable",
      "type": "function"
    },
    {
      "inputs": [
        {
          "internalType": "address",
          "name": "from",
          "type": "address"
        },
        {
          "internalType": "address",
          "name": "to",
          "type": "address"
        },
        {
          "internalType": "uint256",
          "name": "tokenId",
          "type": "uint256"
        }
      ],
      "name": "safeTransferFrom",
      "outputs": [],
      "stateMutability": "nonpayable",
      "type": "function"
    },
    {
      "inputs": [
        {
          "internalType": "address",
          "name": "from",
          "type": "address"
        },
        {
          "internalType": "address",
          "name": "to",
          "type": "address"
        },
        {
          "internalType": "uint256",
          "name": "tokenId",
          "type": "uint256"
        },
        {
          "internalType": "bytes",
          "name": "data",
          "type": "bytes"
        }
      ],
      "name": "safeTransferFrom",
      "outputs": [],
      "stateMutability": "nonpayable",
      "type": "function"
    },
    {
      "inputs": [
        {
          "internalType": "address",
          "name": "operator",
          "type": "address"
        },
        {
          "internalType": "bool",
          "name": "approved",
          "type": "bool"
        }
      ],
      "name": "setApprovalForAll",
      "outputs": [],
      "stateMutability": "nonpayable",
      "type": "function"
    },
    {
      "inputs": [
        {
          "internalType": "bytes4",
          "name": "interfaceId",
          "type": "bytes4"
        }
      ],
      "name": "supportsInterface",
      "outputs": [
        {
          "internalType": "bool",
          "name": "",
          "type": "bool"
        }
      ],
      "stateMutability": "view",
      "type": "function"
    },
    {
      "inputs": [],
      "name": "symbol",
      "outputs": [
        {
          "internalType": "string",
          "name": "",
          "type": "string"
        }
      ],
      "stateMutability": "view",
      "type": "function"
    },
    {
      "inputs": [
        {
          "internalType": "uint256",
          "name": "tokenId",
          "type": "uint256"
        }
      ],
      "name": "tokenURI",
      "outputs": [
        {
          "internalType": "string",
          "name": "",
          "type": "string"
        }
      ],
      "stateMutability": "view",
      "type": "function"
    },
    {
      "inputs": [
        {
          "internalType": "address",
          "name": "from",
          "type": "address"
        },
        {
          "internalType": "address",
          "name": "to",
          "type": "address"
        },
        {
          "internalType": "uint256",
          "name": "tokenId",
          "type": "uint256"
        }
      ],
      "name": "transferFrom",
      "outputs": [],
      "stateMutability": "nonpayable",
      "type": "function"
    },
    {
      "inputs": [],
      "name": "unpause",
      "outputs": [],
      "stateMutability": "nonpayable",
      "type": "function"
    }
  ],
  "bytecode": "0x60806040523480156200001157600080fd5b50604051620018e1380380620018e183398101604081905262000034916200024a565b81818181600062000046838262000343565b50600162000055828262000343565b506200006791506000905033620000d2565b5050506200009c7f3c11d16cbaffd01df69ce1c404f6340ee057498f5f00246190ea54220576a84833620000d260201b60201c565b50620000c97f65d7a28e3265b37a6474929f336521b332c1681b933f6cb9f3376673440d862a33620000d2565b5050506200040f565b60008281526006602090815260408083206001600160a01b038516845290915281205460ff166200017b5760008381526006602090815260408083206001600160a01b03861684529091529020805460ff19166001179055620001323390565b6001600160a01b0316826001600160a01b0316847f2f8788117e7eff1d82e926ec794901d17c78024a50270940304540a733656f0d60405160405180910390a45060016200017f565b5060005b92915050565b634e487b7160e01b600052604160045260246000fd5b600082601f830112620001ad57600080fd5b81516001600160401b0380821115620001ca57620001ca62000185565b604051601f8301601f19908116603f01168101908282118183101715620001f557620001f562000185565b816040528381526020925086838588010111156200021257600080fd5b600091505b8382101562000236578582018301518183018401529082019062000217565b600093810190920192909252949350505050565b600080604083850312156200025e57600080fd5b82516001600160401b03808211156200027657600080fd5b62000284868387016200019b565b935060208501519150808211156200029b57600080fd5b50620002aa858286016200019b565b9150509250929050565b600181811c90821680620002c957607f821691505b602082108103620002ea57634e487b7160e01b600052602260045260246000fd5b50919050565b601f8211156200033e57600081815260208120601f850160051c81016020861015620003195750805b601f850160051c820191505b818110156200033a5782815560010162000325565b5050505b505050565b81516001600160401b038111156200035f576200035f62000185565b6200037781620003708454620002b4565b84620002f0565b602080601f831160018114620003af5760008415620003965750858301515b600019600386901b1c1916600185901b1785556200033a565b600085815260208120601f198616915b82811015620003e057888601518255948401946001909101908401620003bf565b5085821015620003ff5787850151600019600388901b60f8161c191681555b5050505050600190811b01905550565b6114c2806200041f6000396000f3fe608060405234801561001057600080fd5b50600436106101735760003560e01c80635c975abb116100de578063a217fddf11610097578063c87b56dd11610071578063c87b56dd14610336578063d547741f14610349578063e63ab1e91461035c578063e985e9c51461038357600080fd5b8063a217fddf14610308578063a22cb46514610310578063b88d4fde1461032357600080fd5b80635c975abb146102b45780636352211e146102bf57806370a08231146102d25780638456cb59146102e557806391d14854146102ed57806395d89b411461030057600080fd5b8063282c51f311610130578063282c51f3146102395780632f2ff15d1461026057806336568abe146102735780633f4ba83a1461028657806342842e0e1461028e57806342966c68146102a157600080fd5b806301ffc9a71461017857806306fdde03146101a0578063081812fc146101b5578063095ea7b3146101e057806323b872dd146101f5578063248a9ca314610208575b600080fd5b61018b61018636600461110f565b610396565b60405190151581526020015b60405180910390f35b6101a86103a7565b604051610197919061117c565b6101c86101c336600461118f565b610439565b6040516001600160a01b039091168152602001610197565b6101f36101ee3660046111c4565b610462565b005b6101f36102033660046111ee565b610471565b61022b61021636600461118f565b60009081526006602052604090206001015490565b604051908152602001610197565b61022b7f3c11d16cbaffd01df69ce1c404f6340ee057498f5f00246190ea54220576a84881565b6101f361026e36600461122a565b610501565b6101f361028136600461122a565b610526565b6101f361055e565b6101f361029c3660046111ee565b610593565b6101f36102af36600461118f565b6105ae565b60075460ff1661018b565b6101c86102cd36600461118f565b6105e1565b61022b6102e0366004611256565b6105ec565b6101f3610634565b61018b6102fb36600461122a565b610666565b6101a8610691565b61022b600081565b6101f361031e366004611271565b6106a0565b6101f36103313660046112c3565b6106ab565b6101a861034436600461118f565b6106c3565b6101f361035736600461122a565b610738565b61022b7f65d7a28e3265b37a6474929f336521b332c1681b933f6cb9f3376673440d862a81565b61018b61039136600461139f565b61075d565b60006103a18261078b565b92915050565b6060600080546103b6906113c9565b80601f01602080910402602001604051908101604052809291908181526020018280546103e2906113c9565b801561042f5780601f106104045761010080835404028352916020019161042f565b820191906000526020600020905b81548152906001019060200180831161041257829003601f168201915b5050505050905090565b6000610444826107b0565b506000828152600460205260409020546001600160a01b03166103a1565b61046d8282336107e9565b5050565b6001600160a01b0382166104a057604051633250574960e11b8152600060048201526024015b60405180910390fd5b60006104ad8383336107f6565b9050836001600160a01b0316816001600160a01b0316146104fb576040516364283d7b60e01b81526001600160a01b0380861660048301526024820184905282166044820152606401610497565b50505050565b60008281526006602052604090206001015461051c81610857565b6104fb8383610861565b6001600160a01b038116331461054f5760405163334bd91960e11b815260040160405180910390fd5b61055982826108f5565b505050565b7f65d7a28e3265b37a6474929f336521b332c1681b933f6cb9f3376673440d862a61058881610857565b610590610962565b50565b610559838383604051806020016040528060008152506106ab565b7f3c11d16cbaffd01df69ce1c404f6340ee057498f5f00246190ea54220576a8486105d881610857565b61046d826109b4565b60006103a1826107b0565b60006001600160a01b038216610618576040516322718ad960e21b815260006004820152602401610497565b506001600160a01b031660009081526003602052604090205490565b7f65d7a28e3265b37a6474929f336521b332c1681b933f6cb9f3376673440d862a61065e81610857565b6105906109ef565b60009182526006602090815260408084206001600160a01b0393909316845291905290205460ff1690565b6060600180546103b6906113c9565b61046d338383610a2c565b6106b6848484610471565b6104fb3385858585610acb565b60606106ce826107b0565b5060006106e660408051602081019091526000815290565b905060008151116107065760405180602001604052806000815250610731565b8061071084610bf6565b604051602001610721929190611403565b6040516020818303038152906040525b9392505050565b60008281526006602052604090206001015461075381610857565b6104fb83836108f5565b6001600160a01b03918216600090815260056020908152604080832093909416825291909152205460ff1690565b60006001600160e01b03198216637965db0b60e01b14806103a157506103a182610c89565b6000818152600260205260408120546001600160a01b0316806103a157604051637e27328960e01b815260048101849052602401610497565b6105598383836001610cd9565b600061080460075460ff1690565b156108445760405162461bcd60e51b815260206004820152601060248201526f14185d5cd8589b194e881c185d5cd95960821b6044820152606401610497565b61084f848484610ddf565b949350505050565b6105908133610ed8565b600061086d8383610666565b6108ed5760008381526006602090815260408083206001600160a01b03861684529091529020805460ff191660011790556108a53390565b6001600160a01b0316826001600160a01b0316847f2f8788117e7eff1d82e926ec794901d17c78024a50270940304540a733656f0d60405160405180910390a45060016103a1565b5060006103a1565b60006109018383610666565b156108ed5760008381526006602090815260408083206001600160a01b0386168085529252808320805460ff1916905551339286917ff6391f5c32d9c69d2a47ea670b442974b53935d1edc7fd64eb21e047a839171b9190a45060016103a1565b61096a610f11565b6007805460ff191690557f5db9ee0a495bf2e6ff9c91a7834c1ba4fdd244a5e8aa4e537bd38aeae4b073aa335b6040516001600160a01b03909116815260200160405180910390a1565b60006109c360008360006107f6565b90506001600160a01b03811661046d57604051637e27328960e01b815260048101839052602401610497565b6109f7610f36565b6007805460ff191660011790557f62e78cea01bee320cd4e420270b5ea74000d11b0c9f74754ebdbfc544b05a2586109973390565b6001600160a01b038216610a5e57604051630b61174360e31b81526001600160a01b0383166004820152602401610497565b6001600160a01b03838116600081815260056020908152604080832094871680845294825291829020805460ff191686151590811790915591519182527f17307eab39ab6107e8899845ad3d59bd9653f200f220920489ca2b5937696c31910160405180910390a3505050565b6001600160a01b0383163b15610bef57604051630a85bd0160e11b81526001600160a01b0384169063150b7a0290610b0d908890889087908790600401611432565b6020604051808303816000875af1925050508015610b48575060408051601f3d908101601f19168201909252610b459181019061146f565b60015b610bb1573d808015610b76576040519150601f19603f3d011682016040523d82523d6000602084013e610b7b565b606091505b508051600003610ba957604051633250574960e11b81526001600160a01b0385166004820152602401610497565b805160208201fd5b6001600160e01b03198116630a85bd0160e11b14610bed57604051633250574960e11b81526001600160a01b0385166004820152602401610497565b505b5050505050565b60606000610c0383610f5a565b600101905060008167ffffffffffffffff811115610c2357610c236112ad565b6040519080825280601f01601f191660200182016040528015610c4d576020820181803683370190505b5090508181016020015b600019016f181899199a1a9b1b9c1cb0b131b232b360811b600a86061a8153600a8504945084610c5757509392505050565b60006001600160e01b031982166380ac58cd60e01b1480610cba57506001600160e01b03198216635b5e139f60e01b145b806103a157506301ffc9a760e01b6001600160e01b03198316146103a1565b8080610ced57506001600160a01b03821615155b15610daf576000610cfd846107b0565b90506001600160a01b03831615801590610d295750826001600160a01b0316816001600160a01b031614155b8015610d3c5750610d3a818461075d565b155b15610d655760405163a9fbf51f60e01b81526001600160a01b0384166004820152602401610497565b8115610dad5783856001600160a01b0316826001600160a01b03167f8c5be1e5ebec7d5bd14f71427d1e84f3dd0314c0f7b2291e5b200ac8c7c3b92560405160405180910390a45b505b5050600090815260046020526040902080546001600160a01b0319166001600160a01b0392909216919091179055565b6000828152600260205260408120546001600160a01b0390811690831615610e0c57610e0c818486611032565b6001600160a01b03811615610e4a57610e29600085600080610cd9565b6001600160a01b038116600090815260036020526040902080546000190190555b6001600160a01b03851615610e79576001600160a01b0385166000908152600360205260409020805460010190555b60008481526002602052604080822080546001600160a01b0319166001600160a01b0389811691821790925591518793918516917fddf252ad1be2c89b69c2b068fc378daa952ba7f163c4a11628f55a4df523b3ef91a4949350505050565b610ee28282610666565b61046d5760405163e2517d3f60e01b81526001600160a01b038216600482015260248101839052604401610497565b60075460ff16610f3457604051638dfc202b60e01b815260040160405180910390fd5b565b60075460ff1615610f345760405163d93c066560e01b815260040160405180910390fd5b60008072184f03e93ff9f4daa797ed6e38ed64bf6a1f0160401b8310610f995772184f03e93ff9f4daa797ed6e38ed64bf6a1f0160401b830492506040015b6d04ee2d6d415b85acef81000000008310610fc5576d04ee2d6d415b85acef8100000000830492506020015b662386f26fc100008310610fe357662386f26fc10000830492506010015b6305f5e1008310610ffb576305f5e100830492506008015b612710831061100f57612710830492506004015b60648310611021576064830492506002015b600a83106103a15760010192915050565b61103d838383611096565b610559576001600160a01b03831661106b57604051637e27328960e01b815260048101829052602401610497565b60405163177e802f60e01b81526001600160a01b038316600482015260248101829052604401610497565b60006001600160a01b0383161580159061084f5750826001600160a01b0316846001600160a01b031614806110d057506110d0848461075d565b8061084f5750506000908152600460205260409020546001600160a01b03908116911614919050565b6001600160e01b03198116811461059057600080fd5b60006020828403121561112157600080fd5b8135610731816110f9565b60005b8381101561114757818101518382015260200161112f565b50506000910152565b6000815180845261116881602086016020860161112c565b601f01601f19169290920160200192915050565b6020815260006107316020830184611150565b6000602082840312156111a157600080fd5b5035919050565b80356001600160a01b03811681146111bf57600080fd5b919050565b600080604083850312156111d757600080fd5b6111e0836111a8565b946020939093013593505050565b60008060006060848603121561120357600080fd5b61120c846111a8565b925061121a602085016111a8565b9150604084013590509250925092565b6000806040838503121561123d57600080fd5b8235915061124d602084016111a8565b90509250929050565b60006020828403121561126857600080fd5b610731826111a8565b6000806040838503121561128457600080fd5b61128d836111a8565b9150602083013580151581146112a257600080fd5b809150509250929050565b634e487b7160e01b600052604160045260246000fd5b600080600080608085870312156112d957600080fd5b6112e2856111a8565b93506112f0602086016111a8565b925060408501359150606085013567ffffffffffffffff8082111561131457600080fd5b818701915087601f83011261132857600080fd5b81358181111561133a5761133a6112ad565b604051601f8201601f19908116603f01168101908382118183101715611362576113626112ad565b816040528281528a602084870101111561137b57600080fd5b82602086016020830137600060208483010152809550505050505092959194509250565b600080604083850312156113b257600080fd5b6113bb836111a8565b915061124d602084016111a8565b600181811c908216806113dd57607f821691505b6020821081036113fd57634e487b7160e01b600052602260045260246000fd5b50919050565b6000835161141581846020880161112c565b83519083019061142981836020880161112c565b01949350505050565b6001600160a01b038581168252841660208201526040810183905260806060820181905260009061146590830184611150565b9695505050505050565b60006020828403121561148157600080fd5b8151610731816110f956fea26469706673582212201ca15eee0c5f74c09e0a82d82e28291ab4c4733f725b1ed02fdbb87db84bea7d64736f6c63430008140033",
  "linkReferences": {},
  "deployedLinkReferences": {}
}