{
  "_format": "hh-sol-artifact-1",
  "contractName": "ERC721_base",
  "sourceName": "contracts/__generated__/ERC721_base.sol",
  "abi": [
    {
      "inputs": [
        {
          "internalType": "string",
          "name": "name_",
          "type": "string"
        },
        {
          "internalType": "string",
          "name": "symbol_",
          "type": "string"
        }
      ],
      "stateMutability": "nonpayable",
      "type": "constructor"
    },
    {
      "inputs": [],
      "name": "AccessControlBadConfirmation",
      "type": "error"
    },
    {
      "inputs": [
        {
          "internalType": "address",
          "name": "account",
          "type": "address"
        },
        {
          "internalType": "bytes32",
          "name": "neededRole",
          "type": "bytes32"
        }
      ],
      "name": "AccessControlUnauthorizedAccount",
      "type": "error"
    },
    {
      "inputs": [
        {
          "internalType": "address",
          "name": "sender",
          "type": "address"
        },
        {
          "internalType": "uint256",
          "name": "tokenId",
          "type": "uint256"
        },
        {
          "internalType": "address",
          "name": "owner",
          "type": "address"
        }
      ],
      "name": "ERC721IncorrectOwner",
      "type": "error"
    },
    {
      "inputs": [
        {
          "internalType": "address",
          "name": "operator",
          "type": "address"
        },
        {
          "internalType": "uint256",
          "name": "tokenId",
          "type": "uint256"
        }
      ],
      "name": "ERC721InsufficientApproval",
      "type": "error"
    },
    {
      "inputs": [
        {
          "internalType": "address",
          "name": "approver",
          "type": "address"
        }
      ],
      "name": "ERC721InvalidApprover",
      "type": "error"
    },
    {
      "inputs": [
        {
          "internalType": "address",
          "name": "operator",
          "type": "address"
        }
      ],
      "name": "ERC721InvalidOperator",
      "type": "error"
    },
    {
      "inputs": [
        {
          "internalType": "address",
          "name": "owner",
          "type": "address"
        }
      ],
      "name": "ERC721InvalidOwner",
      "type": "error"
    },
    {
      "inputs": [
        {
          "internalType": "address",
          "name": "receiver",
          "type": "address"
        }
      ],
      "name": "ERC721InvalidReceiver",
      "type": "error"
    },
    {
      "inputs": [
        {
          "internalType": "address",
          "name": "sender",
          "type": "address"
        }
      ],
      "name": "ERC721InvalidSender",
      "type": "error"
    },
    {
      "inputs": [
        {
          "internalType": "uint256",
          "name": "tokenId",
          "type": "uint256"
        }
      ],
      "name": "ERC721NonexistentToken",
      "type": "error"
    },
    {
      "anonymous": false,
      "inputs": [
        {
          "indexed": true,
          "internalType": "address",
          "name": "owner",
          "type": "address"
        },
        {
          "indexed": true,
          "internalType": "address",
          "name": "approved",
          "type": "address"
        },
        {
          "indexed": true,
          "internalType": "uint256",
          "name": "tokenId",
          "type": "uint256"
        }
      ],
      "name": "Approval",
      "type": "event"
    },
    {
      "anonymous": false,
      "inputs": [
        {
          "indexed": true,
          "internalType": "address",
          "name": "owner",
          "type": "address"
        },
        {
          "indexed": true,
          "internalType": "address",
          "name": "operator",
          "type": "address"
        },
        {
          "indexed": false,
          "internalType": "bool",
          "name": "approved",
          "type": "bool"
        }
      ],
      "name": "ApprovalForAll",
      "type": "event"
    },
    {
      "anonymous": false,
      "inputs": [
        {
          "indexed": true,
          "internalType": "bytes32",
          "name": "role",
          "type": "bytes32"
        },
        {
          "indexed": true,
          "internalType": "bytes32",
          "name": "previousAdminRole",
          "type": "bytes32"
        },
        {
          "indexed": true,
          "internalType": "bytes32",
          "name": "newAdminRole",
          "type": "bytes32"
        }
      ],
      "name": "RoleAdminChanged",
      "type": "event"
    },
    {
      "anonymous": false,
      "inputs": [
        {
          "indexed": true,
          "internalType": "bytes32",
          "name": "role",
          "type": "bytes32"
        },
        {
          "indexed": true,
          "internalType": "address",
          "name": "account",
          "type": "address"
        },
        {
          "indexed": true,
          "internalType": "address",
          "name": "sender",
          "type": "address"
        }
      ],
      "name": "RoleGranted",
      "type": "event"
    },
    {
      "anonymous": false,
      "inputs": [
        {
          "indexed": true,
          "internalType": "bytes32",
          "name": "role",
          "type": "bytes32"
        },
        {
          "indexed": true,
          "internalType": "address",
          "name": "account",
          "type": "address"
        },
        {
          "indexed": true,
          "internalType": "address",
          "name": "sender",
          "type": "address"
        }
      ],
      "name": "RoleRevoked",
      "type": "event"
    },
    {
      "anonymous": false,
      "inputs": [
        {
          "indexed": true,
          "internalType": "address",
          "name": "from",
          "type": "address"
        },
        {
          "indexed": true,
          "internalType": "address",
          "name": "to",
          "type": "address"
        },
        {
          "indexed": true,
          "internalType": "uint256",
          "name": "tokenId",
          "type": "uint256"
        }
      ],
      "name": "Transfer",
      "type": "event"
    },
    {
      "inputs": [],
      "name": "DEFAULT_ADMIN_ROLE",
      "outputs": [
        {
          "internalType": "bytes32",
          "name": "",
          "type": "bytes32"
        }
      ],
      "stateMutability": "view",
      "type": "function"
    },
    {
      "inputs": [
        {
          "internalType": "address",
          "name": "to",
          "type": "address"
        },
        {
          "internalType": "uint256",
          "name": "tokenId",
          "type": "uint256"
        }
      ],
      "name": "approve",
      "outputs": [],
      "stateMutability": "nonpayable",
      "type": "function"
    },
    {
      "inputs": [
        {
          "internalType": "address",
          "name": "owner",
          "type": "address"
        }
      ],
      "name": "balanceOf",
      "outputs": [
        {
          "internalType": "uint256",
          "name": "",
          "type": "uint256"
        }
      ],
      "stateMutability": "view",
      "type": "function"
    },
    {
      "inputs": [
        {
          "internalType": "uint256",
          "name": "tokenId",
          "type": "uint256"
        }
      ],
      "name": "getApproved",
      "outputs": [
        {
          "internalType": "address",
          "name": "",
          "type": "address"
        }
      ],
      "stateMutability": "view",
      "type": "function"
    },
    {
      "inputs": [
        {
          "internalType": "bytes32",
          "name": "role",
          "type": "bytes32"
        }
      ],
      "name": "getRoleAdmin",
      "outputs": [
        {
          "internalType": "bytes32",
          "name": "",
          "type": "bytes32"
        }
      ],
      "stateMutability": "view",
      "type": "function"
    },
    {
      "inputs": [
        {
          "internalType": "bytes32",
          "name": "role",
          "type": "bytes32"
        },
        {
          "internalType": "address",
          "name": "account",
          "type": "address"
        }
      ],
      "name": "grantRole",
      "outputs": [],
      "stateMutability": "nonpayable",
      "type": "function"
    },
    {
      "inputs": [
        {
          "internalType": "bytes32",
          "name": "role",
          "type": "bytes32"
        },
        {
          "internalType": "address",
          "name": "account",
          "type": "address"
        }
      ],
      "name": "hasRole",
      "outputs": [
        {
          "internalType": "bool",
          "name": "",
          "type": "bool"
        }
      ],
      "stateMutability": "view",
      "type": "function"
    },
    {
      "inputs": [
        {
          "internalType": "address",
          "name": "owner",
          "type": "address"
        },
        {
          "internalType": "address",
          "name": "operator",
          "type": "address"
        }
      ],
      "name": "isApprovedForAll",
      "outputs": [
        {
          "internalType": "bool",
          "name": "",
          "type": "bool"
        }
      ],
      "stateMutability": "view",
      "type": "function"
    },
    {
      "inputs": [],
      "name": "name",
      "outputs": [
        {
          "internalType": "string",
          "name": "",
          "type": "string"
        }
      ],
      "stateMutability": "view",
      "type": "function"
    },
    {
      "inputs": [
        {
          "internalType": "uint256",
          "name": "tokenId",
          "type": "uint256"
        }
      ],
      "name": "ownerOf",
      "outputs": [
        {
          "internalType": "address",
          "name": "",
          "type": "address"
        }
      ],
      "stateMutability": "view",
      "type": "function"
    },
    {
      "inputs": [
        {
          "internalType": "bytes32",
          "name": "role",
          "type": "bytes32"
        },
        {
          "internalType": "address",
          "name": "callerConfirmation",
          "type": "address"
        }
      ],
      "name": "renounceRole",
      "outputs": [],
      "stateMutability": "nonpayable",
      "type": "function"
    },
    {
      "inputs": [
        {
          "internalType": "bytes32",
          "name": "role",
          "type": "bytes32"
        },
        {
          "internalType": "address",
          "name": "account",
          "type": "address"
        }
      ],
      "name": "revokeRole",
      "outputs": [],
      "stateMutability": "nonpayable",
      "type": "function"
    },
    {
      "inputs": [
        {
          "internalType": "address",
          "name": "from",
          "type": "address"
        },
        {
          "internalType": "address",
          "name": "to",
          "type": "address"
        },
        {
          "internalType": "uint256",
          "name": "tokenId",
          "type": "uint256"
        }
      ],
      "name": "safeTransferFrom",
      "outputs": [],
      "stateMutability": "nonpayable",
      "type": "function"
    },
    {
      "inputs": [
        {
          "internalType": "address",
          "name": "from",
          "type": "address"
        },
        {
          "internalType": "address",
          "name": "to",
          "type": "address"
        },
        {
          "internalType": "uint256",
          "name": "tokenId",
          "type": "uint256"
        },
        {
          "internalType": "bytes",
          "name": "data",
          "type": "bytes"
        }
      ],
      "name": "safeTransferFrom",
      "outputs": [],
      "stateMutability": "nonpayable",
      "type": "function"
    },
    {
      "inputs": [
        {
          "internalType": "address",
          "name": "operator",
          "type": "address"
        },
        {
          "internalType": "bool",
          "name": "approved",
          "type": "bool"
        }
      ],
      "name": "setApprovalForAll",
      "outputs": [],
      "stateMutability": "nonpayable",
      "type": "function"
    },
    {
      "inputs": [
        {
          "internalType": "bytes4",
          "name": "interfaceId",
          "type": "bytes4"
        }
      ],
      "name": "supportsInterface",
      "outputs": [
        {
          "internalType": "bool",
          "name": "",
          "type": "bool"
        }
      ],
      "stateMutability": "view",
      "type": "function"
    },
    {
      "inputs": [],
      "name": "symbol",
      "outputs": [
        {
          "internalType": "string",
          "name": "",
          "type": "string"
        }
      ],
      "stateMutability": "view",
      "type": "function"
    },
    {
      "inputs": [
        {
          "internalType": "uint256",
          "name": "tokenId",
          "type": "uint256"
        }
      ],
      "name": "tokenURI",
      "outputs": [
        {
          "internalType": "string",
          "name": "",
          "type": "string"
        }
      ],
      "stateMutability": "view",
      "type": "function"
    },
    {
      "inputs": [
        {
          "internalType": "address",
          "name": "from",
          "type": "address"
        },
        {
          "internalType": "address",
          "name": "to",
          "type": "address"
        },
        {
          "internalType": "uint256",
          "name": "tokenId",
          "type": "uint256"
        }
      ],
      "name": "transferFrom",
      "outputs": [],
      "stateMutability": "nonpayable",
      "type": "function"
    }
  ],
  "bytecode": "0x60806040523480156200001157600080fd5b50604051620015ab380380620015ab8339810160408190526200003491620001ea565b818181816000620000468382620002e3565b506001620000558282620002e3565b50620000679150600090503362000072565b5050505050620003af565b60008281526006602090815260408083206001600160a01b038516845290915281205460ff166200011b5760008381526006602090815260408083206001600160a01b03861684529091529020805460ff19166001179055620000d23390565b6001600160a01b0316826001600160a01b0316847f2f8788117e7eff1d82e926ec794901d17c78024a50270940304540a733656f0d60405160405180910390a45060016200011f565b5060005b92915050565b634e487b7160e01b600052604160045260246000fd5b600082601f8301126200014d57600080fd5b81516001600160401b03808211156200016a576200016a62000125565b604051601f8301601f19908116603f0116810190828211818310171562000195576200019562000125565b81604052838152602092508683858801011115620001b257600080fd5b600091505b83821015620001d65785820183015181830184015290820190620001b7565b600093810190920192909252949350505050565b60008060408385031215620001fe57600080fd5b82516001600160401b03808211156200021657600080fd5b62000224868387016200013b565b935060208501519150808211156200023b57600080fd5b506200024a858286016200013b565b9150509250929050565b600181811c908216806200026957607f821691505b6020821081036200028a57634e487b7160e01b600052602260045260246000fd5b50919050565b601f821115620002de57600081815260208120601f850160051c81016020861015620002b95750805b601f850160051c820191505b81811015620002da57828155600101620002c5565b5050505b505050565b81516001600160401b03811115620002ff57620002ff62000125565b620003178162000310845462000254565b8462000290565b602080601f8311600181146200034f5760008415620003365750858301515b600019600386901b1c1916600185901b178555620002da565b600085815260208120601f198616915b8281101562000380578886015182559484019460019091019084016200035f565b50858210156200039f5787850151600019600388901b60f8161c191681555b5050505050600190811b01905550565b6111ec80620003bf6000396000f3fe608060405234801561001057600080fd5b50600436106101215760003560e01c80636352211e116100ad578063a22cb46511610071578063a22cb46514610269578063b88d4fde1461027c578063c87b56dd1461028f578063d547741f146102a2578063e985e9c5146102b557600080fd5b80636352211e1461022057806370a082311461023357806391d148541461024657806395d89b4114610259578063a217fddf1461026157600080fd5b806323b872dd116100f457806323b872dd146101a3578063248a9ca3146101b65780632f2ff15d146101e757806336568abe146101fa57806342842e0e1461020d57600080fd5b806301ffc9a71461012657806306fdde031461014e578063081812fc14610163578063095ea7b31461018e575b600080fd5b610139610134366004610e39565b6102c8565b60405190151581526020015b60405180910390f35b6101566102d9565b6040516101459190610ea6565b610176610171366004610eb9565b61036b565b6040516001600160a01b039091168152602001610145565b6101a161019c366004610eee565b610394565b005b6101a16101b1366004610f18565b6103a3565b6101d96101c4366004610eb9565b60009081526006602052604090206001015490565b604051908152602001610145565b6101a16101f5366004610f54565b610433565b6101a1610208366004610f54565b610458565b6101a161021b366004610f18565b610490565b61017661022e366004610eb9565b6104ab565b6101d9610241366004610f80565b6104b6565b610139610254366004610f54565b6104fe565b610156610529565b6101d9600081565b6101a1610277366004610f9b565b610538565b6101a161028a366004610fed565b610543565b61015661029d366004610eb9565b61055b565b6101a16102b0366004610f54565b6105d0565b6101396102c33660046110c9565b6105f5565b60006102d382610623565b92915050565b6060600080546102e8906110f3565b80601f0160208091040260200160405190810160405280929190818152602001828054610314906110f3565b80156103615780601f1061033657610100808354040283529160200191610361565b820191906000526020600020905b81548152906001019060200180831161034457829003601f168201915b5050505050905090565b600061037682610648565b506000828152600460205260409020546001600160a01b03166102d3565b61039f828233610681565b5050565b6001600160a01b0382166103d257604051633250574960e11b8152600060048201526024015b60405180910390fd5b60006103df83833361068e565b9050836001600160a01b0316816001600160a01b03161461042d576040516364283d7b60e01b81526001600160a01b03808616600483015260248201849052821660448201526064016103c9565b50505050565b60008281526006602052604090206001015461044e81610787565b61042d8383610794565b6001600160a01b03811633146104815760405163334bd91960e11b815260040160405180910390fd5b61048b8282610828565b505050565b61048b83838360405180602001604052806000815250610543565b60006102d382610648565b60006001600160a01b0382166104e2576040516322718ad960e21b8152600060048201526024016103c9565b506001600160a01b031660009081526003602052604090205490565b60009182526006602090815260408084206001600160a01b0393909316845291905290205460ff1690565b6060600180546102e8906110f3565b61039f338383610895565b61054e8484846103a3565b61042d3385858585610934565b606061056682610648565b50600061057e60408051602081019091526000815290565b9050600081511161059e57604051806020016040528060008152506105c9565b806105a884610a5f565b6040516020016105b992919061112d565b6040516020818303038152906040525b9392505050565b6000828152600660205260409020600101546105eb81610787565b61042d8383610828565b6001600160a01b03918216600090815260056020908152604080832093909416825291909152205460ff1690565b60006001600160e01b03198216637965db0b60e01b14806102d357506102d382610af2565b6000818152600260205260408120546001600160a01b0316806102d357604051637e27328960e01b8152600481018490526024016103c9565b61048b8383836001610b42565b6000828152600260205260408120546001600160a01b03908116908316156106bb576106bb818486610c48565b6001600160a01b038116156106f9576106d8600085600080610b42565b6001600160a01b038116600090815260036020526040902080546000190190555b6001600160a01b03851615610728576001600160a01b0385166000908152600360205260409020805460010190555b60008481526002602052604080822080546001600160a01b0319166001600160a01b0389811691821790925591518793918516917fddf252ad1be2c89b69c2b068fc378daa952ba7f163c4a11628f55a4df523b3ef91a4949350505050565b6107918133610cac565b50565b60006107a083836104fe565b6108205760008381526006602090815260408083206001600160a01b03861684529091529020805460ff191660011790556107d83390565b6001600160a01b0316826001600160a01b0316847f2f8788117e7eff1d82e926ec794901d17c78024a50270940304540a733656f0d60405160405180910390a45060016102d3565b5060006102d3565b600061083483836104fe565b156108205760008381526006602090815260408083206001600160a01b0386168085529252808320805460ff1916905551339286917ff6391f5c32d9c69d2a47ea670b442974b53935d1edc7fd64eb21e047a839171b9190a45060016102d3565b6001600160a01b0382166108c757604051630b61174360e31b81526001600160a01b03831660048201526024016103c9565b6001600160a01b03838116600081815260056020908152604080832094871680845294825291829020805460ff191686151590811790915591519182527f17307eab39ab6107e8899845ad3d59bd9653f200f220920489ca2b5937696c31910160405180910390a3505050565b6001600160a01b0383163b15610a5857604051630a85bd0160e11b81526001600160a01b0384169063150b7a029061097690889088908790879060040161115c565b6020604051808303816000875af19250505080156109b1575060408051601f3d908101601f191682019092526109ae91810190611199565b60015b610a1a573d8080156109df576040519150601f19603f3d011682016040523d82523d6000602084013e6109e4565b606091505b508051600003610a1257604051633250574960e11b81526001600160a01b03851660048201526024016103c9565b805160208201fd5b6001600160e01b03198116630a85bd0160e11b14610a5657604051633250574960e11b81526001600160a01b03851660048201526024016103c9565b505b5050505050565b60606000610a6c83610ce5565b600101905060008167ffffffffffffffff811115610a8c57610a8c610fd7565b6040519080825280601f01601f191660200182016040528015610ab6576020820181803683370190505b5090508181016020015b600019016f181899199a1a9b1b9c1cb0b131b232b360811b600a86061a8153600a8504945084610ac057509392505050565b60006001600160e01b031982166380ac58cd60e01b1480610b2357506001600160e01b03198216635b5e139f60e01b145b806102d357506301ffc9a760e01b6001600160e01b03198316146102d3565b8080610b5657506001600160a01b03821615155b15610c18576000610b6684610648565b90506001600160a01b03831615801590610b925750826001600160a01b0316816001600160a01b031614155b8015610ba55750610ba381846105f5565b155b15610bce5760405163a9fbf51f60e01b81526001600160a01b03841660048201526024016103c9565b8115610c165783856001600160a01b0316826001600160a01b03167f8c5be1e5ebec7d5bd14f71427d1e84f3dd0314c0f7b2291e5b200ac8c7c3b92560405160405180910390a45b505b5050600090815260046020526040902080546001600160a01b0319166001600160a01b0392909216919091179055565b610c53838383610dbd565b61048b576001600160a01b038316610c8157604051637e27328960e01b8152600481018290526024016103c9565b60405163177e802f60e01b81526001600160a01b0383166004820152602481018290526044016103c9565b610cb682826104fe565b61039f5760405163e2517d3f60e01b81526001600160a01b0382166004820152602481018390526044016103c9565b60008072184f03e93ff9f4daa797ed6e38ed64bf6a1f0160401b8310610d245772184f03e93ff9f4daa797ed6e38ed64bf6a1f0160401b830492506040015b6d04ee2d6d415b85acef81000000008310610d50576d04ee2d6d415b85acef8100000000830492506020015b662386f26fc100008310610d6e57662386f26fc10000830492506010015b6305f5e1008310610d86576305f5e100830492506008015b6127108310610d9a57612710830492506004015b60648310610dac576064830492506002015b600a83106102d35760010192915050565b60006001600160a01b03831615801590610e1b5750826001600160a01b0316846001600160a01b03161480610df75750610df784846105f5565b80610e1b57506000828152600460205260409020546001600160a01b038481169116145b949350505050565b6001600160e01b03198116811461079157600080fd5b600060208284031215610e4b57600080fd5b81356105c981610e23565b60005b83811015610e71578181015183820152602001610e59565b50506000910152565b60008151808452610e92816020860160208601610e56565b601f01601f19169290920160200192915050565b6020815260006105c96020830184610e7a565b600060208284031215610ecb57600080fd5b5035919050565b80356001600160a01b0381168114610ee957600080fd5b919050565b60008060408385031215610f0157600080fd5b610f0a83610ed2565b946020939093013593505050565b600080600060608486031215610f2d57600080fd5b610f3684610ed2565b9250610f4460208501610ed2565b9150604084013590509250925092565b60008060408385031215610f6757600080fd5b82359150610f7760208401610ed2565b90509250929050565b600060208284031215610f9257600080fd5b6105c982610ed2565b60008060408385031215610fae57600080fd5b610fb783610ed2565b915060208301358015158114610fcc57600080fd5b809150509250929050565b634e487b7160e01b600052604160045260246000fd5b6000806000806080858703121561100357600080fd5b61100c85610ed2565b935061101a60208601610ed2565b925060408501359150606085013567ffffffffffffffff8082111561103e57600080fd5b818701915087601f83011261105257600080fd5b81358181111561106457611064610fd7565b604051601f8201601f19908116603f0116810190838211818310171561108c5761108c610fd7565b816040528281528a60208487010111156110a557600080fd5b82602086016020830137600060208483010152809550505050505092959194509250565b600080604083850312156110dc57600080fd5b6110e583610ed2565b9150610f7760208401610ed2565b600181811c9082168061110757607f821691505b60208210810361112757634e487b7160e01b600052602260045260246000fd5b50919050565b6000835161113f818460208801610e56565b835190830190611153818360208801610e56565b01949350505050565b6001600160a01b038581168252841660208201526040810183905260806060820181905260009061118f90830184610e7a565b9695505050505050565b6000602082840312156111ab57600080fd5b81516105c981610e2356fea264697066735822122087e238dcdbc429cff2448bf8b9639a23e3123f46add4ee3db175bef0cb940e2f64736f6c63430008140033",
  "linkReferences": {},
  "deployedLinkReferences": {}
}