{
  "_format": "hh-sol-artifact-1",
  "contractName": "ERC721_burnable",
  "sourceName": "contracts/__generated__/ERC721_burnable.sol",
  "abi": [
    {
      "inputs": [
        {
          "internalType": "string",
          "name": "name_",
          "type": "string"
        },
        {
          "internalType": "string",
          "name": "symbol_",
          "type": "string"
        }
      ],
      "stateMutability": "nonpayable",
      "type": "constructor"
    },
    {
      "inputs": [],
      "name": "AccessControlBadConfirmation",
      "type": "error"
    },
    {
      "inputs": [
        {
          "internalType": "address",
          "name": "account",
          "type": "address"
        },
        {
          "internalType": "bytes32",
          "name": "neededRole",
          "type": "bytes32"
        }
      ],
      "name": "AccessControlUnauthorizedAccount",
      "type": "error"
    },
    {
      "inputs": [
        {
          "internalType": "address",
          "name": "sender",
          "type": "address"
        },
        {
          "internalType": "uint256",
          "name": "tokenId",
          "type": "uint256"
        },
        {
          "internalType": "address",
          "name": "owner",
          "type": "address"
        }
      ],
      "name": "ERC721IncorrectOwner",
      "type": "error"
    },
    {
      "inputs": [
        {
          "internalType": "address",
          "name": "operator",
          "type": "address"
        },
        {
          "internalType": "uint256",
          "name": "tokenId",
          "type": "uint256"
        }
      ],
      "name": "ERC721InsufficientApproval",
      "type": "error"
    },
    {
      "inputs": [
        {
          "internalType": "address",
          "name": "approver",
          "type": "address"
        }
      ],
      "name": "ERC721InvalidApprover",
      "type": "error"
    },
    {
      "inputs": [
        {
          "internalType": "address",
          "name": "operator",
          "type": "address"
        }
      ],
      "name": "ERC721InvalidOperator",
      "type": "error"
    },
    {
      "inputs": [
        {
          "internalType": "address",
          "name": "owner",
          "type": "address"
        }
      ],
      "name": "ERC721InvalidOwner",
      "type": "error"
    },
    {
      "inputs": [
        {
          "internalType": "address",
          "name": "receiver",
          "type": "address"
        }
      ],
      "name": "ERC721InvalidReceiver",
      "type": "error"
    },
    {
      "inputs": [
        {
          "internalType": "address",
          "name": "sender",
          "type": "address"
        }
      ],
      "name": "ERC721InvalidSender",
      "type": "error"
    },
    {
      "inputs": [
        {
          "internalType": "uint256",
          "name": "tokenId",
          "type": "uint256"
        }
      ],
      "name": "ERC721NonexistentToken",
      "type": "error"
    },
    {
      "anonymous": false,
      "inputs": [
        {
          "indexed": true,
          "internalType": "address",
          "name": "owner",
          "type": "address"
        },
        {
          "indexed": true,
          "internalType": "address",
          "name": "approved",
          "type": "address"
        },
        {
          "indexed": true,
          "internalType": "uint256",
          "name": "tokenId",
          "type": "uint256"
        }
      ],
      "name": "Approval",
      "type": "event"
    },
    {
      "anonymous": false,
      "inputs": [
        {
          "indexed": true,
          "internalType": "address",
          "name": "owner",
          "type": "address"
        },
        {
          "indexed": true,
          "internalType": "address",
          "name": "operator",
          "type": "address"
        },
        {
          "indexed": false,
          "internalType": "bool",
          "name": "approved",
          "type": "bool"
        }
      ],
      "name": "ApprovalForAll",
      "type": "event"
    },
    {
      "anonymous": false,
      "inputs": [
        {
          "indexed": true,
          "internalType": "bytes32",
          "name": "role",
          "type": "bytes32"
        },
        {
          "indexed": true,
          "internalType": "bytes32",
          "name": "previousAdminRole",
          "type": "bytes32"
        },
        {
          "indexed": true,
          "internalType": "bytes32",
          "name": "newAdminRole",
          "type": "bytes32"
        }
      ],
      "name": "RoleAdminChanged",
      "type": "event"
    },
    {
      "anonymous": false,
      "inputs": [
        {
          "indexed": true,
          "internalType": "bytes32",
          "name": "role",
          "type": "bytes32"
        },
        {
          "indexed": true,
          "internalType": "address",
          "name": "account",
          "type": "address"
        },
        {
          "indexed": true,
          "internalType": "address",
          "name": "sender",
          "type": "address"
        }
      ],
      "name": "RoleGranted",
      "type": "event"
    },
    {
      "anonymous": false,
      "inputs": [
        {
          "indexed": true,
          "internalType": "bytes32",
          "name": "role",
          "type": "bytes32"
        },
        {
          "indexed": true,
          "internalType": "address",
          "name": "account",
          "type": "address"
        },
        {
          "indexed": true,
          "internalType": "address",
          "name": "sender",
          "type": "address"
        }
      ],
      "name": "RoleRevoked",
      "type": "event"
    },
    {
      "anonymous": false,
      "inputs": [
        {
          "indexed": true,
          "internalType": "address",
          "name": "from",
          "type": "address"
        },
        {
          "indexed": true,
          "internalType": "address",
          "name": "to",
          "type": "address"
        },
        {
          "indexed": true,
          "internalType": "uint256",
          "name": "tokenId",
          "type": "uint256"
        }
      ],
      "name": "Transfer",
      "type": "event"
    },
    {
      "inputs": [],
      "name": "BURNER_ROLE",
      "outputs": [
        {
          "internalType": "bytes32",
          "name": "",
          "type": "bytes32"
        }
      ],
      "stateMutability": "view",
      "type": "function"
    },
    {
      "inputs": [],
      "name": "DEFAULT_ADMIN_ROLE",
      "outputs": [
        {
          "internalType": "bytes32",
          "name": "",
          "type": "bytes32"
        }
      ],
      "stateMutability": "view",
      "type": "function"
    },
    {
      "inputs": [
        {
          "internalType": "address",
          "name": "to",
          "type": "address"
        },
        {
          "internalType": "uint256",
          "name": "tokenId",
          "type": "uint256"
        }
      ],
      "name": "approve",
      "outputs": [],
      "stateMutability": "nonpayable",
      "type": "function"
    },
    {
      "inputs": [
        {
          "internalType": "address",
          "name": "owner",
          "type": "address"
        }
      ],
      "name": "balanceOf",
      "outputs": [
        {
          "internalType": "uint256",
          "name": "",
          "type": "uint256"
        }
      ],
      "stateMutability": "view",
      "type": "function"
    },
    {
      "inputs": [
        {
          "internalType": "uint256",
          "name": "tokenId",
          "type": "uint256"
        }
      ],
      "name": "burn",
      "outputs": [],
      "stateMutability": "nonpayable",
      "type": "function"
    },
    {
      "inputs": [
        {
          "internalType": "uint256",
          "name": "tokenId",
          "type": "uint256"
        }
      ],
      "name": "getApproved",
      "outputs": [
        {
          "internalType": "address",
          "name": "",
          "type": "address"
        }
      ],
      "stateMutability": "view",
      "type": "function"
    },
    {
      "inputs": [
        {
          "internalType": "bytes32",
          "name": "role",
          "type": "bytes32"
        }
      ],
      "name": "getRoleAdmin",
      "outputs": [
        {
          "internalType": "bytes32",
          "name": "",
          "type": "bytes32"
        }
      ],
      "stateMutability": "view",
      "type": "function"
    },
    {
      "inputs": [
        {
          "internalType": "bytes32",
          "name": "role",
          "type": "bytes32"
        },
        {
          "internalType": "address",
          "name": "account",
          "type": "address"
        }
      ],
      "name": "grantRole",
      "outputs": [],
      "stateMutability": "nonpayable",
      "type": "function"
    },
    {
      "inputs": [
        {
          "internalType": "bytes32",
          "name": "role",
          "type": "bytes32"
        },
        {
          "internalType": "address",
          "name": "account",
          "type": "address"
        }
      ],
      "name": "hasRole",
      "outputs": [
        {
          "internalType": "bool",
          "name": "",
          "type": "bool"
        }
      ],
      "stateMutability": "view",
      "type": "function"
    },
    {
      "inputs": [
        {
          "internalType": "address",
          "name": "owner",
          "type": "address"
        },
        {
          "internalType": "address",
          "name": "operator",
          "type": "address"
        }
      ],
      "name": "isApprovedForAll",
      "outputs": [
        {
          "internalType": "bool",
          "name": "",
          "type": "bool"
        }
      ],
      "stateMutability": "view",
      "type": "function"
    },
    {
      "inputs": [],
      "name": "name",
      "outputs": [
        {
          "internalType": "string",
          "name": "",
          "type": "string"
        }
      ],
      "stateMutability": "view",
      "type": "function"
    },
    {
      "inputs": [
        {
          "internalType": "uint256",
          "name": "tokenId",
          "type": "uint256"
        }
      ],
      "name": "ownerOf",
      "outputs": [
        {
          "internalType": "address",
          "name": "",
          "type": "address"
        }
      ],
      "stateMutability": "view",
      "type": "function"
    },
    {
      "inputs": [
        {
          "internalType": "bytes32",
          "name": "role",
          "type": "bytes32"
        },
        {
          "internalType": "address",
          "name": "callerConfirmation",
          "type": "address"
        }
      ],
      "name": "renounceRole",
      "outputs": [],
      "stateMutability": "nonpayable",
      "type": "function"
    },
    {
      "inputs": [
        {
          "internalType": "bytes32",
          "name": "role",
          "type": "bytes32"
        },
        {
          "internalType": "address",
          "name": "account",
          "type": "address"
        }
      ],
      "name": "revokeRole",
      "outputs": [],
      "stateMutability": "nonpayable",
      "type": "function"
    },
    {
      "inputs": [
        {
          "internalType": "address",
          "name": "from",
          "type": "address"
        },
        {
          "internalType": "address",
          "name": "to",
          "type": "address"
        },
        {
          "internalType": "uint256",
          "name": "tokenId",
          "type": "uint256"
        }
      ],
      "name": "safeTransferFrom",
      "outputs": [],
      "stateMutability": "nonpayable",
      "type": "function"
    },
    {
      "inputs": [
        {
          "internalType": "address",
          "name": "from",
          "type": "address"
        },
        {
          "internalType": "address",
          "name": "to",
          "type": "address"
        },
        {
          "internalType": "uint256",
          "name": "tokenId",
          "type": "uint256"
        },
        {
          "internalType": "bytes",
          "name": "data",
          "type": "bytes"
        }
      ],
      "name": "safeTransferFrom",
      "outputs": [],
      "stateMutability": "nonpayable",
      "type": "function"
    },
    {
      "inputs": [
        {
          "internalType": "address",
          "name": "operator",
          "type": "address"
        },
        {
          "internalType": "bool",
          "name": "approved",
          "type": "bool"
        }
      ],
      "name": "setApprovalForAll",
      "outputs": [],
      "stateMutability": "nonpayable",
      "type": "function"
    },
    {
      "inputs": [
        {
          "internalType": "bytes4",
          "name": "interfaceId",
          "type": "bytes4"
        }
      ],
      "name": "supportsInterface",
      "outputs": [
        {
          "internalType": "bool",
          "name": "",
          "type": "bool"
        }
      ],
      "stateMutability": "view",
      "type": "function"
    },
    {
      "inputs": [],
      "name": "symbol",
      "outputs": [
        {
          "internalType": "string",
          "name": "",
          "type": "string"
        }
      ],
      "stateMutability": "view",
      "type": "function"
    },
    {
      "inputs": [
        {
          "internalType": "uint256",
          "name": "tokenId",
          "type": "uint256"
        }
      ],
      "name": "tokenURI",
      "outputs": [
        {
          "internalType": "string",
          "name": "",
          "type": "string"
        }
      ],
      "stateMutability": "view",
      "type": "function"
    },
    {
      "inputs": [
        {
          "internalType": "address",
          "name": "from",
          "type": "address"
        },
        {
          "internalType": "address",
          "name": "to",
          "type": "address"
        },
        {
          "internalType": "uint256",
          "name": "tokenId",
          "type": "uint256"
        }
      ],
      "name": "transferFrom",
      "outputs": [],
      "stateMutability": "nonpayable",
      "type": "function"
    }
  ],
  "bytecode": "0x60806040523480156200001157600080fd5b506040516200169c3803806200169c83398101604081905262000034916200021d565b81818181600062000046838262000316565b50600162000055828262000316565b506200006791506000905033620000a5565b5050506200009c7f3c11d16cbaffd01df69ce1c404f6340ee057498f5f00246190ea54220576a84833620000a560201b60201c565b505050620003e2565b60008281526006602090815260408083206001600160a01b038516845290915281205460ff166200014e5760008381526006602090815260408083206001600160a01b03861684529091529020805460ff19166001179055620001053390565b6001600160a01b0316826001600160a01b0316847f2f8788117e7eff1d82e926ec794901d17c78024a50270940304540a733656f0d60405160405180910390a450600162000152565b5060005b92915050565b634e487b7160e01b600052604160045260246000fd5b600082601f8301126200018057600080fd5b81516001600160401b03808211156200019d576200019d62000158565b604051601f8301601f19908116603f01168101908282118183101715620001c857620001c862000158565b81604052838152602092508683858801011115620001e557600080fd5b600091505b83821015620002095785820183015181830184015290820190620001ea565b600093810190920192909252949350505050565b600080604083850312156200023157600080fd5b82516001600160401b03808211156200024957600080fd5b62000257868387016200016e565b935060208501519150808211156200026e57600080fd5b506200027d858286016200016e565b9150509250929050565b600181811c908216806200029c57607f821691505b602082108103620002bd57634e487b7160e01b600052602260045260246000fd5b50919050565b601f8211156200031157600081815260208120601f850160051c81016020861015620002ec5750805b601f850160051c820191505b818110156200030d57828155600101620002f8565b5050505b505050565b81516001600160401b0381111562000332576200033262000158565b6200034a8162000343845462000287565b84620002c3565b602080601f831160018114620003825760008415620003695750858301515b600019600386901b1c1916600185901b1785556200030d565b600085815260208120601f198616915b82811015620003b35788860151825594840194600190910190840162000392565b5085821015620003d25787850151600019600388901b60f8161c191681555b5050505050600190811b01905550565b6112aa80620003f26000396000f3fe608060405234801561001057600080fd5b50600436106101375760003560e01c806342966c68116100b8578063a217fddf1161007c578063a217fddf146102b1578063a22cb465146102b9578063b88d4fde146102cc578063c87b56dd146102df578063d547741f146102f2578063e985e9c51461030557600080fd5b806342966c681461025d5780636352211e1461027057806370a082311461028357806391d148541461029657806395d89b41146102a957600080fd5b8063248a9ca3116100ff578063248a9ca3146101cc578063282c51f3146101fd5780632f2ff15d1461022457806336568abe1461023757806342842e0e1461024a57600080fd5b806301ffc9a71461013c57806306fdde0314610164578063081812fc14610179578063095ea7b3146101a457806323b872dd146101b9575b600080fd5b61014f61014a366004610ef7565b610318565b60405190151581526020015b60405180910390f35b61016c610329565b60405161015b9190610f64565b61018c610187366004610f77565b6103bb565b6040516001600160a01b03909116815260200161015b565b6101b76101b2366004610fac565b6103e4565b005b6101b76101c7366004610fd6565b6103f3565b6101ef6101da366004610f77565b60009081526006602052604090206001015490565b60405190815260200161015b565b6101ef7f3c11d16cbaffd01df69ce1c404f6340ee057498f5f00246190ea54220576a84881565b6101b7610232366004611012565b610483565b6101b7610245366004611012565b6104a8565b6101b7610258366004610fd6565b6104e0565b6101b761026b366004610f77565b6104fb565b61018c61027e366004610f77565b61052e565b6101ef61029136600461103e565b610539565b61014f6102a4366004611012565b610581565b61016c6105ac565b6101ef600081565b6101b76102c7366004611059565b6105bb565b6101b76102da3660046110ab565b6105c6565b61016c6102ed366004610f77565b6105de565b6101b7610300366004611012565b610653565b61014f610313366004611187565b610678565b6000610323826106a6565b92915050565b606060008054610338906111b1565b80601f0160208091040260200160405190810160405280929190818152602001828054610364906111b1565b80156103b15780601f10610386576101008083540402835291602001916103b1565b820191906000526020600020905b81548152906001019060200180831161039457829003601f168201915b5050505050905090565b60006103c6826106cb565b506000828152600460205260409020546001600160a01b0316610323565b6103ef828233610704565b5050565b6001600160a01b03821661042257604051633250574960e11b8152600060048201526024015b60405180910390fd5b600061042f838333610711565b9050836001600160a01b0316816001600160a01b03161461047d576040516364283d7b60e01b81526001600160a01b0380861660048301526024820184905282166044820152606401610419565b50505050565b60008281526006602052604090206001015461049e8161080a565b61047d8383610817565b6001600160a01b03811633146104d15760405163334bd91960e11b815260040160405180910390fd5b6104db82826108ab565b505050565b6104db838383604051806020016040528060008152506105c6565b7f3c11d16cbaffd01df69ce1c404f6340ee057498f5f00246190ea54220576a8486105258161080a565b6103ef82610918565b6000610323826106cb565b60006001600160a01b038216610565576040516322718ad960e21b815260006004820152602401610419565b506001600160a01b031660009081526003602052604090205490565b60009182526006602090815260408084206001600160a01b0393909316845291905290205460ff1690565b606060018054610338906111b1565b6103ef338383610953565b6105d18484846103f3565b61047d33858585856109f2565b60606105e9826106cb565b50600061060160408051602081019091526000815290565b90506000815111610621576040518060200160405280600081525061064c565b8061062b84610b1d565b60405160200161063c9291906111eb565b6040516020818303038152906040525b9392505050565b60008281526006602052604090206001015461066e8161080a565b61047d83836108ab565b6001600160a01b03918216600090815260056020908152604080832093909416825291909152205460ff1690565b60006001600160e01b03198216637965db0b60e01b1480610323575061032382610bb0565b6000818152600260205260408120546001600160a01b03168061032357604051637e27328960e01b815260048101849052602401610419565b6104db8383836001610c00565b6000828152600260205260408120546001600160a01b039081169083161561073e5761073e818486610d06565b6001600160a01b0381161561077c5761075b600085600080610c00565b6001600160a01b038116600090815260036020526040902080546000190190555b6001600160a01b038516156107ab576001600160a01b0385166000908152600360205260409020805460010190555b60008481526002602052604080822080546001600160a01b0319166001600160a01b0389811691821790925591518793918516917fddf252ad1be2c89b69c2b068fc378daa952ba7f163c4a11628f55a4df523b3ef91a4949350505050565b6108148133610d6a565b50565b60006108238383610581565b6108a35760008381526006602090815260408083206001600160a01b03861684529091529020805460ff1916600117905561085b3390565b6001600160a01b0316826001600160a01b0316847f2f8788117e7eff1d82e926ec794901d17c78024a50270940304540a733656f0d60405160405180910390a4506001610323565b506000610323565b60006108b78383610581565b156108a35760008381526006602090815260408083206001600160a01b0386168085529252808320805460ff1916905551339286917ff6391f5c32d9c69d2a47ea670b442974b53935d1edc7fd64eb21e047a839171b9190a4506001610323565b60006109276000836000610711565b90506001600160a01b0381166103ef57604051637e27328960e01b815260048101839052602401610419565b6001600160a01b03821661098557604051630b61174360e31b81526001600160a01b0383166004820152602401610419565b6001600160a01b03838116600081815260056020908152604080832094871680845294825291829020805460ff191686151590811790915591519182527f17307eab39ab6107e8899845ad3d59bd9653f200f220920489ca2b5937696c31910160405180910390a3505050565b6001600160a01b0383163b15610b1657604051630a85bd0160e11b81526001600160a01b0384169063150b7a0290610a3490889088908790879060040161121a565b6020604051808303816000875af1925050508015610a6f575060408051601f3d908101601f19168201909252610a6c91810190611257565b60015b610ad8573d808015610a9d576040519150601f19603f3d011682016040523d82523d6000602084013e610aa2565b606091505b508051600003610ad057604051633250574960e11b81526001600160a01b0385166004820152602401610419565b805160208201fd5b6001600160e01b03198116630a85bd0160e11b14610b1457604051633250574960e11b81526001600160a01b0385166004820152602401610419565b505b5050505050565b60606000610b2a83610da3565b600101905060008167ffffffffffffffff811115610b4a57610b4a611095565b6040519080825280601f01601f191660200182016040528015610b74576020820181803683370190505b5090508181016020015b600019016f181899199a1a9b1b9c1cb0b131b232b360811b600a86061a8153600a8504945084610b7e57509392505050565b60006001600160e01b031982166380ac58cd60e01b1480610be157506001600160e01b03198216635b5e139f60e01b145b8061032357506301ffc9a760e01b6001600160e01b0319831614610323565b8080610c1457506001600160a01b03821615155b15610cd6576000610c24846106cb565b90506001600160a01b03831615801590610c505750826001600160a01b0316816001600160a01b031614155b8015610c635750610c618184610678565b155b15610c8c5760405163a9fbf51f60e01b81526001600160a01b0384166004820152602401610419565b8115610cd45783856001600160a01b0316826001600160a01b03167f8c5be1e5ebec7d5bd14f71427d1e84f3dd0314c0f7b2291e5b200ac8c7c3b92560405160405180910390a45b505b5050600090815260046020526040902080546001600160a01b0319166001600160a01b0392909216919091179055565b610d11838383610e7b565b6104db576001600160a01b038316610d3f57604051637e27328960e01b815260048101829052602401610419565b60405163177e802f60e01b81526001600160a01b038316600482015260248101829052604401610419565b610d748282610581565b6103ef5760405163e2517d3f60e01b81526001600160a01b038216600482015260248101839052604401610419565b60008072184f03e93ff9f4daa797ed6e38ed64bf6a1f0160401b8310610de25772184f03e93ff9f4daa797ed6e38ed64bf6a1f0160401b830492506040015b6d04ee2d6d415b85acef81000000008310610e0e576d04ee2d6d415b85acef8100000000830492506020015b662386f26fc100008310610e2c57662386f26fc10000830492506010015b6305f5e1008310610e44576305f5e100830492506008015b6127108310610e5857612710830492506004015b60648310610e6a576064830492506002015b600a83106103235760010192915050565b60006001600160a01b03831615801590610ed95750826001600160a01b0316846001600160a01b03161480610eb55750610eb58484610678565b80610ed957506000828152600460205260409020546001600160a01b038481169116145b949350505050565b6001600160e01b03198116811461081457600080fd5b600060208284031215610f0957600080fd5b813561064c81610ee1565b60005b83811015610f2f578181015183820152602001610f17565b50506000910152565b60008151808452610f50816020860160208601610f14565b601f01601f19169290920160200192915050565b60208152600061064c6020830184610f38565b600060208284031215610f8957600080fd5b5035919050565b80356001600160a01b0381168114610fa757600080fd5b919050565b60008060408385031215610fbf57600080fd5b610fc883610f90565b946020939093013593505050565b600080600060608486031215610feb57600080fd5b610ff484610f90565b925061100260208501610f90565b9150604084013590509250925092565b6000806040838503121561102557600080fd5b8235915061103560208401610f90565b90509250929050565b60006020828403121561105057600080fd5b61064c82610f90565b6000806040838503121561106c57600080fd5b61107583610f90565b91506020830135801515811461108a57600080fd5b809150509250929050565b634e487b7160e01b600052604160045260246000fd5b600080600080608085870312156110c157600080fd5b6110ca85610f90565b93506110d860208601610f90565b925060408501359150606085013567ffffffffffffffff808211156110fc57600080fd5b818701915087601f83011261111057600080fd5b81358181111561112257611122611095565b604051601f8201601f19908116603f0116810190838211818310171561114a5761114a611095565b816040528281528a602084870101111561116357600080fd5b82602086016020830137600060208483010152809550505050505092959194509250565b6000806040838503121561119a57600080fd5b6111a383610f90565b915061103560208401610f90565b600181811c908216806111c557607f821691505b6020821081036111e557634e487b7160e01b600052602260045260246000fd5b50919050565b600083516111fd818460208801610f14565b835190830190611211818360208801610f14565b01949350505050565b6001600160a01b038581168252841660208201526040810183905260806060820181905260009061124d90830184610f38565b9695505050505050565b60006020828403121561126957600080fd5b815161064c81610ee156fea26469706673582212204d753c6feecdb7ea78bc2a8a02eef89de9fd34ecc7db1e6a349efb7dd7aa816f64736f6c63430008140033",
  "linkReferences": {},
  "deployedLinkReferences": {}
}