{
  "_format": "hh-sol-artifact-1",
  "contractName": "ERC721_mintable",
  "sourceName": "contracts/__generated__/ERC721_mintable.sol",
  "abi": [
    {
      "inputs": [
        {
          "internalType": "string",
          "name": "name_",
          "type": "string"
        },
        {
          "internalType": "string",
          "name": "symbol_",
          "type": "string"
        }
      ],
      "stateMutability": "nonpayable",
      "type": "constructor"
    },
    {
      "inputs": [],
      "name": "AccessControlBadConfirmation",
      "type": "error"
    },
    {
      "inputs": [
        {
          "internalType": "address",
          "name": "account",
          "type": "address"
        },
        {
          "internalType": "bytes32",
          "name": "neededRole",
          "type": "bytes32"
        }
      ],
      "name": "AccessControlUnauthorizedAccount",
      "type": "error"
    },
    {
      "inputs": [
        {
          "internalType": "address",
          "name": "sender",
          "type": "address"
        },
        {
          "internalType": "uint256",
          "name": "tokenId",
          "type": "uint256"
        },
        {
          "internalType": "address",
          "name": "owner",
          "type": "address"
        }
      ],
      "name": "ERC721IncorrectOwner",
      "type": "error"
    },
    {
      "inputs": [
        {
          "internalType": "address",
          "name": "operator",
          "type": "address"
        },
        {
          "internalType": "uint256",
          "name": "tokenId",
          "type": "uint256"
        }
      ],
      "name": "ERC721InsufficientApproval",
      "type": "error"
    },
    {
      "inputs": [
        {
          "internalType": "address",
          "name": "approver",
          "type": "address"
        }
      ],
      "name": "ERC721InvalidApprover",
      "type": "error"
    },
    {
      "inputs": [
        {
          "internalType": "address",
          "name": "operator",
          "type": "address"
        }
      ],
      "name": "ERC721InvalidOperator",
      "type": "error"
    },
    {
      "inputs": [
        {
          "internalType": "address",
          "name": "owner",
          "type": "address"
        }
      ],
      "name": "ERC721InvalidOwner",
      "type": "error"
    },
    {
      "inputs": [
        {
          "internalType": "address",
          "name": "receiver",
          "type": "address"
        }
      ],
      "name": "ERC721InvalidReceiver",
      "type": "error"
    },
    {
      "inputs": [
        {
          "internalType": "address",
          "name": "sender",
          "type": "address"
        }
      ],
      "name": "ERC721InvalidSender",
      "type": "error"
    },
    {
      "inputs": [
        {
          "internalType": "uint256",
          "name": "tokenId",
          "type": "uint256"
        }
      ],
      "name": "ERC721NonexistentToken",
      "type": "error"
    },
    {
      "anonymous": false,
      "inputs": [
        {
          "indexed": true,
          "internalType": "address",
          "name": "owner",
          "type": "address"
        },
        {
          "indexed": true,
          "internalType": "address",
          "name": "approved",
          "type": "address"
        },
        {
          "indexed": true,
          "internalType": "uint256",
          "name": "tokenId",
          "type": "uint256"
        }
      ],
      "name": "Approval",
      "type": "event"
    },
    {
      "anonymous": false,
      "inputs": [
        {
          "indexed": true,
          "internalType": "address",
          "name": "owner",
          "type": "address"
        },
        {
          "indexed": true,
          "internalType": "address",
          "name": "operator",
          "type": "address"
        },
        {
          "indexed": false,
          "internalType": "bool",
          "name": "approved",
          "type": "bool"
        }
      ],
      "name": "ApprovalForAll",
      "type": "event"
    },
    {
      "anonymous": false,
      "inputs": [
        {
          "indexed": true,
          "internalType": "bytes32",
          "name": "role",
          "type": "bytes32"
        },
        {
          "indexed": true,
          "internalType": "bytes32",
          "name": "previousAdminRole",
          "type": "bytes32"
        },
        {
          "indexed": true,
          "internalType": "bytes32",
          "name": "newAdminRole",
          "type": "bytes32"
        }
      ],
      "name": "RoleAdminChanged",
      "type": "event"
    },
    {
      "anonymous": false,
      "inputs": [
        {
          "indexed": true,
          "internalType": "bytes32",
          "name": "role",
          "type": "bytes32"
        },
        {
          "indexed": true,
          "internalType": "address",
          "name": "account",
          "type": "address"
        },
        {
          "indexed": true,
          "internalType": "address",
          "name": "sender",
          "type": "address"
        }
      ],
      "name": "RoleGranted",
      "type": "event"
    },
    {
      "anonymous": false,
      "inputs": [
        {
          "indexed": true,
          "internalType": "bytes32",
          "name": "role",
          "type": "bytes32"
        },
        {
          "indexed": true,
          "internalType": "address",
          "name": "account",
          "type": "address"
        },
        {
          "indexed": true,
          "internalType": "address",
          "name": "sender",
          "type": "address"
        }
      ],
      "name": "RoleRevoked",
      "type": "event"
    },
    {
      "anonymous": false,
      "inputs": [
        {
          "indexed": true,
          "internalType": "address",
          "name": "from",
          "type": "address"
        },
        {
          "indexed": true,
          "internalType": "address",
          "name": "to",
          "type": "address"
        },
        {
          "indexed": true,
          "internalType": "uint256",
          "name": "tokenId",
          "type": "uint256"
        }
      ],
      "name": "Transfer",
      "type": "event"
    },
    {
      "inputs": [],
      "name": "DEFAULT_ADMIN_ROLE",
      "outputs": [
        {
          "internalType": "bytes32",
          "name": "",
          "type": "bytes32"
        }
      ],
      "stateMutability": "view",
      "type": "function"
    },
    {
      "inputs": [],
      "name": "MINTER_ROLE",
      "outputs": [
        {
          "internalType": "bytes32",
          "name": "",
          "type": "bytes32"
        }
      ],
      "stateMutability": "view",
      "type": "function"
    },
    {
      "inputs": [
        {
          "internalType": "address",
          "name": "to",
          "type": "address"
        },
        {
          "internalType": "uint256",
          "name": "tokenId",
          "type": "uint256"
        }
      ],
      "name": "approve",
      "outputs": [],
      "stateMutability": "nonpayable",
      "type": "function"
    },
    {
      "inputs": [
        {
          "internalType": "address",
          "name": "owner",
          "type": "address"
        }
      ],
      "name": "balanceOf",
      "outputs": [
        {
          "internalType": "uint256",
          "name": "",
          "type": "uint256"
        }
      ],
      "stateMutability": "view",
      "type": "function"
    },
    {
      "inputs": [
        {
          "internalType": "uint256",
          "name": "tokenId",
          "type": "uint256"
        }
      ],
      "name": "getApproved",
      "outputs": [
        {
          "internalType": "address",
          "name": "",
          "type": "address"
        }
      ],
      "stateMutability": "view",
      "type": "function"
    },
    {
      "inputs": [
        {
          "internalType": "bytes32",
          "name": "role",
          "type": "bytes32"
        }
      ],
      "name": "getRoleAdmin",
      "outputs": [
        {
          "internalType": "bytes32",
          "name": "",
          "type": "bytes32"
        }
      ],
      "stateMutability": "view",
      "type": "function"
    },
    {
      "inputs": [
        {
          "internalType": "bytes32",
          "name": "role",
          "type": "bytes32"
        },
        {
          "internalType": "address",
          "name": "account",
          "type": "address"
        }
      ],
      "name": "grantRole",
      "outputs": [],
      "stateMutability": "nonpayable",
      "type": "function"
    },
    {
      "inputs": [
        {
          "internalType": "bytes32",
          "name": "role",
          "type": "bytes32"
        },
        {
          "internalType": "address",
          "name": "account",
          "type": "address"
        }
      ],
      "name": "hasRole",
      "outputs": [
        {
          "internalType": "bool",
          "name": "",
          "type": "bool"
        }
      ],
      "stateMutability": "view",
      "type": "function"
    },
    {
      "inputs": [
        {
          "internalType": "address",
          "name": "owner",
          "type": "address"
        },
        {
          "internalType": "address",
          "name": "operator",
          "type": "address"
        }
      ],
      "name": "isApprovedForAll",
      "outputs": [
        {
          "internalType": "bool",
          "name": "",
          "type": "bool"
        }
      ],
      "stateMutability": "view",
      "type": "function"
    },
    {
      "inputs": [
        {
          "internalType": "address",
          "name": "to",
          "type": "address"
        },
        {
          "internalType": "uint256",
          "name": "tokenId",
          "type": "uint256"
        }
      ],
      "name": "mint",
      "outputs": [],
      "stateMutability": "nonpayable",
      "type": "function"
    },
    {
      "inputs": [],
      "name": "name",
      "outputs": [
        {
          "internalType": "string",
          "name": "",
          "type": "string"
        }
      ],
      "stateMutability": "view",
      "type": "function"
    },
    {
      "inputs": [
        {
          "internalType": "uint256",
          "name": "tokenId",
          "type": "uint256"
        }
      ],
      "name": "ownerOf",
      "outputs": [
        {
          "internalType": "address",
          "name": "",
          "type": "address"
        }
      ],
      "stateMutability": "view",
      "type": "function"
    },
    {
      "inputs": [
        {
          "internalType": "bytes32",
          "name": "role",
          "type": "bytes32"
        },
        {
          "internalType": "address",
          "name": "callerConfirmation",
          "type": "address"
        }
      ],
      "name": "renounceRole",
      "outputs": [],
      "stateMutability": "nonpayable",
      "type": "function"
    },
    {
      "inputs": [
        {
          "internalType": "bytes32",
          "name": "role",
          "type": "bytes32"
        },
        {
          "internalType": "address",
          "name": "account",
          "type": "address"
        }
      ],
      "name": "revokeRole",
      "outputs": [],
      "stateMutability": "nonpayable",
      "type": "function"
    },
    {
      "inputs": [
        {
          "internalType": "address",
          "name": "from",
          "type": "address"
        },
        {
          "internalType": "address",
          "name": "to",
          "type": "address"
        },
        {
          "internalType": "uint256",
          "name": "tokenId",
          "type": "uint256"
        }
      ],
      "name": "safeTransferFrom",
      "outputs": [],
      "stateMutability": "nonpayable",
      "type": "function"
    },
    {
      "inputs": [
        {
          "internalType": "address",
          "name": "from",
          "type": "address"
        },
        {
          "internalType": "address",
          "name": "to",
          "type": "address"
        },
        {
          "internalType": "uint256",
          "name": "tokenId",
          "type": "uint256"
        },
        {
          "internalType": "bytes",
          "name": "data",
          "type": "bytes"
        }
      ],
      "name": "safeTransferFrom",
      "outputs": [],
      "stateMutability": "nonpayable",
      "type": "function"
    },
    {
      "inputs": [
        {
          "internalType": "address",
          "name": "operator",
          "type": "address"
        },
        {
          "internalType": "bool",
          "name": "approved",
          "type": "bool"
        }
      ],
      "name": "setApprovalForAll",
      "outputs": [],
      "stateMutability": "nonpayable",
      "type": "function"
    },
    {
      "inputs": [
        {
          "internalType": "bytes4",
          "name": "interfaceId",
          "type": "bytes4"
        }
      ],
      "name": "supportsInterface",
      "outputs": [
        {
          "internalType": "bool",
          "name": "",
          "type": "bool"
        }
      ],
      "stateMutability": "view",
      "type": "function"
    },
    {
      "inputs": [],
      "name": "symbol",
      "outputs": [
        {
          "internalType": "string",
          "name": "",
          "type": "string"
        }
      ],
      "stateMutability": "view",
      "type": "function"
    },
    {
      "inputs": [
        {
          "internalType": "uint256",
          "name": "tokenId",
          "type": "uint256"
        }
      ],
      "name": "tokenURI",
      "outputs": [
        {
          "internalType": "string",
          "name": "",
          "type": "string"
        }
      ],
      "stateMutability": "view",
      "type": "function"
    },
    {
      "inputs": [
        {
          "internalType": "address",
          "name": "from",
          "type": "address"
        },
        {
          "internalType": "address",
          "name": "to",
          "type": "address"
        },
        {
          "internalType": "uint256",
          "name": "tokenId",
          "type": "uint256"
        }
      ],
      "name": "transferFrom",
      "outputs": [],
      "stateMutability": "nonpayable",
      "type": "function"
    }
  ],
  "bytecode": "0x60806040523480156200001157600080fd5b50604051620016f9380380620016f983398101604081905262000034916200021d565b81818181600062000046838262000316565b50600162000055828262000316565b506200006791506000905033620000a5565b5050506200009c7f9f2df0fed2c77648de5860a4cc508cd0818c85b8b8a1ab4ceeef8d981c8956a633620000a560201b60201c565b505050620003e2565b60008281526006602090815260408083206001600160a01b038516845290915281205460ff166200014e5760008381526006602090815260408083206001600160a01b03861684529091529020805460ff19166001179055620001053390565b6001600160a01b0316826001600160a01b0316847f2f8788117e7eff1d82e926ec794901d17c78024a50270940304540a733656f0d60405160405180910390a450600162000152565b5060005b92915050565b634e487b7160e01b600052604160045260246000fd5b600082601f8301126200018057600080fd5b81516001600160401b03808211156200019d576200019d62000158565b604051601f8301601f19908116603f01168101908282118183101715620001c857620001c862000158565b81604052838152602092508683858801011115620001e557600080fd5b600091505b83821015620002095785820183015181830184015290820190620001ea565b600093810190920192909252949350505050565b600080604083850312156200023157600080fd5b82516001600160401b03808211156200024957600080fd5b62000257868387016200016e565b935060208501519150808211156200026e57600080fd5b506200027d858286016200016e565b9150509250929050565b600181811c908216806200029c57607f821691505b602082108103620002bd57634e487b7160e01b600052602260045260246000fd5b50919050565b601f8211156200031157600081815260208120601f850160051c81016020861015620002ec5750805b601f850160051c820191505b818110156200030d57828155600101620002f8565b5050505b505050565b81516001600160401b0381111562000332576200033262000158565b6200034a8162000343845462000287565b84620002c3565b602080601f831160018114620003825760008415620003695750858301515b600019600386901b1c1916600185901b1785556200030d565b600085815260208120601f198616915b82811015620003b35788860151825594840194600190910190840162000392565b5085821015620003d25787850151600019600388901b60f8161c191681555b5050505050600190811b01905550565b61130780620003f26000396000f3fe608060405234801561001057600080fd5b50600436106101375760003560e01c80636352211e116100b8578063a22cb4651161007c578063a22cb46514610292578063b88d4fde146102a5578063c87b56dd146102b8578063d5391393146102cb578063d547741f146102f2578063e985e9c51461030557600080fd5b80636352211e1461024957806370a082311461025c57806391d148541461026f57806395d89b4114610282578063a217fddf1461028a57600080fd5b8063248a9ca3116100ff578063248a9ca3146101cc5780632f2ff15d146101fd57806336568abe1461021057806340c10f191461022357806342842e0e1461023657600080fd5b806301ffc9a71461013c57806306fdde0314610164578063081812fc14610179578063095ea7b3146101a457806323b872dd146101b9575b600080fd5b61014f61014a366004610f54565b610318565b60405190151581526020015b60405180910390f35b61016c610329565b60405161015b9190610fc1565b61018c610187366004610fd4565b6103bb565b6040516001600160a01b03909116815260200161015b565b6101b76101b2366004611009565b6103e4565b005b6101b76101c7366004611033565b6103f3565b6101ef6101da366004610fd4565b60009081526006602052604090206001015490565b60405190815260200161015b565b6101b761020b36600461106f565b610483565b6101b761021e36600461106f565b6104a8565b6101b7610231366004611009565b6104e0565b6101b7610244366004611033565b610514565b61018c610257366004610fd4565b61052f565b6101ef61026a36600461109b565b61053a565b61014f61027d36600461106f565b610582565b61016c6105ad565b6101ef600081565b6101b76102a03660046110b6565b6105bc565b6101b76102b3366004611108565b6105c7565b61016c6102c6366004610fd4565b6105df565b6101ef7f9f2df0fed2c77648de5860a4cc508cd0818c85b8b8a1ab4ceeef8d981c8956a681565b6101b761030036600461106f565b610654565b61014f6103133660046111e4565b610679565b6000610323826106a7565b92915050565b6060600080546103389061120e565b80601f01602080910402602001604051908101604052809291908181526020018280546103649061120e565b80156103b15780601f10610386576101008083540402835291602001916103b1565b820191906000526020600020905b81548152906001019060200180831161039457829003601f168201915b5050505050905090565b60006103c6826106cc565b506000828152600460205260409020546001600160a01b0316610323565b6103ef828233610705565b5050565b6001600160a01b03821661042257604051633250574960e11b8152600060048201526024015b60405180910390fd5b600061042f838333610712565b9050836001600160a01b0316816001600160a01b03161461047d576040516364283d7b60e01b81526001600160a01b0380861660048301526024820184905282166044820152606401610419565b50505050565b60008281526006602052604090206001015461049e8161080b565b61047d8383610818565b6001600160a01b03811633146104d15760405163334bd91960e11b815260040160405180910390fd5b6104db82826108ac565b505050565b7f9f2df0fed2c77648de5860a4cc508cd0818c85b8b8a1ab4ceeef8d981c8956a661050a8161080b565b6104db8383610919565b6104db838383604051806020016040528060008152506105c7565b6000610323826106cc565b60006001600160a01b038216610566576040516322718ad960e21b815260006004820152602401610419565b506001600160a01b031660009081526003602052604090205490565b60009182526006602090815260408084206001600160a01b0393909316845291905290205460ff1690565b6060600180546103389061120e565b6103ef338383610933565b6105d28484846103f3565b61047d33858585856109d2565b60606105ea826106cc565b50600061060260408051602081019091526000815290565b90506000815111610622576040518060200160405280600081525061064d565b8061062c84610afd565b60405160200161063d929190611248565b6040516020818303038152906040525b9392505050565b60008281526006602052604090206001015461066f8161080b565b61047d83836108ac565b6001600160a01b03918216600090815260056020908152604080832093909416825291909152205460ff1690565b60006001600160e01b03198216637965db0b60e01b1480610323575061032382610b90565b6000818152600260205260408120546001600160a01b03168061032357604051637e27328960e01b815260048101849052602401610419565b6104db8383836001610be0565b6000828152600260205260408120546001600160a01b039081169083161561073f5761073f818486610ce6565b6001600160a01b0381161561077d5761075c600085600080610be0565b6001600160a01b038116600090815260036020526040902080546000190190555b6001600160a01b038516156107ac576001600160a01b0385166000908152600360205260409020805460010190555b60008481526002602052604080822080546001600160a01b0319166001600160a01b0389811691821790925591518793918516917fddf252ad1be2c89b69c2b068fc378daa952ba7f163c4a11628f55a4df523b3ef91a4949350505050565b6108158133610d4a565b50565b60006108248383610582565b6108a45760008381526006602090815260408083206001600160a01b03861684529091529020805460ff1916600117905561085c3390565b6001600160a01b0316826001600160a01b0316847f2f8788117e7eff1d82e926ec794901d17c78024a50270940304540a733656f0d60405160405180910390a4506001610323565b506000610323565b60006108b88383610582565b156108a45760008381526006602090815260408083206001600160a01b0386168085529252808320805460ff1916905551339286917ff6391f5c32d9c69d2a47ea670b442974b53935d1edc7fd64eb21e047a839171b9190a4506001610323565b6103ef828260405180602001604052806000815250610d83565b6001600160a01b03821661096557604051630b61174360e31b81526001600160a01b0383166004820152602401610419565b6001600160a01b03838116600081815260056020908152604080832094871680845294825291829020805460ff191686151590811790915591519182527f17307eab39ab6107e8899845ad3d59bd9653f200f220920489ca2b5937696c31910160405180910390a3505050565b6001600160a01b0383163b15610af657604051630a85bd0160e11b81526001600160a01b0384169063150b7a0290610a14908890889087908790600401611277565b6020604051808303816000875af1925050508015610a4f575060408051601f3d908101601f19168201909252610a4c918101906112b4565b60015b610ab8573d808015610a7d576040519150601f19603f3d011682016040523d82523d6000602084013e610a82565b606091505b508051600003610ab057604051633250574960e11b81526001600160a01b0385166004820152602401610419565b805160208201fd5b6001600160e01b03198116630a85bd0160e11b14610af457604051633250574960e11b81526001600160a01b0385166004820152602401610419565b505b5050505050565b60606000610b0a83610d9b565b600101905060008167ffffffffffffffff811115610b2a57610b2a6110f2565b6040519080825280601f01601f191660200182016040528015610b54576020820181803683370190505b5090508181016020015b600019016f181899199a1a9b1b9c1cb0b131b232b360811b600a86061a8153600a8504945084610b5e57509392505050565b60006001600160e01b031982166380ac58cd60e01b1480610bc157506001600160e01b03198216635b5e139f60e01b145b8061032357506301ffc9a760e01b6001600160e01b0319831614610323565b8080610bf457506001600160a01b03821615155b15610cb6576000610c04846106cc565b90506001600160a01b03831615801590610c305750826001600160a01b0316816001600160a01b031614155b8015610c435750610c418184610679565b155b15610c6c5760405163a9fbf51f60e01b81526001600160a01b0384166004820152602401610419565b8115610cb45783856001600160a01b0316826001600160a01b03167f8c5be1e5ebec7d5bd14f71427d1e84f3dd0314c0f7b2291e5b200ac8c7c3b92560405160405180910390a45b505b5050600090815260046020526040902080546001600160a01b0319166001600160a01b0392909216919091179055565b610cf1838383610e73565b6104db576001600160a01b038316610d1f57604051637e27328960e01b815260048101829052602401610419565b60405163177e802f60e01b81526001600160a01b038316600482015260248101829052604401610419565b610d548282610582565b6103ef5760405163e2517d3f60e01b81526001600160a01b038216600482015260248101839052604401610419565b610d8d8383610ed9565b6104db3360008585856109d2565b60008072184f03e93ff9f4daa797ed6e38ed64bf6a1f0160401b8310610dda5772184f03e93ff9f4daa797ed6e38ed64bf6a1f0160401b830492506040015b6d04ee2d6d415b85acef81000000008310610e06576d04ee2d6d415b85acef8100000000830492506020015b662386f26fc100008310610e2457662386f26fc10000830492506010015b6305f5e1008310610e3c576305f5e100830492506008015b6127108310610e5057612710830492506004015b60648310610e62576064830492506002015b600a83106103235760010192915050565b60006001600160a01b03831615801590610ed15750826001600160a01b0316846001600160a01b03161480610ead5750610ead8484610679565b80610ed157506000828152600460205260409020546001600160a01b038481169116145b949350505050565b6001600160a01b038216610f0357604051633250574960e11b815260006004820152602401610419565b6000610f1183836000610712565b90506001600160a01b038116156104db576040516339e3563760e11b815260006004820152602401610419565b6001600160e01b03198116811461081557600080fd5b600060208284031215610f6657600080fd5b813561064d81610f3e565b60005b83811015610f8c578181015183820152602001610f74565b50506000910152565b60008151808452610fad816020860160208601610f71565b601f01601f19169290920160200192915050565b60208152600061064d6020830184610f95565b600060208284031215610fe657600080fd5b5035919050565b80356001600160a01b038116811461100457600080fd5b919050565b6000806040838503121561101c57600080fd5b61102583610fed565b946020939093013593505050565b60008060006060848603121561104857600080fd5b61105184610fed565b925061105f60208501610fed565b9150604084013590509250925092565b6000806040838503121561108257600080fd5b8235915061109260208401610fed565b90509250929050565b6000602082840312156110ad57600080fd5b61064d82610fed565b600080604083850312156110c957600080fd5b6110d283610fed565b9150602083013580151581146110e757600080fd5b809150509250929050565b634e487b7160e01b600052604160045260246000fd5b6000806000806080858703121561111e57600080fd5b61112785610fed565b935061113560208601610fed565b925060408501359150606085013567ffffffffffffffff8082111561115957600080fd5b818701915087601f83011261116d57600080fd5b81358181111561117f5761117f6110f2565b604051601f8201601f19908116603f011681019083821181831017156111a7576111a76110f2565b816040528281528a60208487010111156111c057600080fd5b82602086016020830137600060208483010152809550505050505092959194509250565b600080604083850312156111f757600080fd5b61120083610fed565b915061109260208401610fed565b600181811c9082168061122257607f821691505b60208210810361124257634e487b7160e01b600052602260045260246000fd5b50919050565b6000835161125a818460208801610f71565b83519083019061126e818360208801610f71565b01949350505050565b6001600160a01b03858116825284166020820152604081018390526080606082018190526000906112aa90830184610f95565b9695505050505050565b6000602082840312156112c657600080fd5b815161064d81610f3e56fea2646970667358221220034baec621c7fbff3732204ee6af0a416820fea2f2a4c0642b381d105cd5f31864736f6c63430008140033",
  "linkReferences": {},
  "deployedLinkReferences": {}
}