{
  "_format": "hh-sol-artifact-1",
  "contractName": "ERC721_burnable_mintable",
  "sourceName": "contracts/__generated__/ERC721_burnable_mintable.sol",
  "abi": [
    {
      "inputs": [
        {
          "internalType": "string",
          "name": "name_",
          "type": "string"
        },
        {
          "internalType": "string",
          "name": "symbol_",
          "type": "string"
        }
      ],
      "stateMutability": "nonpayable",
      "type": "constructor"
    },
    {
      "inputs": [],
      "name": "AccessControlBadConfirmation",
      "type": "error"
    },
    {
      "inputs": [
        {
          "internalType": "address",
          "name": "account",
          "type": "address"
        },
        {
          "internalType": "bytes32",
          "name": "neededRole",
          "type": "bytes32"
        }
      ],
      "name": "AccessControlUnauthorizedAccount",
      "type": "error"
    },
    {
      "inputs": [
        {
          "internalType": "address",
          "name": "sender",
          "type": "address"
        },
        {
          "internalType": "uint256",
          "name": "tokenId",
          "type": "uint256"
        },
        {
          "internalType": "address",
          "name": "owner",
          "type": "address"
        }
      ],
      "name": "ERC721IncorrectOwner",
      "type": "error"
    },
    {
      "inputs": [
        {
          "internalType": "address",
          "name": "operator",
          "type": "address"
        },
        {
          "internalType": "uint256",
          "name": "tokenId",
          "type": "uint256"
        }
      ],
      "name": "ERC721InsufficientApproval",
      "type": "error"
    },
    {
      "inputs": [
        {
          "internalType": "address",
          "name": "approver",
          "type": "address"
        }
      ],
      "name": "ERC721InvalidApprover",
      "type": "error"
    },
    {
      "inputs": [
        {
          "internalType": "address",
          "name": "operator",
          "type": "address"
        }
      ],
      "name": "ERC721InvalidOperator",
      "type": "error"
    },
    {
      "inputs": [
        {
          "internalType": "address",
          "name": "owner",
          "type": "address"
        }
      ],
      "name": "ERC721InvalidOwner",
      "type": "error"
    },
    {
      "inputs": [
        {
          "internalType": "address",
          "name": "receiver",
          "type": "address"
        }
      ],
      "name": "ERC721InvalidReceiver",
      "type": "error"
    },
    {
      "inputs": [
        {
          "internalType": "address",
          "name": "sender",
          "type": "address"
        }
      ],
      "name": "ERC721InvalidSender",
      "type": "error"
    },
    {
      "inputs": [
        {
          "internalType": "uint256",
          "name": "tokenId",
          "type": "uint256"
        }
      ],
      "name": "ERC721NonexistentToken",
      "type": "error"
    },
    {
      "anonymous": false,
      "inputs": [
        {
          "indexed": true,
          "internalType": "address",
          "name": "owner",
          "type": "address"
        },
        {
          "indexed": true,
          "internalType": "address",
          "name": "approved",
          "type": "address"
        },
        {
          "indexed": true,
          "internalType": "uint256",
          "name": "tokenId",
          "type": "uint256"
        }
      ],
      "name": "Approval",
      "type": "event"
    },
    {
      "anonymous": false,
      "inputs": [
        {
          "indexed": true,
          "internalType": "address",
          "name": "owner",
          "type": "address"
        },
        {
          "indexed": true,
          "internalType": "address",
          "name": "operator",
          "type": "address"
        },
        {
          "indexed": false,
          "internalType": "bool",
          "name": "approved",
          "type": "bool"
        }
      ],
      "name": "ApprovalForAll",
      "type": "event"
    },
    {
      "anonymous": false,
      "inputs": [
        {
          "indexed": true,
          "internalType": "bytes32",
          "name": "role",
          "type": "bytes32"
        },
        {
          "indexed": true,
          "internalType": "bytes32",
          "name": "previousAdminRole",
          "type": "bytes32"
        },
        {
          "indexed": true,
          "internalType": "bytes32",
          "name": "newAdminRole",
          "type": "bytes32"
        }
      ],
      "name": "RoleAdminChanged",
      "type": "event"
    },
    {
      "anonymous": false,
      "inputs": [
        {
          "indexed": true,
          "internalType": "bytes32",
          "name": "role",
          "type": "bytes32"
        },
        {
          "indexed": true,
          "internalType": "address",
          "name": "account",
          "type": "address"
        },
        {
          "indexed": true,
          "internalType": "address",
          "name": "sender",
          "type": "address"
        }
      ],
      "name": "RoleGranted",
      "type": "event"
    },
    {
      "anonymous": false,
      "inputs": [
        {
          "indexed": true,
          "internalType": "bytes32",
          "name": "role",
          "type": "bytes32"
        },
        {
          "indexed": true,
          "internalType": "address",
          "name": "account",
          "type": "address"
        },
        {
          "indexed": true,
          "internalType": "address",
          "name": "sender",
          "type": "address"
        }
      ],
      "name": "RoleRevoked",
      "type": "event"
    },
    {
      "anonymous": false,
      "inputs": [
        {
          "indexed": true,
          "internalType": "address",
          "name": "from",
          "type": "address"
        },
        {
          "indexed": true,
          "internalType": "address",
          "name": "to",
          "type": "address"
        },
        {
          "indexed": true,
          "internalType": "uint256",
          "name": "tokenId",
          "type": "uint256"
        }
      ],
      "name": "Transfer",
      "type": "event"
    },
    {
      "inputs": [],
      "name": "BURNER_ROLE",
      "outputs": [
        {
          "internalType": "bytes32",
          "name": "",
          "type": "bytes32"
        }
      ],
      "stateMutability": "view",
      "type": "function"
    },
    {
      "inputs": [],
      "name": "DEFAULT_ADMIN_ROLE",
      "outputs": [
        {
          "internalType": "bytes32",
          "name": "",
          "type": "bytes32"
        }
      ],
      "stateMutability": "view",
      "type": "function"
    },
    {
      "inputs": [],
      "name": "MINTER_ROLE",
      "outputs": [
        {
          "internalType": "bytes32",
          "name": "",
          "type": "bytes32"
        }
      ],
      "stateMutability": "view",
      "type": "function"
    },
    {
      "inputs": [
        {
          "internalType": "address",
          "name": "to",
          "type": "address"
        },
        {
          "internalType": "uint256",
          "name": "tokenId",
          "type": "uint256"
        }
      ],
      "name": "approve",
      "outputs": [],
      "stateMutability": "nonpayable",
      "type": "function"
    },
    {
      "inputs": [
        {
          "internalType": "address",
          "name": "owner",
          "type": "address"
        }
      ],
      "name": "balanceOf",
      "outputs": [
        {
          "internalType": "uint256",
          "name": "",
          "type": "uint256"
        }
      ],
      "stateMutability": "view",
      "type": "function"
    },
    {
      "inputs": [
        {
          "internalType": "uint256",
          "name": "tokenId",
          "type": "uint256"
        }
      ],
      "name": "burn",
      "outputs": [],
      "stateMutability": "nonpayable",
      "type": "function"
    },
    {
      "inputs": [
        {
          "internalType": "uint256",
          "name": "tokenId",
          "type": "uint256"
        }
      ],
      "name": "getApproved",
      "outputs": [
        {
          "internalType": "address",
          "name": "",
          "type": "address"
        }
      ],
      "stateMutability": "view",
      "type": "function"
    },
    {
      "inputs": [
        {
          "internalType": "bytes32",
          "name": "role",
          "type": "bytes32"
        }
      ],
      "name": "getRoleAdmin",
      "outputs": [
        {
          "internalType": "bytes32",
          "name": "",
          "type": "bytes32"
        }
      ],
      "stateMutability": "view",
      "type": "function"
    },
    {
      "inputs": [
        {
          "internalType": "bytes32",
          "name": "role",
          "type": "bytes32"
        },
        {
          "internalType": "address",
          "name": "account",
          "type": "address"
        }
      ],
      "name": "grantRole",
      "outputs": [],
      "stateMutability": "nonpayable",
      "type": "function"
    },
    {
      "inputs": [
        {
          "internalType": "bytes32",
          "name": "role",
          "type": "bytes32"
        },
        {
          "internalType": "address",
          "name": "account",
          "type": "address"
        }
      ],
      "name": "hasRole",
      "outputs": [
        {
          "internalType": "bool",
          "name": "",
          "type": "bool"
        }
      ],
      "stateMutability": "view",
      "type": "function"
    },
    {
      "inputs": [
        {
          "internalType": "address",
          "name": "owner",
          "type": "address"
        },
        {
          "internalType": "address",
          "name": "operator",
          "type": "address"
        }
      ],
      "name": "isApprovedForAll",
      "outputs": [
        {
          "internalType": "bool",
          "name": "",
          "type": "bool"
        }
      ],
      "stateMutability": "view",
      "type": "function"
    },
    {
      "inputs": [
        {
          "internalType": "address",
          "name": "to",
          "type": "address"
        },
        {
          "internalType": "uint256",
          "name": "tokenId",
          "type": "uint256"
        }
      ],
      "name": "mint",
      "outputs": [],
      "stateMutability": "nonpayable",
      "type": "function"
    },
    {
      "inputs": [],
      "name": "name",
      "outputs": [
        {
          "internalType": "string",
          "name": "",
          "type": "string"
        }
      ],
      "stateMutability": "view",
      "type": "function"
    },
    {
      "inputs": [
        {
          "internalType": "uint256",
          "name": "tokenId",
          "type": "uint256"
        }
      ],
      "name": "ownerOf",
      "outputs": [
        {
          "internalType": "address",
          "name": "",
          "type": "address"
        }
      ],
      "stateMutability": "view",
      "type": "function"
    },
    {
      "inputs": [
        {
          "internalType": "bytes32",
          "name": "role",
          "type": "bytes32"
        },
        {
          "internalType": "address",
          "name": "callerConfirmation",
          "type": "address"
        }
      ],
      "name": "renounceRole",
      "outputs": [],
      "stateMutability": "nonpayable",
      "type": "function"
    },
    {
      "inputs": [
        {
          "internalType": "bytes32",
          "name": "role",
          "type": "bytes32"
        },
        {
          "internalType": "address",
          "name": "account",
          "type": "address"
        }
      ],
      "name": "revokeRole",
      "outputs": [],
      "stateMutability": "nonpayable",
      "type": "function"
    },
    {
      "inputs": [
        {
          "internalType": "address",
          "name": "from",
          "type": "address"
        },
        {
          "internalType": "address",
          "name": "to",
          "type": "address"
        },
        {
          "internalType": "uint256",
          "name": "tokenId",
          "type": "uint256"
        }
      ],
      "name": "safeTransferFrom",
      "outputs": [],
      "stateMutability": "nonpayable",
      "type": "function"
    },
    {
      "inputs": [
        {
          "internalType": "address",
          "name": "from",
          "type": "address"
        },
        {
          "internalType": "address",
          "name": "to",
          "type": "address"
        },
        {
          "internalType": "uint256",
          "name": "tokenId",
          "type": "uint256"
        },
        {
          "internalType": "bytes",
          "name": "data",
          "type": "bytes"
        }
      ],
      "name": "safeTransferFrom",
      "outputs": [],
      "stateMutability": "nonpayable",
      "type": "function"
    },
    {
      "inputs": [
        {
          "internalType": "address",
          "name": "operator",
          "type": "address"
        },
        {
          "internalType": "bool",
          "name": "approved",
          "type": "bool"
        }
      ],
      "name": "setApprovalForAll",
      "outputs": [],
      "stateMutability": "nonpayable",
      "type": "function"
    },
    {
      "inputs": [
        {
          "internalType": "bytes4",
          "name": "interfaceId",
          "type": "bytes4"
        }
      ],
      "name": "supportsInterface",
      "outputs": [
        {
          "internalType": "bool",
          "name": "",
          "type": "bool"
        }
      ],
      "stateMutability": "view",
      "type": "function"
    },
    {
      "inputs": [],
      "name": "symbol",
      "outputs": [
        {
          "internalType": "string",
          "name": "",
          "type": "string"
        }
      ],
      "stateMutability": "view",
      "type": "function"
    },
    {
      "inputs": [
        {
          "internalType": "uint256",
          "name": "tokenId",
          "type": "uint256"
        }
      ],
      "name": "tokenURI",
      "outputs": [
        {
          "internalType": "string",
          "name": "",
          "type": "string"
        }
      ],
      "stateMutability": "view",
      "type": "function"
    },
    {
      "inputs": [
        {
          "internalType": "address",
          "name": "from",
          "type": "address"
        },
        {
          "internalType": "address",
          "name": "to",
          "type": "address"
        },
        {
          "internalType": "uint256",
          "name": "tokenId",
          "type": "uint256"
        }
      ],
      "name": "transferFrom",
      "outputs": [],
      "stateMutability": "nonpayable",
      "type": "function"
    }
  ],
  "bytecode": "0x60806040523480156200001157600080fd5b50604051620017e4380380620017e483398101604081905262000034916200024a565b81818181600062000046838262000343565b50600162000055828262000343565b506200006791506000905033620000d2565b5050506200009c7f9f2df0fed2c77648de5860a4cc508cd0818c85b8b8a1ab4ceeef8d981c8956a633620000d260201b60201c565b50620000c97f3c11d16cbaffd01df69ce1c404f6340ee057498f5f00246190ea54220576a84833620000d2565b5050506200040f565b60008281526006602090815260408083206001600160a01b038516845290915281205460ff166200017b5760008381526006602090815260408083206001600160a01b03861684529091529020805460ff19166001179055620001323390565b6001600160a01b0316826001600160a01b0316847f2f8788117e7eff1d82e926ec794901d17c78024a50270940304540a733656f0d60405160405180910390a45060016200017f565b5060005b92915050565b634e487b7160e01b600052604160045260246000fd5b600082601f830112620001ad57600080fd5b81516001600160401b0380821115620001ca57620001ca62000185565b604051601f8301601f19908116603f01168101908282118183101715620001f557620001f562000185565b816040528381526020925086838588010111156200021257600080fd5b600091505b8382101562000236578582018301518183018401529082019062000217565b600093810190920192909252949350505050565b600080604083850312156200025e57600080fd5b82516001600160401b03808211156200027657600080fd5b62000284868387016200019b565b935060208501519150808211156200029b57600080fd5b50620002aa858286016200019b565b9150509250929050565b600181811c90821680620002c957607f821691505b602082108103620002ea57634e487b7160e01b600052602260045260246000fd5b50919050565b601f8211156200033e57600081815260208120601f850160051c81016020861015620003195750805b601f850160051c820191505b818110156200033a5782815560010162000325565b5050505b505050565b81516001600160401b038111156200035f576200035f62000185565b6200037781620003708454620002b4565b84620002f0565b602080601f831160018114620003af5760008415620003965750858301515b600019600386901b1c1916600185901b1785556200033a565b600085815260208120601f198616915b82811015620003e057888601518255948401946001909101908401620003bf565b5085821015620003ff5787850151600019600388901b60f8161c191681555b5050505050600190811b01905550565b6113c5806200041f6000396000f3fe608060405234801561001057600080fd5b506004361061014d5760003560e01c806342966c68116100c3578063a22cb4651161007c578063a22cb465146102e2578063b88d4fde146102f5578063c87b56dd14610308578063d53913931461031b578063d547741f14610342578063e985e9c51461035557600080fd5b806342966c68146102865780636352211e1461029957806370a08231146102ac57806391d14854146102bf57806395d89b41146102d2578063a217fddf146102da57600080fd5b8063248a9ca311610115578063248a9ca3146101e2578063282c51f3146102135780632f2ff15d1461023a57806336568abe1461024d57806340c10f191461026057806342842e0e1461027357600080fd5b806301ffc9a71461015257806306fdde031461017a578063081812fc1461018f578063095ea7b3146101ba57806323b872dd146101cf575b600080fd5b610165610160366004611012565b610368565b60405190151581526020015b60405180910390f35b610182610379565b604051610171919061107f565b6101a261019d366004611092565b61040b565b6040516001600160a01b039091168152602001610171565b6101cd6101c83660046110c7565b610434565b005b6101cd6101dd3660046110f1565b610443565b6102056101f0366004611092565b60009081526006602052604090206001015490565b604051908152602001610171565b6102057f3c11d16cbaffd01df69ce1c404f6340ee057498f5f00246190ea54220576a84881565b6101cd61024836600461112d565b6104d3565b6101cd61025b36600461112d565b6104f8565b6101cd61026e3660046110c7565b610530565b6101cd6102813660046110f1565b610564565b6101cd610294366004611092565b61057f565b6101a26102a7366004611092565b6105b2565b6102056102ba366004611159565b6105bd565b6101656102cd36600461112d565b610605565b610182610630565b610205600081565b6101cd6102f0366004611174565b61063f565b6101cd6103033660046111c6565b61064a565b610182610316366004611092565b610662565b6102057f9f2df0fed2c77648de5860a4cc508cd0818c85b8b8a1ab4ceeef8d981c8956a681565b6101cd61035036600461112d565b6106d7565b6101656103633660046112a2565b6106fc565b60006103738261072a565b92915050565b606060008054610388906112cc565b80601f01602080910402602001604051908101604052809291908181526020018280546103b4906112cc565b80156104015780601f106103d657610100808354040283529160200191610401565b820191906000526020600020905b8154815290600101906020018083116103e457829003601f168201915b5050505050905090565b60006104168261074f565b506000828152600460205260409020546001600160a01b0316610373565b61043f828233610788565b5050565b6001600160a01b03821661047257604051633250574960e11b8152600060048201526024015b60405180910390fd5b600061047f838333610795565b9050836001600160a01b0316816001600160a01b0316146104cd576040516364283d7b60e01b81526001600160a01b0380861660048301526024820184905282166044820152606401610469565b50505050565b6000828152600660205260409020600101546104ee8161088e565b6104cd838361089b565b6001600160a01b03811633146105215760405163334bd91960e11b815260040160405180910390fd5b61052b828261092f565b505050565b7f9f2df0fed2c77648de5860a4cc508cd0818c85b8b8a1ab4ceeef8d981c8956a661055a8161088e565b61052b838361099c565b61052b8383836040518060200160405280600081525061064a565b7f3c11d16cbaffd01df69ce1c404f6340ee057498f5f00246190ea54220576a8486105a98161088e565b61043f826109b6565b60006103738261074f565b60006001600160a01b0382166105e9576040516322718ad960e21b815260006004820152602401610469565b506001600160a01b031660009081526003602052604090205490565b60009182526006602090815260408084206001600160a01b0393909316845291905290205460ff1690565b606060018054610388906112cc565b61043f3383836109f1565b610655848484610443565b6104cd3385858585610a90565b606061066d8261074f565b50600061068560408051602081019091526000815290565b905060008151116106a557604051806020016040528060008152506106d0565b806106af84610bbb565b6040516020016106c0929190611306565b6040516020818303038152906040525b9392505050565b6000828152600660205260409020600101546106f28161088e565b6104cd838361092f565b6001600160a01b03918216600090815260056020908152604080832093909416825291909152205460ff1690565b60006001600160e01b03198216637965db0b60e01b1480610373575061037382610c4e565b6000818152600260205260408120546001600160a01b03168061037357604051637e27328960e01b815260048101849052602401610469565b61052b8383836001610c9e565b6000828152600260205260408120546001600160a01b03908116908316156107c2576107c2818486610da4565b6001600160a01b03811615610800576107df600085600080610c9e565b6001600160a01b038116600090815260036020526040902080546000190190555b6001600160a01b0385161561082f576001600160a01b0385166000908152600360205260409020805460010190555b60008481526002602052604080822080546001600160a01b0319166001600160a01b0389811691821790925591518793918516917fddf252ad1be2c89b69c2b068fc378daa952ba7f163c4a11628f55a4df523b3ef91a4949350505050565b6108988133610e08565b50565b60006108a78383610605565b6109275760008381526006602090815260408083206001600160a01b03861684529091529020805460ff191660011790556108df3390565b6001600160a01b0316826001600160a01b0316847f2f8788117e7eff1d82e926ec794901d17c78024a50270940304540a733656f0d60405160405180910390a4506001610373565b506000610373565b600061093b8383610605565b156109275760008381526006602090815260408083206001600160a01b0386168085529252808320805460ff1916905551339286917ff6391f5c32d9c69d2a47ea670b442974b53935d1edc7fd64eb21e047a839171b9190a4506001610373565b61043f828260405180602001604052806000815250610e41565b60006109c56000836000610795565b90506001600160a01b03811661043f57604051637e27328960e01b815260048101839052602401610469565b6001600160a01b038216610a2357604051630b61174360e31b81526001600160a01b0383166004820152602401610469565b6001600160a01b03838116600081815260056020908152604080832094871680845294825291829020805460ff191686151590811790915591519182527f17307eab39ab6107e8899845ad3d59bd9653f200f220920489ca2b5937696c31910160405180910390a3505050565b6001600160a01b0383163b15610bb457604051630a85bd0160e11b81526001600160a01b0384169063150b7a0290610ad2908890889087908790600401611335565b6020604051808303816000875af1925050508015610b0d575060408051601f3d908101601f19168201909252610b0a91810190611372565b60015b610b76573d808015610b3b576040519150601f19603f3d011682016040523d82523d6000602084013e610b40565b606091505b508051600003610b6e57604051633250574960e11b81526001600160a01b0385166004820152602401610469565b805160208201fd5b6001600160e01b03198116630a85bd0160e11b14610bb257604051633250574960e11b81526001600160a01b0385166004820152602401610469565b505b5050505050565b60606000610bc883610e59565b600101905060008167ffffffffffffffff811115610be857610be86111b0565b6040519080825280601f01601f191660200182016040528015610c12576020820181803683370190505b5090508181016020015b600019016f181899199a1a9b1b9c1cb0b131b232b360811b600a86061a8153600a8504945084610c1c57509392505050565b60006001600160e01b031982166380ac58cd60e01b1480610c7f57506001600160e01b03198216635b5e139f60e01b145b8061037357506301ffc9a760e01b6001600160e01b0319831614610373565b8080610cb257506001600160a01b03821615155b15610d74576000610cc28461074f565b90506001600160a01b03831615801590610cee5750826001600160a01b0316816001600160a01b031614155b8015610d015750610cff81846106fc565b155b15610d2a5760405163a9fbf51f60e01b81526001600160a01b0384166004820152602401610469565b8115610d725783856001600160a01b0316826001600160a01b03167f8c5be1e5ebec7d5bd14f71427d1e84f3dd0314c0f7b2291e5b200ac8c7c3b92560405160405180910390a45b505b5050600090815260046020526040902080546001600160a01b0319166001600160a01b0392909216919091179055565b610daf838383610f31565b61052b576001600160a01b038316610ddd57604051637e27328960e01b815260048101829052602401610469565b60405163177e802f60e01b81526001600160a01b038316600482015260248101829052604401610469565b610e128282610605565b61043f5760405163e2517d3f60e01b81526001600160a01b038216600482015260248101839052604401610469565b610e4b8383610f97565b61052b336000858585610a90565b60008072184f03e93ff9f4daa797ed6e38ed64bf6a1f0160401b8310610e985772184f03e93ff9f4daa797ed6e38ed64bf6a1f0160401b830492506040015b6d04ee2d6d415b85acef81000000008310610ec4576d04ee2d6d415b85acef8100000000830492506020015b662386f26fc100008310610ee257662386f26fc10000830492506010015b6305f5e1008310610efa576305f5e100830492506008015b6127108310610f0e57612710830492506004015b60648310610f20576064830492506002015b600a83106103735760010192915050565b60006001600160a01b03831615801590610f8f5750826001600160a01b0316846001600160a01b03161480610f6b5750610f6b84846106fc565b80610f8f57506000828152600460205260409020546001600160a01b038481169116145b949350505050565b6001600160a01b038216610fc157604051633250574960e11b815260006004820152602401610469565b6000610fcf83836000610795565b90506001600160a01b0381161561052b576040516339e3563760e11b815260006004820152602401610469565b6001600160e01b03198116811461089857600080fd5b60006020828403121561102457600080fd5b81356106d081610ffc565b60005b8381101561104a578181015183820152602001611032565b50506000910152565b6000815180845261106b81602086016020860161102f565b601f01601f19169290920160200192915050565b6020815260006106d06020830184611053565b6000602082840312156110a457600080fd5b5035919050565b80356001600160a01b03811681146110c257600080fd5b919050565b600080604083850312156110da57600080fd5b6110e3836110ab565b946020939093013593505050565b60008060006060848603121561110657600080fd5b61110f846110ab565b925061111d602085016110ab565b9150604084013590509250925092565b6000806040838503121561114057600080fd5b82359150611150602084016110ab565b90509250929050565b60006020828403121561116b57600080fd5b6106d0826110ab565b6000806040838503121561118757600080fd5b611190836110ab565b9150602083013580151581146111a557600080fd5b809150509250929050565b634e487b7160e01b600052604160045260246000fd5b600080600080608085870312156111dc57600080fd5b6111e5856110ab565b93506111f3602086016110ab565b925060408501359150606085013567ffffffffffffffff8082111561121757600080fd5b818701915087601f83011261122b57600080fd5b81358181111561123d5761123d6111b0565b604051601f8201601f19908116603f01168101908382118183101715611265576112656111b0565b816040528281528a602084870101111561127e57600080fd5b82602086016020830137600060208483010152809550505050505092959194509250565b600080604083850312156112b557600080fd5b6112be836110ab565b9150611150602084016110ab565b600181811c908216806112e057607f821691505b60208210810361130057634e487b7160e01b600052602260045260246000fd5b50919050565b6000835161131881846020880161102f565b83519083019061132c81836020880161102f565b01949350505050565b6001600160a01b038581168252841660208201526040810183905260806060820181905260009061136890830184611053565b9695505050505050565b60006020828403121561138457600080fd5b81516106d081610ffc56fea2646970667358221220a441f09cc006bf899999ff483d3a4f0bf868b38a68301636314fa794669ecf7364736f6c63430008140033",
  "linkReferences": {},
  "deployedLinkReferences": {}
}