{
  "_format": "hh-sol-artifact-1",
  "contractName": "ERC721_pausable",
  "sourceName": "contracts/__generated__/ERC721_pausable.sol",
  "abi": [
    {
      "inputs": [
        {
          "internalType": "string",
          "name": "name_",
          "type": "string"
        },
        {
          "internalType": "string",
          "name": "symbol_",
          "type": "string"
        }
      ],
      "stateMutability": "nonpayable",
      "type": "constructor"
    },
    {
      "inputs": [],
      "name": "AccessControlBadConfirmation",
      "type": "error"
    },
    {
      "inputs": [
        {
          "internalType": "address",
          "name": "account",
          "type": "address"
        },
        {
          "internalType": "bytes32",
          "name": "neededRole",
          "type": "bytes32"
        }
      ],
      "name": "AccessControlUnauthorizedAccount",
      "type": "error"
    },
    {
      "inputs": [
        {
          "internalType": "address",
          "name": "sender",
          "type": "address"
        },
        {
          "internalType": "uint256",
          "name": "tokenId",
          "type": "uint256"
        },
        {
          "internalType": "address",
          "name": "owner",
          "type": "address"
        }
      ],
      "name": "ERC721IncorrectOwner",
      "type": "error"
    },
    {
      "inputs": [
        {
          "internalType": "address",
          "name": "operator",
          "type": "address"
        },
        {
          "internalType": "uint256",
          "name": "tokenId",
          "type": "uint256"
        }
      ],
      "name": "ERC721InsufficientApproval",
      "type": "error"
    },
    {
      "inputs": [
        {
          "internalType": "address",
          "name": "approver",
          "type": "address"
        }
      ],
      "name": "ERC721InvalidApprover",
      "type": "error"
    },
    {
      "inputs": [
        {
          "internalType": "address",
          "name": "operator",
          "type": "address"
        }
      ],
      "name": "ERC721InvalidOperator",
      "type": "error"
    },
    {
      "inputs": [
        {
          "internalType": "address",
          "name": "owner",
          "type": "address"
        }
      ],
      "name": "ERC721InvalidOwner",
      "type": "error"
    },
    {
      "inputs": [
        {
          "internalType": "address",
          "name": "receiver",
          "type": "address"
        }
      ],
      "name": "ERC721InvalidReceiver",
      "type": "error"
    },
    {
      "inputs": [
        {
          "internalType": "address",
          "name": "sender",
          "type": "address"
        }
      ],
      "name": "ERC721InvalidSender",
      "type": "error"
    },
    {
      "inputs": [
        {
          "internalType": "uint256",
          "name": "tokenId",
          "type": "uint256"
        }
      ],
      "name": "ERC721NonexistentToken",
      "type": "error"
    },
    {
      "inputs": [],
      "name": "EnforcedPause",
      "type": "error"
    },
    {
      "inputs": [],
      "name": "ExpectedPause",
      "type": "error"
    },
    {
      "anonymous": false,
      "inputs": [
        {
          "indexed": true,
          "internalType": "address",
          "name": "owner",
          "type": "address"
        },
        {
          "indexed": true,
          "internalType": "address",
          "name": "approved",
          "type": "address"
        },
        {
          "indexed": true,
          "internalType": "uint256",
          "name": "tokenId",
          "type": "uint256"
        }
      ],
      "name": "Approval",
      "type": "event"
    },
    {
      "anonymous": false,
      "inputs": [
        {
          "indexed": true,
          "internalType": "address",
          "name": "owner",
          "type": "address"
        },
        {
          "indexed": true,
          "internalType": "address",
          "name": "operator",
          "type": "address"
        },
        {
          "indexed": false,
          "internalType": "bool",
          "name": "approved",
          "type": "bool"
        }
      ],
      "name": "ApprovalForAll",
      "type": "event"
    },
    {
      "anonymous": false,
      "inputs": [
        {
          "indexed": false,
          "internalType": "address",
          "name": "account",
          "type": "address"
        }
      ],
      "name": "Paused",
      "type": "event"
    },
    {
      "anonymous": false,
      "inputs": [
        {
          "indexed": true,
          "internalType": "bytes32",
          "name": "role",
          "type": "bytes32"
        },
        {
          "indexed": true,
          "internalType": "bytes32",
          "name": "previousAdminRole",
          "type": "bytes32"
        },
        {
          "indexed": true,
          "internalType": "bytes32",
          "name": "newAdminRole",
          "type": "bytes32"
        }
      ],
      "name": "RoleAdminChanged",
      "type": "event"
    },
    {
      "anonymous": false,
      "inputs": [
        {
          "indexed": true,
          "internalType": "bytes32",
          "name": "role",
          "type": "bytes32"
        },
        {
          "indexed": true,
          "internalType": "address",
          "name": "account",
          "type": "address"
        },
        {
          "indexed": true,
          "internalType": "address",
          "name": "sender",
          "type": "address"
        }
      ],
      "name": "RoleGranted",
      "type": "event"
    },
    {
      "anonymous": false,
      "inputs": [
        {
          "indexed": true,
          "internalType": "bytes32",
          "name": "role",
          "type": "bytes32"
        },
        {
          "indexed": true,
          "internalType": "address",
          "name": "account",
          "type": "address"
        },
        {
          "indexed": true,
          "internalType": "address",
          "name": "sender",
          "type": "address"
        }
      ],
      "name": "RoleRevoked",
      "type": "event"
    },
    {
      "anonymous": false,
      "inputs": [
        {
          "indexed": true,
          "internalType": "address",
          "name": "from",
          "type": "address"
        },
        {
          "indexed": true,
          "internalType": "address",
          "name": "to",
          "type": "address"
        },
        {
          "indexed": true,
          "internalType": "uint256",
          "name": "tokenId",
          "type": "uint256"
        }
      ],
      "name": "Transfer",
      "type": "event"
    },
    {
      "anonymous": false,
      "inputs": [
        {
          "indexed": false,
          "internalType": "address",
          "name": "account",
          "type": "address"
        }
      ],
      "name": "Unpaused",
      "type": "event"
    },
    {
      "inputs": [],
      "name": "DEFAULT_ADMIN_ROLE",
      "outputs": [
        {
          "internalType": "bytes32",
          "name": "",
          "type": "bytes32"
        }
      ],
      "stateMutability": "view",
      "type": "function"
    },
    {
      "inputs": [],
      "name": "PAUSER_ROLE",
      "outputs": [
        {
          "internalType": "bytes32",
          "name": "",
          "type": "bytes32"
        }
      ],
      "stateMutability": "view",
      "type": "function"
    },
    {
      "inputs": [
        {
          "internalType": "address",
          "name": "to",
          "type": "address"
        },
        {
          "internalType": "uint256",
          "name": "tokenId",
          "type": "uint256"
        }
      ],
      "name": "approve",
      "outputs": [],
      "stateMutability": "nonpayable",
      "type": "function"
    },
    {
      "inputs": [
        {
          "internalType": "address",
          "name": "owner",
          "type": "address"
        }
      ],
      "name": "balanceOf",
      "outputs": [
        {
          "internalType": "uint256",
          "name": "",
          "type": "uint256"
        }
      ],
      "stateMutability": "view",
      "type": "function"
    },
    {
      "inputs": [
        {
          "internalType": "uint256",
          "name": "tokenId",
          "type": "uint256"
        }
      ],
      "name": "getApproved",
      "outputs": [
        {
          "internalType": "address",
          "name": "",
          "type": "address"
        }
      ],
      "stateMutability": "view",
      "type": "function"
    },
    {
      "inputs": [
        {
          "internalType": "bytes32",
          "name": "role",
          "type": "bytes32"
        }
      ],
      "name": "getRoleAdmin",
      "outputs": [
        {
          "internalType": "bytes32",
          "name": "",
          "type": "bytes32"
        }
      ],
      "stateMutability": "view",
      "type": "function"
    },
    {
      "inputs": [
        {
          "internalType": "bytes32",
          "name": "role",
          "type": "bytes32"
        },
        {
          "internalType": "address",
          "name": "account",
          "type": "address"
        }
      ],
      "name": "grantRole",
      "outputs": [],
      "stateMutability": "nonpayable",
      "type": "function"
    },
    {
      "inputs": [
        {
          "internalType": "bytes32",
          "name": "role",
          "type": "bytes32"
        },
        {
          "internalType": "address",
          "name": "account",
          "type": "address"
        }
      ],
      "name": "hasRole",
      "outputs": [
        {
          "internalType": "bool",
          "name": "",
          "type": "bool"
        }
      ],
      "stateMutability": "view",
      "type": "function"
    },
    {
      "inputs": [
        {
          "internalType": "address",
          "name": "owner",
          "type": "address"
        },
        {
          "internalType": "address",
          "name": "operator",
          "type": "address"
        }
      ],
      "name": "isApprovedForAll",
      "outputs": [
        {
          "internalType": "bool",
          "name": "",
          "type": "bool"
        }
      ],
      "stateMutability": "view",
      "type": "function"
    },
    {
      "inputs": [],
      "name": "name",
      "outputs": [
        {
          "internalType": "string",
          "name": "",
          "type": "string"
        }
      ],
      "stateMutability": "view",
      "type": "function"
    },
    {
      "inputs": [
        {
          "internalType": "uint256",
          "name": "tokenId",
          "type": "uint256"
        }
      ],
      "name": "ownerOf",
      "outputs": [
        {
          "internalType": "address",
          "name": "",
          "type": "address"
        }
      ],
      "stateMutability": "view",
      "type": "function"
    },
    {
      "inputs": [],
      "name": "pause",
      "outputs": [],
      "stateMutability": "nonpayable",
      "type": "function"
    },
    {
      "inputs": [],
      "name": "paused",
      "outputs": [
        {
          "internalType": "bool",
          "name": "",
          "type": "bool"
        }
      ],
      "stateMutability": "view",
      "type": "function"
    },
    {
      "inputs": [
        {
          "internalType": "bytes32",
          "name": "role",
          "type": "bytes32"
        },
        {
          "internalType": "address",
          "name": "callerConfirmation",
          "type": "address"
        }
      ],
      "name": "renounceRole",
      "outputs": [],
      "stateMutability": "nonpayable",
      "type": "function"
    },
    {
      "inputs": [
        {
          "internalType": "bytes32",
          "name": "role",
          "type": "bytes32"
        },
        {
          "internalType": "address",
          "name": "account",
          "type": "address"
        }
      ],
      "name": "revokeRole",
      "outputs": [],
      "stateMutability": "nonpayable",
      "type": "function"
    },
    {
      "inputs": [
        {
          "internalType": "address",
          "name": "from",
          "type": "address"
        },
        {
          "internalType": "address",
          "name": "to",
          "type": "address"
        },
        {
          "internalType": "uint256",
          "name": "tokenId",
          "type": "uint256"
        }
      ],
      "name": "safeTransferFrom",
      "outputs": [],
      "stateMutability": "nonpayable",
      "type": "function"
    },
    {
      "inputs": [
        {
          "internalType": "address",
          "name": "from",
          "type": "address"
        },
        {
          "internalType": "address",
          "name": "to",
          "type": "address"
        },
        {
          "internalType": "uint256",
          "name": "tokenId",
          "type": "uint256"
        },
        {
          "internalType": "bytes",
          "name": "data",
          "type": "bytes"
        }
      ],
      "name": "safeTransferFrom",
      "outputs": [],
      "stateMutability": "nonpayable",
      "type": "function"
    },
    {
      "inputs": [
        {
          "internalType": "address",
          "name": "operator",
          "type": "address"
        },
        {
          "internalType": "bool",
          "name": "approved",
          "type": "bool"
        }
      ],
      "name": "setApprovalForAll",
      "outputs": [],
      "stateMutability": "nonpayable",
      "type": "function"
    },
    {
      "inputs": [
        {
          "internalType": "bytes4",
          "name": "interfaceId",
          "type": "bytes4"
        }
      ],
      "name": "supportsInterface",
      "outputs": [
        {
          "internalType": "bool",
          "name": "",
          "type": "bool"
        }
      ],
      "stateMutability": "view",
      "type": "function"
    },
    {
      "inputs": [],
      "name": "symbol",
      "outputs": [
        {
          "internalType": "string",
          "name": "",
          "type": "string"
        }
      ],
      "stateMutability": "view",
      "type": "function"
    },
    {
      "inputs": [
        {
          "internalType": "uint256",
          "name": "tokenId",
          "type": "uint256"
        }
      ],
      "name": "tokenURI",
      "outputs": [
        {
          "internalType": "string",
          "name": "",
          "type": "string"
        }
      ],
      "stateMutability": "view",
      "type": "function"
    },
    {
      "inputs": [
        {
          "internalType": "address",
          "name": "from",
          "type": "address"
        },
        {
          "internalType": "address",
          "name": "to",
          "type": "address"
        },
        {
          "internalType": "uint256",
          "name": "tokenId",
          "type": "uint256"
        }
      ],
      "name": "transferFrom",
      "outputs": [],
      "stateMutability": "nonpayable",
      "type": "function"
    },
    {
      "inputs": [],
      "name": "unpause",
      "outputs": [],
      "stateMutability": "nonpayable",
      "type": "function"
    }
  ],
  "bytecode": "0x60806040523480156200001157600080fd5b50604051620017e6380380620017e683398101604081905262000034916200021d565b81818181600062000046838262000316565b50600162000055828262000316565b506200006791506000905033620000a5565b5050506200009c7f65d7a28e3265b37a6474929f336521b332c1681b933f6cb9f3376673440d862a33620000a560201b60201c565b505050620003e2565b60008281526006602090815260408083206001600160a01b038516845290915281205460ff166200014e5760008381526006602090815260408083206001600160a01b03861684529091529020805460ff19166001179055620001053390565b6001600160a01b0316826001600160a01b0316847f2f8788117e7eff1d82e926ec794901d17c78024a50270940304540a733656f0d60405160405180910390a450600162000152565b5060005b92915050565b634e487b7160e01b600052604160045260246000fd5b600082601f8301126200018057600080fd5b81516001600160401b03808211156200019d576200019d62000158565b604051601f8301601f19908116603f01168101908282118183101715620001c857620001c862000158565b81604052838152602092508683858801011115620001e557600080fd5b600091505b83821015620002095785820183015181830184015290820190620001ea565b600093810190920192909252949350505050565b600080604083850312156200023157600080fd5b82516001600160401b03808211156200024957600080fd5b62000257868387016200016e565b935060208501519150808211156200026e57600080fd5b506200027d858286016200016e565b9150509250929050565b600181811c908216806200029c57607f821691505b602082108103620002bd57634e487b7160e01b600052602260045260246000fd5b50919050565b601f8211156200031157600081815260208120601f850160051c81016020861015620002ec5750805b601f850160051c820191505b818110156200030d57828155600101620002f8565b5050505b505050565b81516001600160401b0381111562000332576200033262000158565b6200034a8162000343845462000287565b84620002c3565b602080601f831160018114620003825760008415620003695750858301515b600019600386901b1c1916600185901b1785556200030d565b600085815260208120601f198616915b82811015620003b35788860151825594840194600190910190840162000392565b5085821015620003d25787850151600019600388901b60f8161c191681555b5050505050600190811b01905550565b6113f480620003f26000396000f3fe608060405234801561001057600080fd5b506004361061014d5760003560e01c80636352211e116100c3578063a22cb4651161007c578063a22cb465146102b0578063b88d4fde146102c3578063c87b56dd146102d6578063d547741f146102e9578063e63ab1e9146102fc578063e985e9c51461032357600080fd5b80636352211e1461025f57806370a08231146102725780638456cb591461028557806391d148541461028d57806395d89b41146102a0578063a217fddf146102a857600080fd5b8063248a9ca311610115578063248a9ca3146101e25780632f2ff15d1461021357806336568abe146102265780633f4ba83a1461023957806342842e0e146102415780635c975abb1461025457600080fd5b806301ffc9a71461015257806306fdde031461017a578063081812fc1461018f578063095ea7b3146101ba57806323b872dd146101cf575b600080fd5b610165610160366004611041565b610336565b60405190151581526020015b60405180910390f35b610182610347565b60405161017191906110ae565b6101a261019d3660046110c1565b6103d9565b6040516001600160a01b039091168152602001610171565b6101cd6101c83660046110f6565b610402565b005b6101cd6101dd366004611120565b610411565b6102056101f03660046110c1565b60009081526006602052604090206001015490565b604051908152602001610171565b6101cd61022136600461115c565b6104a1565b6101cd61023436600461115c565b6104c6565b6101cd6104fe565b6101cd61024f366004611120565b610533565b60075460ff16610165565b6101a261026d3660046110c1565b61054e565b610205610280366004611188565b610559565b6101cd6105a1565b61016561029b36600461115c565b6105d3565b6101826105fe565b610205600081565b6101cd6102be3660046111a3565b61060d565b6101cd6102d13660046111f5565b610618565b6101826102e43660046110c1565b610630565b6101cd6102f736600461115c565b6106a5565b6102057f65d7a28e3265b37a6474929f336521b332c1681b933f6cb9f3376673440d862a81565b6101656103313660046112d1565b6106ca565b6000610341826106f8565b92915050565b606060008054610356906112fb565b80601f0160208091040260200160405190810160405280929190818152602001828054610382906112fb565b80156103cf5780601f106103a4576101008083540402835291602001916103cf565b820191906000526020600020905b8154815290600101906020018083116103b257829003601f168201915b5050505050905090565b60006103e48261071d565b506000828152600460205260409020546001600160a01b0316610341565b61040d828233610756565b5050565b6001600160a01b03821661044057604051633250574960e11b8152600060048201526024015b60405180910390fd5b600061044d838333610763565b9050836001600160a01b0316816001600160a01b03161461049b576040516364283d7b60e01b81526001600160a01b0380861660048301526024820184905282166044820152606401610437565b50505050565b6000828152600660205260409020600101546104bc816107c4565b61049b83836107ce565b6001600160a01b03811633146104ef5760405163334bd91960e11b815260040160405180910390fd5b6104f98282610862565b505050565b7f65d7a28e3265b37a6474929f336521b332c1681b933f6cb9f3376673440d862a610528816107c4565b6105306108cf565b50565b6104f983838360405180602001604052806000815250610618565b60006103418261071d565b60006001600160a01b038216610585576040516322718ad960e21b815260006004820152602401610437565b506001600160a01b031660009081526003602052604090205490565b7f65d7a28e3265b37a6474929f336521b332c1681b933f6cb9f3376673440d862a6105cb816107c4565b610530610921565b60009182526006602090815260408084206001600160a01b0393909316845291905290205460ff1690565b606060018054610356906112fb565b61040d33838361095e565b610623848484610411565b61049b33858585856109fd565b606061063b8261071d565b50600061065360408051602081019091526000815290565b90506000815111610673576040518060200160405280600081525061069e565b8061067d84610b28565b60405160200161068e929190611335565b6040516020818303038152906040525b9392505050565b6000828152600660205260409020600101546106c0816107c4565b61049b8383610862565b6001600160a01b03918216600090815260056020908152604080832093909416825291909152205460ff1690565b60006001600160e01b03198216637965db0b60e01b1480610341575061034182610bbb565b6000818152600260205260408120546001600160a01b03168061034157604051637e27328960e01b815260048101849052602401610437565b6104f98383836001610c0b565b600061077160075460ff1690565b156107b15760405162461bcd60e51b815260206004820152601060248201526f14185d5cd8589b194e881c185d5cd95960821b6044820152606401610437565b6107bc848484610d11565b949350505050565b6105308133610e0a565b60006107da83836105d3565b61085a5760008381526006602090815260408083206001600160a01b03861684529091529020805460ff191660011790556108123390565b6001600160a01b0316826001600160a01b0316847f2f8788117e7eff1d82e926ec794901d17c78024a50270940304540a733656f0d60405160405180910390a4506001610341565b506000610341565b600061086e83836105d3565b1561085a5760008381526006602090815260408083206001600160a01b0386168085529252808320805460ff1916905551339286917ff6391f5c32d9c69d2a47ea670b442974b53935d1edc7fd64eb21e047a839171b9190a4506001610341565b6108d7610e43565b6007805460ff191690557f5db9ee0a495bf2e6ff9c91a7834c1ba4fdd244a5e8aa4e537bd38aeae4b073aa335b6040516001600160a01b03909116815260200160405180910390a1565b610929610e68565b6007805460ff191660011790557f62e78cea01bee320cd4e420270b5ea74000d11b0c9f74754ebdbfc544b05a2586109043390565b6001600160a01b03821661099057604051630b61174360e31b81526001600160a01b0383166004820152602401610437565b6001600160a01b03838116600081815260056020908152604080832094871680845294825291829020805460ff191686151590811790915591519182527f17307eab39ab6107e8899845ad3d59bd9653f200f220920489ca2b5937696c31910160405180910390a3505050565b6001600160a01b0383163b15610b2157604051630a85bd0160e11b81526001600160a01b0384169063150b7a0290610a3f908890889087908790600401611364565b6020604051808303816000875af1925050508015610a7a575060408051601f3d908101601f19168201909252610a77918101906113a1565b60015b610ae3573d808015610aa8576040519150601f19603f3d011682016040523d82523d6000602084013e610aad565b606091505b508051600003610adb57604051633250574960e11b81526001600160a01b0385166004820152602401610437565b805160208201fd5b6001600160e01b03198116630a85bd0160e11b14610b1f57604051633250574960e11b81526001600160a01b0385166004820152602401610437565b505b5050505050565b60606000610b3583610e8c565b600101905060008167ffffffffffffffff811115610b5557610b556111df565b6040519080825280601f01601f191660200182016040528015610b7f576020820181803683370190505b5090508181016020015b600019016f181899199a1a9b1b9c1cb0b131b232b360811b600a86061a8153600a8504945084610b8957509392505050565b60006001600160e01b031982166380ac58cd60e01b1480610bec57506001600160e01b03198216635b5e139f60e01b145b8061034157506301ffc9a760e01b6001600160e01b0319831614610341565b8080610c1f57506001600160a01b03821615155b15610ce1576000610c2f8461071d565b90506001600160a01b03831615801590610c5b5750826001600160a01b0316816001600160a01b031614155b8015610c6e5750610c6c81846106ca565b155b15610c975760405163a9fbf51f60e01b81526001600160a01b0384166004820152602401610437565b8115610cdf5783856001600160a01b0316826001600160a01b03167f8c5be1e5ebec7d5bd14f71427d1e84f3dd0314c0f7b2291e5b200ac8c7c3b92560405160405180910390a45b505b5050600090815260046020526040902080546001600160a01b0319166001600160a01b0392909216919091179055565b6000828152600260205260408120546001600160a01b0390811690831615610d3e57610d3e818486610f64565b6001600160a01b03811615610d7c57610d5b600085600080610c0b565b6001600160a01b038116600090815260036020526040902080546000190190555b6001600160a01b03851615610dab576001600160a01b0385166000908152600360205260409020805460010190555b60008481526002602052604080822080546001600160a01b0319166001600160a01b0389811691821790925591518793918516917fddf252ad1be2c89b69c2b068fc378daa952ba7f163c4a11628f55a4df523b3ef91a4949350505050565b610e1482826105d3565b61040d5760405163e2517d3f60e01b81526001600160a01b038216600482015260248101839052604401610437565b60075460ff16610e6657604051638dfc202b60e01b815260040160405180910390fd5b565b60075460ff1615610e665760405163d93c066560e01b815260040160405180910390fd5b60008072184f03e93ff9f4daa797ed6e38ed64bf6a1f0160401b8310610ecb5772184f03e93ff9f4daa797ed6e38ed64bf6a1f0160401b830492506040015b6d04ee2d6d415b85acef81000000008310610ef7576d04ee2d6d415b85acef8100000000830492506020015b662386f26fc100008310610f1557662386f26fc10000830492506010015b6305f5e1008310610f2d576305f5e100830492506008015b6127108310610f4157612710830492506004015b60648310610f53576064830492506002015b600a83106103415760010192915050565b610f6f838383610fc8565b6104f9576001600160a01b038316610f9d57604051637e27328960e01b815260048101829052602401610437565b60405163177e802f60e01b81526001600160a01b038316600482015260248101829052604401610437565b60006001600160a01b038316158015906107bc5750826001600160a01b0316846001600160a01b03161480611002575061100284846106ca565b806107bc5750506000908152600460205260409020546001600160a01b03908116911614919050565b6001600160e01b03198116811461053057600080fd5b60006020828403121561105357600080fd5b813561069e8161102b565b60005b83811015611079578181015183820152602001611061565b50506000910152565b6000815180845261109a81602086016020860161105e565b601f01601f19169290920160200192915050565b60208152600061069e6020830184611082565b6000602082840312156110d357600080fd5b5035919050565b80356001600160a01b03811681146110f157600080fd5b919050565b6000806040838503121561110957600080fd5b611112836110da565b946020939093013593505050565b60008060006060848603121561113557600080fd5b61113e846110da565b925061114c602085016110da565b9150604084013590509250925092565b6000806040838503121561116f57600080fd5b8235915061117f602084016110da565b90509250929050565b60006020828403121561119a57600080fd5b61069e826110da565b600080604083850312156111b657600080fd5b6111bf836110da565b9150602083013580151581146111d457600080fd5b809150509250929050565b634e487b7160e01b600052604160045260246000fd5b6000806000806080858703121561120b57600080fd5b611214856110da565b9350611222602086016110da565b925060408501359150606085013567ffffffffffffffff8082111561124657600080fd5b818701915087601f83011261125a57600080fd5b81358181111561126c5761126c6111df565b604051601f8201601f19908116603f01168101908382118183101715611294576112946111df565b816040528281528a60208487010111156112ad57600080fd5b82602086016020830137600060208483010152809550505050505092959194509250565b600080604083850312156112e457600080fd5b6112ed836110da565b915061117f602084016110da565b600181811c9082168061130f57607f821691505b60208210810361132f57634e487b7160e01b600052602260045260246000fd5b50919050565b6000835161134781846020880161105e565b83519083019061135b81836020880161105e565b01949350505050565b6001600160a01b038581168252841660208201526040810183905260806060820181905260009061139790830184611082565b9695505050505050565b6000602082840312156113b357600080fd5b815161069e8161102b56fea2646970667358221220495312a49a0aa0e7c6d5b8f4d97bbef56c82dca73dcee5236d3395c7693c575564736f6c63430008140033",
  "linkReferences": {},
  "deployedLinkReferences": {}
}